:020000021000EC
:10800000004000209D060200D9060200DB060200A7
:108010000000000000000000000000000000000060
:10802000000000000000000000000000DD0602006B
:108030000000000000000000DF060200E106020070
:10804000E306020011B4010049030200E306020046
:10805000E3060200000000009D040200E3060200A7
:10806000E3060200B1FE01000D040200E306020077
:10807000E3060200E3060200E3060200E306020054
:10808000E3060200E3060200E3060200E306020044
:10809000E30602001DF9010049FB0100E3060200AE
:1080A000E3060200E30602000000000000000000FA
:1080B00000000000000000000000000000000000C0
:1080C00010B5064C2378002B07D1054B002B02D0AE
:1080D000044800E000BF0123237010BD20220020CF
:1080E0000000000040B10200044B10B5002B03D08B
:1080F0000349044800E000BF10BDC0460000000076
:108100002422002040B10200164B002B00D1144B5A
:108110009D46402292029A1A924600218B460F46B3
:108120001348144A121A11F0F4FC0F4B002B00D024
:1081300098470E4B002B00D09847002000210400E8
:108140000D000D48002802D00C4800E000BF0CF0E4
:1081500017FE2000290011F0A7F80CF0FBFDC04627
:1081600000000800004000200000000000000000A7
:1081700018220020C82A0020000000000000000093
:1081800010B50400034B036040300DF088FE200062
:1081900010BDC046B89D0200F7B545686A462B0081
:1081A0000833DB08DB00D31A00AF9D460168684640
:1081B00011F0EFFC6B466C467B607B68E31A9D42D6
:1081C0001ADD23782E2B0DD10C4E0121300003F047
:1081D00085F8FA2000F0DAFF0021300003F07EF885
:1081E0000134EAE72D2BFBD1044E0121300003F0CE
:1081F00075F8FA204000EDE7BD46F7BD44220020A7
:10820000F0B5684899B000F0E3FB1C2001F000F9DC
:10821000079000F081F90EAB0C9300230CAA0D938C
:10822000137201F0BDF900231C00089009935E4809
:108230000EF01EF900280ED001F0B2F90899099A43
:1082400000230A900B930A9B0B9C5B1A94410493A6
:1082500005940124EBE7002C2FD0049C059D65229A
:108260005242D317A4185D4102940395039B002B3F
:108270005DD12B33029AFF339A4258D84B4912A84A
:108280000DF0D8FE039B4A4C12A9019300931A00EB
:10829000200002F0D5FC12A80DF0BFFE2E210CA884
:1082A00011F0B5FBAF20800000F070FF20000EF051
:1082B000FCFA01F075F900270600089A099B921B49
:1082C000BB411100002B02D13A4B9942A9D933008E
:1082D0003B43A6D00CA912A811F0C5FB12A9079820
:1082E0000DF057FB040012A811F0EAFA21000798DC
:1082F0000DF013FB0799020012A800F0EDF812A987
:108300000CA811F05FFB12A811F0DAFA0CA912A860
:1083100011F0A9FB12A8FFF73FFF12A811F0D0FA45
:1083200000230C9A0D9300261370002779E701258E
:10833000049A059B204C6D42A4185D41029403955C
:10834000039B002B16D1F333029AFF339A4211D8C4
:108350001A4912A80DF06EFE039B154C12A9019349
:1083600000931A00200002F06BFC12A80DF055FEDD
:108370002D2194E7059B002B04D1E123049A9B0057
:108380009A4296D90E4912A801F04EF9C822084C1B
:10839000520012A9200002F01DFC12A80DF07FFD72
:1083A00080E7C0467C22002054220020402200208A
:1083B00068230020DC0500006FFEFFFF3C22002048
:1083C0003EAA020073B51D4D280000F041FA1C4C76
:1083D0001C492200280011F087F91B4D1B49280079
:1083E00001F0FCF91A4E22003100280011F07CF94E
:1083F000184D1949280001F0F1F931002200280038
:1084000011F072F90023154D009301331A00112168
:10841000280001F08BFD22001149280011F064F9B9
:10842000104D0F2328000222082102F00BFF280024
:1084300022000D4911F058F973BDC0467C2200207E
:10844000002000206D84010040220020D0A90200FD
:108450001B6002003C22002005AA020054220020DA
:10846000159F010044220020A9580200EB23194A5D
:108470009B0010B5C2501C330400C0180DF00FFD56
:10848000F1239B00E0180DF00AFD84239B00E01807
:1084900001F07AFD2000C530FF3001F099FA20008C
:1084A0008D30FF3001F036FD20006530FF3001F0E7
:1084B00031FD2000EC3002F009FA2000D03002F04B
:1084C000ABFD2000643007F051FB201DFFF758FE84
:1084D000200010BDBC9F020070B50C000D490500C6
:1084E00016000DF0F1F9E368A361A169231D99421B
:1084F00008D00B0028331B78B34205D11031280077
:1085000011F0FAF9280070BD200018300DF0FDF9C7
:10851000EBE7C0463EAA020070B5A84CA849A544A6
:10852000040068460DF0D0F941236A46A549137648
:1085300007A80DF0C9F942220DAB1A70A2490EA886
:108540000DF0C2F9432214AB1A70A04915A80DF022
:10855000BBF944221BAB1A709D491CA80DF0B4F95D
:10856000452222AB1A709B4923A80DF0ADF9462293
:1085700029AB1A7098492AA80DF0A6F9472230AB0A
:108580001A70964931A80DF09FF9482237AB1A703E
:10859000934938A80DF098F949223EAB1A709149D9
:1085A0003FA80DF091F9FF234A226B445A758E497A
:1085B00046A80DF089F998234B2269465B00CA54FE
:1085C0004DA88A490DF080F9A6234C2269465B002C
:1085D000CA5454A886490DF077F9B4234D22694650
:1085E0005B00CA545BA883490DF06EF9C2234E228A
:1085F00069465B00CA5462A87F490DF065F9D02333
:108600004F2269465B00CA5469A87C490DF05CF9A9
:10861000DE23502269465B00CA5470A878490DF0E9
:1086200053F9EC23512269465B00CA5477A8754977
:108630000DF04AF9FA23522269465B00CA547EA81B
:1086400071490DF041F98423532269469B00CA54B5
:1086500085A86E490DF038F98B23542269469B009A
:10866000CA548CA86A490DF02FF992235522694605
:108670009B00CA5493A867490DF026F99923562206
:1086800069469B00CA549AA863490DF01DF9A023BE
:10869000572269469B00CA54A1A860490DF014F9FD
:1086A000A723582269469B00CA54A8A85C490DF02C
:1086B0000BF9AE23592269469B00CA54AFA8594909
:1086C0000DF002F9B5235A2269469B00CA54B6A898
:1086D00055490DF0F9F8BC23312269469B00CA5474
:1086E000BDA852490DF0F0F8C323322269469B0021
:1086F000CA54C4A84E490DF0E7F8CA23332269468C
:108700009B00CA54CBA84B490DF0DEF8D12334228C
:1087100069469B00CA54D2A847490DF0D5F8D82322
:10872000362269469B00CA54D9A844490DF0CCF8BA
:10873000DF23352269469B00CA54E0A840490DF06A
:10874000C3F8E623372269469B00CA54E7A83D498F
:108750000DF0BAF8ED23382269469B00CA54EEA802
:1087600039490DF0B1F8F423392269469B00CA5407
:10877000F5A836490DF0A8F8FB23302269469B0086
:10878000CA540023221D1C26E26022612371A360CB
:108790006361FCAA20000DF053F97642F5AD6E44FA
:1087A00028001C3D11F08CF8B542F9D100232000BF
:1087B000A361FC239B009D4470BDC04610FCFFFFDD
:1087C00056AA020088AA020040AA02008FAA02004C
:1087D00097AA020045AA020095AA02007CAA0200FC
:1087E00090AA02006AAA020055AA02004AAA020040
:1087F0009CAA020096AA02009BAA02004FAA0200AD
:1088000054AA020041AA020089AA02009DAA0200FD
:108810005AAA020076AA02005FAA020059AA020020
:108820005EAA02008EAA020063AA020069AA0200E0
:108830006FAA020075AA02007BAA020081AA0200A8
:1088400087AA02008DAA020093AA020099AA020038
:108850001423F0B5040095B00093192218210430B8
:1088600002F026FE220027006432B43713211000E4
:10887000119207F087F938000EF05EFB2200B83243
:1088800010921E21002210980EF014F82000D03013
:1088900002F0E2FB2200EC3212920621494A1298C1
:1088A00002F038F820000026012365301A000096F7
:1088B0001121FF3001F03AFB20008D30009601239A
:1088C00002221A21FF3001F031FB25002000C535BE
:1088D000B530FF351A2302220121FF3002F07AFC65
:1088E000109904233A22280001F022F984229200F0
:1088F000A218139205231D22019300923B002A0027
:108900001099139801F036FD96229200129BA01840
:1089100013992A0001F008FF99229200A01839004B
:108920001C2202F0F1FE19239F220F93013B0E93AC
:10893000013B0D93013B0C93013B0B93013B0A93CD
:10894000013B0993013B0893013B0793013B0693CD
:10895000013B0593013B0493013B0393013B0293CD
:10896000013B01939200013BA01800930822013BB8
:1089700007210DF0A7FFEB239B00E018390003F05F
:1089800063FAF3239B00E0181D2102F0DDFCFD23B8
:108990009B00E65011982670032110F0B5FB2300D0
:1089A0002200200008499C33A0321C6011605660F0
:1089B000064A80305A610221012207F021FE200080
:1089C00015B0F0BDC09D0200ED5A0200D75A02005A
:1089D0000123F0B5067889B004001E4000D0ADE058
:1089E000FD20800500F0DCFC2300D033180002934A
:1089F00000F0B0FA00F0A6F9282000F009FD05000B
:108A000010300DF0DDFA4E4B18202B6000F000FD09
:108A100007004C4B0460082231000C300693079687
:108A200011F077F806A9381D082211F056F8464BC8
:108A300029007B611223AF60EE60AB802E626E6214
:108A4000029802F081FA002805D028000DF0DDF927
:108A5000280000F0FDFC01232278642013432370DA
:108A600000F094FB002523006533FF3318000393C7
:108A70000DF0FEFC00283CD020008D30FF300DF0C2
:108A8000F7FC002835D00A2D33D06420013500F0E2
:108A90007DFB0A2DE7D12D492D4800F057FCFD271D
:108AA000EB23BF009B00E618E359002B1AD100F01E
:108AB0005DF8010004A800F0B7FD05A80DF088F8E6
:108AC000012305AA04A900933000029B03F010FAC9
:108AD00005A80DF0E4F904A80DF0E1F9ED239B00E1
:108AE000E358E3512100039AEC31300003F0A6FB78
:108AF000B9E7FD2515491648AD0000F027FC665979
:108B0000002E1BD100F032F8010004A800F08CFD0B
:108B100005A80DF05DF8EB239B00E01805AA029B69
:108B200004A9009603F0E4F905A80DF0B8F904A82B
:108B30000DF0B5F9ED239B00E358635109B0F0BD8A
:108B4000FD0300005F5B02001F5B020000200020AD
:108B5000001C0020BFF34F8F024B034ADA60BFF3C3
:108B60004F8FFEE700ED00E00400FA05F0B58DB090
:108B700005AF19221549380010F0AFFF0022144B41
:108B800005245A7180225205566E01222500019457
:108B9000029203930199300007F0D0FE0800029979
:108BA00007F046FE019B03996B430193029B361A23
:108BB0006B430293631E2C1B6C433C19225C1C1EEE
:108BC000CA54E7D108000DB0F0BDC046D5AA0200D6
:108BD000F6290020F0B597B018220021060010A851
:108BE00010F097FF132110A810F0CDFB032110A85F
:108BF00010F098FC4C4B1B68002B00D10133DBB20A
:108C000002934A4A012300210BA807F033FC484B8A
:108C10009E4200D9002672B6464B64211D68464B21
:108C200030000793052407F08DFE6043503028186C
:108C300008900A21300007F085FE0A2107F068FF3E
:108C4000614350316918099130000A2107F060FF33
:108C5000802361430024503169189B010A910193DC
:108C6000029B002B5DD0002500272E1F07AB9B1910
:108C70000593032C03D1802300249B01019307ABB0
:108C80005B592E4A03936300D31804930023190001
:108C900006205843049A16187678B4466246039E16
:108CA000B25C10269446049A105C62460641164255
:108CB00002D00120984001430133092BE8D1C94378
:108CC0001F4B059A090119401268039B934225D155
:108CD000312F23DC00210BA810F0FCFCFA23159A9D
:108CE0001199DB00106801421BD0013B002BF9D128
:108CF000019B01345B000193FA230137E4B25B006E
:108D00009F42B6D10435102DAED1074B1B68002B06
:108D1000A6D0029F013FFBB20293A1E7019B19433A
:108D2000D9E7FFF717FFC04678260020F0FF0000C4
:108D3000E70300000420002024AB0200EEAA02009A
:108D4000F01F0000F8B50023124C23600CF061FF07
:108D5000002808D0042120000CF057FF002801D083
:108D60000D4B2360F8BD0122A12704250B4B0C49B4
:108D70001A602268FF0048604E68002EFCD0DE5961
:108D80001202013D3243002DF5D1226001225A60CA
:108D9000E8E7C04674260020ED5EBC0B00D0004022
:108DA000FCD00040F0B585B01F000AAB1B88060060
:108DB000029115000393002F1CD0282000F028FBFF
:108DC0006B4604001989039BAAB200933B000DF087
:108DD00005F8336821005B683000984700280AD006
:108DE000002C05D020000DF010F8200000F030FB22
:108DF000024800E0024805B0F0BDC04616FCFFFF87
:108E000017FCFFFF0B4B70B51C68002C10D0656D74
:108E100000F0C6FBA36C002901D1834206D82000D4
:108E20000CF02AFF044920000CF014FF2C00ECE7A2
:108E300070BDC04680260020A0260020F0B593B06B
:108E400007932A4B04AC1E68049005910692002EED
:108E50004AD0274B258867881C6800230293002C82
:108E60002ED0636D23480393A36C9AB2A36C1B0CA2
:108E700099B2854214D12048824211D1002B01D0F1
:108E8000B9420BD1029B002B08D120000CF0F4FE5C
:108E90001A4920000CF0DEFE01230293039CDEE75A
:108EA000002A01D09542F9D1002B01D0B942F5D169
:108EB00020000CF0E1FE114920000CF0CBFEEDE7A4
:108EC0000F4BEB18012B0FD910233A000093290008
:108ED0000C4B08A80CF082FF336808A99B6830008F
:108EE000984708A80CF091FF13B0F0BD7C26002035
:108EF000AC260020FE030000FF030000A026002097
:108F000002FCFFFF3D8E010010B572B60B4B1C68D2
:108F1000002C08D020000CF0AFFE0023E364084BC7
:108F20002000E36310BD62B65C2000F071FA5C22A1
:108F30000021040010F0EDFDEFE7C046A42600205C
:108F400000400020024B1878012318407047C046AB
:108F5000FC290020F7B50600FFF7F4FF051E33D10A
:108F60001A4C2660FFF7D0FF194B1A4918600CF015
:108F700071FEFFF7C9FF184B1860184B4363184B7D
:108F80008363206800280ED0C027164E2A003300C5
:108F900015490097FFF706FF009733002A00134991
:108FA0002068FFF7FFFE0C2000F032FA00238380D8
:108FB00083710F4B03600F4B836000F009FB0123AB
:108FC0000D4A11780B431370F7BDC0467C26002074
:108FD000B0260020A0260020A8260020FC3F00206C
:108FE0003F5D02003D8E0100FF030000FE03000014
:108FF000E09D0200058E0100FC290020F7B5060067
:109000000D0017000193002802D100242000FEBDAE
:109010000029FAD0FFF778FF041EF6D0074B019A1B
:109020004363066045608760054B002A00D0054B0E
:10903000A363054920000CF00DFEE7E7FC3F00208C
:10904000095D0200275D0200A0260020024B18687F
:10905000434258417047C046A0260020002310B567
:1090600004499C006258002A01D00133F9E760509E
:10907000100010BD88260020002310B5044A990076
:109080008C58844201D00133F9E70020885010BD8C
:109090008826002010B50024084BA200D0580028D4
:1090A00002D003685B6898470134062CF4D1044B66
:1090B0001B68002B00D120BF10BDC04688260020B1
:1090C000A0260020F8B5FFF73DFF00281BD0294D52
:1090D0002C68E36CDA0717D502263343E3640423D4
:1090E000254F3868C26C1343C364636BC3630CF0D1
:1090F000E9FD3868416C03F09EFC2868C36C33427C
:1091000001D003F0D2FCF8BD1C4F1D4E3A68316807
:10911000002A1ED129602A688A4208D11B0706D579
:109120002C60FFF7B7FF3B68002BFAD02B60296853
:109130008C42E8D03368994214D1124B4B63124BE6
:109140008B6320000CF0BEFD2968626C4B6C200024
:109150000DE0206DB84203D1606D002800D0020000
:109160002A60D8E79C42ECD1002210004B6C03F03F
:1091700021FCC8E7B026002084260020A02600207D
:10918000A8260020FC3F00203F5D020070B50500CE
:10919000FFF7D8FE002803D1280010F0B7F970BD02
:1091A0000C4B1C68E36CDB0706D5FFF7ADFE0A4BE2
:1091B0001860002800D0040000F0F2F92D18A56412
:1091C00020000CF059FD054920000CF043FDFFF78D
:1091D00079FFE4E7B02600208426002080260020C6
:1091E000F0B51E4B1E4F1C683B6885B0060003910E
:1091F000002B30D0FFF7A6FE00282CD0E36CDB0755
:109200000ED5FFF781FE174B051E186008D00CF035
:1092100033FD154928000CF01DFD2C00FFF752FF0F
:10922000039B20001B043343A3640CF025FD2000A6
:109230000E490CF00FFD0E4B0024F318012B07D93B
:10924000C0230093039A0B4B31003868FFF7AAFD47
:10925000200005B0F0BD084CFAE7C046B02600205B
:109260007C26002084260020A0260020AC2600209A
:1092700002FCFFFF3D8E010016FCFFFF10B5FFF75B
:1092800061FE002809D0054C20680CF0F5FC04496B
:1092900020680CF0DFFCFFF715FF10BDB0260020A2
:1092A000A4260020F7B507000D0000282ED0FFF7F8
:1092B00049FE00282CD00724164E3068C36C1C4091
:1092C00007D0154A290038000CF0EDFC00242000DE
:1092D000FEBD03F0D2FB02213268D36C194001912C
:1092E00003D003218B43D364F1E701242343D364E8
:1092F0002800B8473268D36C1900A143D164019C9F
:109300005B07E4D528000CF006FDE0E7034CDEE740
:10931000034CDCE7B0260020175D020017FCFFFFBE
:1093200016FCFFFF020010B5014B12CB12C210BD9C
:10933000B4260020034B1A68034B1A607E225A6041
:109340007047C04604200020B426002070B5104DA0
:109350002B78022B18D0814218D90B1A072B15D95C
:109360000C00032304431C4010D172B62A78094B29
:10937000D200D050981841600CF0E7FC2B780133F4
:109380002B7062B6200070BD0348FCE70348FAE783
:10939000FD290020BC26002013FCFFFF17FCFFFF67
:1093A00070B50021041C07F0D5FB002828D1FE2150
:1093B000201C890507F0D8FB002821D104300BF0D0
:1093C00003FD05000F48401B08F0AEFB211C08F010
:1093D0004BF807F0FDFB03239843040028000BF033
:1093E000FDFC20000BF0F0FC002804D1203C002CF8
:1093F000F7D1054803E00119FFF7A8FF002070BD71
:109400000248FCE70038002013FCFFFF17FCFFFFB9
:1094100070B5060000250C4B1B78AB4209DD0B49EB
:10942000EB00C91830000CF098FC041E09D101357E
:10943000F1E730000BF0C8FC041E02D11420FFF746
:10944000C9FB200070BDC046FD290020BC260020BD
:1094500070B5002813D00D4B0D491C7800239C4299
:1094600010DDDA00555885420AD28A1852688242C5
:1094700006D98023043802681B061343036070BDBD
:109480000133ECE70BF0AAFCF9E7C046FD29002008
:10949000BC26002070B5051E14DD0B4E0B4C336846
:1094A000002B02D020680FF0ACFEFA2120680024C7
:1094B000074B89008361C462694335600FF0A9FEE0
:1094C000200070BD0348FCE7CC260020FC260020CD
:1094D0007D95010017FCFFFFF8B5114F06003D68B0
:1094E000002D0AD13020FFF793FF040006F06EFB39
:1094F0000C4BA5612360E5623C600B4D2B68002B93
:1095000009D11020FFF784FF04000FF043FE200074
:109510002C600FF019FE3000FFF7BCFFF8BDC0460D
:10952000FC26002058A30200F8260020014B1868F2
:109530007047C046CC26002070B50D4C2368002B28
:1095400003D00C4B1B68002B02D10620FFF7C4FF91
:1095500020680FF010FE02000749C3170D684E681F
:109560005219734120680A604B600FF00AFE70BD0B
:10957000F8260020FC2600201822002010B5FFF756
:10958000DBFF0024054BA200D058002802D003685E
:109590001B68984701340A2CF4D110BDD026002056
:1095A00010B5FFF7C9FFFA22034B920018685968FB
:1095B000002307F0EDFA10BD1822002010B5FFF7C8
:1095C000BBFF024B1868596810BDC0461822002026
:1095D0000B4B10B51B680400002B03D0094B1B6814
:1095E000002B02D10620FFF777FF0023064A9900DF
:1095F0008858002801D00133F9E78C5010BDC046CF
:10960000F8260020FC260020D0260020002310B5DC
:10961000044A99008C58844201D00133F9E70020B4
:10962000885010BDD026002010B50400002902D0BB
:109630000B78002B03D1034B2360200010BD0CF0EE
:1096400035FCFAE7F09D0200F8B504000E001500A5
:1096500000290AD00B78002B07D0002A05D008007B
:1096600097B210F09EFA874203D90B4B236020007B
:10967000F8BD681DFFF7CCFE20600CF0A6FD236846
:109680002A005F8023683100181D10F026FA236835
:109690005D1900232B71EAE7F09D0200014B036086
:1096A0007047C046F09D020010B50548054C20608B
:1096B0000CF08EFD044A0549200010F015F810BD8D
:1096C000F09D020000270020002000209F5E020085
:1096D000084B73B51C680500002C0AD001002668F1
:1096E00008310822684610F0F8F90CCD31682000E6
:1096F000884773BD04270020014B03607047C046B4
:10970000F89D020030B500684488A1420CDA8588D3
:10971000AA4209DA002907DB002A05DB5443401876
:1097200000198371002030BD0048FCE717FCFFFFE3
:10973000F0B5070085B00E001D0000291FDD002BCD
:109740001DD00468638803938B4200DD0391A388D6
:109750000293934200DD0292002306340193019BA1
:10976000029A93420EDA29002000039A10F0B5F90C
:109770003B68AD195B88E418019B0133EEE70248B2
:1097800005B0F0BD0020FBE717FCFFFFF8B50400B3
:109790000D0016001F00002901DB002A02DA0E4B23
:1097A0002360F8BD100048430630FFF731FE20600B
:1097B0000CF00BFD23685D8023689E80002F06D08F
:1097C0003B00320029002000FFF7B2FFE9E720004C
:1097D0000CF038FCE5E7C046F89D0200F0B5060045
:1097E00087B00D1E04D1244B0360300007B0F0BDDC
:1097F00000200F000400010001903B78002B1AD0DC
:109800003022524294469C446246092A11D90A2BBE
:109810000AD1019B241801330193A14200DA2100EF
:10982000002004000137E8E70028FBD001340020C5
:10983000F8E70120F6E76A46928809B212B23000D2
:10984000FFF7A4FF33689C1D03AB1F002A78002A92
:10985000CBD011003039092903D81A7001330135F2
:10986000F4E700221A70BB42F9D9380010F015F95C
:109870003B0020700134F2E7F89D0200F0B50400CF
:1098800089B006A80E0002921D00FFF74BFD236869
:1098900002995A88914235DA9B889D4232DA1F2E0E
:1098A00030D9079B01939E422CDC05230022734391
:1098B0000393069B0493039B04999B18A03BCB5CEA
:1098C00000210593AE18029BCF1823685888019099
:1098D00087420EDA9888B0420BDDDB1910270F4162
:1098E000019870431B1805980740781E87417F42F6
:1098F0009F7101310529E6D10132052ADBD1002013
:1099000009B0F0BD0048FBE717FCFFFFF7B504689E
:10991000070063880E1E01931EDD994218DA0023AA
:10992000063400933B68009A9B889A4212DA019BA6
:10993000A1199D1B2A00200010F0CFF860193100FA
:109940000CF072FB3B685B88E418009B0133E8E78E
:109950000CF078FB002000E00048FEBD17FCFFFF84
:1099600010B50548054C20600CF032FC044A05494E
:1099700020000FF0B9FE10BDF89D0200082700205E
:10998000002000201B60020010B5054C01212000C2
:109990000CF012FC034A044920000FF0A5FE10BD94
:1099A0000C27002000200020756102000388074A70
:1099B00010B50120934208D0834202D00020DB077B
:1099C00003D41E20FFF706F9002010BDFFFF0000A2
:1099D00010B50400034B08330360FFF74DFB200074
:1099E00010BDC046409E0200FA2270B54389920025
:1099F0005343314A31491400050038348B421BDC93
:109A00002F498B4218D82F49083C8B4214D82E4935
:109A1000083C8B4210D82D49083C8B420CD82C496D
:109A2000083C8B4208D82B49083C8B4204D82A4971
:109A300014008B4200D90834284B2A7B1E1D042AAF
:109A400003D89E1C022A00D81E00FA212068890033
:109A500006F0EEFE337868812B7300222A2128005D
:109A60000CF0DAFB002801D01D4870BD10222B211C
:109A700028000CF0D1FB0028F6D101222D2128006E
:109A80000CF0CAFB0028EFD101222E2128000CF097
:109A9000C3FB0028E8D172780E2128000CF0BCFB33
:109AA0000028E1D1012223792A211A4328000CF051
:109AB000B3FB0028D9D0D7E7009E020000C40900FC
:109AC0000071020080380100204E000010270000C5
:109AD00088130000C4090000E204000004AD020085
:109AE0000EFCFFFF7FB515000F226A4404001E0024
:109AF0001170002D16D0002B14DD01230189009375
:109B0000006B01F09DF9002802D0074804B070BD39
:109B10000090218933002A00206B01F047F90028CA
:109B2000F4D0F2E70148F1E70EFCFFFF17FCFFFF5E
:109B3000F7B50600002501931E4B143608330400C8
:109B4000036085808571C581058245820F00009282
:109B50002900182230000FF0DCFF1C2130000FF02C
:109B600012FC6B469B880221A3806B461B88220057
:109B700023811423A5712173A563A58763813E32D8
:109B8000137827638B43F1310B40137023009572D8
:109B900095810135221DD5870833A21DD587200068
:109BA000DD87FFF721FF002802D1A3791D43A571AE
:109BB0002000FEBD409E020030B50425837987B0A9
:109BC00004002B4204D1FFF749FAA3791D43A57184
:109BD000A36AA2691B6800251A4208D106236A46B7
:109BE00001212000FFF77EFF051E03D0114D280044
:109BF00007B030BD6B460222042069469A561856BB
:109C0000237BD2005A43228202220978C00049B243
:109C1000C900594343436382A379E1819343A3710C
:109C200020000CF007FB0123A1881A0002A80CF009
:109C3000D1F9DCE70EFCFFFFF8B50400FFF7BCFF2D
:109C40000E22A35E794F5B42BB4251DA23003E33C2
:109C50001B789B074CD50125210028003E310B784D
:109C60005A08904302000220AA40834313430B701A
:109C70002000FFF7A1FF1022A35E5B42BB4248DA3F
:109C800023003E331B785B0743D5012521002800C4
:109C90003E310B789A08904382000420834313439B
:109CA0000B7026002000FFF787FF1222A35E4836C4
:109CB000BB423EDA23003E331B781B0739D5210017
:109CC00001223E310B78D80882430820D20083431A
:109CD00013430B703378032B3BD80133DBB2337063
:109CE000012B00D08DE0230000224A331A8030E09F
:109CF0002000FFF761FF0E22A35EC8225B425200E4
:109D000000259342B4DD23003E331B789B07A2D588
:109D1000AEE72000FFF750FF1022A35EC8225B428F
:109D200052009342BDDD23003E331B785B07ACD568
:109D3000B7E72000FFF740FFC8231221625E5B00F7
:109D40009A4204DD23003E331B781B07B7D5002D54
:109D5000C0D13278002A14D02100270001254A31D1
:109D60000B883E3701339BB20B803878AC460540F8
:109D700055D01D2B05D963469843002338700B80BE
:109D8000337020000CF0C2FA294A0723904244DDC8
:109D90002000FFF711FF0E23E25E264E52420323FE
:109DA000B2423ADBC8252000FFF706FF0E23E25E31
:109DB000AD0052420423AA422FDC2000FFF7FCFE34
:109DC0001023E25E02235242B24226DB2000FFF75C
:109DD000F3FE1023E25E01235242AA421DDC200062
:109DE000FFF7EAFE1223E25E0523B24215DB2000F4
:109DF000FFF7E2FE1223E25E0623AA420DDC0023F7
:109E00000BE0042BA5D122003E321178033B0B431B
:109E1000137000234A3423800B331800F8BD092B3C
:109E2000AFD9013A0D803270ABE7C04670FEFFFF3C
:109E3000FF700200E0FCFFFF70B5C369C1681A68DB
:109E4000451D8AB00400EB7F114255D0002B58D13C
:109E5000EB7F082B0DD90122A379134209D11343BB
:109E6000A371A188130006A80CF0B4F8FFF798FBC3
:109E70002062EB7F012B23D80123A2791A421FD045
:109E80000025A188A571022202A80CF0A3F8A31D49
:109E9000DE7F012E14D1FFF783FB2B00226A801A8C
:109EA000994100900191019BA188AB4203D1174BCE
:109EB000009A9A4227D90123042206A80CF08AF8B6
:109EC0000322A3791340012B14D1FFF769FB002370
:109ED000226A801A9941994202D10D4B984209D9C0
:109EE0000223A279A1881343A3710522012306A8A6
:109EF0000CF070F80AB070BD0B2BA9D80133EB77CA
:109F0000A6E7013BFBE733000322D6E7E7030000A7
:109F1000DB05000010B50400034B08330360FFF7B6
:109F200075FB200010BDC046589E0200F0B507002A
:109F300000250E0085B002930AAB1B780837039307
:109F4000104B04000833036001928580857129005D
:109F5000182238000FF0DDFD039A310038000FF0B1
:109F600017FA6B466A469B88127AA380A31DE67196
:109F7000DA77631D25622000DD77FFF729FB2000DB
:109F800005B0F0BD589E020010B50400034B083325
:109F90000360FFF771F8200010BDC046C89E0200A4
:109FA0007FB515000F226A4404001E001170002DB9
:109FB00016D0002B14DD012301890093C06B00F043
:109FC0003FFF002802D0074804B070BD00902189EF
:109FD00033002A00E06B00F0E9FE0028F4D0F2E73D
:109FE0000148F1E70EFCFFFF17FCFFFF002330B52F
:109FF00085B003AC21700189009305000133220074
:10A00000C06B00F01DFF002802D0094805B030BD2C
:10A0100020802989009002232200E86B00F0C6FE10
:10A020000028F2D1237860781B02184300B2EDE7D4
:10A030000EFCFFFF13B56B46DC1D002322002370CE
:10A040000133FFF7ADFF002801D1207816BD01488C
:10A05000FCE7C0460EFCFFFFD0B504000CF030FA60
:10A06000E268A369981A09F0ADF906000F002369A8
:10A07000E069C01A09F0A6F932003B0009F0F0FCD3
:10A080000022104B08F0AEFB0F4A104B08F0A8F866
:10A0900009F024FA0021041C06F052FD002804D027
:10A0A000201C0B4906F06EFE041C201C09F0C4F9AC
:10A0B00002000B000020074908F006FE09F04CF9E9
:10A0C000D0BDC04600806640EA2E4454FB210940C2
:10A0D0000000B44300807640F0B5050085B0006C08
:10A0E0000CF0B1F9061C286C0CF0A4F90221071C35
:10A0F00028000CF016FA0221039028000CF023FA35
:10A1000007F0C8FC0221041C28000CF02EFA07F00E
:10A11000C1FC051C301C09F065FC0290301C09F0E4
:10A1200023FC0190381C09F05DFC061C381C09F06A
:10A130001BFC071C039807F0ADFC391C07F094F9D1
:10A14000311C071C201C07F08FF9029907F08CF9CD
:10A15000011C381C06F016FE311C071C281C07F0D9
:10A1600083F9019907F080F9011C381C06F00AFEFA
:10A170000299061C281C07F077F90199051C201C80
:10A1800007F072F9011C281C07F0A0FA311C09F035
:10A190006BFC0D4907F068F909F04EF90B4A0C4BBE
:10A1A00008F01EF809F09AF90021041C06F0C8FC1A
:10A1B000002804D0201C044906F0E4FD041C201CE7
:10A1C00007F048FC05B0F0BD0000B443EA2E44544B
:10A1D000FB21194070B50022102104000CF062F937
:10A1E0001B4D00282DD1032608212000FFF722FF58
:10A1F000A84226D0304226D1FA21638989005943EA
:10A200005023144AD518D058884204D3D518083B97
:10A2100018000830F7D1FA212868890006F008FBF9
:10A22000A0226081112120000CF03CF9002808D107
:10A2300001222B7910211A4320000CF033F9002859
:10A2400000D0034870BD6420FEF7A0FFCCE7C046F5
:10A250000EFCFFFF709E02007FB504258379040089
:10A260002B4218D102260CF02BF9A379A188B34315
:10A270002B43A3710622012368460BF0ABFEA079A5
:10A2800003003040AB43A37143425841034B40426B
:10A29000184004B070BD0248FBE7C04614FCFFFF45
:10A2A00015FCFFFF10B5837904005A070DD49B07F6
:10A2B00001D4FFF7D1FF236C2000002B02D0FFF761
:10A2C0000BFF10BDFFF7C8FEFBE70148F9E7C046EA
:10A2D00015FCFFFF70B5466C86B001AC050001911E
:10A2E0006260A360002E0CD00B4905A8FFF79CF913
:10A2F0000C23220005A930000CF05DFE05A80BF030
:10A30000CEFD2B000C3307CC07C30223AA791343DD
:10A31000AB7106B070BDC0460AAD0200642330B513
:10A3200004000281438185B08180FFF753FF022240
:10A33000A379606C9343A371002813D00C490CF0EF
:10A3400001FE051E0ED001000C22103101A80FF0F5
:10A35000C4FB20000199029A039BFFF7BBFF280072
:10A36000FFF776F80123A2791343A37105B030BD3E
:10A370000AAD0200F7B5009308AB1B8804000193F7
:10A3800009AB1D8800230F0016000D4A8380083298
:10A3900083710260C360036143618361C3610362CF
:10A3A0001D2124300CF071F8009BE763266429001E
:10A3B00020006364019AFFF7B1FF2000FEBDC04694
:10A3C000C89E020082B0F0B50400A5B064202B93B3
:10A3D0002A920FF09BF804220C2109A802F0C6FB78
:10A3E0002422CC491BA80FF078FB052206A81100F7
:10A3F0000BF031FEC84907A8FFF7F0F9A06800F09C
:10A4000081FBA568C54918A8FFF70EF9782218A99D
:10A41000280000F071FC18A80BF041FD6E256420A7
:10A42000013D0FF073F8002DF9D1A06800F06AFB30
:10A43000A0680CF03AFA012160680BF07BFF012163
:10A44000070060680BF089FF06000A200FF05EF835
:10A450000022B34B03929F4210DB013203923A0079
:10A46000C8320BDBC822042192000391974205DC1D
:10A4700003220392C82F01DC013A039200279E4277
:10A480000CDB33000137C83308DBC82303379B00DC
:10A490009E4203DC013FC82E00DC013F06A80BF002
:10A4A000D1FD0026032373431BA9CA189078002806
:10A4B00005D0C95C5278FF2306A8FFF723F90136BF
:10A4C0000C2EEFD16B463AB20C21595E06A8FF2341
:10A4D000FFF718F90023A06800931A00743006A94A
:10A4E0000BF0C0FD002304930323049A0398534305
:10A4F0001BAA995C814237D1D31805935B78BB4284
:10A5000032D1059B9E78002E2ED1310020680CF0B0
:10A5100008F807F0BFFA3200031C290009A80CF064
:10A52000D3FF310020680CF00EF807F0B3FA0122D7
:10A53000031C290009A80CF0C7FF310020680CF0AB
:10A5400014F807F0A7FA2900031C022209A80CF04E
:10A55000BBFFFE2303229B05290009A80CF0B4FFD2
:10A560000123059AED189370049B013304930C2B7F
:10A57000BAD164200EF0CAFF0B2D00DC5BE709A8FE
:10A580000CF08EFF012201000CA802F0EFFA00256A
:10A5900009A80CF085FFA8423CDD2900002209A88B
:10A5A0000CF080FF0022061C290009A80CF07AFF9D
:10A5B000011C301C06F058FF2900061C012209A8C6
:10A5C0000CF070FF0122071C290009A80CF06AFF9B
:10A5D000011C381C06F048FF311C06F0D3FB290093
:10A5E000061C022209A80CF05DFF02222900071CAC
:10A5F00009A80CF057FF011C381C06F035FF311C70
:10A6000006F0C0FB2900031C00220CA80CF05CFF24
:10A610000135BDE709AA1100012318A80CF06EFF4F
:10A6200018A90FA80CF0C7FF18A80CF05EFF0CAA21
:10A6300009A912A801230CF061FF002312AA0FA997
:10A6400015A80CF05BFF002215A811000CF02AFFE2
:10A650000022061C012115A80CF024FF0022051C75
:10A66000022115A80CF01EFFFC21071C8905301CD7
:10A6700006F0FAFE07F0EEF9FC21060018908905B5
:10A68000281C06F0F1FE07F0E5F9FC210500199001
:10A690008905381C06F0E8FE07F0DCF92A00030003
:10A6A00031001A902068FFF715FEA0680CF0FDF845
:10A6B00007A908A8A5680BF0BDFC0022194B009261
:10A6C00008A901932800130000F0BAFA08A80BF0BB
:10A6D000A4FCFA2080000EF019FFA0680CF0E5F849
:10A6E00015A80CF002FF12A80CF0FFFE0FA80CF04A
:10A6F000FCFE0CA80CF0F9FE07A80BF08EFC06A8D7
:10A700000BF08BFC09A80CF0F0FE25B0F0BC08BCE7
:10A7100002B0184715AD020039AD02007EAD02004F
:10A72000E0FCFFFFDC050000F7B583601D4B050072
:10A730001F6801604260002F31D02820FEF768FEBC
:10A74000040010300BF03CFC174B18202360FEF780
:10A750005FFE00220600154B0192056008320021C1
:10A760000C3000930FF0D5F908226946301D0FF028
:10A77000B4F90F4B00227361C223A3803B68E260EF
:10A78000A660226262625B68210038009847002858
:10A7900005D020000BF039FB2000FEF759FE280001
:10A7A000FEBDC0460427002005000600C5A3010029
:10A7B00083650200F0B5040085B0637A9C46002BE7
:10A7C00004D120000BF008FF05B0F0BDA37A266F7E
:10A7D00001931023019AF35600259B1801229A40F9
:10A7E0002900F36803920293029BAB4231DDB36808
:10A7F000019A6B439B1872695B00E77AD3181A7849
:10A800005878E379012F14D15F1E3F1A10003A00E7
:10A810005B004343606F8218D3189B79634500DD6A
:10A820006346627B1A4202D00123AB4019430135D3
:10A83000DAE7022F05D15F1EBA1A277A013F381ACC
:10A84000E6E7032FE4D1277A013FBF1A0200380060
:10A85000DEE71123C943F356606C99402369194020
:10A86000039B19430EF036FFA27B072AACD8637B0B
:10A870000C495B006373531CDBB290004158A37317
:10A88000022A03D808000EF036FE96E7064B200099
:10A89000236300236363054BE462236414300EF0EA
:10A8A000B8FC91E7E09E0200B5A70100C365020075
:10A8B00010B50400044B03600EF0A3FC200005F06B
:10A8C0009BF9200010BDC04658A3020010B504003B
:10A8D0000E4B08330360FEF799FE200074300BF036
:10A8E0009CFB200060300BF098FB200058300BF0F0
:10A8F000D6FA200050300BF0D2FA2000044B14306E
:10A900006361FFF7D5FF200010BDC046009F020025
:10A910008CA30200F8B500250400324B8580083373
:10A9200003608571143016000F0005F04FF9200008
:10A930002D4BE562636125645030FEF7AFFE2000C9
:10A940005830FEF7ABFE20006030FEF7D5FE200049
:10A950000423F25E33682667590009B274300BF0A5
:10A960007AFB3368226FE371736801262372102328
:10A970006581A7802561D35691685918994204DDF5
:10A980003000984001330543F8E711230120D356E6
:10A99000D1685918994206DD02009A4026690133B0
:10A9A00032432261F6E71420FEF732FD22690021CE
:10A9B0002A430123060005F05DFDFF232200637298
:10A9C0000133A381002348326664A373200013700F
:10A9D000A366FEF7FDFD0123A27920001343A371B6
:10A9E000F8BDC046009F02008CA30200F0B5437A78
:10A9F00085B00400002B04D120000BF0EDFD05B064
:10AA0000F0BD0122837A11009C461023066F0025B9
:10AA1000F35603926344994002912900F36801932D
:10AA2000019BAB422CDDB36872696B4363445B00EE
:10AA3000E77AD3181A785878E379012F10D15F1E7E
:10AA40003F1A10003A005B004343606F8218D3182E
:10AA50009B79002B02D0039BAB4019430135DFE704
:10AA6000022F05D15F1EBA1A277A013F381AEAE78A
:10AA7000032FE8D1277A013FBF1A02003800E2E72E
:10AA80001123C943F356606C994023691940029B16
:10AA900019430EF01FFE667AB31EDBB2FC2B14D8EE
:10AAA000FEF744FD0B4B0500236300230A48636354
:10AAB0000A4BFF21E4622364704305F043FF290041
:10AAC0004143200014300EF0A4FB637A012B00D91F
:10AAD00095E791E7D9650200B6030000C36502005F
:10AAE0001FB5012381881A0068460BF073FA012311
:10AAF00003491A0068460BF06DFA05B000BDC04668
:10AB0000FE0300001FB5030048331A780400002A32
:10AB10000DD000221A70012381881A0068460BF0BC
:10AB200059FA012304491A0068460BF053FA200031
:10AB300074300BF087FA1FBDFF03000010B54830DA
:10AB40000378002B06D00378012B03D001210248A3
:10AB50000BF0D1F810BDC046FF03000010B5012175
:10AB6000040006200BF0C7F8064B984208D1483481
:10AB70002378002B04D02378012B01D020BFF7E7E6
:10AB800010BDC04616FCFFFF70B50600141E19DB91
:10AB9000050048352B78002B02D02B78012B13D1E0
:10ABA000002330001A007430FEF768FE002C07D036
:10ABB00033004A331C80002407234C3634802B702A
:10ABC000200070BD014CFBE7014CF9E717FCFFFFCB
:10ABD00012FCFFFFF8B517000A68050052880B0049
:10ABE000012A09D1002118000BF0DDF90022010033
:10ABF0002800FFF7C9FFF8BD002F19DD0600483611
:10AC00003278002A02D03278012A13D12A00002497
:10AC100028005C321900148058300BF09FF92B008B
:10AC20004A331F8003234C352C8020003370E2E729
:10AC30000148E0E70148DEE717FCFFFF12FCFFFFD9
:10AC400073B5079C0500002C1CDB060048363078E5
:10AC5000002802D03078012816D106981BB2C0B265
:10AC60000090280012B274300BF0FCF9002C07D0D1
:10AC70002B004A331C80002407234C352C80337072
:10AC8000200076BD014CFBE7014CF9E717FCFFFF04
:10AC900012FCFFFFF0B587B00D9C06000F0002927A
:10ACA0000393002C20DBFFF749FF330048331D7866
:10ACB000EDB2002D1AD1390005A80BF0BBF90C9BA1
:10ACC00001940093029A039B05A93000FFF7B8FF97
:10ACD00005A80BF0A2F9002C03D03000FFF73EFFCF
:10ACE0002C00200007B0F0BD014CFAE7014CF8E75A
:10ACF00017FCFFFF11FCFFFFF8B50400171E1DDD58
:10AD0000060048363378002B02D03378012B17D158
:10AD10002200E3795632013B137023000025200006
:10AD200054331D8050300BF019F923004A331F8033
:10AD3000022328004C3425803370F8BD0148FCE71D
:10AD40000148FAE717FCFFFF12FCFFFFF7B505000B
:10AD50000F00161E18DDFFF7F1FE2B0048331C789C
:10AD6000E4B2002C12D1390001A80BF0EFF8320048
:10AD700001A92800FFF7C0FF01A80BF090F82800F8
:10AD8000FFF7ECFE2000FEBD0148FCE70148FAE7B2
:10AD900017FCFFFF11FCFFFFFF2902D841720020C2
:10ADA00070470148FCE7C04617FCFFFFF0B51F00E5
:10ADB00085B00AAB1B780400039300933B000D00A1
:10ADC00016000EF04CFA002833D0237D082B2DD826
:10ADD000236800221900FC318A62A021C9005A5060
:10ADE000154905205A500138C046C046C046C046E5
:10ADF000C046C046C046C046C046C046C046C04623
:10AE0000F1D1236801325A50A0210432C9005A50AE
:10AE100004F0ECFF039B3200009329003B0020006C
:10AE20000EF01DFA237D01332375CCE7034805B0EE
:10AE3000F0BD2075FBE7C046FC0F00000EFCFFFFD5
:10AE4000F0B51F0085B00AAB1B7804000393009394
:10AE50003B000D0016000EF0EAF9002833D0237DE8
:10AE6000082B2DD8236800221900FC318A62A0210A
:10AE7000C9005A50154905205A500138C046C046ED
:10AE8000C046C046C046C046C046C046C046C04692
:10AE9000C046C046F1D1236801325A50A021043285
:10AEA000C9005A5004F0A2FF039B3200009329000E
:10AEB0003B0020000EF0BBF9237D01332375CCE766
:10AEC000034805B0F0BD2075FBE7C046FC0F00004D
:10AED0000EFCFFFFF8B50D1E30D000260227C46817
:10AEE000002C28D0AA88A38853403B4204D13A4280
:10AEF00004D1AB883B4219D0646AF1E7A968A06825
:10AF00000CF0BDFA0028F4D02B88002B02D0228848
:10AF10009A42F1D16B88002B02D062889A42EBD121
:10AF2000A288074B01361343A380E5E7A368AA680C
:10AF30009342E1D1E8E72000002E00DC0148F8BD93
:10AF40000080FFFF17FCFFFFF0B5060085B00D1E67
:10AF500059D00127C468002C22D00221AA880023DE
:10AF60000A4202D0A3885B083B40226829688A42D3
:10AF700010D1A068A968002B0AD00CF080FA002834
:10AF800008D0A3881AB2002A06DB204805B0F0BD1D
:10AF90008842F6D0646ADEE75B045B0CA380F4E7CA
:10AFA000F0682A88002807D1F5600123184968460F
:10AFB0000BF010F80020E9E7010003001C88944220
:10AFC00006D25C6A1900002C0DD02300F6E723009E
:10AFD0001C88944207D15F886C88A74203D25C6AC0
:10AFE0001900002CF3D1814209D10B889A4204D375
:10AFF00005D148886B88984201D96962D4E74B6AC9
:10B000006B624D62D1E70348C0E7C04616FCFFFF04
:10B01000FD03000017FCFFFF064B10B51A000400EB
:10B0200008322C33026043600430FEF725F820001C
:10B0300010BDC046189F020008B4024B9C4604385D
:10B0400008BC604719B0010008B4024B9C460438A4
:10B0500008BC6047EB6902000C4A002311002C3247
:10B06000083110B5038183724260C360036143619C
:10B070004383016004000430FDF7F0FF044B1A68BD
:10B08000002A00D11C60200010BDC046189F02009D
:10B0900004270020F7B50E000125C4680192002C9A
:10B0A00036D0238832889A4201D0002B23D163887E
:10B0B00072889A4201D0002B1DD1FDF743FF012376
:10B0C000002806D0C022A3881340C03B5A425341F7
:10B0D000DBB2019A934219D1A7883BB2002B15DB52
:10B0E00010223100A0180EF0F8FC40231F4204D0BB
:10B0F00020000BF083FC646AD1E7FDF723FF0028F2
:10B10000F6D021000348FEF7CDF8F4E70025F2E77A
:10B110002800FEBDFD69020008B4024B9C460438BD
:10B1200008BC6047856B0200F0B587B001930EAB99
:10B130001B88060003930D9B0D000093019B029258
:10B140000C9F002B3DD0002F02D1009BDB0738D590
:10B150002820FEF75DF9040010300AF031FF6B463D
:10B160001B89258063801820FEF752F90500009B9B
:10B1700008220593019B002103600C3004970EF018
:10B18000C8FC082204A9281D0EF0A7FC0E4B0222C1
:10B190006B6100230399E3602362636233680A43AF
:10B1A000A560A2805B68210030009847002806D087
:10B1B00020000AF02AFE2000FEF74AF9034807B0F3
:10B1C000F0BD0348FBE7C046BF6B020016FCFFFF63
:10B1D00017FCFFFFF0B50400160000258380164A17
:10B1E000164B85710260218146810573186889B00C
:10B1F0008C46A8421DD0124A05950492C0220292A4
:10B200006A4604AB82CB82C223002A006146FFF764
:10B210008BFFC022094B0A49186802926A460691C0
:10B2200006AB079582CB82C223002A003100FFF7CC
:10B230007BFF200009B0F0BD5C9F020004270020C6
:10B24000E96C020030B5002403730123034D8471BF
:10B250000560818082734373846030BD749F0200F7
:10B2600070B583790400DB0702D58068FEF7F0F83B
:10B27000A3799B0702D5A068FEF7EAF8A3795B07DC
:10B2800007D5A0230021144ADB00D150A068FEF7A7
:10B29000DFF8A3791B0708D5A568002D05D0280085
:10B2A0000CF039FF2800FEF7D3F8A379DB0605D5AB
:10B2B000A068002802D00368DB6898476023A27961
:10B2C0001A4205D0A068002802D003685B6898473E
:10B2D0000023A360A37170BD00700040F7B5022782
:10B2E000037B04000D003B4226D0012926D8867935
:10B2F0003E40009614D1FFF7B3FF1820FEF788F800
:10B300000E230600E3561822009901930EF001FC6B
:10B31000019930000EF04EF8A379A6603B43A3716B
:10B32000A3685A68002D04D00025DB681A60280045
:10B33000FEBD1B691A60FAE7014DF8E7014DF6E71B
:10B3400016FCFFFF17FCFFFF70B5040000250C4B37
:10B350000E000833858085710360210018300BF0E2
:10B3600074FD2000210020300BF092FD054BA680DB
:10B37000E5802572E5602561656120001C6070BD77
:10B38000849F0200102700208379DB0702D5C1606B
:10B39000002070470048FCE716FCFFFF8379DB07BD
:10B3A00001D5C06870470148FCE7C04616FCFFFFA6
:10B3B00070B545690400002D22D0037A032B21D8F3
:10B3C000FFF7ECFFA8622C20FEF722F82C220021C8
:10B3D00005000EF09EFB002263695A6223699342C6
:10B3E00008D1636923610020237A656101332372E8
:10B3F00070BD13005A6A002AFBD162695A62F2E7F3
:10B400000148F5E70148F3E717FCFFFF13FCFFFFD6
:10B41000144B70B55A68144C002A03D000225A60AD
:10B420000132A2601A69002A17D000211961802315
:10B43000DB000E4DE3582868012B0FD1A923DB0058
:10B44000E1584942FFF7A0FF2868FFF7B1FF2B68DA
:10B450005A69074BE2500123A36070BDFFF794FFC8
:10B46000F9E7C046FC100040001000401027002003
:10B470000405000003000069002809D00221054AE4
:10B48000D167426A1A611A7A013A1A72024B19603C
:10B490007047C04604E100E000E100E010B500297B
:10B4A00003DB024B19600DF02AFF10BD14270020AA
:10B4B00070B504001E0004AB1D7804F0CFFB200023
:10B4C0000E4B40302360FEF7E9F8230001364C3381
:10B4D000013522001E701D730023E1214E32A3644A
:10B4E0006365138053809381D381013B20006364A3
:10B4F0004902FFF7D3FF200070BDC046B89D02008F
:10B50000F7B580277F053D697C690822113C6C43B3
:10B510000600210068460EF0E0FA104B009A9A42AD
:10B5200019D00093002301937969300013396943DE
:10B530000BF0C3FC019A009930000BF0D6FC2100FF
:10B5400030000BF0BAFC7969AB081339694322006B
:10B5500030000BF0BCFC0198FEBDC046FECA0000E6
:10B56000F0B50D00A9B00D9200213022060010A800
:10B570000B930EF0CEFA28000EF013FB431C0C9335
:10B58000102B00D9B5E00B9B202B00D9B1E029008E
:10B5900030000BF0D7FC071E50D129000C9A10A8E0
:10B5A0000EF09BFA0D990B9A14A80EF096FA8023D0
:10B5B0005B051A695F690C92113F7A4330005D693F
:10B5C0000B92FFF79DFF3022002104001CA80EF013
:10B5D000A0FA290000270C9B1339594330000BF0C7
:10B5E0006CFC0D9730257D430B9B0833ED18A7426B
:10B5F00042DA290030221CA80EF06FFA10A91CA80C
:10B600000EF0BDFA002827D13C49300022000E91EF
:10B610000F940BF06AFC6A46099513AB23CB23C247
:10B6200023CB23C223CB23C23000129B1099119A43
:10B630000BF069FC01230D930137D3E710300B9A0F
:10B640000D990EF03BFA04003800FDF701FF002CC5
:10B65000A3D1200029B0F0BD6A4609951FAB23CBCA
:10B6600023C223CB23C223CB23C230001C991D9AB3
:10B670001E9B0BF048FCDFE7E5433023ED17254028
:10B680005D430B9B08355D190D9B002B1DD10C9B59
:10B690003021981E05F0CCF8A0422CD01749013477
:10B6A000300022000E910F940BF01FFC6A460995A2
:10B6B00013AB23CB23C223CB23C223CB23C2300023
:10B6C0001099119A129B0BF01EFC0B9930000BF095
:10B6D000F4FB80235B0559690C230C9A13396343EF
:10B6E0004A430233110030000B9A0BF0F0FB0024A8
:10B6F000AFE7034CADE7034CABE7C046FECA000022
:10B7000017FCFFFF13FCFFFF70B50400A280FA22B4
:10B71000002308000C49920008312160A371606188
:10B72000E260A360638209490BF00CFC051E09D09E
:10B73000010020001031022212300EF0CEF9280054
:10B74000FDF786FE200070BD9C9F02008CAD0200BC
:10B7500030B50225837987B004002B4204D1FDF770
:10B760007DFCA3791D43A57120000BF035FC00285A
:10B770001CD06B46DD1C28000BF025FC2B78002B21
:10B7800017D001A80BF01DFC0321019AD3170B4021
:10B790009B189B102382FDF703FFE368A18818180C
:10B7A0000123A0601A0002A80AF014FC002007B0D0
:10B7B00030BD0122064B1A60064A51680029FCD0B0
:10B7C00000215160044A1268019201225A60DBE7AD
:10B7D00000C00040FCC0004008C50040022802D163
:10B7E0000122014B1A707047FE29002070B5064CEB
:10B7F00005002378002B04D1044801F03BFB012312
:10B800002370280070BDC046FF290020DDB701006D
:10B8100070B50C000AF0FDF9002810D00023144D7B
:10B82000A40A2B7020000BF0EBFB002803D00A20A9
:10B830000DF06CFEF6E72B78002BFCD070BD0221DA
:10B840000C4B0D4A99508021C90008005D58002D0D
:10B85000FCD0A121C9005C5019580029FCD000215E
:10B8600099508021C9005A58002AFCD0E6E7C0460A
:10B87000FE29002000E0014004050000F8B50C009E
:10B8800015001E000AF0C5F9002811D00023174F3B
:10B890003B703200290020000BF0B0FB002803D0E1
:10B8A0000A200DF033FEF4E73B78002BFCD0F8BD06
:10B8B00001210F480F4B844619508021C9005A5866
:10B8C000002AFCD080270022FF00964207DD91006D
:10B8D00068586050D9590029FCD00132F5E70022A0
:10B8E00061465A50DA59002AFCD0E0E7FE290020D0
:10B8F0000405000000E0014010B50400054B0833CA
:10B9000003601C300AF0CBFA200018300AF0C7FAA6
:10B91000200010BDB49F0200FF23F0B52C4D8DB068
:10B920002B700023040069460088009303F026FA78
:10B93000002802D16B469B782B70264E3368DB685B
:10B94000002B07D1002320881A0019000BF05CFBA4
:10B950000DB0F0BD2B78032BF4D81F4901A8FDF7DB
:10B9600063FE336801A9DE6804A80AF0EFFA04A9AF
:10B9700030000BF01AFB0027060004A80AF08FFA2B
:10B98000BE421ED031002022103104A80EF0A5F8CE
:10B990003000FDF75DFD297804ABC9005918082275
:10B9A00002A80EF09AF820880123082202A90BF0C1
:10B9B0002BFB0137002804D12088084A0C210BF00A
:10B9C00021FB01A80AF06BFA002FBBD0C0E7C046EC
:10B9D000F0210020242700209CAD0200FFFF000082
:10B9E000F0B5837991B004005B071BD5FDF7D8FD56
:10B9F00000232269801A9941994203D1F423FF332D
:10BA000098420FD9A068002808D0364B1D880CF04A
:10BA10009FFB036815221B6A290098470422A3791B
:10BA20009343A371A3799B0759D52F4D2B68DB68EE
:10BA3000002B50D02D4B1B78032B4CD8294B2C4975
:10BA40001B8804A80193FDF7EFFD2B6804A9DE68AD
:10BA500008A80AF07BFA08A930000BF0A6FA070044
:10BA600008A80AF01CFA02AB9E1D0823320033809E
:10BA700006A9073B01980BF0C9FA002F08D039003E
:10BA80002022103108A80EF028F83800FDF7E0FC5D
:10BA9000164B32881B7806A9DE0008AB9E193000D1
:10BAA0000EF00CF8002813D0082206A930000EF082
:10BAB00014F82B6804A9DD6805A80AF047FA2023CA
:10BAC00008AA05A928000BF076FA05A80AF0E7F9FC
:10BAD00004A80AF0E4F90222A3799343A37111B0F8
:10BAE000F0BDC046A829002024270020F021002016
:10BAF0009CAD0200F7B5089E0500152922D801204B
:10BB000007008F40244C27421CD0E97FCC181F2C03
:10BB100041DC69183418A14210D80021C8B2834210
:10BB200004D9545C701884700131F7E732789A18A0
:10BB30003270EA7F9B18EB7700202CE00878C8541D
:10BB40000139E8E73478013CE4B2A34208D100238C
:10BB5000D9B28C42F0D9D05CF11888700133F7E784
:10BB6000EF7F0120FF183F1B1F2F14DC0227A01CB2
:10BB70007F423618381B0190E87F2F18BE4204D24E
:10BB80003078019FF0550136F6E7041B023CEC7754
:10BB900028000BF085FAFEBDFC002000F0B585B052
:10BBA00001930AAB1E880BAB1B78451C02930EABAE
:10BBB0001B78040003930B78170003704B8A102244
:10BBC0004382013128000DF088FF6B469B88268355
:10BBD00063836B461B7B002623776B4601221B7A0F
:10BBE0006761E683EB77A31CDA770C9B0C25636215
:10BBF000230020000D9A28331A705E709E702A0070
:10BC000031002C300DF085FF2000074BE663A36365
:10BC10002A00310040300DF07CFF2000034B2665E8
:10BC2000E36405B0F0BDC046237002001570020049
:10BC300070B50D000CF08CFA04000368002D09D1DA
:10BC40005B699847FA2080006843074904F0F0FDDB
:10BC5000E08070BD9B6898478542F3D2236820003E
:10BC60009B6898470500EDE771020000F0B50700FA
:10BC70001600A1B002C704006B4918A81D000BF004
:10BC800056FA331E03D030000DF08BFF83B2012231
:10BC90000492002203920292023201920093320037
:10BCA00018A93800FFF77AFF23006049583318A815
:10BCB00007930BF03CFA2B1E03D028000DF071FF08
:10BCC00083B2012204920022039202920232019274
:10BCD00000932A0018A90798FFF760FF2300544932
:10BCE000AC3318A808930BF022FA269B002B03D044
:10BCF00018000DF056FF83B2012204920022039235
:10BD00000292023201920093269A18A90898FFF72E
:10BD100045FF631CFF33474918A809930BF007FA46
:10BD2000279B002B03D018000DF03BFF83B20122AC
:10BD300004920022601C039202920232019200934C
:10BD4000279A18A9FF30FFF729FF23005533FF3347
:10BD5000394918A809930BF0EAF9289B002B03D066
:10BD600018000DF01EFF83B20122049200220392FC
:10BD70000292023201920093289A18A90998FFF7BB
:10BD80000DFF2300A933FF332C4918A80A930BF0A9
:10BD9000CEF9299B002B03D018000DF002FF83B2CF
:10BDA00001220492002218AD039202920232019203
:10BDB0000093299A29000A98FFF7F0FE204B1B7880
:10BDC0000B93002B2DD1079B12971393089B0DAF5C
:10BDD0001493631CFF331593099B1A4916930A9B0E
:10BDE000380017930BF0A3F91D2149203B7810224E
:10BDF0002B707B8A12AE6B8206ABC918C0180DF08F
:10BE00006CFE06232B756B469B8D2068AB83AE6161
:10BE10000CF0A2F9036829001B6898470122084B1F
:10BE20001A70200021B0F0BD292A0000242A000049
:10BE3000252A0000272A0000262A0000282A0000C0
:10BE4000002A00200A18000070B5002504000A4BE3
:10BE50008580083385710360C1601830FDF71EFCD2
:10BE600020001C30FDF71AFC044BA5601C60012368
:10BE700065612000A37170BDB49F020024270020DB
:10BE8000FA2130B585B005000123022289006846F9
:10BE90000AF0A0F8074C2068002809D00BF080F9C0
:10BEA0002988054B22681980022391790B439371ED
:10BEB00005B030BD24270020A829002010B50C00B3
:10BEC00007290DD880680CF043F9064B1957036811
:10BED0005B6C9847431E9841034B4042184010BD8D
:10BEE0000248FCE794AD020016FCFFFF17FCFFFFC1
:10BEF000F0B5A44C0D00A544040007939AAB1B7841
:10BF0000A14909A804930692FDF78EFB20002900A1
:10BF10001C300AF023F8C020800000F0A1FF0820A8
:10BF2000FDF776FA0600002100F088FE15ADA66048
:10BF300000210C220EA80DF0ECFD2B000EAA83CAE6
:10BF400083C3924B2900EB60002330002B610CF07F
:10BF5000E8F8A0680CF0FCF808220021059016A86B
:10BF60000DF0D7FD1420FDF753FA29000200884B8D
:10BF70001593C8C9C8C2874B059EC3600023A43669
:10BF800003613368002B00D0F5E03060A0680CF04E
:10BF9000E3F808220021060016A80DF0BAFD1420CF
:10BFA000FDF736FA7C4B1593030086CD86C37B4B99
:10BFB000C36000230361336B002B00D0DDE03063EE
:10BFC000A0680CF0C5F808220021050016A80DF0A5
:10BFD000A0FD1420FDF71CFA714B15AE159303005C
:10BFE00086CE86C36F4B9835C360002303612B68F0
:10BFF000002B00D0C3E02860012504AB1B7C04AA01
:10C000002B4308A9280013740BF002F8A0680CF069
:10C01000A7F8036864495B6A9847A0680CF0A0F829
:10C02000036862499B699847A0680CF099F800235F
:10C0300002680093166804992A00B047049B002BFD
:10C040000AD020000BF0B5F8032805DDA0680CF03D
:10C0500087F80368DB6898470EA80BF018F82F20C4
:10C0600004ABC0180BF013F8362004ABC0180BF06B
:10C070000EF83D20042504ABC0180BF008F80EABF9
:10C080000A93A06804AB5D770CF06AF803680AA90C
:10C090001B699847A0680CF05BF803680AA95B6D00
:10C0A0009847A0680CF054F803680021DB6D9847AE
:10C0B000A0680CF04DF8036802219B6D98470021A1
:10C0C0002000FFF7FBFE1820FDF7A2F9A16800F0A1
:10C0D00005FA374B374A1B68A1680393364B15A8FE
:10C0E0001B6800260293354B0CAF1B680193069B1F
:10C0F0001B685B190093324B12681B68FFF7B6FD93
:10C100003020FDF785F9079AA16800F0A7FAA0682A
:10C110000CF01EF8036839009B6A9847294BBE80D3
:10C12000A0680C930CF014F803683900DB6A984798
:10C130002900A0680BF007F8099A09219378A068F4
:10C1400052190BF013F8A0680CF002F8C821067120
:10C15000A068FFF76DFD04AB1B7FB34204D0A0685D
:10C160000BF0F6FF0AF0D9FF09A809F098FE952315
:10C170009B009D44F0BD036107E703611FE7036176
:10C1800039E7C046ACFDFFFF8FAE02003170020000
:10C1900081BE01003F70020019B901004D7002001C
:10C1A0007B7002005B700200C9C10100FDC101008B
:10C1B000202700201C27002008200020182700200E
:10C1C0000C2000200800100013B506226846FDF779
:10C1D0003BFA094B1C68002C0AD0694601A809F0FB
:10C1E000B5FE200001A90BF005F801A809F057FEE3
:10C1F000684609F054FE13BD24270020002373B5C0
:10C2000001AE0C0031000500019302F0B7FD0028DB
:10C2100002D1B278064B1A70064B1868002806D077
:10C2200061426141044BC9B21D800AF0EBFF73BD4E
:10C23000F021002024270020A8290020F0B50400C8
:10C2400097B0039107A89C490592FDF7EDF99B492A
:10C2500008A8FDF7E9F922000FAD28001C3207A954
:10C2600009F08BFE08AA290009A809F086FE28001B
:10C2700009F015FE92490AA8FDF7D6F9A0680BF05F
:10C2800067FF03680DAE5B69984728000AF0FFFE60
:10C29000332004ABC0180AF0FAFE3A2004ABC018F1
:10C2A0000AF0F5FE412004ABC0180AF0F0FE80232E
:10C2B000DB00B380A0680D950BF04AFF03683100E6
:10C2C0005B6D9847A0680BF043FF036800219B6DEE
:10C2D0009847A0680BF03CFF0700002506000A37CE
:10C2E0001F22002138000DF014FCFD7730000AF009
:10C2F0000BFF0621A0680AF026FF099A092193780E
:10C30000A06804320AF032FFA0680BF021FFC821B8
:10C310000571A068FFF78CFCA0680BF019FFFF27E0
:10C320002E000581A0680BF013FF0AF0F6FE0398BB
:10C33000FEF7E8FB0AA90CA809F008FE78220CA970
:10C340000398FEF703FD0CA809F0A9FD039920004E
:10C350000AF06BFF2000FCF781FE0495012563695C
:10C360001D402DD057490BA8FDF738FA0BA90CA892
:10C3700009F060FE00220CA91300019200920398BC
:10C38000FEF788FC0CA809F048FE049B002B42D164
:10C39000043F282F41DD0025FE2F00DC049D059879
:10C3A0000AF066F8002806D0012362699A43130058
:10C3B00004221343636100260BA809F02EFE0495A6
:10C3C00004226369134233D0FF210398C826FEF785
:10C3D000E3FC0025B600A36902229B5EAB4222DD8E
:10C3E000200029B2183009F0DEFD00230100039877
:10C3F0001A007430FDF742FA3000FCF7C7FE0398CC
:10C400000AF053FAC820FCF7C1FE02226369134206
:10C4100009D10135DFE70437BBE703980AF045FA95
:10C42000002FBCDDBAE7FA208000FCF7AFFE002643
:10C43000022365691D421CD006331D4024D02249C9
:10C440000BA8FDF7CBF90BA90CA809F0F3FD00220E
:10C450000CA90192009213000398FEF71BFC0CA894
:10C4600009F0DBFD1948FCF791FE0BA809F0D5FD9A
:10C47000174E6420FCF78AFE164B01369E4200DC04
:10C480006CE709F0D8FB69E713490BA8FDF7A6F99B
:10C490000BA90CA809F0CEFD2B002A000CA90195D0
:10C4A00000950398FEF7F6FB0CA809F0B6FD0BA863
:10C4B00009F0B3FDDDE7C046A8AD0200B8AD02004B
:10C4C000BAAD0200C8AD02000DAE0200983A0000FD
:10C4D0008C0A00008B0A00004AAE02000022594B71
:10C4E000F0B50833060003600F001000A9B0B1607A
:10C4F0000BAB991801324870102AFAD10F3A524CFE
:10C500001A700E32105D991A0874013AFAD2997BAA
:10C510005A7B09020A4331000C31039125211B7813
:10C5200013AD2B7002ABC918452302A81B186A82F1
:10C53000180010220DF0D1FA039B64216B610123D6
:10C54000002402AA2B7752181993093313701DABDC
:10C550001C706D2302AA9B181C706E2321009B186F
:10C560001EA80C22EC836C621C700DF0D2FA374BC3
:10C570000C22210023A8AB63EC630DF0CAFA344B04
:10C5800002AAEB6446239B180322DA7722002C656B
:10C590000595347306AD2B1901345A70102CFAD15D
:10C5A00001232C482B700E33195CEA1A1174013BDD
:10C5B000FAD211212520AA7B6B7B12020BAC13430C
:10C5C0002A78638202ABC9182270C01810220DF0BD
:10C5D00084FA0123237505ABA36100233800A383EC
:10C5E0000BF0BAFD036821001B68984713ABDB8B87
:10C5F000B068B3820BF0B0FD002203680092B18AEC
:10C60000039ADC680123A047B0680BF0A5FD070082
:10C610001420FCF7FDFE00220123040002610692B3
:10C6200040C00832290007930DF057FA0A4BE36027
:10C63000BB69002B03D13000BC6129B0F0BD236180
:10C64000F9E7C046CC9F0200A7AE020023700200AB
:10C6500015700200B7AE02008B720200F0B5002622
:10C660000400734BDDB0083303608160C2608680D4
:10C67000867132006F4947A80AF0A7FE23001433E1
:10C680000125042708931223009704950193089A23
:10C69000330047A9039602961DA8FFF77FFA3200E0
:10C6A000654947A80AF091FE082022000097330050
:10C6B00015AF10320495019047A90396029632A84F
:10C6C000FFF76CFA32005D4938000AF07EFE230065
:10C6D000082004221C33099339003300049501908B
:10C6E00000920396099A029647A8FFF757FA32007C
:10C6F000534938000AF069FE5420FCF789FE050012
:10C700002000012312210422183007900493019184
:10C710000092390002003300280003960296FFF7CA
:10C720003DFA2800474BA5620822EC620AA9303086
:10C730000A930B960DF0D1F9434B0422AB6301230E
:10C7400029352B7009992661E66107980DF0C5F926
:10C750000422079908980DF0C0F96621032304AA62
:10C760008918CB77BA2104AA8918CB77872104AA24
:10C7700049008918A26ACB77911CA685CB771DAB9F
:10C780000C9332AB0D930F9247AB32002F4910A898
:10C790000E930AF01AFE3021452004AB5B181B787B
:10C7A00012313B7004AB5B181B8811397B8204ABE0
:10C7B000C918C01810220DF090F904220CADA06821
:10C7C0003A75BD61BE830BF0C7FC036839001B6876
:10C7D0009847822204AB9B181B885432238404ABF5
:10C7E0009B181B885432A38404AB9B181B88A06839
:10C7F00063840BF0B1FC07001420FCF709FE050070
:10C80000134B066108221093119610A910C00DF069
:10C8100064F9104BEB60BB69B34206D1BD612000E7
:10C82000FCF71CFC20005DB0F0BD2B61F6E7C046B4
:10C83000D89F0200E7AE0200C7AE0200D7AE0200EA
:10C84000F7AE02009D7302000973020007AF0200F9
:10C85000C1C8010033730200F0B504000E001500DA
:10C8600085B01F000CAB1B881030019309F0A8FBAA
:10C87000268065801820FCF7CBFD02AE0500330052
:10C880000AAA03CA03C32F602800082700213A0020
:10C890000C300DF03EF93A003100281D0DF01DF965
:10C8A000064B02226B61200000230199A5600A4318
:10C8B000E360A2802362636205B0F0BD5D73020095
:10C8C000F0B50B898DB00593CB68060004934B88B7
:10C8D000828C9A420ED1049C049B059A9B181B1BC8
:10C8E000032B3BDD62882188012308A809F072FB35
:10C8F0000434F1E7428C9A4230D1049C049B059A9F
:10C900009B181B1B032B29DD238828200693638893
:10C91000F7680793124B089300230993FCF778FDFF
:10C92000C0236A460500029308AB03CB03C2330061
:10C930000699079A2800FFF78FFF3B6829005B687C
:10C9400038009847002807D0002D05D0280009F0AE
:10C950005CFA2800FCF77CFD0434CFE70DB0F0BD95
:10C960001B74020070B5040090B080680AF050FD9E
:10C97000022101401AD1A38D002B17D00C4B6A461F
:10C9800004931023E568A1850591029304AB41CB84
:10C9900041C20A00230006A8FFF75EFF2B6806A924
:10C9A0009B682800984706A809F02FFA10B070BDC0
:10C9B0001B740200002815D0006041608260C360D3
:10C9C000046145618661C761444604624C46446225
:10C9D000544684625C46C462644604636E464663A1
:10C9E00074468463002A06D0C46B043C043A25686C
:10C9F0001560B442F9D18C6BA6464E6BB546002B40
:10CA000006D0CC6B043C043B1D682560B442F9D1D0
:10CA10000C6BA446CC6AA3468C6AA2464C6AA1461B
:10CA20000C6AA046CF698E694D690C69CB688A682B
:10CA3000086849687047006041608260C3600461B3
:10CA400045618661C761444604624C46446254466F
:10CA500084625C46C462644604636E464663744600
:10CA60008463C46B043C043925680D60B442F9D179
:10CA7000C7698669456904697047006041608260E2
:10CA8000C360046145618661C761444604624C46E7
:10CA90004462544684625C46C462644604636C46E5
:10CAA00044637446846304697047846BA646446B90
:10CAB000A546046BA446C46AA346846AA246446A97
:10CAC000A146046AA046C769866945690469C368C6
:10CAD000826800684168704710B5041E0CD00DF0E4
:10CAE00060F8431EE3189C4208D222781978013B73
:10CAF00021705A700134F6E7014810BD0020FCE7B0
:10CB000017FCFFFFF0B585B002900C1E2AD0002361
:10CB1000C217161A56400193019B30005D1C631921
:10CB20000A215F1E039303F0F3FF4942303139704D
:10CB300030000A2103F006FF47420600002F0FD104
:10CB4000029B002B04DA2D23019D039A02351370FA
:10CB5000002320006355FFF7BFFF380005B0F0BD8C
:10CB60000195D9E7004FF8E717FCFFFF10B5826089
:10CB70004A4304004160002A0ADD074B90009A42B4
:10CB800001DD01204042FCF743FC2060200010BD85
:10CB900000230360FAE7C046FEFFFF1F4A688B6868
:10CBA00070B58360534304000D004260002B12DD1A
:10CBB0000A4A9E003000934201DD01204042FCF70A
:10CBC00027FC002320602A68D158C15004339E42BC
:10CBD000FAD1200070BD00230360FAE7FEFFFF1FBB
:10CBE00070B5002817D1114D2E68002E11D10830D4
:10CBF0000CF085FD066046600D4E04003368002B86
:10CC000002D10BF094FE306023682C609B00F35837
:10CC10006360286870BD0122064907480B6813400D
:10CC2000F8D1026043600A60F4E7C0462C27002078
:10CC3000382700202827002030270020002370B547
:10CC400004000160436099420AD1064D2B68002B15
:10CC500002D10BF06CFE286023689B00EB586360E8
:10CC6000200070BD38270020436810B50400002B59
:10CC700002D104480CF051FC606803681B699847B6
:10CC800010BDC04617AF0200436810B50400002B6A
:10CC900002D104480CF041FC606803689B69984726
:10CCA00010BDC04617AF0200436810B50400002B4A
:10CCB00002D104480CF031FC606803685B6A984755
:10CCC00010BDC04617AF020010B5040002F028FCEA
:10CCD000034B1B68002B01D02000984710BDC046B5
:10CCE00040270020F0B58BB0050001F087FE002042
:10CCF00000F0ACFE036807001B6998473B6804001E
:10CD00009B69380098473B6806005B6A3800984783
:10CD10000300288810380B2862D803F07FFD063EF8
:10CD20006161615B616161676179AF882000390091
:10CD30000BF0C4FB22006B7B583201931378A87967
:10CD40009C46022361460B43137004AB1F800123F2
:10CD500004AA9370D07013006A461279E91D9A7282
:10CD60002B000622163305A809930CF0B6FE290005
:10CD70000B2004AB06220E31C0180CF0AEFE94342A
:10CD80006368A360A06800282AD0C36804A99847F4
:10CD9000A368002BF4D01B69F3E720002F49AF886C
:10CDA0000BF08CFB2200022058321378A9798343C0
:10CDB000137004AB1F809970A0346368A360A068EF
:10CDC00000280DD0C36804A99847A368002BF4D0AD
:10CDD0001B69F3E75B69A888A91D002B00D0984761
:10CDE000290030000BF0F9FE0BB0F0BD636E002B94
:10CDF000F6D0AF79A366A06E0028F1D0C3683900E1
:10CE00009847A36E002B01D1636EF3E71B69F1E72E
:10CE1000012269460D27AB7BEF571A4001925A0752
:10CE2000920FDB080A720B730622E91D04A80CF0AE
:10CE300054FE6A46127904ABDA716A46127A9F711F
:10CE40001A726A46127B20005A722B000F33079326
:10CE50008C348030236804A99847C1E7FFFF0000A5
:10CE60000723D72802D9024B186000231800704707
:10CE70003C270020014B18607047C0464027002027
:10CE80001FB58022A323D205DB00D3580820DB077F
:10CE900000D405301C4B48221C4902F011FE00282A
:10CEA0000AD080B2002807D1BFF34F8F184B194A20
:10CEB000DA60BFF34F8FFEE7002302A8029301332D
:10CEC0000370154B1B6843600BF052F9002802D029
:10CED000072005B000BD68460BF048F90028F7D1DF
:10CEE00069460BF041F90028F2D10C4802F018FE17
:10CEF00080B20028EDD10A4802F01CFE80B2002862
:10CF0000E7D100F01FF8E4E7758102004427002014
:10CF100000ED00E00400FA053C270020E5CC01000C
:10CF2000C9CC010080B2002807D1BFF34F8F034B5B
:10CF3000034ADA60BFF34F8FFEE7704700ED00E071
:10CF40000400FA051FB5002302ACA380104B01A812
:10CF50000293C8235B00E380803BFF3B0370052204
:10CF60000C490BF013F980B200280FD1802080000B
:10CF70000BF008F980B2002808D120000BF004F96A
:10CF800080B2002802D10BF0FBF880B204B010BDD3
:10CF9000280090013AAF0200024B0B600923136096
:10CFA0007047C04640AF020010B50400002000F0FA
:10CFB0004DFD03681B6998470300F3331C708623FB
:10CFC0005B00C05003000021044AFC335A61044A4C
:10CFD00099615A62F4300CF01CF910BD798302009B
:10CFE0008B830200012110B5044A080002F0A6FC60
:10CFF0000023984200D00B33180010BDA9CF0100C8
:10D00000F8B505000400AC356B68AB60A868002873
:10D0100007D0C36821009847AB68002BF4D01B6988
:10D02000F3E72600B0363568002D05D02F692800BB
:10D030000CF061FB3D00F7E72200FC21356058321F
:10D04000137826000B40137023000A365C331D70E2
:10D050001F22290030000CF05CFDF5772A361F22D4
:10D06000290030000CF055FDF577606E002804D0E3
:10D0700005690CF040FB2800F8E72500983560664C
:10D080002868002804D006690CF035FB3000F8E76A
:10D090002600A43628603568002D05D02F692800A9
:10D0A0000CF029FB3D00F7E72000356029000C2239
:10D0B0006C300CF02EFD2000074BE567A3672900BC
:10D0C0000C2280300CF025FD2300044A8C33903470
:10D0D00028001A602560F8BD6B8302005D830200A2
:10D0E000F0B593B0019000200C0000F0AFFC036895
:10D0F0005B6A984700F082F906AB00280ED0002248
:10D100001A7105AA0692082218001A730AAA9A60D0
:10D1100000F042FA002803D013B0F0BD1871187364
:10D12000002727732771019BBA331B78BB4242D972
:10D1300007237B431A000199BB32CB18BB331B7802
:10D140008A180292022B2ED1002506AE337BAB4209
:10D1500023D9AB000393089BAA00995802980BF0BF
:10D16000B7F900281CD0B3689C46AB001900237B9C
:10D17000614402939A000868A368D050029B01336F
:10D180002373337B5A1E954205D00C481B1860460A
:10D190009B001B580B6006AB1A730137FFB2C2E746
:10D1A0000135EDB2D1E72379216802989A00013365
:10D1B00050502371F1E70020AEE7C046FFFFFF3F6C
:10D1C000F0B50A7804009BB00D000220012A08D0B7
:10D1D0004B88032A07D1A03B21499BB210008B4208
:10D1E00007D91BB0F0BD203B1E4A9BB203209342DF
:10D1F000F7D81D4BAA8803209A42F2D80AAB0093B5
:10D2000012AB02936A460023260013711373B836DB
:10D210003378002B1DD104AF1822002138000CF008
:10D2200078FC2B7838003B7033783B726B46FB60A0
:10D230006B883B82AB887B820AF0B4FF020003203C
:10D24000002ACED101235834217810000B432370DB
:10D25000C7E769462000FFF743FF0028DBD0C0E79F
:10D26000603F0000E03F0000FF3F0000F0B59DB0D0
:10D270001E006B4604001A70581C0622229D0CF0FA
:10D280002CFC002E2ED0328802AB1A8072885A8075
:10D29000B2889A80F288DA800CAB04AE049314ABA7
:10D2A000B36027000023B937337133733B78002B09
:10D2B0001ED101223B78022708A9134058000B78A1
:10D2C0004E60BB430343002D1AD12000323000785A
:10D2D0009343104003430B70A38D0B81E38D4B816F
:10D2E000238E17E01A4B029396239B040393D3E7F4
:10D2F00031002000FFF7F4FE0028DAD01DB0F0BDA9
:10D30000A8799343104003430B702B880B816B88E3
:10D310004B81AB8802AA68468B810AF059FF030053
:10D3200000208342EAD00630082BE7D006D801302F
:10D33000042BE3D0834209D10420DFE70520112B21
:10D34000DCD0044A9342F7D0102BF5D00B20D5E760
:10D35000320064000232000070B500200D0000F0C1
:10D3600075FB03685B6A98472B780400142B1ED06A
:10D3700003D8132B0CD0002070BD152B1FD0222BEF
:10D38000F9D16B6818882369002BF4D09847F2E72D
:10D390006B68012518889B78646819005A08DB06B9
:10D3A00029402A405B0F002CE5D0A047E3E76B68DB
:10D3B00018889978A368002BDDD09847DBE7686868
:10D3C000827813091207120F012A03D0022A0BD008
:10D3D000002106E0013BDBB20021022B01D8064A06
:10D3E000D15C0088E368E6E70421012BF9D0013124
:10D3F000022BF6D0ECE7C04649AF0200014B18788B
:10D400007047C046012A0020F0B51D000023304FB0
:10D4100087B000923A7806000C009A4204D102F0DC
:10D42000B3F8002803D00B23180007B0F0BD002D7F
:10D430000ED003A9222003950BF048F8002807D04E
:10D4400006230828F0D01138434243410433EBE768
:10D45000002302AA1000137001F08AF80028E2D11C
:10D4600001251C4902220B782E40AB43334307268B
:10D4700093430193009B2C4033409340AC409C4627
:10D48000019B02AA1C431C239C4363461C430E239E
:10D490009B181880104B0C700393022303AC23716C
:10D4A000093002AB0522C0180CF017FB21000B4815
:10D4B00001F0C8F8002807D033000428B4D0013B9D
:10D4C0000828B1D00533AFE73D700300ACE7C04694
:10D4D000012A0020F121002059D30100022A002056
:10D4E00010B5074801F086F90023984206D00733AB
:10D4F000042803D0013B082800D00533180010BDD4
:10D50000022A0020002373B501930F4B01AD1B7855
:10D510000E0029002B7001F031FC041E05D00423FD
:10D52000052800D00733180076BD3100280001F02F
:10D53000C3F823000028F6D007230428F3D0013BCA
:10D540000828F0D00533EEE7022A002073B5114C0D
:10D550000E0005000522210068460CF0BEFA012EDF
:10D5600003D0022E10D002230CE002222378B34312
:10D5700093436946280023700AF0A6FF00239842CF
:10D5800000D00B33180076BD012322781343B34338
:10D59000EFE7C046F1210020094B10B51A780100D1
:10D5A0000923002A09D0074801F0BEF80023984259
:10D5B00003D003330E2800D00333180010BDC0463B
:10D5C000012A0020022A002000487047FFFF0000C7
:10D5D000F0B597B00593036807AD1B6804910393FA
:10D5E00011002B00060091C991C30024D3682100CB
:10D5F0000C220CA8EB602C610CF08BFA22000B4B78
:10D6000010940F9311AB1C70191901344A70102C2F
:10D61000FAD15A820193059B2A00009304990CAB1E
:10D620003000039CA04717B0F0BDC046E78502005C
:10D6300070B5FC30046C0500002C0DD124200CF0DA
:10D640005EF8064B44608361054B8460C4600461EE
:10D650004461C46103602864286C70BD50A102005D
:10D6600038A2020070B5FC30C56B0400002D11D14A
:10D6700034200CF044F8084B85604360074B45614B
:10D680000361074B0562C361064BC5628362064BAB
:10D69000E0630360E06B70BD80A1020070A1020036
:10D6A000E0A10200F0A1020000A202007FB5037910
:10D6B0001548002B22D0154E154C33782000002B36
:10D6C0001CD102AD28000AF079FF002810D16B8828
:10D6D000592B0DD12B78AA88D91F012910D8009277
:10D6E0000C4A2021200007F059FC0123337004E08C
:10D6F0002022094920000CF05BFA200004B070BD24
:10D700000092064AEDE7C0464CAF0200232A0020F3
:10D71000032A00206EAF020066AF02008BAF02004A
:10D7200010B50400024B08C00BF01AF8200010BD21
:10D7300070A1020010B50400024B08C00BF025F8E0
:10D74000200010BD80A10200064B70B504000360EC
:10D750004068002804D005690BF0CDFF2800F8E7E9
:10D76000200070BD60A10200064B70B5040003608C
:10D770004068002804D005690BF0BDFF2800F8E7D9
:10D78000200070BD90A10200064B70B5040003603C
:10D790004068002804D005690BF0ADFF2800F8E7C9
:10D7A000200070BDA0A10200064B70B5040003600C
:10D7B0004068002804D005690BF09DFF2800F8E7B9
:10D7C000200070BDE0A10200064B70B504000360AC
:10D7D0004068002804D005690BF08DFF2800F8E7A9
:10D7E000200070BDF0A10200064B70B5040003607C
:10D7F0004068002804D005690BF07DFF2800F8E799
:10D80000200070BD84A00200064B70B504000360C8
:10D810004068002804D005690BF06DFF2800F8E788
:10D82000200070BD94A00200064B70B50400036098
:10D830004068002804D005690BF05DFF2800F8E778
:10D84000200070BDA4A00200064B70B50400036068
:10D850004068002804D005690BF04DFF2800F8E768
:10D86000200070BDB4A00200064B70B50400036038
:10D870004068002804D005690BF03DFF2800F8E758
:10D88000200070BD50A1020070B5FC30046C050092
:10D89000002C0DD124200BF032FF064B4460836135
:10D8A000054B8460C46004614461C4610360286402
:10D8B000286C70BD50A1020038A20200104B10B5B8
:10D8C000083303600F4B0400C36080230E4A5B00E3
:10D8D000C250C018FCF7ECFF20000C4BB830E360DE
:10D8E000FFF7B2FF2000AC30FFF79EFF2000A03012
:10D8F000FFF78AFF20006C30FFF776FF200010BD95
:10D9000064A20200F89F02008CA30200C4A00200DF
:10D91000444AF0B50600C260A022434B16360833D5
:10D9200003600100002342820400320085B00371CD
:10D930008360037483823531137001329142FBD1CD
:10D94000802580222000AD00D201F37735841100BC
:10D9500000933830002300F029FB230021004033DE
:10D9600003931A002B0000255F31157001328A42A3
:10D97000FBD1039AFC21D577220060321380137902
:10D9800020000B401371230068331D70274B25675F
:10D99000E3660C22002178300CF0BBF8230027004E
:10D9A00088331D60224B0837FB67843700210C2227
:10D9B00038000CF0AEF81F4B1F4AFB602300A03369
:10D9C0003D611A601D4A5D60DA601D4A1D619A6101
:10D9D000DD6130000AF0A2FF03980AF09FFF194BA7
:10D9E000601CE3602300C4331D705D709D70FF30C8
:10D9F00002F0ECF88C235B00E55023001933FF3371
:10DA00005D618023104A5B00E25023000122200068
:10DA1000FE3352425A86023B9D63DD631D6405B0AE
:10DA2000F0BDC046C4A0020064A2020084A00200AF
:10DA30006B8302005D83020094A00200A4A0020098
:10DA4000B4A00200F89F02008CA3020070B5074C3E
:10DA50002368002B07D1A02040000BF050FE0500EA
:10DA6000FFF756FF2560206870BDC0468C27002058
:10DA700070B50C220D00002104000CF04AF80023C0
:10DA80002361024B25602000E36070BDD985020050
:10DA900070B500250400254B85800360244BC560CC
:10DAA0008360244B85614361234B45620362234BB2
:10DAB0000563C362224BC563836329004430FFF7CB
:10DAC000D7FF200029005830FFF7D2FF200029009F
:10DAD0006C30FFF7CDFF1B4B220023602300803208
