:020000021000EC
:108000000040002019070200550702005707020030
:108010000000000000000000000000000000000060
:1080200000000000000000000000000059070200EE
:1080300000000000000000005B0702005D07020076
:108040005F0702008DB40100C50302005F07020054
:108050005F07020000000000190502005F07020030
:108060005F0702002DFF0100890402005F07020084
:108070005F0702005F0702005F0702005F07020060
:108080005F0702005F0702005F0702005F07020050
:108090005F07020099F90100C5FB01005F070200BC
:1080A0005F0702005F070200000000000000000000
:1080B00000000000000000000000000000000000C0
:1080C00010B5064C2378002B07D1054B002B02D0AE
:1080D000044800E000BF0123237010BD28220020C7
:1080E0000000000090B00200044B10B5002B03D03C
:1080F0000349044800E000BF10BDC0460000000076
:108100002C22002090B00200164B002B00D1144B03
:108110009D46402292029A1A924600218B460F46B3
:108120001348144A121A11F0A3FC0F4B002B00D075
:1081300098470E4B002B00D09847002000210400E8
:108140000D000D48002802D00C4800E000BF0CF0E4
:1081500055FE2000290011F0B2F80CF039FEC0469F
:1081600000000800004000200000000000000000A7
:1081700020220020CC2A0020000000000000000087
:1081800030B500248BB0154906A80DF050FF144DF2
:108190002300220006A901940094280002F024FD87
:1081A00006A80DF037FF02220F23082106A803F0CE
:1081B00051F8012106A803F099F80A4B186800F05D
:1081C000B9FF210006A803F091F89620400000F0C6
:1081D000B1FF28000EF066FB0BB030BD4822002036
:1081E0006C2300200820002030B500248BB01549F6
:1081F00006A80DF01CFF144D2300220006A90194CF
:108200000094280002F0F0FC06A80DF003FF022203
:108210000F23082106A803F01DF8012106A803F08A
:1082200065F80A4B186800F085FF210006A803F0E6
:108230005DF8322000F07EFF28000EF033FB0BB01B
:1082400030BDC046442200206C23002004200020C2
:1082500010B50400034B036040300DF012FE200007
:1082600010BDC046089D0200F0B585B01F000AABE6
:108270001B880600029115000393002F1CD02820B4
:1082800001F09AF86B4604001989039BAAB2009387
:108290003B000DF095FD336821005B683000984786
:1082A00000280AD0002C05D020000DF0A0FD2000F1
:1082B00001F0A2F8024800E0024805B0F0BDC04657
:1082C00016FCFFFF17FCFFFFF0B510258BB04948E7
:1082D00000F082FB484C494B03220121009520000D
:1082E000FFF7C2FF464B0422012100952000FFF753
:1082F000BBFF0A2000F01EFF01F026F903900F23B8
:108300000122092106A802F0A5FF002406A803F017
:1083100023F8012805D1002CF8D101F015F904004B
:10832000F4E701F011F905000A2000F003FF354FD2
:10833000002C16D096232C1BDB009C420EDC324B0B
:108340002E211B681433A34205DC304B1B68143309
:10835000A34203DD2D21380011F008FB01F0F4F8F1
:1083600003907B68002BCAD001F0EEF8039BC01A83
:108370009623DB009842C2D9254EB568341D002DE6
:108380000BD02800390010300DF011FB002802D16D
:108390002C00AD68F3E7ED68F1E7351DAC4207D07E
:1083A0002100380010310DF002FB002800D02C0015
:1083B000184B04361C60184DB44214D1174905A857
:1083C00001F006F9C82205A95200280002F036FC87
:1083D00005A80DF056FDAF20800000F0ABFE280090
:1083E0000EF060FA8BE72834217805A80DF073FDB4
:1083F000E8E7C04680220020502300208181010050
:10840000E98101004C2200200820002004200020E7
:1084100068220020642200206C230020EDA90200C5
:10842000F0B5BF4C1C27A544BE4C7F42200000F095
:1084300013FABD4EBD493200200011F060F9BC4C6A
:10844000BC4920000DF077FA3200BB49200011F042
:1084500056F9BA4CBA49200001F094F9B94D3200EE
:108460002900200011F04BF9B74CB849200001F069
:1084700089F932002900200011F041F9B449684619
:108480000DF059FA41236A46B249137607A80DF058
:1084900052FA42220DAB1A70AF490EA80DF04BFAFA
:1084A000432214AB1A70AD4915A80DF044FA4422CA
:1084B0001BAB1A70AA491CA80DF03DFA452222AB4D
:1084C0001A70A84923A80DF036FA462229AB1A7073
:1084D000A5492AA80DF02FFA472230AB1A70A349FC
:1084E00031A80DF028FA482237AB1A70A04938A8F5
:1084F0000DF021FA49223EAB1A709E493FA80DF0BB
:108500001AFAFF234A226B445A759B4946A80DF07C
:1085100012FA98234B2269465B00CA544DA897492A
:108520000DF009FAA6234C2269465B00CA5454A8F0
:1085300093490DF000FAB4234D2269465B00CA54FA
:108540005BA890490DF0F7F9C2234E2269465B0003
:10855000CA5462A88C490DF0EEF9D0234F22694627
:108560005B00CA5469A889490DF0E5F9DE23502261
:1085700069465B00CA5470A885490DF0DCF9EC230C
:10858000512269465B00CA5477A882490DF0D3F99D
:10859000FA23522269465B00CA547EA87E490DF038
:1085A000CAF98423532269469B00CA5485A87B4993
:1085B0000DF0C1F98B23542269469B00CA548CA844
:1085C00077490DF0B8F99223552269469B00CA54A9
:1085D00093A874490DF0AFF99923562269469B0080
:1085E000CA549AA870490DF0A6F9A02357226946EB
:1085F0009B00CA54A1A86D490DF09DF9A7235822EC
:1086000069469B00CA54A8A869490DF094F9AE23A5
:10861000592269469B00CA54AFA866490DF08BF9F0
:10862000B5235A2269469B00CA54B6A862490DF088
:1086300082F9BC23312269469B00CA54BDA85F4918
:108640000DF079F9C323322269469B00CA54C4A8AD
:108650005B490DF070F9CA23332269469B00CA5466
:10866000CBA858490DF067F9D123342269469B0005
:10867000CA54D2A854490DF05EF9D823362269466F
:108680009B00CA54D9A851490DF055F9DF23352272
:1086900069469B00CA54E0A84D490DF04CF9E62309
:1086A000372269469B00CA54E7A84A490DF043F9AE
:1086B000ED23382269469B00CA54EEA846490DF0C6
:1086C0003AF9F423392269469B00CA54F5A8434974
:1086D0000DF031F9FB23302269469B00CA54002378
:1086E0003F4CF5AD221DE26022612371A3606361FE
:1086F000FCAA20000DF092F96F4428001C3D11F0F7
:10870000D4F8AF42F9D132003649200010F0F7FF1B
:108710000022354B1A60FD239B009D44F0BDC046EE
:108720000CFCFFFF8022002000200020ED870100CC
:108730004C22002054A90200619902004822002026
:1087400020A90200156002004422002055A9020061
:10875000A4A90200D6A902008EA90200DDA9020088
:10876000E5A9020093A90200E3A90200CAA9020038
:10877000DEA90200B8A90200A3A9020098A902007C
:10878000EAA90200E4A90200E9A902009DA90200E9
:10879000A2A902008FA90200D7A90200EBA902003A
:1087A000A8A90200C4A90200ADA90200A7A902005D
:1087B000ACA90200DCA90200B1A90200B7A902001D
:1087C000BDA90200C3A90200C9A90200CFA90200E5
:1087D000D5A90200DBA90200E1A90200E7A9020075
:1087E00068220020A159020064220020EB23194ACC
:1087F0009B0010B5C2501C330400C0180DF041FBA3
:10880000F1239B00E0180DF03CFB84239B00E01853
:1088100001F08EFB2000C530FF3001F0ADF82000E4
:108820008D30FF3001F04AFB20006530FF3001F051
:1088300045FB2000EC3002F01DF82000D03002F0A3
:10884000F3FB2000643007F0CFF9201DFFF700FD97
:10885000200010BD0C9F02001423F0B5040095B059
:10886000009319221821043002F060FE2200270034
:108870006432B43713211000119207F0C1F93800A7
:108880000EF05EFB2200B83210921E2100221098DA
:108890000EF00DF82000D03002F0E6FB2200EC32A2
:1088A00012920621494A129802F008F82000002688
:1088B000012365301A0000961121FF3001F00AFBF8
:1088C00020008D300096012302221A21FF3001F092
:1088D00001FB25002000C535B530FF351A230222E3
:1088E0000121FF3002F07EFC109904233A22280077
:1088F00001F0F2F884229200A218139205231D229F
:10890000019300923B002A001099139801F006FD94
:1089100096229200129BA01813992A0001F0D8FE0B
:1089200099229200A01839001C2202F02BFF192373
:108930009F220F93013B0E93013B0D93013B0C9340
:10894000013B0B93013B0A93013B0993013B0893C5
:10895000013B0793013B0693013B0593013B0493C5
:10896000013B0393013B0293013B01939200013BC6
:10897000A01800930822013B07210DF0A0FFEB2374
:108980009B00E018390003F09DFAF3239B00E018E8
:108990001D2102F017FDFD239B00E6501198267063
:1089A000032110F0BCFB23002200200008499C3367
:1089B000A0321C6011605660064A80305A61022164
:1089C000012207F05BFE200015B0F0BD109D0200F3
:1089D000D15A0200BB5A02000123F0B5067889B0D3
:1089E00004001E4000D0ADE0FD20800500F0ACFC8E
:1089F0002300D0331800029300F080FA00F0A6F9AB
:108A0000282000F0D9FC050010300DF0D6FA4E4BAE
:108A100018202B6000F0D0FC07004C4B04600822AB
:108A200031000C300693079611F022F806A9381D84
:108A3000082211F001F8464B29007B611223AF6038
:108A4000EE60AB802E626E62029802F085FA00281A
:108A500005D028000DF0CBF9280000F0CDFC012353
:108A6000227864201343237000F064FB0025230068
:108A70006533FF33180003930DF0F7FC00283CD05A
:108A800020008D30FF300DF0F0FC002835D00A2D8D
:108A900033D06420013500F04DFB0A2DE7D12D497C
:108AA0002D4800F027FCFD27EB23BF009B00E618B4
:108AB000E359002B1AD100F05DF8010004A800F082
:108AC00087FD05A80DF076F8012305AA04A90093F7
:108AD0003000029B03F04AFA05A80DF0D2F904A871
:108AE0000DF0CFF9ED239B00E358E3512100039AE9
:108AF000EC31300003F0E0FBB9E7FD2515491648DD
:108B0000AD0000F0F7FB6659002E1BD100F032F8E3
:108B1000010004A800F05CFD05A80DF04BF8EB2364
:108B20009B00E01805AA029B04A9009603F01EFA18
:108B300005A80DF0A6F904A80DF0A3F9ED239B00FC
:108B4000E358635109B0F0BDFD030000435B020030
:108B5000035B020000200020001C0020BFF34F8FA9
:108B6000024B034ADA60BFF34F8FFEE700ED00E0EF
:108B70000400FA05F0B58DB005AF1922154938008B
:108B800010F05AFF0022144B05245A71802252051E
:108B9000566E012225000194029203930199300040
:108BA00007F00AFF0800029907F080FE019B039975
:108BB0006B430193029B361A6B430293631E2C1B7B
:108BC0006C433C19225C1C1ECA54E7D108000DB04E
:108BD000F0BDC04625AA0200FA290020F0B597B0E2
:108BE00018220021060010A810F042FF132110A83F
:108BF00010F0D4FB032110A810F09FFC4C4B1B6815
:108C0000002B00D10133DBB202934A4A0123002139
:108C10000BA807F06DFC484B9E4200D9002672B6A7
:108C2000464B64211D68464B30000793052407F02E
:108C3000C7FE60435030281808900A21300007F022
:108C4000BFFE0A2107F0A2FF614350316918099164
:108C500030000A2107F09AFF80236143002450313D
:108C600069189B010A910193029B002B5DD000259E
:108C700000272E1F07AB9B190593032C03D18023DC
:108C800000249B01019307AB5B592E4A03936300B9
:108C9000D31804930023190006205843049A161889
:108CA0007678B4466246039EB25C10269446049AD7
:108CB000105C62460641164202D0012098400143F2
:108CC0000133092BE8D1C9431F4B059A090119400B
:108CD0001268039B934225D1312F23DC00210BA87E
:108CE00010F003FDFA23159A1199DB001068014278
:108CF0001BD0013B002BF9D1019B01345B00019398
:108D0000FA230137E4B25B009F42B6D10435102D3F
:108D1000AED1074B1B68002BA6D0029F013FFBB2D0
:108D20000293A1E7019B1943D9E7FFF717FFC0465C
:108D30007C260020F0FF0000E70300000C2000204C
:108D400074AA02003EAA0200F01F0000F8B500233A
:108D5000124C23600CF04FFF002808D004212000A3
:108D60000CF045FF002801D00D4B2360F8BD012217
:108D7000A12704250B4B0C491A602268FF004860AC
:108D80004E68002EFCD0DE591202013D3243002D08
:108D9000F5D1226001225A60E8E7C046782600201B
:108DA000ED5EBC0B00D00040FCD000400B4B70B51A
:108DB0001C68002C10D0656D00F0C6FBA36C002968
:108DC00001D1834206D820000CF048FF044920005E
:108DD0000CF032FF2C00ECE770BDC046842600206A
:108DE000A4260020F0B593B007932A4B04AC1E686C
:108DF000049005910692002E4AD0274B258867885B
:108E00001C6800230293002C2ED0636D234803932B
:108E1000A36C9AB2A36C1B0C99B2854214D1204862
:108E2000824211D1002B01D0B9420BD1029B002B01
:108E300008D120000CF012FF1A4920000CF0FCFEB3
:108E400001230293039CDEE7002A01D09542F9D169
:108E5000002B01D0B942F5D120000CF0FFFE1149E2
:108E600020000CF0E9FEEDE70F4BEB18012B0FD9BA
:108E700010233A00009329000C4B08A80CF0A0FF27
:108E8000336808A99B683000984708A80CF0AFFF2A
:108E900013B0F0BD80260020B0260020FE030000A5
:108EA000FF030000A426002002FCFFFFE58D010067
:108EB00010B572B60B4B1C68002C08D020000CF0CB
:108EC000CDFE0023E364084B2000E36310BD62B6CF
:108ED0005C2000F071FA5C220021040010F0C8FD53
:108EE000EFE7C046A826002000400020024B18787B
:108EF000012318407047C046002A0020F7B506003D
:108F0000FFF7F4FF051E33D11A4C2660FFF7D0FFA0
:108F1000194B1A4918600CF08FFEFFF7C9FF184B68
:108F20001860184B4363184B8363206800280ED0E9
:108F3000C027164E2A00330015490097FFF794F911
:108F4000009733002A0013492068FFF78DF90C20A1
:108F500000F032FA0023838083710F4B03600F4BC4
:108F6000836000F009FB01230D4A11780B43137055
:108F7000F7BDC04680260020B4260020A42600208D
:108F8000AC260020FC3F0020235D0200E58D01009F
:108F9000FF030000FE030000309D0200AD8D0100C4
:108FA000002A0020F7B506000D00170001930028E5
:108FB00002D100242000FEBD0029FAD0FFF778FF7F
:108FC000041EF6D0074B019A436306604560876034
:108FD000054B002A00D0054BA363054920000CF087
:108FE0002BFEE7E7FC3F0020ED5C02000B5D02007A
:108FF000A4260020024B1868434258417047C046DF
:10900000A4260020002310B504499C006258002AC1
:1090100001D00133F9E76050100010BD8C2600200C
:10902000002310B5044A99008C58844201D00133C2
:10903000F9E70020885010BD8C26002010B50024D0
:10904000084BA200D058002802D003685B689847FC
:109050000134062CF4D1044B1B68002B00D120BF37
:1090600010BDC0468C260020A4260020F8B5FFF7CE
:109070003DFF00281BD0294D2C68E36CDA0717D57B
:1090800002263343E3640423254F3868C26C13433C
:10909000C364636BC3630CF007FE3868416C03F074
:1090A00008FD2868C36C334201D003F03CFDF8BDD5
:1090B0001C4F1D4E3A683168002A1ED129602A686B
:1090C0008A4208D11B0706D52C60FFF7B7FF3B6823
:1090D000002BFAD02B6029688C42E8D03368994283
:1090E00014D1124B4B63124B8B6320000CF0DCFD50
:1090F0002968626C4B6C20000DE0206DB84203D1F2
:10910000606D002800D002002A60D8E79C42ECD1B4
:10911000002210004B6C03F08BFCC8E7B426002043
:1091200088260020A4260020AC260020FC3F00203A
:10913000235D020070B50500FFF7D8FE002803D1BB
:10914000280010F0EEF970BD0C4B1C68E36CDB07D7
:1091500006D5FFF7ADFE0A4B1860002800D00400CA
:1091600000F0F2F92D18A56420000CF077FD0549F8
:1091700020000CF061FDFFF779FFE4E7B426002042
:109180008826002084260020F0B51E4B1E4F1C6848
:109190003B6885B006000391002B30D0FFF7A6FE98
:1091A00000282CD0E36CDB070ED5FFF781FE174BB0
:1091B000051E186008D00CF051FD154928000CF070
:1091C0003BFD2C00FFF752FF039B20001B043343A1
:1091D000A3640CF043FD20000E490CF02DFD0E4B56
:1091E0000024F318012B07D9C0230093039A0B4BDB
:1091F00031003868FFF738F8200005B0F0BD084CA2
:10920000FAE7C046B42600208026002088260020E9
:10921000A4260020B026002002FCFFFFE58D0100FF
:1092200016FCFFFF10B5FFF761FE002809D0054CC2
:1092300020680CF013FD044920680CF0FDFCFFF7DA
:1092400015FF10BDB4260020A8260020F7B50700A2
:109250000D0000282ED0FFF749FE00282CD007244F
:10926000164E3068C36C1C4007D0154A29003800E0
:109270000CF00BFD00242000FEBD03F03CFC02219D
:109280003268D36C1940019103D003218B43D3641E
:10929000F1E701242343D3642800B8473268D36C34
:1092A0001900A143D164019C5B07E4D528000CF0B0
:1092B00024FDE0E7034CDEE7034CDCE7B4260020A6
:1092C000FB5C020017FCFFFF16FCFFFF020010B55D
:1092D000014B12CB12C210BDB8260020034B1A68F6
:1092E000034B1A607E225A607047C0460C20002053
:1092F000B826002070B5104D2B78022B18D0814273
:1093000018D90B1A072B15D90C00032304431C4052
:1093100010D172B62A78094BD200D050981841600B
:109320000CF005FD2B7801332B7062B6200070BD68
:109330000348FCE70348FAE7012A0020C026002082
:1093400013FCFFFF17FCFFFF70B50021041C07F0A2
:109350003FFC002828D1FE21201C890507F042FC93
:10936000002821D104300BF06DFD05000F48401B93
:1093700008F018FC211C08F0B5F807F067FC03237F
:109380009843040028000BF067FD20000BF05AFD05
:10939000002804D1203C002CF7D1054803E0011936
:1093A000FFF7A8FF002070BD0248FCE7003800204E
:1093B00013FCFFFF17FCFFFF70B5060000250C4BE8
:1093C0001B78AB4209DD0B49EB00C91830000CF0EB
:1093D000B6FC041E09D10135F1E730000BF032FD77
:1093E000041E02D11420FFF7F9FB200070BDC04617
:1093F000012A0020C026002070B5002813D00D4B94
:109400000D491C7800239C4210DDDA005558854236
:109410000AD28A185268824206D980230438026828
:109420001B061343036070BD0133ECE70BF014FD22
:10943000F9E7C046012A0020C026002070B5051EAD
:1094400014DD0B4E0B4C3368002B02D020680FF05C
:10945000E3FEFA2120680024074B89008361C4627F
:10946000694335600FF0E0FE200070BD0348FCE763
:10947000D0260020002700202595010017FCFFFFC3
:10948000F8B5114F06003D68002D0AD13020FFF7D6
:1094900093FF040006F0D8FB0C4BA5612360E56246
:1094A0003C600B4D2B68002B09D11020FFF784FF87
:1094B00004000FF07AFE20002C600FF050FE300008
:1094C000FFF7BCFFF8BDC04600270020A8A202009D
:1094D000FC260020014B18687047C046D0260020AB
:1094E00070B50D4C2368002B03D00C4B1B68002B70
:1094F00002D10620FFF7C4FF20680FF047FE0200EC
:109500000749C3170D684E685219734120680A60F5
:109510004B600FF041FE70BDFC26002000270020AC
:109520002022002010B5FFF7DBFF0024054BA2002E
:10953000D058002802D003681B68984701340A2CD1
:10954000F4D110BDD426002010B5FFF7C9FFFA22D0
:10955000034B920018685968002307F057FB10BDB1
:109560002022002010B5FFF7BBFF024B1868596896
:1095700010BDC046202200200B4B10B51B68040014
:10958000002B03D0094B1B68002B02D10620FFF7EC
:1095900077FF0023064A99008858002801D001333C
:1095A000F9E78C5010BDC046FC26002000270020A3
:1095B000D4260020002310B5044A99008C58844218
:1095C00001D00133F9E70020885010BDD4260020D7
:1095D00010B50400002902D00B78002B03D1034BF7
:1095E0002360200010BD0CF053FCFAE7409D020000
:1095F000F8B504000E00150000290AD00B78002BE6
:1096000007D0002A05D0080097B210F071FA8742FF
:1096100003D90B4B23602000F8BD681DFFF7CCFE7B
:1096200020600CF0CFFD23682A005F8023683100A2
:10963000181D10F001FA23685D1900232B71EAE769
:10964000409D0200014B03607047C046409D0200F0
:1096500010B50548054C20600CF0B7FD044A0549DB
:10966000200010F04CF810BD409D0200042700209F
:1096700000200020835E0200084B73B51C680500C3
:10968000002C0AD00100266808310822684610F034
:10969000D3F90CCD31682000884773BD082700201E
:1096A000014B03607047C046489D020030B500681A
:1096B0004488A1420CDA8588AA4209DA002907DB2E
:1096C000002A05DB5443401800198371002030BD87
:1096D0000048FCE717FCFFFFF0B5070085B00E005F
:1096E0001D0000291FDD002B1DD004686388039333
:1096F0008B4200DD0391A3880293934200DD029226
:10970000002306340193019B029A93420EDA29004A
:109710002000039A10F090F93B68AD195B88E418BB
:10972000019B0133EEE7024805B0F0BD0020FBE7E6
:1097300017FCFFFFF8B504000D0016001F000029FC
:1097400001DB002A02DA0E4B2360F8BD100048430B
:109750000630FFF731FE20600CF034FD23685D8099
:1097600023689E80002F06D03B0032002900200095
:10977000FFF7B2FFE9E720000CF061FCE5E7C04627
:10978000489D0200F0B5060087B00D1E04D1244BA1
:109790000360300007B0F0BD00200F00040001009E
:1097A00001903B78002B1AD03022524294469C44C0
:1097B0006246092A11D90A2B0AD1019B24180133C8
:1097C0000193A14200DA2100002004000137E8E7FC
:1097D0000028FBD001340020F8E70120F6E76A46B4
:1097E000928809B212B23000FFF7A4FF33689C1DC3
:1097F00003AB1F002A78002ACBD011003039092989
:1098000003D81A7001330135F4E700221A70BB4205
:10981000F9D9380010F0F0F83B0020700134F2E77D
:10982000489D0200F0B5040089B006A80E0002921F
:109830001D00FFF74BFD236802995A88914235DAE3
:109840009B889D4232DA1F2E30D9079B01939E429E
:109850002CDC0523002273430393069B0493039B94
:1098600004999B18A03BCB5C00210593AE18029B8A
:10987000CF1823685888019087420EDA9888B04242
:109880000BDDDB1910270F41019870431B18059859
:109890000740781E87417F429F7101310529E6D13B
:1098A0000132052ADBD1002009B0F0BD0048FBE7FA
:1098B00017FCFFFFF7B50468070063880E1E0193CD
:1098C0001EDD994218DA0023063400933B68009AA3
:1098D0009B889A4212DA019BA1199D1B2A00200045
:1098E00010F0AAF8601931000CF09BFB3B685B8814
:1098F000E418009B0133E8E70CF0A1FB002000E036
:109900000048FEBD17FCFFFF10B50548054C206060
:109910000CF05BFC044A054920000FF0F0FE10BD7E
:10992000489D02000C270020002000201560020046
:1099300010B5054C012120000CF03BFC034A044902
:1099400020000FF0DCFE10BD1027002000200020BA
:109950006F6102000388074A10B50120934208D0C6
:10996000834202D00020DB0703D41E20FFF736F924
:10997000002010BDFFFF000010B50400034B0833AA
:109980000360FFF74DFB200010BDC046909D020014
:10999000FA2270B5438992005343314A3149140089
:1099A000050038348B421BDC2F498B4218D82F49D5
:1099B000083C8B4214D82E49083C8B4210D82D49C4
:1099C000083C8B420CD82C49083C8B4208D82B49C8
:1099D000083C8B4204D82A4914008B4200D9083431
:1099E000284B2A7B1E1D042A03D89E1C022A00D85D
:1099F0001E00FA212068890006F058FF337868813C
:109A00002B7300222A2128000CF003FC002801D02F
:109A10001D4870BD10222B2128000CF0FAFB0028F5
:109A2000F6D101222D2128000CF0F3FB0028EFD104
:109A300001222E2128000CF0ECFB0028E8D17278DE
:109A40000E2128000CF0E5FB0028E1D1012223794A
:109A50002A211A4328000CF0DCFB0028D9D0D7E7D4
:109A6000509D020000C4090000710200803801000E
:109A7000204E00001027000088130000C4090000D9
:109A8000E204000054AC02000EFCFFFF7FB515009D
:109A90000F226A4404001E001170002D16D0002B06
:109AA00014DD012301890093006B01F0D1F9002836
:109AB00002D0074804B070BD0090218933002A000D
:109AC000206B01F07BF90028F4D0F2E70148F1E7C0
:109AD0000EFCFFFF17FCFFFFF7B506000025019302
:109AE0001E4B143608330400036085808571C581E0
:109AF000058245820F0000922900182230000FF0E5
:109B0000B7FF1C2130000FF049FC6B469B880221F7
:109B1000A3806B461B88220023811423A571217327
:109B2000A563A58763813E32137827638B43F131A8
:109B30000B4013702300957295810135221DD58746
:109B40000833A21DD5872000DD87FFF721FF0028FD
:109B500002D1A3791D43A5712000FEBD909D020096
:109B600030B50425837987B004002B4204D1FFF778
:109B700049FAA3791D43A571A36AA2691B68002550
:109B80001A4208D106236A4601212000FFF77EFF12
:109B9000051E03D0114D280007B030BD6B460222D0
:109BA000042069469A561856237BD2005A432282D3
:109BB00002220978C00049B2C90059434343638275
:109BC000A379E1819343A37120000CF030FB0123C2
:109BD000A1881A0002A80CF0FAF9DCE70EFCFFFFDE
:109BE000F8B50400FFF7BCFF0E22A35E794F5B427D
:109BF000BB4251DA23003E331B789B074CD501252D
:109C0000210028003E310B785A08904302000220C0
:109C1000AA40834313430B702000FFF7A1FF1022DB
:109C2000A35E5B42BB4248DA23003E331B785B07EE
:109C300043D50125210028003E310B789A08904336
:109C400082000420834313430B7026002000FFF79B
:109C500087FF1222A35E4836BB423EDA23003E3322
:109C60001B781B0739D5210001223E310B78D8081B
:109C700082430820D200834313430B703378032BB5
:109C80003BD80133DBB23370012B00D08DE02300D1
:109C900000224A331A8030E02000FFF761FF0E22D5
:109CA000A35EC8225B42520000259342B4DD23002C
:109CB0003E331B789B07A2D5AEE72000FFF750FF8D
:109CC0001022A35EC8225B4252009342BDDD2300F6
:109CD0003E331B785B07ACD5B7E72000FFF740FFAA
:109CE000C8231221625E5B009A4204DD23003E33EA
:109CF0001B781B07B7D5002DC0D13278002A14D0AD
:109D00002100270001254A310B883E3701339BB2E1
:109D10000B803878AC46054055D01D2B05D96346DD
:109D20009843002338700B80337020000CF0EBFA5E
:109D3000294A0723904244DD2000FFF711FF0E233C
:109D4000E25E264E52420323B2423ADBC82520008F
:109D5000FFF706FF0E23E25EAD0052420423AA4243
:109D60002FDC2000FFF7FCFE1023E25E02235242AC
:109D7000B24226DB2000FFF7F3FE1023E25E012350
:109D80005242AA421DDC2000FFF7EAFE1223E25EE7
:109D90000523B24215DB2000FFF7E2FE1223E25E4C
:109DA0000623AA420DDC00230BE0042BA5D12200E0
:109DB0003E321178033B0B43137000234A34238057
:109DC0000B331800F8BD092BAFD9013A0D80327062
:109DD000ABE7C04670FEFFFFFF700200E0FCFFFF34
:109DE00070B5C369C1681A68451D8AB00400EB7F6D
:109DF000114255D0002B58D1EB7F082B0DD90122F1
:109E0000A379134209D11343A371A188130006A8B3
:109E10000CF0DDF8FFF798FB2062EB7F012B23D8D5
:109E20000123A2791A421FD00025A188A571022220
:109E300002A80CF0CCF8A31DDE7F012E14D1FFF791
:109E400083FB2B00226A801A994100900191019BAB
:109E5000A188AB4203D1174B009A9A4227D901231C
:109E6000042206A80CF0B3F80322A3791340012BB7
:109E700014D1FFF769FB0023226A801A99419942A5
:109E800002D10D4B984209D90223A279A18813432C
:109E9000A3710522012306A80CF099F80AB070BD41
:109EA0000B2BA9D80133EB77A6E7013BFBE7330087
:109EB0000322D6E7E7030000DB05000010B504002D
:109EC000034B08330360FFF775FB200010BDC0464D
:109ED000A89D0200F0B5070000250E0085B0029392
:109EE0000AAB1B7808370393104B04000833036058
:109EF0000192858085712900182238000FF0B8FD85
:109F0000039A310038000FF04EFA6B466A469B8880
:109F1000127AA380A31DE671DA77631D2562200003
:109F2000DD77FFF729FB200005B0F0BDA89D0200FA
:109F300010B50400034B08330360FFF771F82000ED
:109F400010BDC046189E02007FB515000F226A445E
:109F500004001E001170002D16D0002B14DD01230B
:109F600001890093C06B00F073FF002802D00748FE
:109F700004B070BD0090218933002A00E06B00F02E
:109F80001DFF0028F4D0F2E70148F1E70EFCFFFFC7
:109F900017FCFFFF002330B585B003AC21700189A9
:109FA0000093050001332200C06B00F051FF002830
:109FB00002D0094805B030BD2080298900900223D5
:109FC0002200E86B00F0FAFE0028F2D123786078D6
:109FD0001B02184300B2EDE70EFCFFFF13B56B4602
:109FE000DC1D0023220023700133FFF7ADFF0028A2
:109FF00001D1207816BD0148FCE7C0460EFCFFFFEA
:10A00000D0B504000CF059FAE268A369981A09F077
:10A0100017FA06000F002369E069C01A09F010FA68
:10A0200032003B0009F05AFD0022104B08F018FCEA
:10A030000F4A104B08F012F909F08EFA0021041CA7
:10A0400006F0BCFD002804D0201C0B4906F0D8FE09
:10A05000041C201C09F02EFA02000B000020074906
:10A0600008F070FE09F0B6F9D0BDC0460080664029
:10A07000EA2E4454FB2109400000B443008076409E
:10A08000F0B5050085B0006C0CF0DAF9061C286C00
:10A090000CF0CDF90221071C28000CF03FFA022138
:10A0A000039028000CF04CFA07F032FD0221041C4A
:10A0B00028000CF057FA07F02BFD051C301C09F0A6
:10A0C000CFFC0290301C09F08DFC0190381C09F087
:10A0D000C7FC061C381C09F085FC071C039807F018
:10A0E00017FD391C07F0FEF9311C071C201C07F076
:10A0F000F9F9029907F0F6F9011C381C06F080FE08
:10A10000311C071C281C07F0EDF9019907F0EAF94A
:10A11000011C381C06F074FE0299061C281C07F06E
:10A12000E1F90199051C201C07F0DCF9011C281C31
:10A1300007F00AFB311C09F0D5FC0D4907F0D2F9F4
:10A1400009F0B8F90B4A0C4B08F088F809F004FA4A
:10A150000021041C06F032FD002804D0201C044914
:10A1600006F04EFE041C201C07F0B2FC05B0F0BD4A
:10A170000000B443EA2E4454FB21194070B500227C
:10A18000102104000CF08BF91B4D00282DD1032663
:10A1900008212000FFF722FFA84226D0304226D116
:10A1A000FA216389890059435023144AD518D0589D
:10A1B000884204D3D518083B18000830F7D1FA219B
:10A1C0002868890006F072FBA0226081112120001E
:10A1D0000CF065F9002808D101222B7910211A43CF
:10A1E00020000CF05CF9002800D0034870BD64200A
:10A1F000FEF7A0FFCCE7C0460EFCFFFFC09D0200AB
:10A200007FB50425837904002B4218D102260CF077
:10A2100054F9A379A188B3432B43A37106220123E8
:10A2200068460BF0D4FEA07903003040AB43A37125
:10A2300043425841034B4042184004B070BD0248AD
:10A24000FBE7C04614FCFFFF15FCFFFF10B5837948
:10A2500004005A070DD49B0701D4FFF7D1FF236CEC
:10A260002000002B02D0FFF70BFF10BDFFF7C8FE48
:10A27000FBE70148F9E7C04615FCFFFF70B5466CE7
:10A2800086B001AC050001916260A360002E0CD085
:10A290000B4905A8FFF79CF90C23220005A9300003
:10A2A0000CF08DFE05A80BF0ECFD2B000C3307CC59
:10A2B00007C30223AA791343AB7106B070BDC04631
:10A2C0005AAC0200642330B504000281438185B09A
:10A2D0008180FFF753FF0222A379606C9343A3713F
:10A2E000002813D00C490CF031FE051E0ED00100E1
:10A2F0000C22103101A80FF09FFB20000199029A57
:10A30000039BFFF7BBFF2800FFF776F80123A27934
:10A310001343A37105B030BD5AAC0200F7B50093EA
:10A3200008AB1B880400019309AB1D8800230F00B4
:10A3300016000D4A8380083283710260C360036196
:10A3400043618361C36103621D2124300CF09AF8DC
:10A35000009BE7632664290020006364019AFFF7ED
:10A36000B1FF2000FEBDC046189E020082B0F0B5CD
:10A370000400A5B064202B932A920FF0D2F8042297
:10A380000C2109A802F030FC2422CC491BA80FF0B4
:10A3900053FB052206A811000BF05AFEC84907A876
:10A3A000FFF7F0F9A06800F081FBA568C54918A87F
:10A3B000FFF70EF9782218A9280000F0A5FC18A8CC
:10A3C0000BF05FFD6E256420013D0FF0AAF8002D13
:10A3D000F9D1A06800F06AFBA0680CF063FA0121D3
:10A3E00060680BF0A4FF0121070060680BF0B2FF6A
:10A3F00006000A200FF095F80022B34B03929F420B
:10A4000010DB013203923A00C8320BDBC822042170
:10A4100092000391974205DC03220392C82F01DCCE
:10A42000013A039200279E420CDB33000137C83308
:10A4300008DBC82303379B009E4203DC013FC82E84
:10A4400000DC013F06A80BF0FAFD0026032373434E
:10A450001BA9CA189078002805D0C95C5278FF2340
:10A4600006A8FFF723F901360C2EEFD16B463AB25E
:10A470000C21595E06A8FF23FFF718F90023A068F6
:10A4800000931A00743006A90BF0E9FD0023049331
:10A490000323049A039853431BAA995C814237D142
:10A4A000D31805935B78BB4232D1059B9E78002E72
:10A4B0002ED1310020680CF031F807F029FB320072
:10A4C000031C290009A80DF003F8310020680CF0E6
:10A4D00037F807F01DFB0122031C290009A80CF026
:10A4E000F7FF310020680CF03DF807F011FB290060
:10A4F000031C022209A80CF0EBFFFE2303229B059C
:10A50000290009A80CF0E4FF0123059AED189370C7
:10A51000049B013304930C2BBAD164200FF001F893
:10A520000B2D00DC5BE709A80CF0BEFF0122010047
:10A530000CA802F059FB002509A80CF0B5FFA842B1
:10A540003CDD2900002209A80CF0B0FF0022061C07
:10A55000290009A80CF0AAFF011C301C06F0C2FF5C
:10A560002900061C012209A80CF0A0FF0122071CEB
:10A57000290009A80CF09AFF011C381C06F0B2FF54
:10A58000311C06F03DFC2900061C022209A80CF033
:10A590008DFF02222900071C09A80CF087FF011C6F
:10A5A000381C06F09FFF311C06F02AFC2900031C12
:10A5B00000220CA80CF08CFF0135BDE709AA1100A0
:10A5C000012318A80CF09EFF18A90FA80CF0F7FFA4
:10A5D00018A80CF08EFF0CAA09A912A801230CF0F0
:10A5E00091FF002312AA0FA915A80CF08BFF0022DF
:10A5F00015A811000CF05AFF0022061C012115A815
:10A600000CF054FF0022051C022115A80CF04EFF8F
:10A61000FC21071C8905301C06F064FF07F058FA7E
:10A62000FC21060018908905281C06F05BFF07F046
:10A630004FFAFC21050019908905381C06F052FFDD
:10A6400007F046FA2A00030031001A902068FFF74D
:10A6500015FEA0680CF026F907A908A8A5680BF05C
:10A66000E6FC0022194B009208A901932800130070
:10A6700000F0BAFA08A80BF0CDFCFA2080000EF02A
:10A6800050FFA0680CF00EF915A80CF032FF12A8CC
:10A690000CF02FFF0FA80CF02CFF0CA80CF029FFDA
:10A6A00007A80BF0B7FC06A80BF0B4FC09A80CF047
:10A6B00020FF25B0F0BC08BC02B0184765AC020012
:10A6C00089AC0200CEAC0200E0FCFFFFDC0500001C
:10A6D000F7B583601D4B05001F6801604260002FC5
:10A6E00031D02820FEF768FE040010300BF065FC26
:10A6F000174B18202360FEF75FFE00220600154B63
:10A7000001920560083200210C3000930FF0B0F97F
:10A7100008226946301D0FF08FF90F4B002273613C
:10A72000C223A3803B68E260A660226262625B682B
:10A73000210038009847002805D020000BF057FB77
:10A740002000FEF759FE2800FEBDC0460827002065
:10A75000050006006DA301007D650200F0B5040050
:10A7600085B0637A9C46002B04D120000BF031FFAA
:10A7700005B0F0BDA37A266F01931023019AF3561A
:10A7800000259B1801229A402900F3680392029346
:10A79000029BAB4231DDB368019A6B439B1872692F
:10A7A0005B00E77AD3181A785878E379012F14D12F
:10A7B0005F1E3F1A10003A005B004343606F82182F
:10A7C000D3189B79634500DD6346627B1A4202D051
:10A7D0000123AB4019430135DAE7022F05D15F1E93
:10A7E000BA1A277A013F381AE6E7032FE4D1277A0D
:10A7F000013FBF1A02003800DEE71123C943F356B8
:10A80000606C994023691940039B19430EF06DFF5A
:10A81000A27B072AACD8637B0C495B006373531C93
:10A82000DBB290004158A373022A03D808000EF04F
:10A830006DFE96E7064B2000236300236363054B00
:10A84000E462236414300EF0EFFC91E7309E0200C6
:10A850005DA70100BD65020010B50400044B036054
:10A860000EF0DAFC200005F005FA200010BDC0460D
:10A87000A8A2020010B504000E4B08330360FEF7D7
:10A8800099FE200074300BF0C5FB200060300BF007
:10A89000C1FB200058300BF0F4FA200050300BF0D0
:10A8A000F0FA2000044B14306361FFF7D5FF20005D
:10A8B00010BDC046509E0200DCA20200F8B5002583
:10A8C0000400324B85800833036085711430160014
:10A8D0000F0005F0B9F920002D4BE5626361256496
:10A8E0005030FEF7AFFE20005830FEF7ABFE2000E0
:10A8F0006030FEF7D5FE20000423F25E3368266741
:10A90000590009B274300BF0A3FB3368226FE37176
:10A9100073680126237210236581A7802561D356B1
:10A9200091685918994204DD30009840013305437D
:10A93000F8E711230120D356D1685918994206DD52
:10A9400002009A402669013332432261F6E714205F
:10A95000FEF732FD226900212A430123060005F09B
:10A96000C7FDFF23220063720133A3810023483215
:10A970006664A37320001370A366FEF7FDFD012338
:10A98000A27920001343A371F8BDC046509E020077
:10A99000DCA20200F0B5437A85B00400002B04D19C
:10A9A00020000BF016FE05B0F0BD0122837A1100E5
:10A9B0009C461023066F0025F3560392634499408A
:10A9C00002912900F3680193019BAB422CDDB3682F
:10A9D00072696B4363445B00E77AD3181A7858783E
:10A9E000E379012F10D15F1E3F1A10003A005B007F
:10A9F0004343606F8218D3189B79002B02D0039BCE
:10AA0000AB4019430135DFE7022F05D15F1EBA1AAB
:10AA1000277A013F381AEAE7032FE8D1277A013F66
:10AA2000BF1A02003800E2E71123C943F356606CF5
:10AA3000994023691940029B19430EF056FE667A2D
:10AA4000B31EDBB2FC2B14D8FEF744FD0B4B050004
:10AA5000236300230A4863630A4BFF21E4622364F3
:10AA6000704305F0ADFF29004143200014300EF083
:10AA7000DBFB637A012B00D995E791E7D3650200F0
:10AA8000B6030000BD6502001FB5012381881A00CE
:10AA900068460BF09CFA012303491A0068460BF044
:10AAA00096FA05B000BDC046FE0300001FB50300C6
:10AAB00048331A780400002A0DD000221A700123AE
:10AAC00081881A0068460BF082FA012304491A00B3
:10AAD00068460BF07CFA200074300BF0B0FA1FBD12
:10AAE000FF03000010B548300378002B06D0037830
:10AAF000012B03D0012102480BF0EFF810BDC04636
:10AB0000FF03000010B50121040006200BF0E5F85A
:10AB1000064B984208D148342378002B04D0237880
:10AB2000012B01D020BFF7E710BDC04616FCFFFF88
:10AB300070B50600141E19DB050048352B78002B74
:10AB400002D02B78012B13D1002330001A0074306F
:10AB5000FEF768FE002C07D033004A331C80002427
:10AB600007234C3634802B70200070BD014CFBE76E
:10AB7000014CF9E717FCFFFF12FCFFFFF8B51700C7
:10AB80000A68050052880B00012A09D1002118002B
:10AB90000BF006FA002201002800FFF7C9FFF8BDFC
:10ABA000002F19DD060048363278002A02D03278AC
:10ABB000012A13D12A00002428005C3219001480D5
:10ABC00058300BF0C8F92B004A331F8003234C3553
:10ABD0002C8020003370E2E70148E0E70148DEE71F
:10ABE00017FCFFFF12FCFFFF73B5079C0500002C4C
:10ABF0001CDB060048363078002802D03078012867
:10AC000016D106981BB2C0B20090280012B2743060
:10AC10000BF025FA002C07D02B004A331C800024AF
:10AC200007234C352C803370200076BD014CFBE7A8
:10AC3000014CF9E717FCFFFF12FCFFFFF7B5050019
:10AC40000E00171E26DDFFF74DFF2B0048331C7842
:10AC5000E4B2002C20D133685B88012B09D121009C
:10AC600030000BF09DF9220001002800FFF760FF83
:10AC7000FEBD310001A80BF066F93A0001A92800D9
:10AC8000FFF77CFF01A80BF0FCF82800FFF73AFF64
:10AC90002000EDE70148EBE70148E9E717FCFFFF7B
:10ACA00011FCFFFFF0B587B00D9C06000F0002926B
:10ACB0000393002C20DBFFF715FF330048331D788A
:10ACC000EDB2002D1AD1390005A80BF0B0F90C9B9C
:10ACD00001940093029A039B05A93000FFF784FFBB
:10ACE00005A80BF097F9002C03D03000FFF70AFFFE
:10ACF0002C00200007B0F0BD014CFAE7014CF8E74A
:10AD000017FCFFFF11FCFFFFF8B50400171E1DDD47
:10AD1000060048363378002B02D03378012B17D148
:10AD20002200E3795632013B1370230000252000F6
:10AD300054331D8050300BF00EF923004A331F802E
:10AD4000022328004C3425803370F8BD0148FCE70D
:10AD50000148FAE717FCFFFF12FCFFFFF7B50500FB
:10AD60000F00161E18DDFFF7BDFE2B0048331C78C0
:10AD7000E4B2002C12D1390001A80BF0E4F8320043
:10AD800001A92800FFF7C0FF01A80BF07AF82800FE
:10AD9000FFF7B8FE2000FEBD0148FCE70148FAE7D6
:10ADA00017FCFFFF11FCFFFFFF2902D841720020B2
:10ADB00070470148FCE7C04617FCFFFFF0B51F00D5
:10ADC00085B00AAB1B780400039300933B000D0091
:10ADD00016000EF04FFA002833D0237D082B2DD813
:10ADE000236800221900FC318A62A021C9005A5050
:10ADF000154905205A500138C046C046C046C046D5
:10AE0000C046C046C046C046C046C046C046C04612
:10AE1000F1D1236801325A50A0210432C9005A509E
:10AE200005F022F8039B3200009329003B0020002C
:10AE30000EF020FA237D01332375CCE7034805B0DB
:10AE4000F0BD2075FBE7C046FC0F00000EFCFFFFC5
:10AE5000F0B51F0085B00AAB1B7804000393009384
:10AE60003B000D0016000EF0EDF9002833D0237DD5
:10AE7000082B2DD8236800221900FC318A62A021FA
:10AE8000C9005A50154905205A500138C046C046DD
:10AE9000C046C046C046C046C046C046C046C04682
:10AEA000C046C046F1D1236801325A50A021043275
:10AEB000C9005A5004F0D8FF039B320000932900C8
:10AEC0003B0020000EF0BEF9237D01332375CCE753
:10AED000034805B0F0BD2075FBE7C046FC0F00003D
:10AEE0000EFCFFFFF8B50D1E30D000260227C46807
:10AEF000002C28D0AA88A38853403B4204D13A4270
:10AF000004D1AB883B4219D0646AF1E7A968A06814
:10AF10000CF0B9FA0028F4D02B88002B02D022883C
:10AF20009A42F1D16B88002B02D062889A42EBD111
:10AF3000A288074B01361343A380E5E7A368AA68FC
:10AF40009342E1D1E8E72000002E00DC0148F8BD83
:10AF50000080FFFF17FCFFFFF0B5060085B00D1E57
:10AF600059D00127C468002C22D00221AA880023CE
:10AF70000A4202D0A3885B083B40226829688A42C3
:10AF800010D1A068A968002B0AD00CF07CFA002828
:10AF900008D0A3881AB2002A06DB204805B0F0BD0D
:10AFA0008842F6D0646ADEE75B045B0CA380F4E7BA
:10AFB000F0682A88002807D1F560012318496846FF
:10AFC0000BF005F80020E9E7010003001C8894421B
:10AFD00006D25C6A1900002C0DD02300F6E723008E
:10AFE0001C88944207D15F886C88A74203D25C6AB0
:10AFF0001900002CF3D1814209D10B889A4204D365
:10B0000005D148886B88984201D96962D4E74B6AB8
:10B010006B624D62D1E70348C0E7C04616FCFFFFF4
:10B02000FD03000017FCFFFF064B10B51A000400DB
:10B0300008322C33026043600430FDF7F1FF20003A
:10B0400010BDC046689E020008B4024B9C460438FE
:10B0500008BC604729B0010008B4024B9C46043884
:10B0600008BC6047E56902000C4A002311002C323D
:10B07000083110B5038183724260C360036143618C
:10B080004383016004000430FDF7BCFF044B1A68E1
:10B09000002A00D11C60200010BDC046689E02003E
:10B0A00008270020F7B50E000125C4680192002C86
:10B0B00036D0238832889A4201D0002B23D163886E
:10B0C00072889A4201D0002B1DD1FDF70FFF01239A
:10B0D000002806D0C022A3881340C03B5A425341E7
:10B0E000DBB2019A934219D1A7883BB2002B15DB42
:10B0F00010223100A0180EF09FFC40231F4204D004
:10B1000020000BF078FC646AD1E7FDF7EFFE002821
:10B11000F6D021000348FEF799F8F4E70025F2E79E
:10B120002800FEBDF769020008B4024B9C460438B3
:10B1300008BC60477F6B0200F0B587B001930EAB8F
:10B140001B88060003930D9B0D000093019B029248
:10B150000C9F002B3DD0002F02D1009BDB0738D580
:10B160002820FEF729F9040010300AF026FF6B466C
:10B170001B89258063801820FEF71EF90500009BBF
:10B1800008220593019B002103600C3004970EF008
:10B190006FFC082204A9281D0EF04EFC0E4B022263
:10B1A0006B6100230399E3602362636233680A439F
:10B1B000A560A2805B68210030009847002806D077
:10B1C00020000AF014FE2000FEF716F9034807B02D
:10B1D000F0BD0348FBE7C046B96B020016FCFFFF59
:10B1E00017FCFFFFF0B50400160000258380164A07
:10B1F000164B85710260218146810573186889B0FC
:10B200008C46A8421DD0124A05950492C022029293
:10B210006A4604AB82CB82C223002A006146FFF754
:10B220008BFFC022094B0A49186802926A460691B0
:10B2300006AB079582CB82C223002A003100FFF7BC
:10B240007BFF200009B0F0BDAC9E02000827002063
:10B25000E36C020030B5002403730123034D8471B5
:10B260000560818082734373846030BDC49E020098
:10B2700070B583790400DB0702D58068FEF7BCF85F
:10B28000A3799B0702D5A068FEF7B6F8A3795B0700
:10B2900007D5A0230021144ADB00D150A068FEF797
:10B2A000ABF8A3791B0708D5A568002D05D02800A9
:10B2B0000CF035FF2800FEF79FF8A379DB0605D5D3
:10B2C000A068002802D00368DB6898476023A27951
:10B2D0001A4205D0A068002802D003685B6898472E
:10B2E0000023A360A37170BD00700040F7B5022772
:10B2F000037B04000D003B4226D0012926D8867925
:10B300003E40009614D1FFF7B3FF1820FEF754F823
:10B310000E230600E3561822009901930EF0A8FBB5
:10B32000019930000EF051F8A379A6603B43A37158
:10B33000A3685A68002D04D00025DB681A60280035
:10B34000FEBD1B691A60FAE7014DF8E7014DF6E70B
:10B3500016FCFFFF17FCFFFFF7B50126037B040077
:10B3600033422AD0612385791D4017D1FFF780FF32
:10B370001820FEF721F80E230700E3561822009349
:10B38000637B290001930EF073FB019A009938004A
:10B390000EF009F8A379A7603343A3716023A27963
:10B3A000A0681A4202D00DF0B3FEFEBD43694068AA
:10B3B0001B681840431E9841F7E70148F5E7C0466F
:10B3C00016FCFFFF70B5040000250C4B0E0008337F
:10B3D000858085710360210018300BF03AFD200054
:10B3E000210020300BF058FD054BA680E58025722A
:10B3F000E5602561656120001C6070BDD49E02007F
:10B40000142700208379DB0702D5C1600020704734
:10B410000048FCE716FCFFFF8379DB0701D5C06815
:10B4200070470148FCE7C04616FCFFFF70B5456950
:10B430000400002D22D0037A032B21D8FFF7ECFF64
:10B44000A8622C20FDF7B8FF2C22002105000EF089
:10B450000FFB002263695A622369934208D1636932
:10B4600023610020237A65610133237270BD1300CC
:10B470005A6A002AFBD162695A62F2E70148F5E78D
:10B480000148F3E717FCFFFF13FCFFFF144B70B5F7
:10B490005A68144C002A03D000225A600132A2607C
:10B4A0001A69002A17D0002119618023DB000E4D94
:10B4B000E3582868012B0FD1A923DB00E15849424A
:10B4C000FFF7A0FF2868FFF7B1FF2B685A69074B09
:10B4D000E2500123A36070BDFFF794FFF9E7C04677
:10B4E000FC1000400010004014270020040500005C
:10B4F00003000069002809D00221054AD167426A89
:10B500001A611A7A013A1A72024B19607047C046E2
:10B5100004E100E000E100E010B5002903DB024B8C
:10B5200019600DF0F7FE10BD1827002070B504005B
:10B530001E0004AB1D7804F0CFFB20000E4B403002
:10B540002360FEF77FF8230001364C3301352200DB
:10B550001E701D730023E1214E32A36463651380C6
:10B5600053809381D381013B200063644902FFF73C
:10B57000D3FF200070BDC046089D0200F7B58027AC
:10B580007F053D697C690822113C6C43060021005F
:10B5900068460EF051FA104B009A9A4219D0009367
:10B5A0000023019379693000133969430BF089FC5A
:10B5B000019A009930000BF09CFC210030000BF048
:10B5C00080FC7969AB0813396943220030000BF025
:10B5D00082FC0198FEBDC046FECA0000F0B50D0019
:10B5E000A9B00D9200213022060010A80B930EF096
:10B5F0003FFA28000EF07CFA431C0C93102B00D964
:10B60000B5E00B9B202B00D9B1E0290030000BF0F6
:10B610009DFC071E50D129000C9A10A80EF00CFAC0
:10B620000D990B9A14A80EF007FA80235B051A698E
:10B630005F690C92113F7A4330005D690B92FFF70E
:10B640009DFF3022002104001CA80EF011FA2900F1
:10B6500000270C9B1339594330000BF032FC0D9737
:10B6600030257D430B9B0833ED18A74242DA2900B1
:10B6700030221CA80EF0E0F910A91CA80EF02EFA3A
:10B68000002827D13C49300022000E910F940BF086
:10B6900030FC6A46099513AB23CB23C223CB23C2CC
:10B6A00023CB23C23000129B1099119A0BF02FFC70
:10B6B00001230D930137D3E710300B9A0D990EF04B
:10B6C000ACF904003800FDF797FE002CA3D1200050
:10B6D00029B0F0BD6A4609951FAB23CB23C223CB0B
:10B6E00023C223CB23C230001C991D9A1E9B0BF052
:10B6F0000EFCDFE7E5433023ED1725405D430B9B50
:10B7000008355D190D9B002B1DD10C9B3021981E17
:10B7100005F0CCF8A0422CD01749013430002200AB
:10B720000E910F940BF0E5FB6A46099513AB23CB02
:10B7300023C223CB23C223CB23C230001099119AFA
:10B74000129B0BF0E4FB0B9930000BF0BAFB80234B
:10B750005B0559690C230C9A133963434A4302333E
:10B76000110030000B9A0BF0B6FB0024AFE7034C3E
:10B77000ADE7034CABE7C046FECA000017FCFFFF75
:10B7800013FCFFFF70B50400A280FA22002308001A
:10B790000C49920008312160A3716061E260A360EE
:10B7A000638209490BF0D2FB051E09D0010020007D
:10B7B0001031022212300EF03FF92800FDF71CFE76
:10B7C000200070BDEC9E0200DCAC020030B502250A
:10B7D000837987B004002B4204D1FDF713FCA379D1
:10B7E0001D43A57120000BF0FBFB00281CD06B460D
:10B7F000DD1C28000BF0EBFB2B78002B17D001A8E9
:10B800000BF0E3FB0321019AD3170B409B189B100D
:10B810002382FDF799FEE368A18818180123A06030
:10B820001A0002A80AF0D3FB002007B030BD0122A5
:10B83000064B1A60064A51680029FCD0002151606D
:10B84000044A1268019201225A60DBE700C00040FE
:10B85000FCC0004008C50040022802D10122014B73
:10B860001A707047022A002070B5064C0500237834
:10B87000002B04D1044801F03BFB01232370280076
:10B8800070BDC046032A002059B8010070B50C00F5
:10B890000AF0B1F9002810D00023144DA40A2B702F
:10B8A00020000BF0B1FB002803D00A200DF039FE78
:10B8B000F6E72B78002BFCD070BD02210C4B0D4A13
:10B8C00099508021C90008005D58002DFCD0A121AD
:10B8D000C9005C5019580029FCD0002199508021E2
:10B8E000C9005A58002AFCD0E6E7C046022A0020C8
:10B8F00000E0014004050000F8B50C0015001E0032
:10B900000AF079F9002811D00023174F3B7032005C
:10B91000290020000BF076FB002803D00A200DF050
:10B9200000FEF4E73B78002BFCD0F8BD01210F4866
:10B930000F4B844619508021C9005A58002AFCD068
:10B9400080270022FF00964207DD91006858605072
:10B95000D9590029FCD00132F5E7002261465A503E
:10B96000DA59002AFCD0E0E7022A00200405000092
:10B9700000E0014010B50400054B083303601C30A3
:10B980000AF07FFA200018300AF07BFA200010BD80
:10B99000049F0200FF23F0B52C4D8DB02B700023C7
:10B9A000040069460088009303F026FA002802D1BB
:10B9B0006B469B782B70264E3368DB68002B07D1D3
:10B9C000002320881A0019000BF022FB0DB0F0BDF7
:10B9D0002B78032BF4D81F4901A8FDF7F9FD336834
:10B9E00001A9DE6804A80AF0AEFA04A930000BF041
:10B9F000E0FA0027060004A80AF043FABE421ED06F
:10BA000031002022103104A80EF016F83000FDF7A6
:10BA1000F3FC297804ABC9005918082202A80EF0DB
:10BA20000BF820880123082202A90BF0F1FA013754
:10BA3000002804D12088084A0C210BF0E7FA01A85D
:10BA40000AF01FFA002FBBD0C0E7C046F821002043
:10BA500028270020ECAC0200FFFF0000F0B583793E
:10BA600091B004005B071BD5FDF76EFD0023226932
:10BA7000801A9941994203D1F423FF3398420FD998
:10BA8000A068002808D0364B1D880CF065FB0368C1
:10BA900015221B6A290098470422A3799343A371B6
:10BAA000A3799B0759D52F4D2B68DB68002B50D00D
:10BAB0002D4B1B78032B4CD8294B2C491B8804A8F1
:10BAC0000193FDF785FD2B6804A9DE6808A80AF03C
:10BAD0003AFA08A930000BF06CFA070008A80AF03F
:10BAE000D0F902AB9E1D08233200338006A9073B24
:10BAF00001980BF08FFA002F08D039002022103166
:10BB000008A80DF099FF3800FDF776FC164B328837
:10BB10001B7806A9DE0008AB9E1930000DF07DFFF2
:10BB2000002813D0082206A930000DF085FF2B68ED
:10BB300004A9DD6805A80AF006FA202308AA05A9C9
:10BB400028000BF03CFA05A80AF09BF904A80AF0BB
:10BB500098F90222A3799343A37111B0F0BDC046B6
:10BB6000AC29002028270020F8210020ECAC02009E
:10BB7000F7B5089E0500152922D8012007008F403F
:10BB8000244C27421CD0E97FCC181F2C41DC6918BB
:10BB90003418A14210D80021C8B2834204D9545CA1
:10BBA000701884700131F7E732789A183270EA7FA2
:10BBB0009B18EB7700202CE00878C8540139E8E79F
:10BBC0003478013CE4B2A34208D10023D9B28C42BC
:10BBD000F0D9D05CF11888700133F7E7EF7F0120CE
:10BBE000FF183F1B1F2F14DC0227A01C7F423618B2
:10BBF000381B0190E87F2F18BE4204D23078019F95
:10BC0000F0550136F6E7041B023CEC7728000BF0F8
:10BC10004BFAFEBDFC002000F0B585B001930AABE5
:10BC20001E880BAB1B78451C02930EAB1B780400DF
:10BC300003930B78170003704B8A10224382013163
:10BC400028000DF0F9FE6B469B88268363836B46C4
:10BC50001B7B002623776B4601221B7A6761E683F4
:10BC6000EB77A31CDA770C9B0C2563622300200082
:10BC70000D9A28331A705E709E702A0031002C30A5
:10BC80000DF0F6FE2000074BE663A3632A003100A7
:10BC900040300DF0EDFE2000034B2665E36405B057
:10BCA000F0BDC0462B7002001D70020070B50D0083
:10BCB0000CF052FA04000368002D09D15B69984723
:10BCC000FA2080006843074904F0F0FDE08070BD71
:10BCD0009B6898478542F3D2236820009B68984769
:10BCE0000500EDE771020000F0B507001600A1B0F5
:10BCF00002C704006B4918A81D000BF01CFA331E84
:10BD000003D030000DF0F4FE83B201220492002231
:10BD100003920292023201920093320018A9380075
:10BD2000FFF77AFF23006049583318A807930BF0F8
:10BD300002FA2B1E03D028000DF0DAFE83B2012296
:10BD400004920022039202920232019200932A008E
:10BD500018A90798FFF760FF23005449AC3318A8CF
:10BD600008930BF0E8F9269B002B03D018000DF088
:10BD7000BFFE83B201220492002203920292023299
:10BD800001920093269A18A90898FFF745FF631CB3
:10BD9000FF33474918A809930BF0CDF9279B002BD7
:10BDA00003D018000DF0A4FE83B2012204920022F9
:10BDB000601C03920292023201920093279A18A902
:10BDC000FF30FFF729FF23005533FF33394918A807
:10BDD00009930BF0B0F9289B002B03D018000DF04D
:10BDE00087FE83B201220492002203920292023261
:10BDF00001920093289A18A90998FFF70DFF2300D4
:10BE0000A933FF332C4918A80A930BF094F9299B06
:10BE1000002B03D018000DF06BFE83B201220492B8
:10BE2000002218AD03920292023201920093299AE5
:10BE300029000A98FFF7F0FE204B1B780B93002B8C
:10BE40002DD1079B12971393089B0DAF1493631C7E
:10BE5000FF331593099B1A4916930A9B38001793D1
:10BE60000BF069F91D2149203B7810222B707B8A49
:10BE700012AE6B8206ABC918C0180DF0DDFD0623AB
:10BE80002B756B469B8D2068AB83AE610CF068F917
:10BE9000036829001B6898470122084B1A7020008C
:10BEA00021B0F0BD292A0000242A0000252A000024
:10BEB000272A0000262A0000282A0000042A002041
:10BEC0000A18000070B5002504000A4B858008336D
:10BED00085710360C1601830FDF7B4FB20001C3091
:10BEE000FDF7B0FB044BA5601C60012365612000D9
:10BEF000A37170BD049F020028270020FA2130B5ED
:10BF000085B0050001230222890068460AF05FF827
:10BF1000074C2068002809D00BF046F92988054B0A
:10BF200022681980022391790B43937105B030BDCB
:10BF300028270020AC29002010B50C0007290DD8B7
:10BF400080680CF009F9064B195703685B6C984739
:10BF5000431E9841034B4042184010BD0248FCE785
:10BF6000E4AC020016FCFFFF17FCFFFFF0B5A44C89
:10BF70000D00A544040007939AAB1B78A14909A8BA
:10BF800004930692FDF724FB200029001C3009F0E1
:10BF9000E2FFC020800000F0A1FF0820FDF70CFAAE
:10BFA0000600002100F088FE15ADA66000210C22DD
:10BFB0000EA80DF05DFD2B000EAA83CA83C3924B21
:10BFC0002900EB60002330002B610CF0AEF8A06874
:10BFD0000CF0C2F808220021059016A80DF048FDCB
:10BFE0001420FDF7E9F929000200884B1593C8C910
:10BFF000C8C2874B059EC3600023A4360361336823
:10C00000002B00D0F5E03060A0680CF0A9F8082201
:10C010000021060016A80DF02BFD1420FDF7CCF929
:10C020007C4B1593030086CD86C37B4BC3600023F6
:10C030000361336B002B00D0DDE03063A0680CF0AF
:10C040008BF808220021050016A80DF011FD142020
:10C05000FDF7B2F9714B15AE1593030086CE86C37A
:10C060006F4B9835C360002303612B68002B00D011
:10C07000C3E02860012504AB1B7C04AA2B4308A95C
:10C08000280013740AF0C8FFA0680CF06DF803686C
:10C0900064495B6A9847A0680CF066F803686249D7
:10C0A0009B699847A0680CF05FF800230268009332
:10C0B000166804992A00B047049B002B0AD0200080
:10C0C0000BF07BF8032805DDA0680CF04DF8036841
:10C0D000DB6898470EA80AF0DEFF2F2004ABC018DB
:10C0E0000AF0D9FF362004ABC0180AF0D4FF3D2077
:10C0F000042504ABC0180AF0CEFF0EAB0A93A0686B
:10C1000004AB5D770CF030F803680AA91B69984707
:10C11000A0680CF021F803680AA95B6D9847A06835
:10C120000CF01AF803680021DB6D9847A0680CF04A
:10C1300013F8036802219B6D984700212000FFF748
:10C14000FBFE1820FDF738F9A16800F005FA374B1F
:10C15000374A1B68A1680393364B15A81B68002655
:10C160000293354B0CAF1B680193069B1B685B1950
:10C170000093324B12681B68FFF7B6FD3020FDF7C5
:10C180001BF9079AA16800F0A7FAA0680BF0E4FF7A
:10C19000036839009B6A9847294BBE80A0680C93BE
:10C1A0000BF0DAFF03683900DB6A98472900A068C2
:10C1B0000AF0CDFF099A09219378A06852190AF074
:10C1C000D9FFA0680BF0C8FFC8210671A068FFF76F
:10C1D0006DFD04AB1B7FB34204D0A0680BF0BCFF25
:10C1E0000AF09FFF09A809F04CFE95239B009D448F
:10C1F000F0BD036107E703611FE7036139E7C0464C
:10C20000ACFDFFFFDFAD020039700200FDBE010092
:10C210004770020095B9010055700200837002005A
:10C220006370020045C2010079C20100242700208A
:10C2300020270020102000201C2700201420002090
:10C240000800100013B506226846FDF7D1F9094B26
:10C250001C68002C0AD0694601A809F074FE200071
:10C2600001A90AF0CBFF01A809F00BFE684609F00E
:10C2700008FE13BD28270020002373B501AE0C0073
:10C2800031000500019302F0B7FD002802D1B27819
:10C29000064B1A70064B1868002806D061426141AF
:10C2A000044BC9B21D800AF0B1FF73BDF821002014
:10C2B00028270020AC290020F0B5040097B0039196
:10C2C00007A89C490592FDF783F99B4908A8FDF74B
:10C2D0007FF922000FAD28001C3207A909F04AFEA1
:10C2E00008AA290009A809F045FE280009F0C9FD9F
:10C2F00092490AA8FDF76CF9A0680BF02DFF0368BE
:10C300000DAE5B69984728000AF0C5FE332004ABE8
:10C31000C0180AF0C0FE3A2004ABC0180AF0BBFEF9
:10C32000412004ABC0180AF0B6FE8023DB00B380C6
:10C33000A0680D950BF010FF036831005B6D984706
:10C34000A0680BF009FF036800219B6D9847A06867
:10C350000BF002FF0700002506000A371F2200210C
:10C3600038000DF085FBFD7730000AF0D1FE062184
:10C37000A0680AF0ECFE099A09219378A0680432BB
:10C380000AF0F8FEA0680BF0E7FEC8210571A0686E
:10C39000FFF78CFCA0680BF0DFFEFF272E00058165
:10C3A000A0680BF0D9FE0AF0BCFE0398FEF77EFBF6
:10C3B0000AA90CA809F0C7FD78220CA90398FEF77A
:10C3C000CDFC0CA809F05DFD039920000AF031FFB7
:10C3D0002000FCF717FE0495012563691D402DD050
:10C3E00057490BA8FDF7CEF90BA90CA809F01FFEC1
:10C3F00000220CA91300019200920398FEF752FC50
:10C400000CA809F007FE049B002B42D1043F282F03
:10C4100041DD0025FE2F00DC049D05980AF025F87B
:10C42000002806D0012362699A43130004221343B3
:10C43000636100260BA809F0EDFD049504226369F1
:10C44000134233D0FF210398C826FEF7ADFC002528
:10C45000B600A36902229B5EAB4222DD200029B216
:10C46000183009F09DFD0023010003981A00743074
:10C47000FDF7D8F93000FCF75DFE03980AF012FAD8
:10C48000C820FCF757FE02226369134209D1013527
:10C49000DFE70437BBE703980AF004FA002FBCDD9E
:10C4A000BAE7FA208000FCF745FE00260223656902
:10C4B0001D421CD006331D4024D022490BA8FDF795
:10C4C00061F90BA90CA809F0B2FD00220CA9019298
:10C4D000009213000398FEF7E5FB0CA809F09AFD03
:10C4E0001948FCF727FE0BA809F094FD174E6420AD
:10C4F000FCF720FE164B01369E4200DC6CE709F08B
:10C500008CFB69E713490BA8FDF73CF90BA90CA8B4
:10C5100009F08DFD2B002A000CA9019500950398C8
:10C52000FEF7C0FB0CA809F075FD0BA809F072FD21
:10C53000DDE7C046F8AC020008AD02000AAD02001B
:10C5400018AD02005DAD0200983A00008C0A0000B0
:10C550008B0A00009AAD02000022594BF0B5083357
:10C56000060003600F001000A9B0B1600BAB991872
:10C5700001324870102AFAD10F3A524C1A700E321A
:10C58000105D991A0874013AFAD2997B5A7B090214
:10C590000A4331000C31039125211B7813AD2B7018
:10C5A00002ABC918452302A81B186A821800102282
:10C5B0000DF042FA039B64216B610123002402AA5F
:10C5C0002B7752181993093313701DAB1C706D2310
:10C5D00002AA9B181C706E2321009B181EA80C2217
:10C5E000EC836C621C700DF043FA374B0C22210077
:10C5F00023A8AB63EC630DF03BFA344B02AAEB6467
:10C6000046239B180322DA7722002C6505953473A4
:10C6100006AD2B1901345A70102CFAD101232C4885
:10C620002B700E33195CEA1A1174013BFAD21121F6
:10C630002520AA7B6B7B12020BAC13432A78638202
:10C6400002ABC9182270C01810220DF0F5F90123B1
:10C65000237505ABA36100233800A3830BF080FD95
:10C66000036821001B68984713ABDB8BB068B3826B
:10C670000BF076FD002203680092B18A039ADC6811
:10C680000123A047B0680BF06BFD07001420FCF7F6
:10C6900093FE0022012304000261069240C008328A
:10C6A000290007930DF0C8F90A4BE360BB69002B22
:10C6B00003D13000BC6129B0F0BD2361F9E7C04669
:10C6C0001C9F0200F7AD02002B7002001D700200DB
:10C6D00007AE020093720200F0B500260400734B0F
:10C6E000DDB0083303608160C260868086713200ED
:10C6F0006F4947A80AF06DFE230014330125042773
:10C7000008931223009704950193089A330047A9D0
:10C71000039602961DA8FFF77FFA3200654947A8E5
:10C720000AF057FE082022000097330015AF1032A0
:10C730000495019047A90396029632A8FFF76CFA78
:10C7400032005D4938000AF044FE2300082004222C
:10C750001C3309933900330004950190009203962D
:10C76000099A029647A8FFF757FA32005349380052
:10C770000AF02FFE5420FCF71FFE050020000123C5
:10C78000122104221830079004930191009239007D
:10C7900002003300280003960296FFF73DFA2800B6
:10C7A000474BA5620822EC620AA930300A930B9627
:10C7B0000DF042F9434B0422AB63012329352B7062
:10C7C00009992661E66107980DF036F90422079968
:10C7D00008980DF031F96621032304AA8918CB7754
:10C7E000BA2104AA8918CB77872104AA490089189D
:10C7F000A26ACB77911CA685CB771DAB0C9332AB8D
:10C800000D930F9247AB32002F4910A80E930AF0F8
:10C81000E0FD3021452004AB5B181B7812313B70E2
:10C8200004AB5B181B8811397B8204ABC918C01894
:10C8300010220DF001F904220CADA0683A75BD611B
:10C84000BE830BF08DFC036839001B689847822279
:10C8500004AB9B181B885432238404AB9B181B88A1
:10C860005432A38404AB9B181B88A06863840BF02C
:10C8700077FC07001420FCF79FFD0500134B0661B1
:10C8800008221093119610A910C00DF0D5F8104B86
:10C89000EB60BB69B34206D1BD612000FCF7B2FB7F
:10C8A00020005DB0F0BD2B61F6E7C046289F020076
:10C8B00037AE020017AE020027AE020047AE0200FC
:10C8C000A57302001173020057AE02003DC90100BA
:10C8D0003B730200F0B504000E00150085B01F0088
:10C8E0000CAB1B881030019309F067FB2680658034
:10C8F0001820FCF761FD02AE050033000AAA03CA46
:10C9000003C32F602800082700213A000C300DF0E7
:10C91000AFF83A003100281D0DF08EF8064B0222C8
:10C920006B61200000230199A5600A43E360A280A7
:10C930002362636205B0F0BD65730200F0B50B8938
:10C940008DB00593CB68060004934B88828C9A4285
:10C950000ED1049C049B059A9B181B1B032B3BDDEB
:10C9600062882188012308A809F031FB0434F1E72B
:10C97000428C9A4230D1049C049B059A9B181B1B45
:10C98000032B29DD2388282006936388F768079303
:10C99000124B089300230993FCF70EFDC0236A464F
:10C9A0000500029308AB03CB03C233000699079A34
:10C9B0002800FFF78FFF3B6829005B683800984725
:10C9C000002807D0002D05D0280009F010FA280013
:10C9D000FCF712FD0434CFE70DB0F0BD2374020064
:10C9E00070B5040090B080680AF016FD0221014085
:10C9F0001AD1A38D002B17D00C4B6A460493102339
:10CA0000E568A1850591029304AB41CB41C20A00C0
:10CA1000230006A8FFF75EFF2B6806A99B68280085
:10CA2000984706A809F0E3F910B070BD237402001E
:10CA3000002815D0006041608260C36004614561D8
:10CA40008661C761444604624C464462544684622F
:10CA50005C46C462644604636E46466374468463FF
:10CA6000002A06D0C46B043C043A25681560B44221
:10CA7000F9D18C6BA6464E6BB546002B06D0CC6B1D
:10CA8000043C043B1D682560B442F9D10C6BA446FC
:10CA9000CC6AA3468C6AA2464C6AA1460C6AA046A0
:10CAA000CF698E694D690C69CB688A6808684968E6
:10CAB0007047006041608260C360046145618661C7
:10CAC000C761444604624C464462544684625C46F4
:10CAD000C462644604636E46466374468463C46BF2
:10CAE000043C043925680D60B442F9D1C7698669F0
:10CAF000456904697047006041608260C3600461F9
:10CB000045618661C761444604624C4644625446AE
:10CB100084625C46C462644604636C464463744643
:10CB2000846304697047846BA646446BA546046B16
:10CB3000A446C46AA346846AA246446AA146046A1B
:10CB4000A046C769866945690469C3688268006848
:10CB50004168704710B5041E0CD00CF0C9FF431E8D
:10CB6000E3189C4208D222781978013B21705A7050
:10CB70000134F6E7014810BD0020FCE717FCFFFF79
:10CB8000F0B585B002900C1E2AD00023C217161AE9
:10CB900056400193019B30005D1C63190A215F1E02
:10CBA000039303F0F3FF49423031397030000A211A
:10CBB00003F006FF47420600002F0FD1029B002B17
:10CBC00004DA2D23019D039A0235137000232000FF
:10CBD0006355FFF7BFFF380005B0F0BD0195D9E7F9
:10CBE000004FF8E717FCFFFF10B582604A430400CE
:10CBF0004160002A0ADD074B90009A4201DD0120C6
:10CC00004042FCF7D9FB2060200010BD00230360E8
:10CC1000FAE7C046FEFFFF1F4A688B6870B5836065
:10CC2000534304000D004260002B12DD0A4A9E00AF
:10CC30003000934201DD01204042FCF7BDFB0023A0
:10CC400020602A68D158C15004339E42FAD1200096
:10CC500070BD00230360FAE7FEFFFF1F70B50028D8
:10CC600017D1114D2E68002E11D108300CF052FD55
:10CC7000066046600D4E04003368002B02D10BF0B5
:10CC80005AFE306023682C609B00F358636028686C
:10CC900070BD0122064907480B681340F8D10260B5
:10CCA00043600A60F4E7C046302700203C2700209C
:10CCB0002C27002034270020002370B504000160D9
:10CCC000436099420AD1064D2B68002B02D10BF02C
:10CCD00032FE286023689B00EB586360200070BD23
:10CCE0003C270020436810B50400002B02D1044803
:10CCF0000CF01EFC606803681B69984710BDC046B5
:10CD000067AE0200436810B50400002B02D104484E
:10CD10000CF00EFC606803689B69984710BDC04624
:10CD200067AE0200436810B50400002B02D104482E
:10CD30000CF0FEFB606803685B6A984710BDC04654
:10CD400067AE020010B5040002F028FC034B1B681C
:10CD5000002B01D02000984710BDC046442700207A
:10CD6000F0B58BB0050001F087FE002000F0ACFEAE
:10CD7000036807001B6998473B6804009B693800FB
:10CD800098473B6806005B6A38009847030028888C
:10CD900010380B2862D803F07FFD063E6161615BAD
:10CDA000616161676179AF88200039000BF08AFB0F
:10CDB00022006B7B583201931378A8799C4602239A
:10CDC00061460B43137004AB1F80012304AA9370C8
:10CDD000D07013006A461279E91D9A722B00062260
:10CDE000163305A809930CF027FE29000B2004AB8D
:10CDF00006220E31C0180CF01FFE94346368A36045
:10CE0000A06800282AD0C36804A99847A368002B0B
:10CE1000F4D01B69F3E720002F49AF880BF052FBD9
:10CE20002200022058321378A9798343137004AB8F
:10CE30001F809970A0346368A360A06800280DD09B
:10CE4000C36804A99847A368002BF4D01B69F3E7D3
:10CE50005B69A888A91D002B00D0984729003000E5
:10CE60000BF0BFFE0BB0F0BD636E002BF6D0AF79B8
:10CE7000A366A06E0028F1D0C36839009847A36E5E
:10CE8000002B01D1636EF3E71B69F1E701226946CC
:10CE90000D27AB7BEF571A4001925A07920FDB0820
:10CEA0000A720B730622E91D04A80CF0C5FD6A4640
:10CEB000127904ABDA716A46127A9F711A726A4665
:10CEC000127B20005A722B000F3307938C34803072
:10CED000236804A99847C1E7FFFF00000723D7286C
:10CEE00002D9024B18600023180070474027002029
:10CEF000014B18607047C046442700201FB58022B0
:10CF0000A323D205DB00D3580820DB0700D405306B
:10CF10001C4B48221C4902F011FE00280AD080B2A6
:10CF2000002807D1BFF34F8F184B194ADA60BFF3BF
:10CF30004F8FFEE7002302A8029301330370154BC5
:10CF40001B6843600BF018F9002802D0072005B0D9
:10CF500000BD68460BF00EF90028F7D169460BF0CA
:10CF600007F90028F2D10C4802F018FE80B2002820
:10CF7000EDD10A4802F01CFE80B20028E7D100F093
:10CF80001FF8E4E77D8102004827002000ED00E063
:10CF90000400FA054027002061CD010045CD0100C5
:10CFA00080B2002807D1BFF34F8F034B034ADA60EA
:10CFB000BFF34F8FFEE7704700ED00E00400FA0575
:10CFC0001FB5002302ACA380104B01A80293C82315
:10CFD0005B00E380803BFF3B037005220C490BF0B4
:10CFE000D9F880B200280FD1802080000BF0CEF855
:10CFF00080B2002808D120000BF0CAF880B20028C7
:10D0000002D10BF0C1F880B204B010BD280090012D
:10D010008AAE0200024B0B60092313607047C046C2
:10D0200090AE020010B50400002000F04DFD036832
:10D030001B6998470300F3331C7086235B00C050C4
:10D0400003000021044AFC335A61044A99615A6280
:10D05000F4300CF0E9F810BD8183020093830200E4
:10D06000012110B5044A080002F0A6FC00239842F2
:10D0700000D00B33180010BD25D00100F8B5050015
:10D080000400AC356B68AB60A868002807D0C368A3
:10D0900021009847AB68002BF4D01B69F3E726000A
:10D0A000B0363568002D05D02F6928000CF02EFB16
:10D0B0003D00F7E72200FC21356058321378260046
:10D0C0000B40137023000A365C331D701F222900A9
:10D0D00030000CF0CDFCF5772A361F2229003000F5
:10D0E0000CF0C6FCF577606E002804D005690CF0E2
:10D0F0000DFB2800F8E725009835606628680028B1
:10D1000004D006690CF002FB3000F8E72600A436D4
:10D1100028603568002D05D02F6928000CF0F6FA3C
:10D120003D00F7E72000356029000C226C300CF040
:10D130009FFC2000074BE567A36729000C22803085
:10D140000CF096FC2300044A8C33903428001A60BB
:10D150002560F8BD7383020065830200F0B593B0CB
:10D16000019000200C0000F0AFFC03685B6A984758
:10D1700000F082F906AB00280ED000221A7105AA31
:10D180000692082218001A730AAA9A6000F042FA5E
:10D19000002803D013B0F0BD18711873002727734F
:10D1A0002771019BBA331B78BB4242D907237B43CB
:10D1B0001A000199BB32CB18BB331B788A18029234
:10D1C000022B2ED1002506AE337BAB4223D9AB0018
:10D1D0000393089BAA00995802980BF07DF9002848
:10D1E0001CD0B3689C46AB001900237B61440293BA
:10D1F0009A000868A368D050029B01332373337BE5
:10D200005A1E954205D00C481B1860469B001B58BF
:10D210000B6006AB1A730137FFB2C2E70135EDB2FE
:10D22000D1E72379216802989A0001335050237185
:10D23000F1E70020AEE7C046FFFFFF3FF0B50A78F8
:10D2400004009BB00D000220012A08D04B88032A5D
:10D2500007D1A03B21499BB210008B4207D91BB0DC
:10D26000F0BD203B1E4A9BB203209342F7D81D4BD2
:10D27000AA8803209A42F2D80AAB009312AB029319
:10D280006A460023260013711373B8363378002BD7
:10D290001DD104AF1822002138000CF0E9FB2B78D7
:10D2A00038003B7033783B726B46FB606B883B8287
:10D2B000AB887B820AF07AFF02000320002ACED1DD
:10D2C00001235834217810000B432370C7E76946C7
:10D2D0002000FFF743FF0028DBD0C0E7603F0000DD
:10D2E000E03F0000FF3F0000F0B59DB01E006B4620
:10D2F00004001A70581C0622229D0CF09DFB002E83
:10D300002ED0328802AB1A8072885A80B2889A80F6
:10D31000F288DA800CAB04AE049314ABB360270040
:10D320000023B937337133733B78002B1ED10122B0
:10D330003B78022708A9134058000B784E60BB4386
:10D340000343002D1AD1200032300078934310405F
:10D3500003430B70A38D0B81E38D4B81238E17E06C
:10D360001A4B029396239B040393D3E731002000CA
:10D37000FFF7F4FE0028DAD01DB0F0BDA879934382
:10D38000104003430B702B880B816B884B81AB885B
:10D3900002AA68468B810AF01FFF03000020834227
:10D3A000EAD00630082BE7D006D80130042BE3D0B2
:10D3B000834209D10420DFE70520112BDCD0044A89
:10D3C0009342F7D0102BF5D00B20D5E73200640044
:10D3D0000232000070B500200D0000F075FB0368FC
:10D3E0005B6A98472B780400142B1ED003D8132BAC
:10D3F0000CD0002070BD152B1FD0222BF9D16B68EB
:10D4000018882369002BF4D09847F2E76B68012550
:10D4100018889B78646819005A08DB0629402A405E
:10D420005B0F002CE5D0A047E3E76B68188899787C
:10D43000A368002BDDD09847DBE768688278130982
:10D440001207120F012A03D0022A0BD0002106E096
:10D45000013BDBB20021022B01D8064AD15C0088D7
:10D46000E368E6E70421012BF9D00131022BF6D065
:10D47000ECE7C04699AE0200014B18787047C046F1
:10D48000052A0020F0B51D000023304F87B0009220
:10D490003A7806000C009A4204D102F0B3F8002852
:10D4A00003D00B23180007B0F0BD002D0ED003A948
:10D4B000222003950BF00EF8002807D00623082839
:10D4C000F0D01138434243410433EBE7002302AA72
:10D4D0001000137001F08AF80028E2D101251C49E0
:10D4E00002220B782E40AB4333430726934301932C
:10D4F000009B2C4033409340AC409C46019B02AAC9
:10D500001C431C239C4363461C430E239B1818801A
:10D51000104B0C700393022303AC2371093002AB50
:10D520000522C0180CF088FA21000B4801F0C8F859
:10D53000002807D033000428B4D0013B0828B1D01C
:10D540000533AFE73D700300ACE7C046052A002075
:10D55000F9210020D5D30100062A002010B5074884
:10D5600001F086F90023984206D00733042803D03F
:10D57000013B082800D00533180010BD062A002002
:10D58000002373B501930F4B01AD1B780E002900EA
:10D590002B7001F031FC041E05D00423052800D0B7
:10D5A0000733180076BD3100280001F0C3F82300CE
:10D5B0000028F6D007230428F3D0013B0828F0D038
:10D5C0000533EEE7062A002073B5114C0E00050066
:10D5D0000522210068460CF02FFA012E03D0022EFE
:10D5E00010D002230CE002222378B3439343694610
:10D5F000280023700AF06CFF0023984200D00B3300
:10D60000180076BD012322781343B343EFE7C046E9
:10D61000F9210020094B10B51A7801000923002ACE
:10D6200009D0074801F0BEF80023984203D0033325
:10D630000E2800D00333180010BDC046052A002074
:10D64000062A002000487047FFFF0000F0B597B0A1
:10D650000593036807AD1B680491039311002B0029
:10D66000060091C991C30024D36821000C220CA8A4
:10D67000EB602C610CF0FCF922000B4B10940F9323
:10D6800011AB1C70191901344A70102CFAD15A824E
:10D690000193059B2A00009304990CAB3000039C76
:10D6A000A04717B0F0BDC046EF85020070B5FC3052
:10D6B000046C0500002C0DD124200CF02BF8064B37
:10D6C00044608361054B8460C46004614461C4614B
:10D6D00003602864286C70BDA0A0020088A102002D
:10D6E00070B5FC30C56B0400002D11D134200CF056
:10D6F00011F8084B85604360074B45610361074B98
:10D700000562C361064BC5628362064BE06303603A
:10D71000E06B70BDD0A00200C0A0020030A10200EA
:10D7200040A1020050A102007FB503791548002BEB
:10D7300022D0154E154C33782000002B1CD102ADA1
:10D7400028000AF03FFF002810D16B88592B0DD11B
:10D750002B78AA88D91F012910D800920C4A2021C1
:10D76000200007F059FC0123337004E0202209490E
:10D7700020000CF0C4F9200004B070BD0092064AED
:10D78000EDE7C0469CAE0200272A0020072A0020B1
:10D79000BEAE0200B6AE0200DBAE020010B5040061
:10D7A000024B08C00AF0E0FF200010BDC0A002003C
:10D7B00010B50400024B08C00AF0EBFF200010BDBA
:10D7C000D0A00200064B70B504000360406800283A
:10D7D00004D005690BF09AFF2800F8E7200070BD1F
:10D7E000B0A00200064B70B504000360406800283A
:10D7F00004D005690BF08AFF2800F8E7200070BD0F
:10D80000E0A00200064B70B50400036040680028E9
:10D8100004D005690BF07AFF2800F8E7200070BDFE
:10D82000F0A00200064B70B50400036040680028B9
:10D8300004D005690BF06AFF2800F8E7200070BDEE
:10D8400030A10200064B70B5040003604068002858
:10D8500004D005690BF05AFF2800F8E7200070BDDE
:10D8600040A10200064B70B5040003604068002828
:10D8700004D005690BF04AFF2800F8E7200070BDCE
:10D88000D49F0200064B70B5040003604068002876
:10D8900004D005690BF03AFF2800F8E7200070BDBE
:10D8A000E49F0200064B70B5040003604068002846
:10D8B00004D005690BF02AFF2800F8E7200070BDAE
:10D8C000F49F0200064B70B5040003604068002816
:10D8D00004D005690BF01AFF2800F8E7200070BD9E
:10D8E00004A00200064B70B50400036040680028E5
:10D8F00004D005690BF00AFF2800F8E7200070BD8E
:10D90000A0A0020070B5FC30046C0500002C0DD105
:10D9100024200BF0FFFE064B44608361054B8460BE
:10D92000C46004614461C46103602864286C70BDF4
:10D93000A0A0020088A10200104B10B508330360BC
:10D940000F4B0400C36080230E4A5B00C250C01816
:10D95000FCF782FF20000C4BB830E360FFF7B2FF0A
:10D960002000AC30FFF79EFF2000A030FFF78AFFB9
:10D9700020006C30FFF776FF200010BDB4A102003C
:10D98000489F0200DCA2020014A00200444AF0B545
:10D990000600C260A022434B163608330360010024
:10D9A000002342820400320085B003718360037457
:10D9B00083823531137001329142FBD18025802260
:10D9C0002000AD00D201F377358411000093383088
:10D9D000002300F029FB23002100403303931A00A9
:10D9E0002B0000255F31157001328A42FBD1039A6A
:10D9F000FC21D577220060321380137920000B4080
:10DA00001371230068331D70274B2567E3660C22D2
:10DA1000002178300CF02CF82300270088331D609B
:10DA2000224B0837FB67843700210C2238000CF0AA
:10DA30001FF81F4B1F4AFB602300A0333D611A6093
:10DA40001D4A5D60DA601D4A1D619A61DD6130002A
:10DA50000AF068FF03980AF065FF194B601CE36049
:10DA60002300C4331D705D709D70FF3002F0ECF830
:10DA70008C235B00E55023001933FF335D61802365
:10DA8000104A5B00E250230001222000FE33524284
:10DA90005A86023B9D63DD631D6405B0F0BDC04640
:10DAA00014A00200B4A10200D49F020073830200FC
:10DAB00065830200E49F0200F49F020004A00200BC
:10DAC000489F0200DCA2020070B5074C2368002BBF
:10DAD00007D1A02040000BF01DFE0500FFF756FF08
