:020000021000EC
:10800000004000205D020200990202009B02020073
:108010000000000000000000000000000000000060
:108020000000000000000000000000009D020200AF
:1080300000000000000000009F020200A1020200F8
:10804000A3020200D1AF010009FF0100A302020058
:10805000A3020200000000005D000200A302020073
:10806000A302020071FA0100CDFF0100A302020089
:10807000A3020200A3020200A3020200A302020064
:10808000A3020200A3020200A3020200A302020054
:10809000A3020200DDF4010009F70100A3020200BF
:1080A000A3020200A3020200000000000000000082
:1080B00000000000000000000000000000000000C0
:1080C00010B5064C2378002B07D1054B002B02D0AE
:1080D000044800E000BF0123237010BD20220020CF
:1080E0000000000058A60200044B10B5002B03D07E
:1080F0000349044800E000BF10BDC0460000000076
:108100002422002058A60200164B002B00D1144B4D
:108110009D46402292029A1A924600218B460F46B3
:108120001348144A121A10F0D8FF0F4B002B00D03E
:1081300098470E4B002B00D09847002000210400E8
:108140000D000D48002802D00C4800E000BF0CF0E4
:10815000B7FB2000290010F040FD0CF09BFBC0464F
:1081600000000800004000200000000000000000A7
:1081700018220020C82A0020000000000000000093
:1081800010B50400034B036040300DF021FB2000CC
:1081900010BDC04670930200F0B550488DB000F09D
:1081A000F7F9012600F0DCFF00231C00069007937E
:1081B0004B480DF0F6FD00280ED000F0D1FF0699D7
:1081C000079A002308900993089B099C5B1A944125
:1081D000049305943400EBE7002CE3D0049C059D48
:1081E00065225242D317A4185D4102940395039B64
:1081F000002B28D12B33029AFF339A4223D83949D6
:108200000BA80DF0B0FB039B374C019300931A00B1
:108210000BA9200002F0F4FA0BA80DF097FB334FE6
:108220003100380002F03AFEFA2000F08FFD039989
:10823000380002F033FEE120400000F087FD20000E
:108240000DF0CCFFAEE70125049A059B284C6D424A
:10825000A4185D4102940395039B002B23D1F333B3
:10826000029AFF339A421ED822490BA80DF07BFBDD
:10827000039B1D4C019300931A000BA9200002F0F0
:10828000BFFA0BA80DF062FB184F3100380002F066
:1082900005FEFA20400000F059FD0399380002F075
:1082A000FDFDC820C9E7059B002B05D1E123049AF9
:1082B0009B009A4200D875E70F490BA800F094FF85
:1082C000C822094C52000BA9200002F063FA0BA847
:1082D0000DF07EFAAF208000AFE7C0467C22002080
:1082E0005422002040220020682300204422002045
:1082F0006FFEFFFF3C220020F69F020073B51D4D6C
:10830000280000F085F81C4C1C492200280010F0C1
:1083100084FE1B4D1B49280001F040F81A4E220034
:108320003100280010F079FE184D1949280001F09D
:1083300035F831002200280010F06FFE0023154DA3
:10834000009301331A001121280001F0CFFB220015
:108350001149280010F061FE104D0F232800012262
:10836000092102F04FFD280022000D4910F055FEB2
:1083700073BDC0467C22002000200020A5830100A0
:1083800040220020889F02004D5902003C2200201C
:10839000BD9F020054220020D59A010044220020F3
:1083A000E9530200EB23194A9B0010B5C2501C335D
:1083B0000400C0180DF00CFAF1239B00E0180DF03A
:1083C00007FA84239B00E01801F0BEFB2000C530B3
:1083D000FF3001F0DDF820008D30FF3001F07AFB36
:1083E00020006530FF3001F075FB2000EC3002F01A
:1083F0004DF82000D03002F0EFFB2000643007F091
:1084000095F9201DFFF7BCFE200010BD74950200F9
:108410001423F0B5040095B00093192218210430FC
:1084200002F026FE220027006432B4371321100028
:10843000119207F087F938000EF017FA2200B832CF
:1084400010921E21002210980DF0CDFE2000D03099
:1084500002F0E2FB2200EC3212920621494A129805
:1084600002F038F820000026012365301A0000963B
:108470001121FF3001F03AFB20008D3000960123DE
:1084800002221A21FF3001F031FB25002000C53502
:10849000B530FF351A2302220121FF3002F07AFCA9
:1084A000109904233A22280001F022F98422920034
:1084B000A218139205231D22019300923B002A006B
:1084C0001099139801F036FD96229200129BA01885
:1084D00013992A0001F008FF99229200A018390090
:1084E0001C2202F0F1FE19239F220F93013B0E93F1
:1084F000013B0D93013B0C93013B0B93013B0A9312
:10850000013B0993013B0893013B0793013B069311
:10851000013B0593013B0493013B0393013B029311
:10852000013B01939200013BA01800930822013BFC
:1085300007210DF060FEEB239B00E018390003F0EB
:1085400063FAF3239B00E0181D2102F0DDFCFD23FC
:108550009B00E65011982670032110F06EFA23005C
:108560002200200008499C33A0321C601160566034
:10857000064A80305A610221012207F021FE2000C4
:1085800015B0F0BD789302001F5402000954020098
:108590000123F0B5067889B004001E4000D0ADE09C
:1085A000FD20800500F0DCFC2300D033180002938E
:1085B00000F0B0FA00F0A6F9282000F009FD05004F
:1085C00010300DF096F94E4B18202B6000F000FD96
:1085D00007004C4B0460082231000C3006930796CC
:1085E00010F07BFD06A9381D082210F05AFD464BFD
:1085F00029007B611223AF60EE60AB802E626E6259
:10860000029802F081FA002805D028000DF096F8B3
:10861000280000F0FDFC012322786420134323701E
:1086200000F094FB002523006533FF33180003930B
:108630000DF0B7FB00283CD020008D30FF300DF04E
:10864000B0FB002835D00A2D33D06420013500F06E
:108650007DFB0A2DE7D12D492D4800F057FCFD2761
:10866000EB23BF009B00E618E359002B1AD100F062
:108670005DF8010004A800F0B7FD05A80CF041FF6B
:10868000012305AA04A900933000029B03F010FA0D
:1086900005A80DF09DF804A80DF09AF8ED239B00B5
:1086A000E358E3512100039AEC31300003F0A6FBBC
:1086B000B9E7FD2515491648AD0000F027FC6659BD
:1086C000002E1BD100F032F8010004A800F08CFD50
:1086D00005A80CF016FFEB239B00E01805AA029BEF
:1086E00004A9009603F0E4F905A80DF071F804A8B8
:1086F0000DF06EF8ED239B00E358635109B0F0BD17
:10870000FD0300009154020051540200002000209B
:10871000001C0020BFF34F8F024B034ADA60BFF307
:108720004F8FFEE700ED00E00400FA05F0B58DB0D4
:1087300005AF19221549380010F0B3FC0022144B84
:1087400005245A7180225205566E0122250001949B
:10875000029203930199300007F090FE08000299FD
:1087600007F006FE019B03996B430193029B361AA7
:108770006B430293631E2C1B6C433C19225C1C1E32
:10878000CA54E7D108000DB0F0BDC0462EA00200CB
:10879000F6290020F0B597B018220021060010A895
:1087A00010F09BFC132110A810F086FA032110A8EA
:1087B00010F051FB4C4B1B68002B00D10133DBB296
:1087C00002934A4A012300210BA807F033FC484BCF
:1087D0009E4200D9002672B6464B64211D68464B66
:1087E00030000793052407F04DFE604350302818F1
:1087F00008900A21300007F045FE0A2107F028FF03
:10880000614350316918099130000A2107F020FFB7
:10881000802361430024503169189B010A91019320
:10882000029B002B5DD0002500272E1F07AB9B1954
:108830000593032C03D1802300249B01019307ABF4
:108840005B592E4A03936300D31804930023190045
:1088500006205843049A16187678B4466246039E5A
:10886000B25C10269446049A105C62460641164299
:1088700002D00120984001430133092BE8D1C943BC
:108880001F4B059A090119401268039B934225D199
:10889000312F23DC00210BA810F0B5FBFA23159A29
:1088A0001199DB00106801421BD0013B002BF9D16C
:1088B000019B01345B000193FA230137E4B25B00B2
:1088C0009F42B6D10435102DAED1074B1B68002B4B
:1088D000A6D0029F013FFBB20293A1E7019B19437F
:1088E000D9E7FFF717FFC04678260020F0FF000009
:1088F000E7030000042000207DA0020047A0020042
:10890000F01F0000F8B50023124C23600CF01AFE93
:10891000002808D0042120000CF010FE002801D00F
:108920000D4B2360F8BD0122A12704250B4B0C49F8
:108930001A602268FF0048604E68002EFCD0DE59A5
:108940001202013D3243002DF5D1226001225A600E
:10895000E8E7C04674260020ED5EBC0B00D0004066
:10896000FCD00040F0B585B01F000AAB1B880600A4
:10897000029115000393002F1CD0282000F028FB43
:108980006B4604001989039BAAB200933B000CF0CC
:10899000BEFE336821005B683000984700280AD08B
:1089A000002C05D020000CF0C9FE200000F030FBA8
:1089B000024800E0024805B0F0BDC04616FCFFFFCB
:1089C00017FCFFFF0B4B70B51C68002C10D0656DB9
:1089D00000F0C6FBA36C002901D1834206D8200019
:1089E0000CF0E3FD044920000CF0CDFD2C00ECE779
:1089F00070BDC04680260020A0260020F0B593B0B0
:108A000007932A4B04AC1E68049005910692002E31
:108A10004AD0274B258867881C6800230293002CC6
:108A20002ED0636D23480393A36C9AB2A36C1B0CE6
:108A300099B2854214D12048824211D1002B01D035
:108A4000B9420BD1029B002B08D120000CF0ADFDE8
:108A50001A4920000CF097FD01230293039CDEE7E6
:108A6000002A01D09542F9D1002B01D0B942F5D1AD
:108A700020000CF09AFD114920000CF084FDEDE778
:108A80000F4BEB18012B0FD910233A00009329004C
:108A90000C4B08A80CF03BFE336808A99B6830001B
:108AA000984708A80CF04AFE13B0F0BD7C260020C1
:108AB000AC260020FE030000FF030000A0260020DB
:108AC00002FCFFFFFD89010010B572B60B4B1C685C
:108AD000002C08D020000CF068FD0023E364084B54
:108AE0002000E36310BD62B65C2000F071FA5C22E6
:108AF0000021040010F0F1FAEFE7C046A4260020A0
:108B000000400020024B1878012318407047C046EF
:108B1000FC290020F7B50600FFF7F4FF051E33D14E
:108B20001A4C2660FFF7D0FF194B1A4918600CF059
:108B30002AFDFFF7C9FF184B1860184B4363184B09
:108B40008363206800280ED0C027164E2A00330009
:108B500015490097FFF706FF009733002A001349D5
:108B60002068FFF7FFFE0C2000F032FA002383801C
:108B700083710F4B03600F4B836000F009FB0123EF
:108B80000D4A11780B431370F7BDC0467C260020B8
:108B9000B0260020A0260020A8260020FC3F0020B0
:108BA00071560200FD890100FF030000FE03000072
:108BB00098930200C5890100FC290020F7B5060042
:108BC0000D0017000193002802D100242000FEBDF3
:108BD0000029FAD0FFF778FF041EF6D0074B019A60
:108BE0004363066045608760054B002A00D0054B53
:108BF000A363054920000CF0C6FCE7E7FC3F00201A
:108C00003B56020059560200A0260020024B18686D
:108C1000434258417047C046A0260020002310B5AB
:108C200004499C006258002A01D00133F9E76050E2
:108C3000100010BD88260020002310B5044A9900BA
:108C40008C58844201D00133F9E70020885010BDD0
:108C50008826002010B50024084BA200D058002818
:108C600002D003685B6898470134062CF4D1044BAA
:108C70001B68002B00D120BF10BDC04688260020F5
:108C8000A0260020F8B5FFF73DFF00281BD0294D96
:108C90002C68E36CDA0717D502263343E364042318
:108CA000254F3868C26C1343C364636BC3630CF015
:108CB000A2FC3868416C03F09EFC2868C36C334208
:108CC00001D003F0D2FCF8BD1C4F1D4E3A6831684C
:108CD000002A1ED129602A688A4208D11B0706D5BE
:108CE0002C60FFF7B7FF3B68002BFAD02B60296898
:108CF0008C42E8D03368994214D1124B4B63124B2B
:108D00008B6320000CF077FC2968626C4B6C2000B0
:108D10000DE0206DB84203D1606D002800D0020044
:108D20002A60D8E79C42ECD1002210004B6C03F083
:108D300021FCC8E7B026002084260020A0260020C1
:108D4000A8260020FC3F00207156020070B50500E7
:108D5000FFF7D8FE002803D1280010F070F870BD8E
:108D60000C4B1C68E36CDB0706D5FFF7ADFE0A4B26
:108D70001860002800D0040000F0F2F92D18A56456
:108D800020000CF012FC054920000CF0FCFBFFF762
:108D900079FFE4E7B026002084260020802600200A
:108DA000F0B51E4B1E4F1C683B6885B00600039152
:108DB000002B30D0FFF7A6FE00282CD0E36CDB0799
:108DC0000ED5FFF781FE174B051E186008D00CF07A
:108DD000ECFB154928000CF0D6FB2C00FFF752FFE6
:108DE000039B20001B043343A3640CF0DEFB200034
:108DF0000E490CF0C8FB0E4B0024F318012B07D9C9
:108E0000C0230093039A0B4B31003868FFF7AAFD8B
:108E1000200005B0F0BD084CFAE7C046B02600209F
:108E20007C26002084260020A0260020AC260020DE
:108E300002FCFFFFFD89010016FCFFFF10B5FFF7E4
:108E400061FE002809D0054C20680CF0AEFB0449F7
:108E500020680CF098FBFFF715FF10BDB02600202E
:108E6000A4260020F7B507000D0000282ED0FFF73C
:108E700049FE00282CD00724164E3068C36C1C40D5
:108E800007D0154A290038000CF0A6FB002420006A
:108E9000FEBD03F0D2FB02213268D36C1940019170
:108EA00003D003218B43D364F1E701242343D3642C
:108EB0002800B8473268D36C1900A143D164019CE3
:108EC0005B07E4D528000CF0BFFBE0E7034CDEE7CE
:108ED000034CDCE7B02600204956020017FCFFFFD8
:108EE00016FCFFFF020010B5014B12CB12C210BDE1
:108EF000B4260020034B1A68034B1A607E225A6086
:108F00007047C04604200020B426002070B5104DE4
:108F10002B78022B18D0814218D90B1A072B15D9A0
:108F20000C00032304431C4010D172B62A78094B6D
:108F3000D200D050981841600CF0A0FB2B78013380
:108F40002B7062B6200070BD0348FCE70348FAE7C7
:108F5000FD290020BC26002013FCFFFF17FCFFFFAB
:108F600070B50021041C07F095FB002828D1FE21D4
:108F7000201C890507F098FB002821D104300BF054
:108F8000C3FC05000F48401B08F06EFB211C08F0D5
:108F90000BF807F0BDFB03239843040028000BF0F7
:108FA000BDFC20000BF0B0FC002804D1203C002CBC
:108FB000F7D1054803E00119FFF7A8FF002070BDB5
:108FC0000248FCE70038002013FCFFFF17FCFFFFFE
:108FD00070B5060000250C4B1B78AB4209DD0B4930
:108FE000EB00C91830000CF051FB041E09D101350B
:108FF000F1E730000BF088FC041E02D11420FFF7CB
:10900000C9FB200070BDC046FD290020BC26002001
:1090100070B5002813D00D4B0D491C7800239C42DD
:1090200010DDDA00555885420AD28A185268824209
:1090300006D98023043802681B061343036070BD01
:109040000133ECE70BF06AFCF9E7C046FD2900208C
:10905000BC26002070B5051E14DD0B4E0B4C33688A
:10906000002B02D020680FF065FDFA212068002453
:10907000074B89008361C462694335600FF062FD6C
:10908000200070BD0348FCE7CC260020FC26002011
:109090003D91010017FCFFFFF8B5114F06003D6838
:1090A000002D0AD13020FFF793FF040006F06EFB7D
:1090B0000C4BA5612360E5623C600B4D2B68002BD7
:1090C00009D11020FFF784FF04000FF0FCFC200002
:1090D0002C600FF0D2FC3000FFF7BCFFF8BDC0469B
:1090E000FC26002010990200F8260020014B186889
:1090F0007047C046CC26002070B50D4C2368002B6D
:1091000003D00C4B1B68002B02D10620FFF7C4FFD5
:1091100020680FF0C9FC02000749C3170D684E68AC
:109120005219734120680A604B600FF0C3FC70BD98
:10913000F8260020FC2600201822002010B5FFF79A
:10914000DBFF0024054BA200D058002802D00368A2
:109150001B68984701340A2CF4D110BDD02600209A
:1091600010B5FFF7C9FFFA22034B9200186859683F
:10917000002307F0ADFA10BD1822002010B5FFF74C
:10918000BBFF024B1868596810BDC046182200206A
:109190000B4B10B51B680400002B03D0094B1B6858
:1091A000002B02D10620FFF777FF0023064A990023
:1091B0008858002801D00133F9E78C5010BDC04613
:1091C000F8260020FC260020D0260020002310B521
:1091D000044A99008C58844201D00133F9E70020F9
:1091E000885010BDD026002010B50400002902D000
:1091F0000B78002B03D1034B2360200010BD0CF033
:10920000EEFAFAE7A8930200F8B504000E00150084
:1092100000290AD00B78002B07D0002A05D00800BF
:1092200097B20FF09AFF874203D90B4B23602000BF
:10923000F8BD681DFFF7CCFE20600CF05FFC2368D2
:109240002A005F8023683100181D0FF02AFF236871
:109250005D1900232B71EAE7A8930200014B03601C
:109260007047C046A893020010B50548054C206021
:109270000CF047FC044A054920000FF0CEFE10BD5B
:10928000A89302000027002000200020D1570200F0
:10929000084B73B51C680500002C0AD00100266835
:1092A0000831082268460FF0FCFE0CCD3168200022
:1092B000884773BD04270020014B03607047C046F8
:1092C000B093020030B500684488A1420CDA85886A
:1092D000AA4209DA002907DB002A05DB54434018BB
:1092E00000198371002030BD0048FCE717FCFFFF28
:1092F000F0B5070085B00E001D0000291FDD002B12
:109300001DD00468638803938B4200DD0391A3881A
:109310000293934200DD0292002306340193019BE5
:10932000029A93420EDA29002000039A0FF0B9FE48
:109330003B68AD195B88E418019B0133EEE70248F6
:1093400005B0F0BD0020FBE717FCFFFFF8B50400F7
:109350000D0016001F00002901DB002A02DA0E4B67
:109360002360F8BD100048430630FFF731FE20604F
:109370000CF0C4FB23685D8023689E80002F06D01C
:109380003B00320029002000FFF7B2FFE9E7200090
:109390000CF0F1FAE5E7C046B0930200F0B5060024
:1093A00087B00D1E04D1244B0360300007B0F0BD20
:1093B00000200F000400010001903B78002B1AD020
:1093C0003022524294469C446246092A11D90A2B03
:1093D0000AD1019B241801330193A14200DA210034
:1093E000002004000137E8E70028FBD0013400200A
:1093F000F8E70120F6E76A46928809B212B2300017
:10940000FFF7A4FF33689C1D03AB1F002A78002AD6
:10941000CBD011003039092903D81A700133013536
:10942000F4E700221A70BB42F9D938000FF019FE98
:109430003B0020700134F2E7B0930200F0B5040065
:1094400089B006A80E0002921D00FFF74BFD2368AD
:1094500002995A88914235DA9B889D4232DA1F2E52
:1094600030D9079B01939E422CDC052300227343D5
:109470000393069B0493039B04999B18A03BCB5C2E
:1094800000210593AE18029BCF18236858880190DD
:1094900087420EDA9888B0420BDDDB1910270F41A6
:1094A000019870431B1805980740781E87417F423A
:1094B0009F7101310529E6D10132052ADBD1002057
:1094C00009B0F0BD0048FBE717FCFFFFF7B50468E3
:1094D000070063880E1E01931EDD994218DA0023EF
:1094E000063400933B68009A9B889A4212DA019BEB
:1094F000A1199D1B2A0020000FF0D3FD6019310037
:109500000CF02BFA3B685B88E418009B0133E8E71A
:109510000CF031FA002000E00048FEBD17FCFFFF10
:1095200010B50548054C20600CF0EBFA044A0549DB
:1095300020000FF072FD10BDB0930200082700203C
:10954000002000204D59020010B5054C01212000DB
:109550000CF0CBFA034A044920000FF05EFD10BD69
:109560000C27002000200020A75A02000388074A89
:1095700010B50120934208D0834202D00020DB07BF
:1095800003D41E20FFF706F9002010BDFFFF0000E6
:1095900010B50400034B08330360FFF74DFB2000B8
:1095A00010BDC046F8930200FA2270B543899200BC
:1095B0005343314A31491400050038348B421BDCD7
:1095C0002F498B4218D82F49083C8B4214D82E497A
:1095D000083C8B4210D82D49083C8B420CD82C49B2
:1095E000083C8B4208D82B49083C8B4204D82A49B6
:1095F00014008B4200D90834284B2A7B1E1D042AF4
:1096000003D89E1C022A00D81E00FA212068890077
:1096100006F0AEFE337868812B7300222A212800E1
:109620000CF093FA002801D01D4870BD10222B21A8
:1096300028000CF08AFA0028F6D101222D212800FA
:109640000CF083FA0028EFD101222E2128000CF023
:109650007CFA0028E8D172780E2128000CF075FA07
:109660000028E1D1012223792A211A4328000CF095
:109670006CFA0028D9D0D7E7B893020000C40900DB
:109680000071020080380100204E00001027000009
:1096900088130000C4090000E20400005DA202007B
:1096A0000EFCFFFF7FB515000F226A4404001E0068
:1096B0001170002D16D0002B14DD012301890093B9
:1096C000006B01F09DF9002802D0074804B070BD7E
:1096D0000090218933002A00206B01F047F900280F
:1096E000F4D0F2E70148F1E70EFCFFFF17FCFFFFA3
:1096F000F7B50600002501931E4B1436083304000D
:10970000036085808571C581058245820F000092C6
:109710002900182230000FF0E0FC1C2130000FF06F
:10972000CBFA6B469B880221A3806B461B882200E4
:1097300023811423A5712173A563A58763813E321C
:10974000137827638B43F1310B401370230095721C
:1097500095810135221DD5870833A21DD5872000AC
:10976000DD87FFF721FF002802D1A3791D43A571F2
:109770002000FEBDF893020030B50425837987B040
:1097800004002B4204D1FFF749FAA3791D43A571C8
:10979000A36AA2691B6800251A4208D106236A46FB
:1097A00001212000FFF77EFF051E03D0114D280088
:1097B00007B030BD6B460222042069469A561856FF
:1097C000237BD2005A43228202220978C00049B288
:1097D000C900594343436382A379E1819343A37151
:1097E00020000CF0C0F90123A1881A0002A80CF097
:1097F0008AF8DCE70EFCFFFFF8B50400FFF7BCFFBA
:109800000E22A35E794F5B42BB4251DA23003E3306
:109810001B789B074CD50125210028003E310B7891
:109820005A08904302000220AA40834313430B705E
:109830002000FFF7A1FF1022A35E5B42BB4248DA83
:1098400023003E331B785B0743D501252100280008
:109850003E310B789A0890438200042083431343DF
:109860000B7026002000FFF787FF1222A35E483608
:10987000BB423EDA23003E331B781B0739D521005B
:1098800001223E310B78D80882430820D20083435E
:1098900013430B703378032B3BD80133DBB23370A7
:1098A000012B00D08DE0230000224A331A8030E0E3
:1098B0002000FFF761FF0E22A35EC8225B42520028
:1098C00000259342B4DD23003E331B789B07A2D5CD
:1098D000AEE72000FFF750FF1022A35EC8225B42D4
:1098E00052009342BDDD23003E331B785B07ACD5AD
:1098F000B7E72000FFF740FFC8231221625E5B003C
:109900009A4204DD23003E331B781B07B7D5002D98
:10991000C0D13278002A14D02100270001254A3115
:109920000B883E3701339BB20B803878AC4605403C
:1099300055D01D2B05D963469843002338700B8002
:10994000337020000CF07BF9294A0723904244DD54
:109950002000FFF711FF0E23E25E264E5242032342
:10996000B2423ADBC8252000FFF706FF0E23E25E75
:10997000AD0052420423AA422FDC2000FFF7FCFE78
:109980001023E25E02235242B24226DB2000FFF7A0
:10999000F3FE1023E25E01235242AA421DDC2000A6
:1099A000FFF7EAFE1223E25E0523B24215DB200038
:1099B000FFF7E2FE1223E25E0623AA420DDC00233B
:1099C0000BE0042BA5D122003E321178033B0B4360
:1099D000137000234A3423800B331800F8BD092B81
:1099E000AFD9013A0D803270ABE7C04670FEFFFF81
:1099F000FF700200E0FCFFFF70B5C369C1681A6820
:109A0000451D8AB00400EB7F114255D0002B58D180
:109A1000EB7F082B0DD90122A379134209D11343FF
:109A2000A371A188130006A80BF06DFFFFF798FB48
:109A30002062EB7F012B23D80123A2791A421FD089
:109A40000025A188A571022202A80BF05CFFA31DCE
:109A5000DE7F012E14D1FFF783FB2B00226A801AD0
:109A6000994100900191019BA188AB4203D1174B12
:109A7000009A9A4227D90123042206A80BF043FF3B
:109A80000322A3791340012B14D1FFF769FB0023B4
:109A9000226A801A9941994202D10D4B984209D904
:109AA0000223A279A1881343A3710522012306A8EA
:109AB0000BF029FF0AB070BD0B2BA9D80133EB774F
:109AC000A6E7013BFBE733000322D6E7E7030000EC
:109AD000DB05000010B50400034B08330360FFF7FB
:109AE00075FB200010BDC04610940200F0B50700C1
:109AF00000250E0085B002930AAB1B78083703934C
:109B0000104B0400083303600192858085712900A1
:109B1000182238000FF0E1FA039A310038000FF0F4
:109B2000D0F86B466A469B88127AA380A31DE67123
:109B3000DA77631D25622000DD77FFF729FB20001F
:109B400005B0F0BD1094020010B50400034B0833BB
:109B50000360FFF771F8200010BDC046809402003A
:109B60007FB515000F226A4404001E001170002DFD
:109B700016D0002B14DD012301890093C06B00F087
:109B80003FFF002802D0074804B070BD0090218933
:109B900033002A00E06B00F0E9FE0028F4D0F2E781
:109BA0000148F1E70EFCFFFF17FCFFFF002330B573
:109BB00085B003AC217001890093050001332200B8
:109BC000C06B00F01DFF002802D0094805B030BD71
:109BD00020802989009002232200E86B00F0C6FE55
:109BE0000028F2D1237860781B02184300B2EDE719
:109BF0000EFCFFFF13B56B46DC1D00232200237013
:109C00000133FFF7ADFF002801D1207816BD0148D0
:109C1000FCE7C0460EFCFFFFD0B504000CF0E9F8ED
:109C2000E268A369981A09F06DF906000F0023692C
:109C3000E069C01A09F066F932003B0009F0B0FC97
:109C40000022104B08F06EFB0F4A104B08F068F82A
:109C500009F0E4F90021041C06F012FD002804D0EC
:109C6000201C0B4906F02EFE041C201C09F084F970
:109C700002000B000020074908F0C6FD09F00CF9AE
:109C8000D0BDC04600806640EA2E4454FB21094006
:109C90000000B44300807640F0B5050085B0006C4C
:109CA0000CF06AF8061C286C0CF05DF80221071C09
:109CB00028000CF0CFF80221039028000CF0DCF80B
:109CC00007F088FC0221041C28000CF0E7F807F0DC
:109CD00081FC051C301C09F025FC0290301C09F0A9
:109CE000E3FB0190381C09F01DFC061C381C09F030
:109CF000DBFB071C039807F06DFC391C07F054F9D7
:109D0000311C071C201C07F04FF9029907F04CF991
:109D1000011C381C06F0D6FD311C071C281C07F05E
:109D200043F9019907F040F9011C381C06F0CAFDFF
:109D30000299061C281C07F037F90199051C201C04
:109D400007F032F9011C281C07F060FA311C09F0F9
:109D50002BFC0D4907F028F909F00EF90B4A0C4BC2
:109D600007F0DEFF09F05AF90021041C06F088FC18
:109D7000002804D0201C044906F0A4FD041C201C6B
:109D800007F008FC05B0F0BD0000B443EA2E4454CF
:109D9000FB21194070B50022102104000CF01BF8C3
:109DA0001B4D00282DD1032608212000FFF722FF9C
:109DB000A84226D0304226D1FA216389890059432E
:109DC0005023144AD518D058884204D3D518083BDC
:109DD00018000830F7D1FA212868890006F0C8FA7F
:109DE000A0226081112120000BF0F5FF002808D18E
:109DF00001222B7910211A4320000BF0ECFF0028E0
:109E000000D0034870BD6420FEF7A0FFCCE7C04639
:109E10000EFCFFFF289402007FB50425837904001F
:109E20002B4218D102260BF0E4FFA379A188B3439B
:109E30002B43A3710622012368460BF064FDA07931
:109E400003003040AB43A37143425841034B4042AF
:109E5000184004B070BD0248FBE7C04614FCFFFF89
:109E600015FCFFFF10B5837904005A070DD49B073A
:109E700001D4FFF7D1FF236C2000002B02D0FFF7A5
:109E80000BFF10BDFFF7C8FEFBE70148F9E7C0462E
:109E900015FCFFFF70B5466C86B001AC0500019162
:109EA0006260A360002E0CD00B4905A8FFF79CF957
:109EB0000C23220005A930000CF016FD05A80BF0BC
:109EC00087FC2B000C3307CC07C30223AA7913436A
:109ED000AB7106B070BDC04663A20200642330B50A
:109EE00004000281438185B08180FFF753FF022285
:109EF000A379606C9343A371002813D00C490CF034
:109F0000BAFC051E0ED001000C22103101A80FF082
:109F1000C8F820000199029A039BFFF7BBFF2800B5
:109F2000FFF776F80123A2791343A37105B030BD82
:109F300063A20200F7B5009308AB1B8804000193ED
:109F400009AB1D8800230F0016000D4A83800832DC
:109F500083710260C360036143618361C361036213
:109F60001D2124300BF02AFF009BE76326642900A3
:109F700020006364019AFFF7B1FF2000FEBDC046D8
:109F80008094020082B0F0B50400A5B064202B9349
:109F90002A920EF054FF04220C2109A802F0C6FBFD
:109FA0002422CC491BA80FF07CF8052206A811003A
:109FB0000BF0EAFCC84907A8FFF7F0F9A06800F029
:109FC00081FBA568C54918A8FFF70EF9782218A9E2
:109FD000280000F071FC18A80BF0FAFB6E25642035
:109FE000013D0EF02CFF002DF9D1A06800F06AFBB6
:109FF000A0680CF0F3F8012160680BF034FE012139
:10A00000070060680BF042FE06000A200EF017FF02
:10A010000022B34B03929F4210DB013203923A00BD
:10A02000C8320BDBC822042192000391974205DC61
:10A0300003220392C82F01DC013A039200279E42BB
:10A040000CDB33000137C83308DBC82303379B0020
:10A050009E4203DC013FC82E00DC013F06A80BF046
:10A060008AFC0026032373431BA9CA189078002892
:10A0700005D0C95C5278FF2306A8FFF723F9013603
:10A080000C2EEFD16B463AB20C21595E06A8FF2385
:10A09000FFF718F90023A06800931A00743006A98E
:10A0A0000BF079FC002304930323049A0398534391
:10A0B0001BAA995C814237D1D31805935B78BB42C8
:10A0C00032D1059B9E78002E2ED1310020680BF0F6
:10A0D000C1FE07F07FFA3200031C290009A80CF02A
:10A0E0008CFE310020680BF0C7FE07F073FA0122E6
:10A0F000031C290009A80CF080FE310020680BF039
:10A10000CDFE07F067FA2900031C022209A80CF013
:10A1100074FEFE2303229B05290009A80CF06DFEA6
:10A120000123059AED189370049B013304930C2BC3
:10A13000BAD164200EF083FE0B2D00DC5BE709A88A
:10A140000CF047FE012201000CA802F0EFFA0025F6
:10A1500009A80CF03EFEA8423CDD2900002209A817
:10A160000CF039FE0022061C290009A80CF033FE71
:10A17000011C301C06F018FF2900061C012209A84A
:10A180000CF029FE0122071C290009A80CF023FE6F
:10A19000011C381C06F008FF311C06F093FB290057
:10A1A000061C022209A80CF016FE02222900071C38
:10A1B00009A80CF010FE011C381C06F0F5FE311C3D
:10A1C00006F080FB2900031C00220CA80CF015FEF1
:10A1D0000135BDE709AA1100012318A80CF027FEDC
:10A1E00018A90FA80CF080FE18A80CF017FE0CAAF6
:10A1F00009A912A801230CF01AFE002312AA0FA924
:10A2000015A80CF014FE002215A811000CF0E3FDB7
:10A210000022061C012115A80CF0DDFD0022051C02
:10A22000022115A80CF0D7FDFC21071C8905301C64
:10A2300006F0BAFE07F0AEF9FC2106001890890579
:10A24000281C06F0B1FE07F0A5F9FC2105001990C5
:10A250008905381C06F0A8FE07F09CF92A000300C7
:10A2600031001A902068FFF715FEA0680BF0B6FFCA
:10A2700007A908A8A5680BF076FB0022194B0092ED
:10A2800008A901932800130000F0BAFA08A80BF0FF
:10A290005DFBFA2080000EF0D2FDA0680BF09EFF5F
:10A2A00015A80CF0BBFD12A80CF0B8FD0FA80CF01F
:10A2B000B5FD0CA80CF0B2FD07A80BF047FB06A8F3
:10A2C0000BF044FB09A80CF0A9FD25B0F0BC08BCBC
:10A2D00002B018476EA2020092A20200D7A20200AA
:10A2E000E0FCFFFFDC050000F7B583601D4B0500B7
:10A2F0001F6801604260002F31D02820FEF768FE01
:10A30000040010300BF0F5FA174B18202360FEF70D
:10A310005FFE00220600154B019205600832002105
:10A320000C3000930EF0D9FE08226946301D0EF065
:10A33000B8FE0F4B00227361C223A3803B68E2602A
:10A34000A660226262625B6821003800984700289C
:10A3500005D020000BF0F2F92000FEF759FE28008E
:10A36000FEBDC0460427002005000600859F0100B1
:10A37000B55E0200F0B5040085B0637A9C46002B00
:10A3800004D120000BF0C1FD05B0F0BDA37A266F0B
:10A3900001931023019AF35600259B1801229A403D
:10A3A0002900F36803920293029BAB4231DDB3684C
:10A3B000019A6B439B1872695B00E77AD3181A788D
:10A3C0005878E379012F14D15F1E3F1A10003A002C
:10A3D0005B004343606F8218D3189B79634500DDAF
:10A3E0006346627B1A4202D00123AB401943013518
:10A3F000DAE7022F05D15F1EBA1A277A013F381A11
:10A40000E6E7032FE4D1277A013FBF1A02003800A4
:10A41000DEE71123C943F356606C99402369194064
:10A42000039B19430EF0EFFDA27B072AACD8637B98
:10A430000C495B006373531CDBB290004158A3735B
:10A44000022A03D808000EF0EFFC96E7064B200026
:10A45000236300236363054BE462236414300EF02E
:10A4600071FB91E79894020075A30100F55E02006C
:10A4700010B50400044B03600EF05CFB200005F0F7
:10A480009BF9200010BDC0461099020010B50400D1
:10A490000E4B08330360FEF799FE200074300BF07A
:10A4A00055FA200060300BF051FA200058300BF0C4
:10A4B0008FF9200050300BF08BF92000044B143042
:10A4C0006361FFF7D5FF200010BDC046B8940200BD
:10A4D00044990200F8B500250400324B858008330A
:10A4E00003608571143016000F0005F04FF920004D
:10A4F0002D4BE562636125645030FEF7AFFE20000E
:10A500005830FEF7ABFE20006030FEF7D5FE20008D
:10A510000423F25E33682667590009B274300BF0E9
:10A5200033FA3368226FE3717368012623721023B4
:10A530006581A7802561D35691685918994204DD39
:10A540003000984001330543F8E711230120D3562A
:10A55000D1685918994206DD02009A4026690133F4
:10A5600032432261F6E71420FEF732FD2269002112
:10A570002A430123060005F05DFDFF2322006372DC
:10A580000133A381002348326664A3732000137053
:10A59000A366FEF7FDFD0123A27920001343A371FA
:10A5A000F8BDC046B894020044990200F0B5437A61
:10A5B00085B00400002B04D120000BF0A6FC05B0F0
:10A5C000F0BD0122837A11009C461023066F0025FE
:10A5D000F35603926344994002912900F368019372
:10A5E000019BAB422CDDB36872696B4363445B0033
:10A5F000E77AD3181A785878E379012F10D15F1EC3
:10A600003F1A10003A005B004343606F8218D31872
:10A610009B79002B02D0039BAB4019430135DFE748
:10A62000022F05D15F1EBA1A277A013F381AEAE7CE
:10A63000032FE8D1277A013FBF1A02003800E2E772
:10A640001123C943F356606C994023691940029B5A
:10A6500019430EF0D8FC667AB31EDBB2FC2B14D87B
:10A66000FEF744FD0B4B0500236300230A48636398
:10A670000A4BFF21E4622364704305F003FF2900C5
:10A680004143200014300EF05DFA637A012B00D9AB
:10A6900095E791E70B5F0200B6030000F55E02004C
:10A6A0001FB5012381881A0068460BF02CF901239D
:10A6B00003491A0068460BF026F905B000BDC046F4
:10A6C000FE0300001FB5030048331A780400002A77
:10A6D0000DD000221A70012381881A0068460BF001
:10A6E00012F9012304491A0068460BF00CF9200006
:10A6F00074300BF040F91FBDFF03000010B5483067
:10A700000378002B06D00378012B03D001210248E7
:10A710000AF08AFF10BDC046FF03000010B50121FA
:10A72000040006200AF080FF064B984208D1483406
:10A730002378002B04D02378012B01D020BFF7E72A
:10A7400010BDC04616FCFFFF70B50600141E19DBD5
:10A75000050048352B78002B02D02B78012B13D124
:10A76000002330001A007430FEF768FE002C07D07A
:10A7700033004A331C80002407234C3634802B706E
:10A78000200070BD014CFBE7014CF9E717FCFFFF0F
:10A7900012FCFFFFF8B517000A68050052880B008D
:10A7A000012A09D1002118000BF096F800220100BF
:10A7B0002800FFF7C9FFF8BD002F19DD0600483655
:10A7C0003278002A02D03278012A13D12A000024DC
:10A7D00028005C321900148058300BF058F82B0018
:10A7E0004A331F8003234C352C8020003370E2E76E
:10A7F0000148E0E70148DEE717FCFFFF12FCFFFF1E
:10A8000073B5079C0500002C1CDB06004836307829
:10A81000002802D03078012816D106981BB2C0B2A9
:10A820000090280012B274300BF0B5F8002C07D05D
:10A830002B004A331C80002407234C352C803370B6
:10A84000200076BD014CFBE7014CF9E717FCFFFF48
:10A8500012FCFFFFF0B587B00D9C06000F000292BE
:10A860000393002C20DBFFF749FF330048331D78AA
:10A87000EDB2002D1AD1390005A80BF074F80C9B2D
:10A8800001940093029A039B05A93000FFF7B8FFDB
:10A8900005A80BF05BF8002C03D03000FFF73EFF5B
:10A8A0002C00200007B0F0BD014CFAE7014CF8E79E
:10A8B00017FCFFFF11FCFFFFF8B50400171E1DDD9C
:10A8C000060048363378002B02D03378012B17D19D
:10A8D0002200E3795632013B13702300002520004B
:10A8E00054331D8050300AF0D2FF23004A331F80BA
:10A8F000022328004C3425803370F8BD0148FCE762
:10A900000148FAE717FCFFFF12FCFFFFF7B505004F
:10A910000F00161E18DDFFF7F1FE2B0048331C78E0
:10A92000E4B2002C12D1390001A80AF0A8FF3200CD
:10A9300001A92800FFF7C0FF01A80AF049FF28007D
:10A94000FFF7ECFE2000FEBD0148FCE70148FAE7F6
:10A9500017FCFFFF11FCFFFFFF2902D84172002006
:10A9600070470148FCE7C04617FCFFFFF0B51F0029
:10A9700085B00AAB1B780400039300933B000D00E5
:10A9800016000EF005F9002833D0237D082B2DD8B2
:10A99000236800221900FC318A62A021C9005A50A4
:10A9A000154905205A500138C046C046C046C04629
:10A9B000C046C046C046C046C046C046C046C04667
:10A9C000F1D1236801325A50A0210432C9005A50F3
:10A9D00004F0ECFF039B3200009329003B002000B1
:10A9E0000EF0D6F8237D01332375CCE7034805B07C
:10A9F000F0BD2075FBE7C046FC0F00000EFCFFFF1A
:10AA0000F0B51F0085B00AAB1B78040003930093D8
:10AA10003B000D0016000EF0A3F8002833D0237D74
:10AA2000082B2DD8236800221900FC318A62A0214E
:10AA3000C9005A50154905205A500138C046C04631
:10AA4000C046C046C046C046C046C046C046C046D6
:10AA5000C046C046F1D1236801325A50A0210432C9
:10AA6000C9005A5004F0A2FF039B32000093290052
:10AA70003B0020000EF074F8237D01332375CCE7F2
:10AA8000034805B0F0BD2075FBE7C046FC0F000091
:10AA90000EFCFFFFF8B50D1E30D000260227C4685B
:10AAA000002C28D0AA88A38853403B4204D13A42C4
:10AAB00004D1AB883B4219D0646AF1E7A968A06869
:10AAC0000CF076F90028F4D02B88002B02D02288D5
:10AAD0009A42F1D16B88002B02D062889A42EBD166
:10AAE000A288074B01361343A380E5E7A368AA6851
:10AAF0009342E1D1E8E72000002E00DC0148F8BDD8
:10AB00000080FFFF17FCFFFFF0B5060085B00D1EAB
:10AB100059D00127C468002C22D00221AA88002322
:10AB20000A4202D0A3885B083B40226829688A4217
:10AB300010D1A068A968002B0AD00CF039F90028C0
:10AB400008D0A3881AB2002A06DB204805B0F0BD61
:10AB50008842F6D0646ADEE75B045B0CA380F4E70E
:10AB6000F0682A88002807D1F56001231849684653
:10AB70000AF0C9FE0020E9E7010003001C889442A6
:10AB800006D25C6A1900002C0DD02300F6E72300E2
:10AB90001C88944207D15F886C88A74203D25C6A04
:10ABA0001900002CF3D1814209D10B889A4204D3B9
:10ABB00005D148886B88984201D96962D4E74B6A0D
:10ABC0006B624D62D1E70348C0E7C04616FCFFFF49
:10ABD000FD03000017FCFFFF064B10B51A00040030
:10ABE00008322C33026043600430FEF725F8200061
:10ABF00010BDC046D094020008B4024B9C460438F5
:10AC000008BC6047D9AB010008B4024B9C4604382D
:10AC100008BC60471D6302000C4A002311002C325F
:10AC2000083110B5038183724260C36003614361E0
:10AC30004383016004000430FDF7F0FF044B1A6801
:10AC4000002A00D11C60200010BDC046D094020034
:10AC500004270020F7B50E000125C4680192002CDE
:10AC600036D0238832889A4201D0002B23D16388C2
:10AC700072889A4201D0002B1DD1FDF743FF0123BA
:10AC8000002806D0C022A3881340C03B5A4253413B
:10AC9000DBB2019A934219D1A7883BB2002B15DB96
:10ACA00010223100A0180EF0FCF940231F4204D0FE
:10ACB00020000BF03CFB646AD1E7FDF723FF00287E
:10ACC000F6D021000348FEF7CDF8F4E70025F2E7BF
:10ACD0002800FEBD2F63020008B4024B9C460438D6
:10ACE00008BC6047B7640200F0B587B001930EABB3
:10ACF0001B88060003930D9B0D000093019B02929D
:10AD00000C9F002B3DD0002F02D1009BDB0738D5D4
:10AD10002820FEF75DF9040010300AF0EAFD6B46CA
:10AD20001B89258063801820FEF752F90500009BDF
:10AD300008220593019B002103600C3004970EF05C
:10AD4000CCF9082204A9281D0EF0ABF90E4B022203
:10AD50006B6100230399E3602362636233680A43F3
:10AD6000A560A2805B68210030009847002806D0CB
:10AD700020000AF0E3FC2000FEF74AF9034807B080
:10AD8000F0BD0348FBE7C046F164020016FCFFFF7C
:10AD900017FCFFFFF0B50400160000258380164A5B
:10ADA000164B85710260218146810573186889B050
:10ADB0008C46A8421DD0124A05950492C0220292E8
:10ADC0006A4604AB82CB82C223002A006146FFF7A9
:10ADD0008BFFC022094B0A49186802926A46069105
:10ADE00006AB079582CB82C223002A003100FFF711
:10ADF0007BFF200009B0F0BD14950200042700205D
:10AE00001B66020030B5002403730123034D8471D7
:10AE10000560818082734373846030BD2C9502008D
:10AE200070B583790400DB0702D58068FEF7F0F87F
:10AE3000A3799B0702D5A068FEF7EAF8A3795B0720
:10AE400007D5A0230021144ADB00D150A068FEF7EB
:10AE5000DFF8A3791B0708D5A568002D05D02800C9
:10AE60000CF0F2FD2800FEF7D3F8A379DB0605D538
:10AE7000A068002802D00368DB6898476023A279A5
:10AE80001A4205D0A068002802D003685B68984782
:10AE90000023A360A37170BD00700040F7B50227C6
:10AEA000037B04000D003B4226D0012926D8867979
:10AEB0003E40009614D1FFF7B3FF1820FEF788F844
:10AEC0000E230600E3561822009901930EF005F9AF
:10AED000019930000DF007FFA379A6603B43A371F1
:10AEE000A3685A68002D04D00025DB681A6028008A
:10AEF000FEBD1B691A60FAE7014DF8E7014DF6E760
:10AF000016FCFFFF17FCFFFF70B5040000250C4B7B
:10AF10000E000833858085710360210018300BF026
:10AF20002DFC2000210020300BF04BFC054BA680AF
:10AF3000E5802572E5602561656120001C6070BDBB
:10AF40003C950200102700208379DB0702D5C16001
:10AF5000002070470048FCE716FCFFFF8379DB0701
:10AF600001D5C06870470148FCE7C04616FCFFFFEA
:10AF700070B545690400002D22D0037A032B21D837
:10AF8000FFF7ECFFA8622C20FEF722F82C2200210C
:10AF900005000EF0A2F8002263695A622369934209
:10AFA00008D1636923610020237A6561013323722C
:10AFB00070BD13005A6A002AFBD162695A62F2E737
:10AFC0000148F5E70148F3E717FCFFFF13FCFFFF1B
:10AFD000144B70B55A68144C002A03D000225A60F2
:10AFE0000132A2601A69002A17D00021196180235A
:10AFF000DB000E4DE3582868012B0FD1A923DB009D
:10B00000E1584942FFF7A0FF2868FFF7B1FF2B681E
:10B010005A69074BE2500123A36070BDFFF794FF0C
:10B02000F9E7C046FC100040001000401027002047
:10B030000405000003000069002809D00221054A28
:10B04000D167426A1A611A7A013A1A72024B196080
:10B050007047C04604E100E000E100E010B50029BF
:10B0600003DB024B19600DF0E3FD10BD1427002037
:10B0700070B504001E0004AB1D7804F0CFFB200067
:10B080000E4B40302360FEF7E9F8230001364C33C5
:10B09000013522001E701D730023E1214E32A3648E
:10B0A0006365138053809381D381013B20006364E7
:10B0B0004902FFF7D3FF200070BDC0467093020025
:10B0C000F7B580277F053D697C690822113C6C43F8
:10B0D0000600210068460DF0E4FF104B009A9A42EA
:10B0E00019D0009300230193796930001339694323
:10B0F0000BF07CFB019A009930000BF08FFB2100D4
:10B1000030000BF073FB7969AB08133969432200F7
:10B1100030000BF075FB0198FEBDC046FECA000072
:10B12000F0B50D00A9B00D9200213022060010A844
:10B130000B930DF0D2FF28000EF00FF8431C0C9378
:10B14000102B00D9B5E00B9B202B00D9B1E02900D2
:10B1500030000BF090FB071E50D129000C9A10A86C
:10B160000DF09FFF0D990B9A14A80DF09AFF802304
:10B170005B051A695F690C92113F7A4330005D6983
:10B180000B92FFF79DFF3022002104001CA80DF058
:10B19000A4FF290000270C9B1339594330000BF002
:10B1A00025FB0D9730257D430B9B0833ED18A742F7
:10B1B00042DA290030221CA80DF073FF10A91CA848
:10B1C0000DF0C1FF002827D13C49300022000E912C
:10B1D0000F940BF023FB6A46099513AB23CB23C2D4
:10B1E00023CB23C223CB23C23000129B1099119A88
:10B1F0000BF022FB01230D930137D3E710300B9A9C
:10B200000D990DF03FFF04003800FDF701FF002C01
:10B21000A3D1200029B0F0BD6A4609951FAB23CB0E
:10B2200023C223CB23C223CB23C230001C991D9AF7
:10B230001E9B0BF001FBDFE7E5433023ED172540B4
:10B240005D430B9B08355D190D9B002B1DD10C9B9D
:10B250003021981E05F08CF8A0422CD017490134FB
:10B26000300022000E910F940BF0D8FA6A4609952F
:10B2700013AB23CB23C223CB23C223CB23C2300067
:10B280001099119A129B0BF0D7FA0B9930000BF022
:10B29000ADFA80235B0559690C230C9A133963437B
:10B2A0004A430233110030000B9A0BF0A9FA002434
:10B2B000AFE7034CADE7034CABE7C046FECA000066
:10B2C00017FCFFFF13FCFFFF70B50400A280FA22F9
:10B2D000002308000C49920008312160A3716061CD
:10B2E000E260A360638209490BF0C5FA051E09D02C
:10B2F000010020001031022212300DF0D2FE280091
:10B30000FDF786FE200070BD54950200E5A2020004
:10B3100030B50225837987B004002B4204D1FDF7B4
:10B320007DFCA3791D43A57120000BF0EEFA0028E7
:10B330001CD06B46DD1C28000BF0DEFA2B78002BAE
:10B3400017D001A80BF0D6FA0321019AD3170B40AE
:10B350009B189B102382FDF703FFE368A188181850
:10B360000123A0601A0002A80AF0CDFA002007B05D
:10B3700030BD0122064B1A60064A51680029FCD0F4
:10B3800000215160044A1268019201225A60DBE7F1
:10B3900000C00040FCC0004008C50040022802D1A7
:10B3A0000122014B1A707047FE29002070B5064C2F
:10B3B00005002378002B04D1044801F03BFB012356
:10B3C0002370280070BDC046FF2900209DB30100F6
:10B3D00070B50C000AF0B6F8002810D00023144D08
:10B3E000A40A2B7020000BF0A4FA002803D00A2036
:10B3F0000DF025FDF6E72B78002BFCD070BD022167
:10B400000C4B0D4A99508021C90008005D58002D51
:10B41000FCD0A121C9005C5019580029FCD00021A2
:10B4200099508021C9005A58002AFCD0E6E7C0464E
:10B43000FE29002000E0014004050000F8B50C00E2
:10B4400015001E000AF07EF8002811D00023174FC7
:10B450003B703200290020000BF069FA002803D06D
:10B460000A200DF0ECFCF4E73B78002BFCD0F8BD93
:10B4700001210F480F4B844619508021C9005A58AA
:10B48000002AFCD080270022FF00964207DD9100B1
:10B4900068586050D9590029FCD00132F5E70022E4
:10B4A00061465A50DA59002AFCD0E0E7FE29002014
:10B4B0000405000000E0014010B50400054B08330E
:10B4C00003601C300AF084F9200018300AF080F97B
:10B4D000200010BD6C950200FF23F0B52C4D8DB0FF
:10B4E0002B700023040069460088009303F026FABD
:10B4F000002802D16B469B782B70264E3368DB68A0
:10B50000002B07D1002320881A0019000BF015FA30
:10B510000DB0F0BD2B78032BF4D81F4901A8FDF71F
:10B5200063FE336801A9DE6804A80AF0A8F904A93B
:10B5300030000BF0D3F90027060004A80AF048F900
:10B54000BE421ED031002022103104A80DF0A9FD0A
:10B550003000FDF75DFD297804ABC90059180822B9
:10B5600002A80DF09EFD20880123082202A90BF0FD
:10B57000E4F90137002804D12088084A0C210BF097
:10B58000DAF901A80AF024F9002FBBD0C0E7C046C1
:10B59000F021002024270020F5A20200FFFF000078
:10B5A000F0B5837991B004005B071BD5FDF7D8FD9A
:10B5B00000232269801A9941994203D1F423FF3371
:10B5C00098420FD9A068002808D0364B1D880CF08F
:10B5D00058FA036815221B6A290098470422A379A8
:10B5E0009343A371A3799B0759D52F4D2B68DB6833
:10B5F000002B50D02D4B1B78032B4CD8294B2C49BA
:10B600001B8804A80193FDF7EFFD2B6804A9DE68F1
:10B6100008A80AF034F908A930000BF05FF9070018
:10B6200008A80AF0D5F802AB9E1D0823320033802B
:10B6300006A9073B01980BF082F9002F08D03900CA
:10B640002022103108A80DF02CFD3800FDF7E0FC99
:10B65000164B32881B7806A9DE0008AB9E19300015
:10B660000DF010FD002813D0082206A930000DF0BF
:10B6700018FD2B6804A9DD6805A80AF000F920234D
:10B6800008AA05A928000BF02FF905A80AF0A0F8D0
:10B6900004A80AF09DF80222A3799343A37111B084
:10B6A000F0BDC046A829002024270020F02100205A
:10B6B000F5A20200F7B5089E0500152922D8012041
:10B6C00007008F40244C27421CD0E97FCC181F2C48
:10B6D00041DC69183418A14210D80021C8B2834255
:10B6E00004D9545C701884700131F7E732789A18E5
:10B6F0003270EA7F9B18EB7700202CE00878C85462
:10B700000139E8E73478013CE4B2A34208D10023D0
:10B71000D9B28C42F0D9D05CF11888700133F7E7C8
:10B72000EF7F0120FF183F1B1F2F14DC0227A01CF6
:10B730007F423618381B0190E87F2F18BE4204D292
:10B740003078019FF0550136F6E7041B023CEC7798
:10B7500028000BF03EF9FEBDFC002000F0B585B0DE
:10B7600001930AAB1E880BAB1B78451C02930EABF2
:10B770001B78040003930B78170003704B8A102288
:10B780004382013128000DF08CFC6B469B88268398
:10B7900063836B461B7B002623776B4601221B7A53
:10B7A0006761E683EB77A31CDA770C9B0C25636259
:10B7B000230020000D9A28331A705E709E702A00B4
:10B7C00031002C300DF089FC2000074BE663A363A9
:10B7D0002A00310040300DF080FC2000034B26652C
:10B7E000E36405B0F0BDC046556902004769020038
:10B7F00070B50D000CF045F904000368002D09D167
:10B800005B699847FA2080006843074904F0B0FD5F
:10B81000E08070BD9B6898478542F3D22368200082
:10B820009B6898470500EDE771020000F0B507003E
:10B830001600A1B002C704006B4918A81D000BF048
:10B840000FF9331E03D030000DF087FC83B20122C4
:10B85000049200220392029202320192009332007B
:10B8600018A93800FFF77AFF23006049583318A859
:10B8700007930BF0F5F82B1E03D028000DF06DFC9C
:10B8800083B20122049200220392029202320192B8
:10B8900000932A0018A90798FFF760FF2300544976
:10B8A000AC3318A808930BF0DBF8269B002B03D0D1
:10B8B00018000DF052FC83B2012204920022039280
:10B8C0000292023201920093269A18A90898FFF773
:10B8D00045FF631CFF33474918A809930BF0C0F8D4
:10B8E000279B002B03D018000DF037FC83B20122F8
:10B8F00004920022601C0392029202320192009391
:10B90000279A18A9FF30FFF729FF23005533FF338B
:10B91000394918A809930BF0A3F8289B002B03D0F2
:10B9200018000DF01AFC83B2012204920022039247
:10B930000292023201920093289A18A90998FFF7FF
:10B940000DFF2300A933FF332C4918A80A930BF0ED
:10B9500087F8299B002B03D018000DF0FEFB83B263
:10B9600001220492002218AD039202920232019247
:10B970000093299A29000A98FFF7F0FE204B1B78C4
:10B980000B93002B2DD1079B12971393089B0DAFA0
:10B990001493631CFF331593099B1A4916930A9B52
:10B9A000380017930BF05CF81D2149203B781022DA
:10B9B0002B707B8A12AE6B8206ABC918C0180DF0D3
:10B9C00070FB06232B756B469B8D2068AB83AE61A5
:10B9D0000CF05BF8036829001B6898470122084BAC
:10B9E0001A70200021B0F0BD292A0000242A00008E
:10B9F000252A0000272A0000262A0000282A000005
:10BA0000002A00200A18000070B5002504000A4B27
:10BA10008580083385710360C1601830FDF71EFC16
:10BA200020001C30FDF71AFC044BA5601C600123AC
:10BA300065612000A37170BD6C9502002427002071
:10BA4000FA2130B585B0050001230222890068463D
:10BA500009F059FF074C2068002809D00BF039F88D
:10BA60002988054B22681980022391790B43937131
:10BA700005B030BD24270020A829002010B50C00F7
:10BA800007290DD880680BF0FCFF064B1957036897
:10BA90005B6C9847431E9841034B4042184010BDD1
:10BAA0000248FCE7EDA2020016FCFFFF17FCFFFFB7
:10BAB000F0B5A44C0D00A544040007939AAB1B7885
:10BAC000A14909A804930692FDF78EFB20002900E6
:10BAD0001C3009F0DCFEC020800000F0A1FF08202F
:10BAE000FDF776FA0600002100F088FE15ADA6608D
:10BAF00000210C220EA80DF0F0FA2B000EAA83CA2A
:10BB000083C3924B2900EB60002330002B610BF0C4
:10BB1000A1FFA0680BF0B5FF08220021059016A830
:10BB20000DF0DBFA1420FDF753FA29000200884BD0
:10BB30001593C8C9C8C2874B059EC3600023A436AD
:10BB400003613368002B00D0F5E03060A0680BF093
:10BB50009CFF08220021060016A80DF0BEFA142052
:10BB6000FDF736FA7C4B1593030086CD86C37B4BDD
:10BB7000C36000230361336B002B00D0DDE0306332
:10BB8000A0680BF07EFF08220021050016A80DF02A
:10BB9000A4FA1420FDF71CFA714B15AE159303009F
:10BBA00086CE86C36F4B9835C360002303612B6834
:10BBB000002B00D0C3E02860012504AB1B7C04AA45
:10BBC0002B4308A9280013740AF0BBFEA0680BF0F1
:10BBD00060FF036864495B6A9847A0680BF059FFEF
:10BBE000036862499B699847A0680BF052FF0023E5
:10BBF00002680093166804992A00B047049B002B42
:10BC00000AD020000AF06EFF032805DDA0680BF0C3
:10BC100040FF0368DB6898470EA80AF0D1FE2F208A
:10BC200004ABC0180AF0CCFE362004ABC0180AF0F2
:10BC3000C7FE3D20042504ABC0180AF0C1FE0EABC0
:10BC40000A93A06804AB5D770BF023FF03680AA991
:10BC50001B699847A0680BF014FF03680AA95B6D85
:10BC60009847A0680BF00DFF03680021DB6D984733
:10BC7000A0680BF006FF036802219B6D9847002126
:10BC80002000FFF7FBFE1820FDF7A2F9A16800F0E5
:10BC900005FA374B374A1B68A1680393364B15A842
:10BCA0001B6800260293354B0CAF1B680193069B63
:10BCB0001B685B190093324B12681B68FFF7B6FDD7
:10BCC0003020FDF785F9079AA16800F0A7FAA0686F
:10BCD0000BF0D7FE036839009B6A9847294BBE805A
:10BCE000A0680C930BF0CDFE03683900DB6A98471F
:10BCF0002900A0680AF0C0FE099A09219378A0687B
:10BD000052190AF0CCFEA0680BF0BBFEC8210671E8
:10BD1000A068FFF76DFD04AB1B7FB34204D0A068A1
:10BD20000BF0AFFE0AF092FE09A809F051FD952331
:10BD30009B009D44F0BD036107E703611FE70361BA
:10BD400039E7C046ACFDFFFFE8A3020063690200CB
:10BD500041BA010071690200D9B401007F69020093
:10BD6000AD6902008D69020089BD0100BDBD010001
:10BD7000202700201C270020082000201827002052
:10BD80000C2000200800100013B506226846FDF7BD
:10BD90003BFA094B1C68002C0AD0694601A809F03F
:10BDA0006EFD200001A90AF0BEFE01A809F010FDF9
:10BDB000684609F00DFD13BD24270020002373B54C
:10BDC00001AE0C0031000500019302F0B7FD002820
:10BDD00002D1B278064B1A70064B1868002806D0BC
:10BDE00061426141044BC9B21D800AF0A4FE73BDDB
:10BDF000F021002024270020A8290020F0B504000D
:10BE000097B0039107A89C490592FDF7EDF99B496E
:10BE100008A8FDF7E9F922000FAD28001C3207A998
:10BE200009F044FD08AA290009A809F03FFD2800EF
:10BE300009F0CEFC92490AA8FDF7D6F9A0680BF0EC
:10BE400020FE03680DAE5B69984728000AF0B8FD34
:10BE5000332004ABC0180AF0B3FD3A2004ABC0187D
:10BE60000AF0AEFD412004ABC0180AF0A9FD802302
:10BE7000DB00B380A0680D950BF003FE0368310072
:10BE80005B6D9847A0680BF0FCFD036800219B6D7B
:10BE90009847A0680BF0F5FD0700002506000A375B
:10BEA0001F22002138000DF018F9FD7730000AF04C
:10BEB000C4FD0621A0680AF0DFFD099A09219378E4
:10BEC000A06804320AF0EBFDA0680BF0DAFDC8218F
:10BED0000571A068FFF78CFCA0680BF0D2FDFF276E
:10BEE0002E000581A0680BF0CCFD0AF0AFFD039891
:10BEF000FEF7E8FB0AA90CA809F0C1FC78220CA9FE
:10BF00000398FEF703FD0CA809F062FC03992000DA
:10BF10000AF024FE2000FCF781FE049501256369E8
:10BF20001D402DD057490BA8FDF738FA0BA90CA8D6
:10BF300009F019FD00220CA9130001920092039848
:10BF4000FEF788FC0CA809F001FD049B002B42D1F0
:10BF5000043F282F41DD0025FE2F00DC049D0598BD
:10BF600009F01FFF002806D0012362699A431300DD
:10BF700004221343636100260BA809F0E7FC049533
:10BF800004226369134233D0FF210398C826FEF7C9
:10BF9000E3FC0025B600A36902229B5EAB4222DDD2
:10BFA000200029B2183009F097FC00230100039803
:10BFB0001A007430FDF742FA3000FCF7C7FE039810
:10BFC0000AF00CF9C820FCF7C1FE02226369134293
:10BFD00009D10135DFE70437BBE703980AF0FEF823
:10BFE000002FBCDDBAE7FA208000FCF7AFFE002688
:10BFF000022365691D421CD006331D4024D022490E
:10C000000BA8FDF7CBF90BA90CA809F0ACFC00229A
:10C010000CA90192009213000398FEF71BFC0CA8D8
:10C0200009F094FC1948FCF791FE0BA809F08EFC6E
:10C03000174E6420FCF78AFE164B01369E4200DC48
:10C040006CE709F091FA69E713490BA8FDF7A6F927
:10C050000BA90CA809F087FC2B002A000CA901955C
:10C0600000950398FEF7F6FB0CA809F06FFC0BA8EF
:10C0700009F06CFCDDE7C04601A3020011A3020039
:10C0800013A3020021A3020066A30200983A000055
:10C090008C0A00008B0A0000A3A302000022594B67
:10C0A000F0B50833060003600F001000A9B0B160BE
:10C0B0000BAB991801324870102AFAD10F3A524C42
:10C0C0001A700E32105D991A0874013AFAD2997BEF
:10C0D0005A7B09020A4331000C31039125211B7858
:10C0E00013AD2B7002ABC918452302A81B186A8236
:10C0F000180010220CF0D5FF039B64216B61012313
:10C10000002402AA2B7752181993093313701DAB20
:10C110001C706D2302AA9B181C706E2321009B18B3
:10C120001EA80C22EC836C621C700CF0D6FF374BFF
:10C130000C22210023A8AB63EC630CF0CEFF344B40
:10C1400002AAEB6446239B180322DA7722002C65AF
:10C150000595347306AD2B1901345A70102CFAD1A1
:10C1600001232C482B700E33195CEA1A1174013B21
:10C17000FAD211212520AA7B6B7B12020BAC134350
:10C180002A78638202ABC9182270C01810220CF002
:10C1900088FF0123237505ABA36100233800A38327
:10C1A0000BF073FC036821001B68984713ABDB8B13
:10C1B000B068B3820BF069FC002203680092B18A78
:10C1C000039ADC680123A047B0680BF05EFC07000F
:10C1D0001420FCF7FDFE00220123040002610692F8
:10C1E00040C00832290007930CF05BFF0A4BE36064
:10C1F000BB69002B03D13000BC6129B0F0BD2361C5
:10C20000F9E7C0468495020000A4020055690200C7
:10C210004769020010A40200BD6B0200F0B50026C1
:10C220000400734BDDB0083303608160C260868018
:10C23000867132006F4947A80AF060FD230014336D
:10C240000125042708931223009704950193089A67
:10C25000330047A9039602961DA8FFF77FFA320024
:10C26000654947A80AF04AFD0820220000973300DC
:10C2700015AF10320495019047A90396029632A893
:10C28000FFF76CFA32005D4938000AF037FD2300F1
:10C29000082004221C3309933900330004950190CF
:10C2A00000920396099A029647A8FFF757FA3200C0
:10C2B000534938000AF022FD5420FCF789FE05009E
:10C2C00020000123122104221830079004930191C9
:10C2D0000092390002003300280003960296FFF70F
:10C2E0003DFA2800474BA5620822EC620AA93030CB
:10C2F0000A930B960CF0D5FE434B0422AB6301234B
:10C3000029352B7009992661E66107980CF0C9FE62
:10C310000422079908980CF0C4FE6621032304AA9E
:10C320008918CB77BA2104AA8918CB77872104AA68
:10C3300049008918A26ACB77911CA685CB771DABE3
:10C340000C9332AB0D930F9247AB32002F4910A8DC
:10C350000E930AF0D3FC3021452004AB5B181B7808
:10C3600012313B7004AB5B181B8811397B8204AB24
:10C37000C918C01810220CF094FE04220CADA0685D
:10C380003A75BD61BE830BF080FB036839001B6802
:10C390009847822204AB9B181B885432238404AB39
:10C3A0009B181B885432A38404AB9B181B88A0687D
:10C3B00063840BF06AFB07001420FCF709FE0500FC
:10C3C000134B066108221093119610A910C00CF0AF
:10C3D00068FE104BEB60BB69B34206D1BD61200023
:10C3E000FCF71CFC20005DB0F0BD2B61F6E7C046F9
:10C3F0009095020040A4020020A4020030A4020094
:10C4000050A40200CF6C02003B6C020060A402004A
:10C4100081C40100656C0200F0B504000E00150037
:10C4200085B01F000CAB1B881030019309F061FA36
:10C43000268065801820FCF7CBFD02AE0500330096
:10C440000AAA03CA03C32F602800082700213A0064
:10C450000C300CF042FE3A003100281D0CF021FE99
:10C46000064B02226B61200000230199A5600A435C
:10C47000E360A2802362636205B0F0BD8F6C0200AE
:10C48000F0B50B898DB00593CB68060004934B88FB
:10C49000828C9A420ED1049C049B059A9B181B1B0C
:10C4A000032B3BDD62882188012308A809F02BFAC1
:10C4B0000434F1E7428C9A4230D1049C049B059AE3
:10C4C0009B181B1B032B29DD2388282006936388D8
:10C4D000F7680793124B089300230993FCF778FD44
:10C4E000C0236A460500029308AB03CB03C23300A6
:10C4F0000699079A2800FFF78FFF3B6829005B68C1
:10C5000038009847002807D0002D05D0280009F0F2
:10C5100015F92800FCF77CFD0434CFE70DB0F0BD21
:10C520004D6D020070B5040090B080680AF009FCFF
:10C53000022101401AD1A38D002B17D00C4B6A4663
:10C5400004931023E568A1850591029304AB41CBC8
:10C5500041C20A00230006A8FFF75EFF2B6806A968
:10C560009B682800984706A809F0E8F810B070BD4D
:10C570004D6D0200002815D0006041608260C360EC
:10C58000046145618661C761444604624C46446269
:10C59000544684625C46C462644604636E464663E5
:10C5A00074468463002A06D0C46B043C043A2568B0
:10C5B0001560B442F9D18C6BA6464E6BB546002B84
:10C5C00006D0CC6B043C043B1D682560B442F9D115
:10C5D0000C6BA446CC6AA3468C6AA2464C6AA14660
:10C5E0000C6AA046CF698E694D690C69CB688A6870
:10C5F000086849687047006041608260C3600461F8
:10C6000045618661C761444604624C4644625446B3
:10C6100084625C46C462644604636E464663744644
:10C620008463C46B043C043925680D60B442F9D1BD
:10C63000C769866945690469704700604160826026
:10C64000C360046145618661C761444604624C462B
:10C650004462544684625C46C462644604636C4629
:10C6600044637446846304697047846BA646446BD4
:10C67000A546046BA446C46AA346846AA246446ADB
:10C68000A146046AA046C769866945690469C3680A
:10C69000826800684168704710B5041E0CD00CF029
:10C6A0005CFD431EE3189C4208D222781978013BB6
:10C6B00021705A700134F6E7014810BD0020FCE7F4
:10C6C00017FCFFFFF0B585B002900C1E2AD00023A6
:10C6D000C217161A56400193019B30005D1C631966
:10C6E0000A215F1E039303F0B3FF494230313970D2
:10C6F00030000A2103F0C6FE47420600002F0FD18A
:10C70000029B002B04DA2D23019D039A023513703E
:10C71000002320006355FFF7BFFF380005B0F0BDD0
:10C720000195D9E7004FF8E717FCFFFF10B58260CD
:10C730004A4304004160002A0ADD074B90009A42F8
:10C7400001DD01204042FCF743FC2060200010BDC9
:10C7500000230360FAE7C046FEFFFF1F4A688B68AC
:10C7600070B58360534304000D004260002B12DD5E
:10C770000A4A9E003000934201DD01204042FCF74E
:10C7800027FC002320602A68D158C15004339E4200
:10C79000FAD1200070BD00230360FAE7FEFFFF1FFF
:10C7A00070B5002817D1114D2E68002E11D1083018
:10C7B0000CF03EFC066046600D4E04003368002B12
:10C7C00002D10BF04DFD306023682C609B00F358C4
:10C7D0006360286870BD0122064907480B68134052
:10C7E000F8D1026043600A60F4E7C0462C270020BD
:10C7F000382700202827002030270020002370B58C
:10C8000004000160436099420AD1064D2B68002B59
:10C8100002D10BF025FD286023689B00EB58636074
:10C82000200070BD38270020436810B50400002B9D
:10C8300002D104480CF00AFB606803681B69984742
:10C8400010BDC04670A40200436810B50400002B60
:10C8500002D104480CF0FAFA606803689B699847B3
:10C8600010BDC04670A40200436810B50400002B40
:10C8700002D104480CF0EAFA606803685B6A9847E2
:10C8800010BDC04670A4020010B5040002F028FCE0
:10C89000034B1B68002B01D02000984710BDC046F9
:10C8A00040270020F0B58BB0050001F087FE002086
:10C8B00000F0ACFE036807001B6998473B68040062
:10C8C0009B69380098473B6806005B6A38009847C8
:10C8D0000300288810380B2862D803F03FFD063E7D
:10C8E0006161615B616161676179AF8820003900D6
:10C8F0000BF07DFA22006B7B583201931378A879F4
:10C900009C46022361460B43137004AB1F80012336
:10C9100004AA9370D07013006A461279E91D9A72C6
:10C920002B000622163305A809930CF0BAFB290048
:10C930000B2004AB06220E31C0180CF0B2FB94346D
:10C940006368A360A06800282AD0C36804A9984738
:10C95000A368002BF4D01B69F3E720002F49AF88B0
:10C960000BF045FA2200022058321378A97983434C
:10C97000137004AB1F809970A0346368A360A06833
:10C9800000280DD0C36804A99847A368002BF4D0F1
:10C990001B69F3E75B69A888A91D002B00D09847A5
:10C9A000290030000BF0B2FD0BB0F0BD636E002B20
:10C9B000F6D0AF79A366A06E0028F1D0C368390025
:10C9C0009847A36E002B01D1636EF3E71B69F1E773
:10C9D000012269460D27AB7BEF571A4001925A0797
:10C9E000920FDB080A720B730622E91D04A80CF0F3
:10C9F00058FB6A46127904ABDA716A46127A9F7163
:10CA00001A726A46127B20005A722B000F3307936A
:10CA10008C348030236804A99847C1E7FFFF0000E9
:10CA20000723D72802D9024B18600023180070474B
:10CA30003C270020014B18607047C046402700206B
:10CA40001FB58022A323D205DB00D3580820DB07C3
:10CA500000D405301C4B48221C4902F011FE00286E
:10CA60000AD080B2002807D1BFF34F8F184B194A64
:10CA7000DA60BFF34F8FFEE7002302A80293013371
:10CA80000370154B1B6843600BF00BF8002802D0B5
:10CA9000072005B000BD68460BF001F80028F7D16B
:10CAA00069460AF0FAFF0028F2D10C4802F018FE9D
:10CAB00080B20028EDD10A4802F01CFE80B20028A6
:10CAC000E7D100F01FF8E4E7A77A0200442700202E
:10CAD00000ED00E00400FA053C270020A5C8010095
:10CAE00089C8010080B2002807D1BFF34F8F034BE4
:10CAF000034ADA60BFF34F8FFEE7704700ED00E0B6
:10CB00000400FA051FB5002302ACA380104B01A856
:10CB10000293C8235B00E380803BFF3B0370052248
:10CB20000C490AF0CCFF80B200280FD18020800091
:10CB30000AF0C1FF80B2002808D120000AF0BDFF32
:10CB400080B2002802D10AF0B4FF80B204B010BD58
:10CB50002800900193A40200024B0B60092313608C
:10CB60007047C04699A4020010B50400002000F0F0
:10CB70004DFD03681B6998470300F3331C7086233F
:10CB80005B00C05003000021044AFC335A61044A90
:10CB900099615A62F4300BF0D5FF10BDAB7C0200F6
:10CBA000BD7C0200012110B5044A080002F0A6FC79
:10CBB0000023984200D00B33180010BD69CB010050
:10CBC000F8B505000400AC356B68AB60A8680028B8
:10CBD00007D0C36821009847AB68002BF4D01B69CD
:10CBE000F3E72600B0363568002D05D02F69280000
:10CBF0000CF01AFA3D00F7E72200FC2135605832AC
:10CC0000137826000B40137023000A365C331D7026
:10CC10001F22290030000CF060FAF5772A361F2217
:10CC2000290030000CF059FAF577606E002804D026
:10CC300005690CF0F9F92800F8E7250098356066D9
:10CC40002868002804D006690CF0EEF93000F8E7F7
:10CC50002600A43628603568002D05D02F692800ED
:10CC60000CF0E2F93D00F7E72000356029000C22C6
:10CC70006C300CF032FA2000074BE567A3672900FF
:10CC80000C2280300CF029FA2300044A8C339034B3
:10CC900028001A602560F8BD9D7C02008F7C020090
:10CCA000F0B593B0019000200C0000F0AFFC0368D9
:10CCB0005B6A984700F082F906AB00280ED000228C
:10CCC0001A7105AA0692082218001A730AAA9A6015
:10CCD00000F042FA002803D013B0F0BD18711873A9
:10CCE000002727732771019BBA331B78BB4242D9B7
:10CCF00007237B431A000199BB32CB18BB331B7847
:10CD00008A180292022B2ED1002506AE337BAB424D
:10CD100023D9AB000393089BAA00995802980BF003
:10CD200070F800281CD0B3689C46AB001900237B28
:10CD3000614402939A000868A368D050029B0133B3
:10CD40002373337B5A1E954205D00C481B1860464E
:10CD50009B001B580B6006AB1A730137FFB2C2E78A
:10CD60000135EDB2D1E72379216802989A000133A9
:10CD700050502371F1E70020AEE7C046FFFFFF3FB0
:10CD8000F0B50A7804009BB00D000220012A08D0FB
:10CD90004B88032A07D1A03B21499BB210008B424C
:10CDA00007D91BB0F0BD203B1E4A9BB20320934223
:10CDB000F7D81D4BAA8803209A42F2D80AAB0093F9
:10CDC00012AB02936A460023260013711373B83620
:10CDD0003378002B1DD104AF1822002138000CF04D
:10CDE0007CF92B7838003B7033783B726B46FB60E4
:10CDF0006B883B82AB887B820AF06DFE02000320C9
:10CE0000002ACED101235834217810000B4323701F
:10CE1000C7E769462000FFF743FF0028DBD0C0E7E3
:10CE2000603F0000E03F0000FF3F0000F0B59DB014
:10CE30001E006B4604001A70581C0622229D0CF03E
:10CE400030F9002E2ED0328802AB1A8072885A80B8
:10CE5000B2889A80F288DA800CAB04AE049314ABEB
:10CE6000B36027000023B937337133733B78002B4D
:10CE70001ED101223B78022708A9134058000B78E5
:10CE80004E60BB430343002D1AD12000323000789E
:10CE90009343104003430B70A38D0B81E38D4B81B3
:10CEA000238E17E01A4B029396239B040393D3E738
:10CEB00031002000FFF7F4FE0028DAD01DB0F0BDED
:10CEC000A8799343104003430B702B880B816B8828
:10CED0004B81AB8802AA68468B810AF012FE0300E0
:10CEE00000208342EAD00630082BE7D006D8013074
:10CEF000042BE3D0834209D10420DFE70520112B66
:10CF0000DCD0044A9342F7D0102BF5D00B20D5E7A4
:10CF1000320064000232000070B500200D0000F005
:10CF200075FB03685B6A98472B780400142B1ED0AE
:10CF300003D8132B0CD0002070BD152B1FD0222B33
:10CF4000F9D16B6818882369002BF4D09847F2E771
:10CF50006B68012518889B78646819005A08DB06FD
:10CF600029402A405B0F002CE5D0A047E3E76B681F
:10CF700018889978A368002BDDD09847DBE76868AC
:10CF8000827813091207120F012A03D0022A0BD04C
:10CF9000002106E0013BDBB20021022B01D8064A4A
:10CFA000D15C0088E368E6E70421012BF9D0013168
:10CFB000022BF6D0ECE7C046A2A40200014B187881
:10CFC0007047C046012A0020F0B51D000023304FF5
:10CFD00087B000923A7806000C009A4204D102F021
:10CFE000B3F8002803D00B23180007B0F0BD002DC4
:10CFF0000ED003A9222003950AF001FF002807D0D4
:10D0000006230828F0D01138434243410433EBE7AC
:10D01000002302AA1000137001F08AF80028E2D160
:10D0200001251C4902220B782E40AB4333430726CF
:10D0300093430193009B2C4033409340AC409C466B
:10D04000019B02AA1C431C239C4363461C430E23E2
:10D050009B181880104B0C700393022303AC2371B0
:10D06000093002AB0522C0180CF01BF821000B4858
:10D0700001F0C8F8002807D033000428B4D0013BE1
:10D080000828B1D00533AFE73D700300ACE7C046D8
:10D09000012A0020F121002019CF0100022A0020DE
:10D0A00010B5074801F086F90023984206D00733EF
:10D0B000042803D0013B082800D00533180010BD18
:10D0C000022A0020002373B501930F4B01AD1B789A
:10D0D0000E0029002B7001F031FC041E05D0042342
:10D0E000052800D00733180076BD3100280001F074
:10D0F000C3F823000028F6D007230428F3D0013B0F
:10D100000828F0D00533EEE7022A002073B5114C51
:10D110000E0005000522210068460BF0C2FF012E1B
:10D1200003D0022E10D002230CE002222378B34356
:10D1300093436946280023700AF05FFE002398425B
:10D1400000D00B33180076BD012322781343B3437C
:10D15000EFE7C046F1210020094B10B51A78010015
:10D160000923002A09D0074801F0BEF8002398429D
:10D1700003D003330E2800D00333180010BDC0467F
:10D18000012A0020022A002000487047FFFF00000B
:10D19000F0B597B00593036807AD1B68049103933E
:10D1A00011002B00060091C991C30024D36821000F
:10D1B0000C220CA8EB602C610BF08FFF22000B4BB4
:10D1C00010940F9311AB1C70191901344A70102C74
:10D1D000FAD15A820193059B2A00009304990CAB63
:10D1E0003000039CA04717B0F0BDC046197F020075
:10D1F00070B5FC30046C0500002C0DD124200BF020
:10D2000017FF064B44608361054B8460C460046172
:10D210004461C46103602864286C70BD08970200F3
:10D22000F097020070B5FC30C56B0400002D11D1E1
:10D2300034200BF0FDFE084B85604360074B4561D1
:10D240000361074B0562C361064BC5628362064BEF
:10D25000E0630360E06B70BD38970200289702001E
:10D2600098970200A8970200B89702007FB503794B
:10D270001548002B22D0154E154C33782000002B7A
:10D280001CD102AD28000AF032FE002810D16B88B4
:10D29000592B0DD12B78AA88D91F012910D80092BB
:10D2A0000C4A2021200007F019FC0123337004E010
:10D2B0002022094920000BF057FF200004B070BD68
:10D2C0000092064AEDE7C046A5A40200232A0020EA
:10D2D000032A0020C7A40200BFA40200E4A40200A5
:10D2E00010B50400024B08C00AF0D3FE200010BDA8
:10D2F0002897020010B50400024B08C00AF0DEFEB9
:10D30000200010BD38970200064B70B50400036082
:10D310004068002804D005690BF086FE2800F8E775
:10D32000200070BD18970200064B70B50400036022
:10D330004068002804D005690BF076FE2800F8E765
:10D34000200070BD48970200064B70B504000360D2
:10D350004068002804D005690BF066FE2800F8E755
:10D36000200070BD58970200064B70B504000360A2
:10D370004068002804D005690BF056FE2800F8E745
:10D38000200070BD98970200064B70B50400036042
:10D390004068002804D005690BF046FE2800F8E735
:10D3A000200070BDA8970200064B70B50400036012
:10D3B0004068002804D005690BF036FE2800F8E725
:10D3C000200070BD3C960200064B70B5040003605F
:10D3D0004068002804D005690BF026FE2800F8E715
:10D3E000200070BD4C960200064B70B5040003602F
:10D3F0004068002804D005690BF016FE2800F8E705
:10D40000200070BD5C960200064B70B504000360FE
:10D410004068002804D005690BF006FE2800F8E7F4
:10D42000200070BD6C960200064B70B504000360CE
:10D430004068002804D005690BF0F6FD2800F8E7E5
:10D44000200070BD0897020070B5FC30046C050028
:10D45000002C0DD124200BF0EBFD064B44608361C2
:10D46000054B8460C46004614461C4610360286446
:10D47000286C70BD08970200F0970200104B10B5A1
:10D48000083303600F4B0400C36080230E4A5B0027
:10D49000C250C018FCF7ECFF20000C4BB830E36022
:10D4A000FFF7B2FF2000AC30FFF79EFF2000A03056
:10D4B000FFF78AFF20006C30FFF776FF200010BDD9
:10D4C0001C980200B0950200449902007C9602006C
:10D4D000444AF0B50600C260A022434B163608331A
:10D4E00003600100002342820400320085B0037112
:10D4F0008360037483823531137001329142FBD112
:10D50000802580222000AD00D201F3773584110000
:10D5100000933830002300F029FB23002100403322
:10D5200003931A002B0000255F31157001328A42E7
:10D53000FBD1039AFC21D577220060321380137946
:10D5400020000B401371230068331D70274B2567A3
:10D55000E3660C22002178300BF0BFFD230027008A
:10D5600088331D60224B0837FB67843700210C226B
:10D5700038000BF0B2FD1F4B1F4AFB602300A033A5
:10D580003D611A601D4A5D60DA601D4A1D619A6145
:10D59000DD6130000AF05BFE03980AF058FE194B7B
:10D5A000601CE3602300C4331D705D709D70FF300C
:10D5B00002F0ECF88C235B00E55023001933FF33B5
:10D5C0005D618023104A5B00E250230001222000AD
:10D5D000FE3352425A86023B9D63DD631D6405B0F3
:10D5E000F0BDC0467C9602001C9802003C960200EA
:10D5F0009D7C02008F7C02004C9602005C9602002B
:10D600006C960200B09502004499020070B5074C78
:10D610002368002B07D1A02040000BF009FD050076
:10D62000FFF756FF2560206870BDC0468C2700209C
:10D6300070B50C220D00002104000BF04EFD0023FC
:10D640002361024B25602000E36070BD0B7F020068
:10D6500070B500250400254B85800360244BC56010
:10D660008360244B85614361234B45620362234BF6
:10D670000563C362224BC563836329004430FFF70F
:10D68000D7FF200029005830FFF7D2FF20002900E3
:10D690006C30FFF7CDFF1B4B22002360230080324C
:10D6A000F83320C29342FCD126001D00E936FF3634
:10D6B00028000822002108350BF00FFDAE42F7D1FB
:10D6C0008E2300229B00E11804C6B142FCD18E23B8
:10D6D00000219B00E2540C4B0C4AE318A21819805D
:10D6E00002339A42FBD1200070BDC0466897020009
:10D6F0001897020028970200389702004897020006
:10D7000058970200649802003A020000620200008A
:10D7100013B504680093A46813000A000149A047E8
:10D7200016BDC046FFFF000037B506AC257804687B
:10D7300001950093246913000A000149A0473EBDEA
:10D74000FFFF0000F0B587B00D00002469466F466A
:10D7500016004C800DAA0CA9098812783980019313
:10D76000A2421BD101004479F83194420DD908310D
:10D770000F00083F3F88B7421BD130212032920072
:10D7800012580132D27F0A4215D16A463100280070
:10D790000AF0EAFD002808D1062407E06A463100B5
:10D7A00028000AF0E1FD002800D00324200007B083
:10D7B000F0BD0132D9E710210A4051424A41002010
:10D7C00002ACE3600CABA360174B01322680A27061
:10D7D000A0809D4207D1FFF719FF03681B69984796
:10D7E0000AF008FB0500210028000AF0C1FD002412
:10D7F00082B2A242DAD0112A13D00BD8082ACBD099
:10D800006A46310028000AF0AFFD05240028CDD07B
:10D81000023CCBE7054B9A4203D0054B9A42EFD12D
:10D82000BAE70524C2E7C046FFFF0000033000004E
:10D8300001340000F0B5050099B008002E240C91C9
:10D8400000F00EF906ABE4181290220012A9012094
:10D850000AF088FD002802D0032019B0F0BD23880B
:10D860000C9A0B9093830C9B0B9A1B7D934200D8D0
:10D87000C6E06B791D2B01D90720EEE70C9B9B6955
:10D880000D930B9B0D9A9B009C586369002B07D14D
:10D89000638B002B04D1631CDB7F022B00D1AAE039
:10D8A000200000F0DDF823000026283312900E96A9
:10D8B0000D960F930F9B1B78B34221D9626AB30078
:10D8C0009F58342206AB9B1800221A7000230021B7
:10D8D00013AAD21801335170102BF8D1462206AB8F
:10D8E0009B184A4A13A938001A800AF0C0FD002884
:10D8F00003D07B690D937B8B0E930136F6B2D9E78B
:10D900006979A31C1F31C9006918621CDB7FD27FB3
:10D91000089121002A31097800200791210029313E
:10D92000097806910E9905910D990491217F039133
:10D93000218B0291618B01916169009112A90AF01A
:10D9400018FF002800D087E76B7907001A00203203
:10D9500092001F335451DB005B5BE3836B7901332F
:10D960006B71230028331B78BB4244D98E239B0064
:10D97000EB5C132B00D97FE7626ABB009E58002343
:10D98000180013A90B70CA1801335070102BFAD16C
:10D990001E4B30004B820AF06AFD0D90002827D103
:10D9A000300000F05DF88E2189006A5C738B1E32B6
:10D9B000FF325200AA180292327F12900192328BEB
:10D9C00012A9009272690D9800F09AF8002800D010
:10D9D00042E78E2189006A5C531CDBB26B541D3315
:10D9E0007A32FF3392005B005651EB185B88F38369
:10D9F0000137FFB2B5E70B980130C3B20B9332E7A2
:10DA00002B79002001332B7127E7C0460129000044
:10DA100070B505000AF049FC04000620002C1CD15A
:10DA200028007822210080300BF057FB2800E930D5
:10DA300050222100FF300BF050FB2800082221006B
:10DA4000F8300BF04AFB054B2822E81821000BF0B8
:10DA500044FB8E2320009B00EC5470BD3A02000072
:10DA6000F0B5438A85B00193037805000126002BA9
:10DA700035D0214A00241100831900931F4B1F68E1
:10DA8000A74210D00023981E012804D90098D65C24
:10DA9000C05C86422CD10133102BF4D111235C439E
:10DAA00009190E7C1BE000980AF04CFE2B78070049
:10DAB0000600002B01D112350095042C0FD0112542
:10DAC00065430D4B10225D19009928000BF0E9FA0F
:10DAD0000023AB70EB70094B01342F741C6003AB57
