:020000021000EC
:108000000040002085080200C1080200C3080200E9
:108010000000000000000000000000000000000060
:10802000000000000000000000000000C508020081
:108030000000000000000000C7080200C90802009C
:10804000CB080200F9B5010031050200CB0802009F
:10805000CB0802000000000085060200CB080200E9
:10806000CB08020099000200F5050200CB080200CF
:10807000CB080200CB080200CB080200CB080200AC
:10808000CB080200CB080200CB080200CB0802009C
:10809000CB08020005FB010031FD0100CB08020006
:1080A000CB080200CB080200000000000000000026
:1080B00000000000000000000000000000000000C0
:1080C00010B5064C2378002B07D1054B002B02D0AE
:1080D000044800E000BF0123237010BD20220020CF
:1080E00000000000C0B30200044B10B5002B03D009
:1080F0000349044800E000BF10BDC0460000000076
:1081000024220020C0B30200164B002B00D1144BD8
:108110009D46402292029A1A924600218B460F46B3
:108120001348144A121A11F035FE0F4B002B00D0E1
:1081300098470E4B002B00D09847002000210400E8
:108140000D000D48002802D00C4800E000BF0CF0E4
:108150000BFF2000290011F0E8F90CF0EFFEC046FB
:1081600000000800004000200000000000000000A7
:1081700018220020C82A0020000000000000000093
:1081800010B50400034B036040300DF0B7FF200032
:1081900010BDC04638A00200F7B545686A462B00FE
:1081A0000833DB08DB00D31A00AF9D460168684640
:1081B00011F030FE6B466C467B607B68E31A9D4293
:1081C0001ADD23782E2B0DD10C4E0121300003F047
:1081D00043F9FA2001F098F80021300003F03CF94F
:1081E0000134EAE72D2BFBD1044E0121300003F0CE
:1081F00033F9FA204000EDE7BD46F7BD44220020E8
:10820000F0B5C5489BB000F0A1FC1C2001F0BEF900
:10821000059000F03FFA10AB0E9300230EAA0F93C7
:108220001372002600270DF03DFC00231D00029074
:108230000393BA480EF056FA041E00D000E10DF088
:1082400031FC002D3DD00A900B940A9A0B9B0298AA
:10825000039965246442E517121A8B41A4185D4105
:108260000694079508920993079B002B00D0E9E03C
:108270009521069B49008B4200D9E3E0A84914A848
:108280000EF012F8079BA74C14A9019300931A0053
:10829000200002F093FD14A80DF0F9FF2E210EA886
:1082A00011F0F6FCAF20800001F02EF820000EF057
:1082B00036FC0DF0F7FB002706000DF0F3FB0397EB
:1082C0000290029A039B921BBB411100002B03D129
:1082D000FA23DB00994246D933003B4343D00EA931
:1082E00014A811F001FD14A905980DF081FC0400FB
:1082F00014A811F026FC8C493F2C1AD021000598B7
:108300000DF003FC0599020014A800F0A3F914A9CC
:108310000EA811F098FC14A811F013FC0EA914A8D3
:1083200011F0E2FC14A8FFF737FF14A811F009FCC4
:108330007E4914A801F036FAC8227A4C520014A9DA
:10834000200002F005FD14A80DF0D8FEAF2080003B
:1083500000F0DAFF20000EF0E2FB002300260027E9
:108360000E9A0F9313700024714803F0ABF80128A4
:1083700000D1A2E00DF096FB002C24D000230C903D
:108380000D93029803990C9A0D9B121A8B4165204C
:108390004042C11714001D00001969410200002964
:1083A00000D08CE0952149008A4200D987E0FC3951
:1083B0000EA811F06DFC0DF075FB002706000DF006
:1083C00071FB03970290029A039B921BBB41110021
:1083D000002B04D1FA23DB00994200D823E73300B5
:1083E0003B4300D11FE70EA914A811F07DFC14A98E
:1083F00005980DF0FDFB040014A811F0A2FB3F2C22
:1084000004D0210005980DF0B7FB0400210014A84A
:108410000DF09EFEC822434C520014A9200002F029
:1084200097FC14A80DF06AFEAF20800000F06CFFEE
:1084300020000EF074FB00230E9A0F931370F0E6E9
:108440000125F6E60125089A099B3A4C6D4212195E
:108450006B4106920793079B002B16D1C721069B01
:1084600049008B4211D8344914A80DF01DFF079B19
:108470002C4C14A9019300931A00200002F09EFCDA
:1084800014A80DF004FF2D2109E7099B002B05D14D
:10849000C823089A9B009A4200D80AE7274914A8E3
:1084A00001F080F9C8221F4C520014A9200002F0EC
:1084B0004FFC14A80DF022FEF4E6012454E701213C
:1084C0001C48494202000B0012196B41002B06D1D7
:1084D000C72149008A4202D86239FF3968E7002D76
:1084E00004D1C8239B009C4200D864E7134914A818
:1084F00001F058F9C8220B4C520014A9200002F0D8
:1085000027FC14A80DF0FAFDAF20800000F0FCFE5F
:1085100020000EF004FB4EE77C22002054220020B5
:108520004022002068230020C0AC0200BEAC020044
:10853000442200206FFEFFFF3C22002048B00200D2
:1085400073B51D4D280000F041FA1C4C1C49220057
:10855000280011F00AFA1B4D1B49280001F0FCF914
:108560001A4E22003100280011F0FFF9184D194968
:10857000280001F0F1F931002200280011F0F5F98E
:108580000023154D009301331A001121280001F03A
:108590008BFD22001149280011F0E7F9104D0F233F
:1085A00028000222082102F00BFF280022000D49BA
:1085B00011F0DBF973BDC0467C22002000200020B2
:1085C000E98501004022002050AC02008F620200C9
:1085D0003C22002085AC02005422002091A0010022
:1085E00044220020915A0200EB23194A9B0010B547
:1085F000C2501C330400C0180DF080FDF1239B0015
:10860000E0180DF07BFD84239B00E01801F07AFD5B
:108610002000C530FF3001F099FA20008D30FF3086
:1086200001F036FD20006530FF3001F031FD200003
:10863000EC3002F009FA2000D03002F0ABFD20004F
:10864000643007F087FB201DFFF79AFD200010BD66
:108650003CA2020070B50C000D49050016000DF09B
:108660002BFAE368A361A169231D994208D00B008E
:1086700028331B78B34205D11031280011F07DFA60
:10868000280070BD200018300DF037FAEBE7C04627
:10869000C0AC020070B5A84CA849A54404006846C7
:1086A0000DF00AFA41236A46A549137607A80DF092
:1086B00003FA42220DAB1A70A2490EA80DF0FCF984
:1086C000432214AB1A70A04915A80DF0F5F9442205
:1086D0001BAB1A709D491CA80DF0EEF9452222AB88
:1086E0001A709B4923A80DF0E7F9462229AB1A70AE
:1086F00098492AA80DF0E0F9472230AB1A70964944
:1087000031A80DF0D9F9482237AB1A70934938A82F
:108710000DF0D2F949223EAB1A7091493FA80DF0F5
:10872000CBF9FF234A226B445A758E4946A80DF0B7
:10873000C3F998234B2269465B00CA544DA88A4965
:108740000DF0BAF9A6234C2269465B00CA5454A81E
:1087500086490DF0B1F9B4234D2269465B00CA5435
:108760005BA883490DF0A8F9C2234E2269465B003D
:10877000CA5462A87F490DF09FF9D0234F22694661
:108780005B00CA5469A87C490DF096F9DE2350229B
:1087900069465B00CA5470A878490DF08DF9EC2346
:1087A000512269465B00CA5477A875490DF084F9D7
:1087B000FA23522269465B00CA547EA871490DF023
:1087C0007BF98423532269469B00CA5485A86E49CD
:1087D0000DF072F98B23542269469B00CA548CA871
:1087E0006A490DF069F99223552269469B00CA54E3
:1087F00093A867490DF060F99923562269469B00BA
:10880000CA549AA863490DF057F9A0235722694624
:108810009B00CA54A1A860490DF04EF9A723582225
:1088200069469B00CA54A8A85C490DF045F9AE23DF
:10883000592269469B00CA54AFA859490DF03CF92A
:10884000B5235A2269469B00CA54B6A855490DF073
:1088500033F9BC23312269469B00CA54BDA8524952
:108860000DF02AF9C323322269469B00CA54C4A8DA
:108870004E490DF021F9CA23332269469B00CA54A0
:10888000CBA84B490DF018F9D123342269469B003F
:10889000CA54D2A847490DF00FF9D82336226946A9
:1088A0009B00CA54D9A844490DF006F9DF233522AC
:1088B00069469B00CA54E0A840490DF0FDF8E62344
:1088C000372269469B00CA54E7A83D490DF0F4F8E9
:1088D000ED23382269469B00CA54EEA839490DF0B1
:1088E000EBF8F423392269469B00CA54F5A83649AF
:1088F0000DF0E2F8FB23302269469B00CA540023A6
:10890000221D1C26E26022612371A3606361FCAA20
:1089100020000DF0C4F97642F5AD6E4428001C3DF0
:1089200011F00FF9B542F9D100232000A361FC2317
:108930009B009D4470BDC04610FCFFFFD8AC0200F8
:108940000AAD0200C2AC020011AD020019AD020076
:10895000C7AC020017AD0200FEAC020012AD02006F
:10896000ECAC0200D7AC0200CCAC02001EAD0200A1
:1089700018AD02001DAD0200D1AC0200D6AC020061
:10898000C3AC02000BAD02001FAD0200DCAC020064
:10899000F8AC0200E1AC0200DBAC0200E0AC02008B
:1089A00010AD0200E5AC0200EBAC0200F1AC02003D
:1089B000F7AC0200FDAC020003AD020009AD0200FD
:1089C0000FAD020015AD02001BAD02001423F0B57F
:1089D000040095B0009319221821043002F05CFEC7
:1089E000220027006432B43713211000119207F0DF
:1089F000BDF938000EF0DAFB2200B83210921E21C9
:108A0000002210980EF090F82000D03002F0E2FB27
:108A10002200EC3212920621494A129802F038F8EC
:108A200020000026012365301A0000961121FF3036
:108A300001F03AFB20008D300096012302221A211A
:108A4000FF3001F031FB25002000C535B530FF3582
:108A50001A2302220121FF3002F07AFC109904232C
:108A60003A22280001F022F984229200A2181392DF
:108A700005231D22019300923B002A0010991398B0
:108A800001F036FD96229200129BA01813992A003D
:108A900001F008FF99229200A01839001C2202F070
:108AA00027FF19239F220F93013B0E93013B0D9348
:108AB000013B0C93013B0B93013B0A93013B099350
:108AC000013B0893013B0793013B0693013B059350
:108AD000013B0493013B0393013B0293013B019350
:108AE0009200013BA01800930822013B07210EF0E1
:108AF00023F8EB239B00E018390003F099FAF323E5
:108B00009B00E0181D2102F013FDFD239B00E650A1
:108B100011982670032110F038FC23002200200059
:108B200008499C33A0321C6011605660064A8030B0
:108B30005A610221012207F057FE200015B0F0BD56
:108B400040A002004B5D0200355D02000123F0B53C
:108B5000067889B004001E4000D0ADE0FD208005FD
:108B600000F0DCFC2300D0331800029300F0B0FAD0
:108B700000F0A6F9282000F009FD050010300DF0E6
:108B800059FB4E4B18202B6000F000FD07004C4BAA
:108B90000460082231000C300693079611F0FAF8B1
:108BA00006A9381D082211F0D9F8464B29007B612F
:108BB0001223AF60EE60AB802E626E62029802F00C
:108BC00081FA002805D028000DF04EFA280000F0A8
:108BD000FDFC0123227864201343237000F094FBF2
:108BE000002523006533FF33180003930DF07AFD51
:108BF00000283CD020008D30FF300DF073FD0028A0
:108C000035D00A2D33D06420013500F07DFB0A2DCC
:108C1000E7D12D492D4800F057FCFD27EB23BF007D
:108C20009B00E618E359002B1AD100F05DF8010013
:108C300004A800F0B7FD05A80DF0F9F8012305AA76
:108C400004A900933000029B03F046FA05A80DF03A
:108C500055FA04A80DF052FAED239B00E358E351B6
:108C60002100039AEC31300003F0DCFBB9E7FD256D
:108C700015491648AD0000F027FC6659002E1BD19F
:108C800000F032F8010004A800F08CFD05A80DF0FA
:108C9000CEF8EB239B00E01805AA029B04A90096DE
:108CA00003F01AFA05A80DF029FA04A80DF026FA27
:108CB000ED239B00E358635109B0F0BDFD030000B4
:108CC000BD5D02007D5D020000200020001C002030
:108CD000BFF34F8F024B034ADA60BFF34F8FFEE7BB
:108CE00000ED00E00400FA05F0B58DB005AF1922E3
:108CF0001549380011F032F80022144B05245A713E
:108D000080225205566E012225000194029203939F
:108D10000199300007F006FF0800029907F07CFE79
:108D2000019B03996B430193029B361A6B43029399
:108D3000631E2C1B6C433C19225C1C1ECA54E7D1D9
:108D400008000DB0F0BDC04657AD0200F629002066
:108D5000F0B597B018220021060010A811F01AF8FB
:108D6000132110A810F050FC032110A810F01BFDD7
:108D70004C4B1B68002B00D10133DBB202934A4AF3
:108D8000012300210BA807F069FC484B9E4200D943
:108D9000002672B6464B64211D68464B300007938F
:108DA000052407F0C3FE60435030281808900A21BC
:108DB000300007F0BBFE0A2107F09EFF61435031EF
:108DC0006918099130000A2107F096FF802361435A
:108DD0000024503169189B010A910193029B002BDA
:108DE0005DD0002500272E1F07AB9B190593032C90
:108DF00003D1802300249B01019307AB5B592E4ACA
:108E000003936300D31804930023190006205843EA
:108E1000049A16187678B4466246039EB25C102611
:108E20009446049A105C62460641164202D0012024
:108E3000984001430133092BE8D1C9431F4B059AE0
:108E4000090119401268039B934225D1312F23DC7D
:108E500000210BA810F07FFDFA23159A1199DB0071
:108E6000106801421BD0013B002BF9D1019B01345A
:108E70005B000193FA230137E4B25B009F42B6D155
:108E80000435102DAED1074B1B68002BA6D0029FD6
:108E9000013FFBB20293A1E7019B1943D9E7FFF71A
:108EA00017FFC04678260020F0FF0000E70300000F
:108EB00004200020A6AD020070AD0200F01F0000EB
:108EC000F8B50023124C23600CF0D2FF002808D024
:108ED000042120000CF0C8FF002801D00D4B2360B6
:108EE000F8BD0122A12704250B4B0C491A6022680A
:108EF000FF0048604E68002EFCD0DE591202013D92
:108F00003243002DF5D1226001225A60E8E7C046C5
:108F100074260020ED5EBC0B00D00040FCD0004069
:108F2000F0B585B01F000AAB1B8806000291150042
:108F30000393002F1CD0282000F028FB6B46040070
:108F40001989039BAAB200933B000DF076F83368B1
:108F500021005B683000984700280AD0002C05D01B
:108F600020000DF081F8200000F030FB024800E006
:108F7000024805B0F0BDC04616FCFFFF17FCFFFF1E
:108F80000B4B70B51C68002C10D0656D00F0C6FB53
:108F9000A36C002901D1834206D820000CF09BFF6E
:108FA000044920000CF085FF2C00ECE770BDC046A2
:108FB00080260020A0260020F0B593B007932A4B0E
:108FC00004AC1E68049005910692002E4AD0274BEF
:108FD000258867881C6800230293002C2ED0636DBF
:108FE00023480393A36C9AB2A36C1B0C99B28542DD
:108FF00014D12048824211D1002B01D0B9420BD1AB
:10900000029B002B08D120000CF065FF1A492000BC
:109010000CF04FFF01230293039CDEE7002A01D0EE
:109020009542F9D1002B01D0B942F5D120000CF0C6
:1090300052FF114920000CF03CFFEDE70F4BEB18FD
:10904000012B0FD910233A00009329000C4B08A8DC
:109050000CF0F3FF336808A99B683000984708A814
:109060000DF002F813B0F0BD7C260020AC260020E5
:10907000FE030000FF030000A026002002FCFFFF0B
:10908000B98F010010B572B60B4B1C68002C08D0CC
:1090900020000CF020FF0023E364084B2000E36372
:1090A00010BD62B65C2000F071FA5C220021040061
:1090B00010F070FEEFE7C046A4260020004000201C
:1090C000024B1878012318407047C046FC29002045
:1090D000F7B50600FFF7F4FF051E33D11A4C2660E2
:1090E000FFF7D0FF194B1A4918600CF0E2FEFFF7AA
:1090F000C9FF184B1860184B4363184B83632068F3
:1091000000280ED0C027164E2A00330015490097BC
:10911000FFF706FF009733002A0013492068FFF786
:10912000FFFE0C2000F032FA0023838083710F4B86
:1091300003600F4B836000F009FB01230D4A117897
:109140000B431370F7BDC0467C260020B0260020DC
:10915000A0260020A8260020FC3F00209D5F0200E2
:10916000B98F0100FF030000FE03000060A00200B1
:10917000818F0100FC290020F7B506000D001700C3
:109180000193002802D100242000FEBD0029FAD05E
:10919000FFF778FF041EF6D0074B019A4363066081
:1091A00045608760054B002A00D0054BA363054945
:1091B00020000CF07EFEE7E7FC3F0020675F020026
:1091C000855F0200A0260020024B186843425841E8
:1091D0007047C046A0260020002310B504499C001B
:1091E0006258002A01D00133F9E76050100010BD29
:1091F00088260020002310B5044A99008C58844228
:1092000001D00133F9E70020885010BD88260020E6
:1092100010B50024084BA200D058002802D00368E3
:109220005B6898470134062CF4D1044B1B68002B73
:1092300000D120BF10BDC04688260020A0260020F7
:10924000F8B5FFF73DFF00281BD0294D2C68E36CD3
:10925000DA0717D502263343E3640423254F386821
:10926000C26C1343C364636BC3630CF05AFE38686B
:10927000416C03F0D4FC2868C36C334201D003F086
:1092800008FDF8BD1C4F1D4E3A683168002A1ED1FA
:1092900029602A688A4208D11B0706D52C60FFF78F
:1092A000B7FF3B68002BFAD02B6029688C42E8D0CE
:1092B0003368994214D1124B4B63124B8B632000DD
:1092C0000CF02FFE2968626C4B6C20000DE0206DC5
:1092D000B84203D1606D002800D002002A60D8E7B0
:1092E0009C42ECD1002210004B6C03F057FCC8E705
:1092F000B026002084260020A0260020A8260020DA
:10930000FC3F00209D5F020070B50500FFF7D8FE0E
:10931000002803D1280010F03AFA70BD0C4B1C68ED
:10932000E36CDB0706D5FFF7ADFE0A4B186000289B
:1093300000D0040000F0F2F92D18A56420000CF014
:10934000CAFD054920000CF0B4FDFFF779FFE4E702
:10935000B02600208426002080260020F0B51E4B79
:109360001E4F1C683B6885B006000391002B30D06F
:10937000FFF7A6FE00282CD0E36CDB070ED5FFF725
:1093800081FE174B051E186008D00CF0A4FD15498E
:1093900028000CF08EFD2C00FFF752FF039B2000ED
:1093A0001B043343A3640CF096FD20000E490CF01F
:1093B00080FD0E4B0024F318012B07D9C023009326
:1093C000039A0B4B31003868FFF7AAFD200005B067
:1093D000F0BD084CFAE7C046B02600207C260020ED
:1093E00084260020A0260020AC26002002FCFFFFDF
:1093F000B98F010016FCFFFF10B5FFF761FE0028D2
:1094000009D0054C20680CF066FD044920680CF07A
:1094100050FDFFF715FF10BDB0260020A426002048
:10942000F7B507000D0000282ED0FFF749FE0028F1
:109430002CD00724164E3068C36C1C4007D0154A48
:10944000290038000CF05EFD00242000FEBD03F072
:1094500008FC02213268D36C1940019103D003212A
:109460008B43D364F1E701242343D3642800B84736
:109470003268D36C1900A143D164019C5B07E4D529
:1094800028000CF077FDE0E7034CDEE7034CDCE757
:10949000B0260020755F020017FCFFFF16FCFFFFDF
:1094A000020010B5014B12CB12C210BDB426002031
:1094B000034B1A68034B1A607E225A607047C046FD
:1094C00004200020B426002070B5104D2B78022B0C
:1094D00018D0814218D90B1A072B15D90C00032379
:1094E00004431C4010D172B62A78094BD200D050E8
:1094F000981841600CF058FD2B7801332B7062B640
:10950000200070BD0348FCE70348FAE7FD2900206E
:10951000BC26002013FCFFFF17FCFFFF70B50021E5
:10952000041C07F00BFC002828D1FE21201C890513
:1095300007F00EFC002821D104300BF039FD0500A6
:109540000F48401B08F0E4FB211C08F081F807F0ED
:1095500033FC03239843040028000BF033FD200064
:109560000BF026FD002804D1203C002CF7D1054843
:1095700003E00119FFF7A8FF002070BD0248FCE7D7
:109580000038002013FCFFFF17FCFFFF70B506003A
:1095900000250C4B1B78AB4209DD0B49EB00C918C9
:1095A00030000CF009FD041E09D10135F1E730004F
:1095B0000BF0FEFC041E02D11420FFF7C9FB2000B3
:1095C00070BDC046FD290020BC26002070B50028D3
:1095D00013D00D4B0D491C7800239C4210DDDA009E
:1095E000555885420AD28A185268824206D9802389
:1095F000043802681B061343036070BD0133ECE7B7
:109600000BF0E0FCF9E7C046FD290020BC26002055
:1096100070B5051E14DD0B4E0B4C3368002B02D0C9
:1096200020680FF02FFFFA2120680024074B8900E3
:109630008361C462694335600FF02CFF200070BD68
:109640000348FCE7CC260020FC260020F996010008
:1096500017FCFFFFF8B5114F06003D68002D0AD139
:109660003020FFF793FF040006F0A4FB0C4BA5612C
:109670002360E5623C600B4D2B68002B09D1102064
:10968000FFF784FF04000FF0C6FE20002C600FF0EF
:109690009CFE3000FFF7BCFFF8BDC046FC26002052
:1096A000D8A50200F8260020014B18687047C04674
:1096B000CC26002070B50D4C2368002B03D00C4B3A
:1096C0001B68002B02D10620FFF7C4FF20680FF0B3
:1096D00093FE02000749C3170D684E685219734183
:1096E00020680A604B600FF08DFE70BDF8260020E8
:1096F000FC2600201822002010B5FFF7DBFF002415
:10970000054BA200D058002802D003681B68984778
:1097100001340A2CF4D110BDD026002010B5FFF77B
:10972000C9FFFA22034B920018685968002307F01A
:1097300023FB10BD1822002010B5FFF7BBFF024B22
:109740001868596810BDC046182200200B4B10B590
:109750001B680400002B03D0094B1B68002B02D1AF
:109760000620FFF777FF0023064A99008858002853
:1097700001D00133F9E78C5010BDC046F826002017
:10978000FC260020D0260020002310B5044A9900B2
:109790008C58844201D00133F9E70020885010BD75
:1097A000D026002010B50400002902D00B78002B31
:1097B00003D1034B2360200010BD0CF0A6FCFAE798
:1097C00070A00200F8B504000E00150000290AD0B0
:1097D0000B78002B07D0002A05D0080097B210F0B4
:1097E00021FB874203D90B4B23602000F8BD681D85
:1097F000FFF7CCFE20600CF022FE23682A005F8079
:1098000023683100181D10F0A9FA23685D190023A0
:109810002B71EAE770A00200014B03607047C0465D
:1098200070A0020010B50548054C20600CF00AFE3F
:10983000044A0549200010F098F810BD70A00200FD
:109840000027002000200020FD600200084B73B5B7
:109850001C680500002C0AD0010026680831082287
:10986000684610F07BFA0CCD31682000884773BD44
:1098700004270020014B03607047C04678A0020017
:1098800030B500684488A1420CDA8588AA4209DA1A
:10989000002907DB002A05DB5443401800198371B7
:1098A000002030BD0048FCE717FCFFFFF0B50700C3
:1098B00085B00E001D0000291FDD002B1DD004689F
:1098C000638803938B4200DD0391A3880293934244
:1098D00000DD0292002306340193019B029A934219
:1098E0000EDA29002000039A10F038FA3B68AD190F
:1098F0005B88E418019B0133EEE7024805B0F0BD38
:109900000020FBE717FCFFFFF8B504000D00160070
:109910001F00002901DB002A02DA0E4B2360F8BD8C
:10992000100048430630FFF731FE20600CF087FD41
:1099300023685D8023689E80002F06D03B003200A4
:1099400029002000FFF7B2FFE9E720000CF0B4FC8B
:10995000E5E7C04678A00200F0B5060087B00D1E0E
:1099600004D1244B0360300007B0F0BD00200F008D
:109970000400010001903B78002B1AD030225242A3
:1099800094469C446246092A11D90A2B0AD1019BAC
:10999000241801330193A14200DA210000200400C1
:1099A0000137E8E70028FBD001340020F8E7012068
:1099B000F6E76A46928809B212B23000FFF7A4FFB8
:1099C00033689C1D03AB1F002A78002ACBD01100FE
:1099D0003039092903D81A7001330135F4E7002220
:1099E0001A70BB42F9D9380010F098F93B0020708A
:1099F0000134F2E778A00200F0B5040089B006A8AF
:109A00000E0002921D00FFF74BFD236802995A8851
:109A1000914235DA9B889D4232DA1F2E30D9079B5E
:109A200001939E422CDC0523002273430393069B83
:109A30000493039B04999B18A03BCB5C00210593E6
:109A4000AE18029BCF1823685888019087420EDA1F
:109A50009888B0420BDDDB1910270F410198704345
:109A60001B1805980740781E87417F429F7101317E
:109A70000529E6D10132052ADBD1002009B0F0BD6D
:109A80000048FBE717FCFFFFF7B504680700638891
:109A90000E1E01931EDD994218DA0023063400934E
:109AA0003B68009A9B889A4212DA019BA1199D1B80
:109AB0002A00200010F052F9601931000CF0EEFB82
:109AC0003B685B88E418009B0133E8E70CF0F4FB8B
:109AD000002000E00048FEBD17FCFFFF10B5054860
:109AE000054C20600CF0AEFC044A054920000FF044
:109AF0003CFF10BD78A002000827002000200020B5
:109B00008F62020010B5054C012120000CF08EFC84
:109B1000034A044920000FF028FF10BD0C27002045
:109B200000200020E96302000388074A10B50120E5
:109B3000934208D0834202D00020DB0703D41E20CA
:109B4000FFF706F9002010BDFFFF000010B504006C
:109B5000034B08330360FFF74DFB200010BDC046E8
:109B6000C0A00200FA2270B5438992005343314AE3
:109B700031491400050038348B421BDC2F498B42DD
:109B800018D82F49083C8B4214D82E49083C8B42E8
:109B900010D82D49083C8B420CD82C49083C8B42EC
:109BA00008D82B49083C8B4204D82A4914008B4220
:109BB00000D90834284B2A7B1E1D042A03D89E1C7A
:109BC000022A00D81E00FA212068890006F024FF2E
:109BD000337868812B7300222A2128000CF056FC70
:109BE000002801D01D4870BD10222B2128000CF048
:109BF0004DFC0028F6D101222D2128000CF046FC56
:109C00000028EFD101222E2128000CF03FFC002873
:109C1000E8D172780E2128000CF038FC0028E1D140
:109C2000012223792A211A4328000CF02FFC002856
:109C3000D9D0D7E780A0020000C40900007102005B
:109C400080380100204E000010270000881300001B
:109C5000C4090000E204000086AF02000EFCFFFF12
:109C60007FB515000F226A4404001E001170002DFC
:109C700016D0002B14DD012301890093006B01F045
:109C80009DF9002802D0074804B070BD00902189DA
:109C900033002A00206B01F047F90028F4D0F2E7E6
:109CA0000148F1E70EFCFFFF17FCFFFFF7B50600C8
:109CB000002501931E4B1436083304000360858091
:109CC0008571C581058245820F0000922900182206
:109CD000300010F05FF81C2130000FF095FC6B464F
:109CE0009B880221A3806B461B88220023811423BA
:109CF000A5712173A563A58763813E32137827631D
:109D00008B43F1310B40137023009572958101351F
:109D1000221DD5870833A21DD5872000DD87FFF7D8
:109D200021FF002802D1A3791D43A5712000FEBDAB
:109D3000C0A0020030B50425837987B004002B420F
:109D400004D1FFF749FAA3791D43A571A36AA2695B
:109D50001B6800251A4208D106236A46012120000B
:109D6000FFF77EFF051E03D0114D280007B030BD60
:109D70006B460222042069469A561856237BD2006D
:109D80005A43228202220978C00049B2C9005943CD
:109D900043436382A379E1819343A37120000CF0D4
:109DA00083FB0123A1881A0002A80CF04DFADCE71E
:109DB0000EFCFFFFF8B50400FFF7BCFF0E22A35E08
:109DC000794F5B42BB4251DA23003E331B789B073D
:109DD0004CD50125210028003E310B785A089043CC
:109DE00002000220AA40834313430B702000FFF7B8
:109DF000A1FF1022A35E5B42BB4248DA23003E3340
:109E00001B785B0743D50125210028003E310B78E4
:109E10009A08904382000420834313430B7026006A
:109E20002000FFF787FF1222A35E4836BB423EDACE
:109E300023003E331B781B0739D5210001223E3118
:109E40000B78D80882430820D200834313430B7059
:109E50003378032B3BD80133DBB23370012B00D0B6
:109E60008DE0230000224A331A8030E02000FFF703
:109E700061FF0E22A35EC8225B425200002593427E
:109E8000B4DD23003E331B789B07A2D5AEE720004C
:109E9000FFF750FF1022A35EC8225B42520093429C
:109EA000BDDD23003E331B785B07ACD5B7E7200050
:109EB000FFF740FFC8231221625E5B009A4204DD77
:109EC00023003E331B781B07B7D5002DC0D1327855
:109ED000002A14D02100270001254A310B883E3783
:109EE00001339BB20B803878AC46054055D01D2B12
:109EF00005D963469843002338700B8033702000E7
:109F00000CF03EFB294A0723904244DD2000FFF776
:109F100011FF0E23E25E264E52420323B2423ADB89
:109F2000C8252000FFF706FF0E23E25EAD00524277
:109F30000423AA422FDC2000FFF7FCFE1023E25E80
:109F400002235242B24226DB2000FFF7F3FE102329
:109F5000E25E01235242AA421DDC2000FFF7EAFE26
:109F60001223E25E0523B24215DB2000FFF7E2FE7A
:109F70001223E25E0623AA420DDC00230BE0042B31
:109F8000A5D122003E321178033B0B43137000230E
:109F90004A3423800B331800F8BD092BAFD9013A9E
:109FA0000D803270ABE7C04670FEFFFFFF7002000D
:109FB000E0FCFFFF70B5C369C1681A68451D8AB02F
:109FC0000400EB7F114255D0002B58D1EB7F082BBA
:109FD0000DD90122A379134209D11343A371A1889A
:109FE000130006A80CF030F9FFF798FB2062EB7F16
:109FF000012B23D80123A2791A421FD00025A18862
:10A00000A571022202A80CF01FF9A31DDE7F012E0C
:10A0100014D1FFF783FB2B00226A801A994100902C
:10A020000191019BA188AB4203D1174B009A9A4240
:10A0300027D90123042206A80CF006F90322A379EC
:10A040001340012B14D1FFF769FB0023226A801A09
:10A050009941994202D10D4B984209D90223A27924
:10A06000A1881343A3710522012306A80CF0ECF884
:10A070000AB070BD0B2BA9D80133EB77A6E7013BE3
:10A08000FBE733000322D6E7E7030000DB0500000F
:10A0900010B50400034B08330360FFF775FB200085
:10A0A00010BDC046D8A00200F0B5070000250E0084
:10A0B00085B002930AAB1B7808370393104B04005A
:10A0C00008330360019285808571290018223800C9
:10A0D0000FF060FE039A310038000FF09AFA6B46D9
:10A0E0006A469B88127AA380A31DE671DA77631D06
:10A0F00025622000DD77FFF729FB200005B0F0BDC9
:10A10000D8A0020010B50400034B08330360FFF72A
:10A1100071F8200010BDC04648A102007FB51500AF
:10A120000F226A4404001E001170002D16D0002B6F
:10A1300014DD012301890093C06B00F03FFF00286C
:10A1400002D0074804B070BD0090218933002A0076
:10A15000E06B00F0E9FE0028F4D0F2E70148F1E7F7
:10A160000EFCFFFF17FCFFFF002330B585B003ACEA
:10A17000217001890093050001332200C06B00F0BB
:10A180001DFF002802D0094805B030BD2080298974
:10A19000009002232200E86B00F0C6FE0028F2D1F6
:10A1A000237860781B02184300B2EDE70EFCFFFF36
:10A1B00013B56B46DC1D0023220023700133FFF72B
:10A1C000ADFF002801D1207816BD0148FCE7C0464C
:10A1D0000EFCFFFFD0B504000CF0ACFAE268A369F6
:10A1E000981A09F0E3F906000F002369E069C01A24
:10A1F00009F0DCF932003B0009F026FD0022104B8B
:10A2000008F0E4FB0F4A104B08F0DEF809F05AFAA8
:10A210000021041C06F088FD002804D0201C0B49F6
:10A2200006F0A4FE041C201C09F0FAF902000B0041
:10A230000020074908F03CFE09F082F9D0BDC04675
:10A2400000806640EA2E4454FB2109400000B443DC
:10A2500000807640F0B5050085B0006C0CF02DFA5A
:10A26000061C286C0CF020FA0221071C28000CF0B8
:10A2700092FA0221039028000CF09FFA07F0FEFCEE
:10A280000221041C28000CF0AAFA07F0F7FC051CB8
:10A29000301C09F09BFC0290301C09F059FC019025
:10A2A000381C09F093FC061C381C09F051FC071CF3
:10A2B000039807F0E3FC391C07F0CAF9311C071CAE
:10A2C000201C07F0C5F9029907F0C2F9011C381CDF
:10A2D00006F04CFE311C071C281C07F0B9F9019947
:10A2E00007F0B6F9011C381C06F040FE0299061C66
:10A2F000281C07F0ADF90199051C201C07F0A8F9EE
:10A30000011C281C07F0D6FA311C09F0A1FC0D49EC
:10A3100007F09EF909F084F90B4A0C4B08F054F849
:10A3200009F0D0F90021041C06F0FEFC002804D03E
:10A33000201C044906F01AFE041C201C07F07EFCB9
:10A3400005B0F0BD0000B443EA2E4454FB2119408F
:10A3500070B50022102104000CF0DEF91B4D00281E
:10A360002DD1032608212000FFF722FFA84226D086
:10A37000304226D1FA216389890059435023144A77
:10A38000D518D058884204D3D518083B1800083097
:10A39000F7D1FA212868890006F03EFBA0226081EF
:10A3A000112120000CF0B8F9002808D101222B79E6
:10A3B00010211A4320000CF0AFF9002800D0034808
:10A3C00070BD6420FEF7A0FFCCE7C0460EFCFFFF87
:10A3D000F0A002007FB50425837904002B4218D138
:10A3E00002260CF0A7F9A379A188B3432B43A371EC
:10A3F0000622012368460BF027FFA07903003040B6
:10A40000AB43A37143425841034B4042184004B050
:10A4100070BD0248FBE7C04614FCFFFF15FCFFFFC0
:10A4200010B5837904005A070DD49B0701D4FFF7B8
:10A43000D1FF236C2000002B02D0FFF70BFF10BDD3
:10A44000FFF7C8FEFBE70148F9E7C04615FCFFFF30
:10A4500070B5466C86B001AC050001916260A360E6
:10A46000002E0CD00B4905A8FFF79CF90C23220005
:10A4700005A930000CF0D9FE05A80BF03FFE2B001B
:10A480000C3307CC07C30223AA791343AB7106B080
:10A4900070BDC0468CAF0200642330B50400028159
:10A4A000438185B08180FFF753FF0222A379606C5E
:10A4B0009343A371002813D00C490CF07DFE051EB8
:10A4C0000ED001000C22103101A80FF047FC200033
:10A4D0000199029A039BFFF7BBFF2800FFF776F86C
:10A4E0000123A2791343A37105B030BD8CAF0200E4
:10A4F000F7B5009308AB1B880400019309AB1D88D6
:10A5000000230F0016000D4A838008328371026019
:10A51000C360036143618361C36103621D21243011
:10A520000CF0EDF8009BE7632664290020006364CB
:10A53000019AFFF7B1FF2000FEBDC04648A102000E
:10A5400082B0F0B50400A5B064202B932A920FF0DE
:10A550001EF904220C2109A802F0FCFB2422CC499C
:10A560001BA80FF0FBFB052206A811000BF0ADFEA7
:10A57000C84907A8FFF7F0F9A06800F081FBA568BB
:10A58000C54918A8FFF70EF9782218A9280000F08D
:10A5900071FC18A80BF0B2FD6E256420013D0FF090
:10A5A000F6F8002DF9D1A06800F06AFBA0680CF065
:10A5B000B6FA012160680BF0F7FF0121070060681F
:10A5C0000CF005F806000A200FF0E1F80022B34B6A
:10A5D00003929F4210DB013203923A00C8320BDB38
:10A5E000C822042192000391974205DC03220392C2
:10A5F000C82F01DC013A039200279E420CDB330096
:10A600000137C83308DBC82303379B009E4203DCB5
:10A61000013FC82E00DC013F06A80BF04DFE0026CE
:10A62000032373431BA9CA189078002805D0C95C7E
:10A630005278FF2306A8FFF723F901360C2EEFD13D
:10A640006B463AB20C21595E06A8FF23FFF718F9B2
:10A650000023A06800931A00743006A90BF03CFE9A
:10A66000002304930323049A039853431BAA995C81
:10A67000814237D1D31805935B78BB4232D1059B19
:10A680009E78002E2ED1310020680CF084F807F05F
:10A69000F5FA3200031C290009A80DF04FF831002B
:10A6A00020680CF08AF807F0E9FA0122031C29005F
:10A6B00009A80DF043F8310020680CF090F807F07D
:10A6C000DDFA2900031C022209A80DF037F8FE2349
:10A6D00003229B05290009A80DF030F80123059AF3
:10A6E000ED189370049B013304930C2BBAD16420B2
:10A6F0000FF04DF80B2D00DC5BE709A80DF00AF810
:10A70000012201000CA802F025FB002509A80DF08C
:10A7100001F8A8423CDD2900002209A80CF0FCFF4A
:10A720000022061C290009A80CF0F6FF011C301CB1
:10A7300006F08EFF2900061C012209A80CF0ECFF90
:10A740000122071C290009A80CF0E6FF011C381C97
:10A7500006F07EFF311C06F009FC2900061C0222CF
:10A7600009A80CF0D9FF02222900071C09A80CF047
:10A77000D3FF011C381C06F06BFF311C06F0F6FB02
:10A780002900031C00220CA80CF0D8FF0135BDE7FE
:10A7900009AA1100012318A80CF0EAFF18A90FA8B4
:10A7A0000DF043F818A80CF0DAFF0CAA09A912A8BA
:10A7B00001230CF0DDFF002312AA0FA915A80CF04D
:10A7C000D7FF002215A811000CF0A6FF0022061CDE
:10A7D000012115A80CF0A0FF0022051C022115A8DC
:10A7E0000CF09AFFFC21071C8905301C06F030FF95
:10A7F00007F024FAFC21060018908905281C06F0B1
:10A8000027FF07F01BFAFC21050019908905381C69
:10A8100006F01EFF07F012FA2A00030031001A901A
:10A820002068FFF715FEA0680CF079F907A908A8C1
:10A83000A5680BF039FD0022194B009208A901937D
:10A840002800130000F0BAFA08A80BF020FDFA2047
:10A8500080000EF09CFFA0680CF061F915A80CF0C8
:10A860007EFF12A80CF07BFF0FA80CF078FF0CA85D
:10A870000CF075FF07A80BF00AFD06A80BF007FD0A
:10A8800009A80CF06CFF25B0F0BC08BC02B018475A
:10A8900097AF0200BBAF020000B00200E0FCFFFF78
:10A8A000DC050000F7B583601D4B05001F680160E3
:10A8B0004260002F31D02820FEF768FE04001030DF
:10A8C0000BF0B8FC174B18202360FEF75FFE002248
:10A8D0000600154B01920560083200210C300093F0
:10A8E0000FF058FA08226946301D0FF037FA0F4B67
:10A8F00000227361C223A3803B68E260A6602262EB
:10A9000062625B68210038009847002805D020006B
:10A910000BF0AAFB2000FEF759FE2800FEBDC04642
:10A92000042700200500060041A50100F76702008A
:10A93000F0B5040085B0637A9C46002B04D120005A
:10A940000BF084FF05B0F0BDA37A266F01931023AE
:10A95000019AF35600259B1801229A402900F368BA
:10A9600003920293029BAB4231DDB368019A6B43C1
:10A970009B1872695B00E77AD3181A785878E379E4
:10A98000012F14D15F1E3F1A10003A005B004343B1
:10A99000606F8218D3189B79634500DD6346627B44
:10A9A0001A4202D00123AB4019430135DAE7022FE6
:10A9B00005D15F1EBA1A277A013F381AE6E7032F3E
:10A9C000E4D1277A013FBF1A02003800DEE71123E5
:10A9D000C943F356606C994023691940039B19439E
:10A9E0000EF0B9FFA27B072AACD8637B0C495B0051
:10A9F0006373531CDBB290004158A373022A03D83F
:10AA000008000EF0B9FE96E7064B200023630023F2
:10AA10006363054BE462236414300EF03BFD91E761
:10AA200060A1020031A901003768020010B50400DE
:10AA3000044B03600EF026FD200005F0D1F9200044
:10AA400010BDC046D8A5020010B504000E4B083357
:10AA50000360FEF799FE200074300BF018FC200014
:10AA600060300BF014FC200058300BF047FB200046
:10AA700050300BF043FB2000044B14306361FFF7B0
:10AA8000D5FF200010BDC04680A102000CA6020028
:10AA9000F8B500250400324B8580083303608571CA
:10AAA000143016000F0005F085F920002D4BE562EB
:10AAB000636125645030FEF7AFFE20005830FEF78A
:10AAC000ABFE20006030FEF7D5FE20000423F25ECE
:10AAD00033682667590009B274300BF0F6FB33680F
:10AAE000226FE37173680126237210236581A780AA
:10AAF0002561D35691685918994204DD3000984079
:10AB000001330543F8E711230120D356D1685918C2
:10AB1000994206DD02009A402669013332432261E0
:10AB2000F6E71420FEF732FD226900212A430123B3
:10AB3000060005F093FDFF23220063720133A38119
:10AB4000002348326664A37320001370A366FEF7E7
:10AB5000FDFD0123A27920001343A371F8BDC04677
:10AB600080A102000CA60200F0B5437A85B0040073
:10AB7000002B04D120000BF069FE05B0F0BD0122CE
:10AB8000837A11009C461023066F0025F35603922A
:10AB90006344994002912900F3680193019BAB4201
:10ABA0002CDDB36872696B4363445B00E77AD318AA
:10ABB0001A785878E379012F10D15F1E3F1A1000E0
:10ABC0003A005B004343606F8218D3189B79002BD7
:10ABD00002D0039BAB4019430135DFE7022F05D1BB
:10ABE0005F1EBA1A277A013F381AEAE7032FE8D125
:10ABF000277A013FBF1A02003800E2E71123C94358
:10AC0000F356606C994023691940029B19430EF07A
:10AC1000A2FE667AB31EDBB2FC2B14D8FEF744FD0D
:10AC20000B4B0500236300230A4863630A4BFF2193
:10AC3000E4622364704305F079FF2900414320005A
:10AC400014300EF027FC637A012B00D995E791E7C9
:10AC50004D680200B6030000376802001FB50123EB
:10AC600081881A0068460BF0EFFA012303491A00A5
:10AC700068460BF0E9FA05B000BDC046FE030000CF
:10AC80001FB5030048331A780400002A0DD00022B3
:10AC90001A70012381881A0068460BF0D5FA012347
:10ACA00004491A0068460BF0CFFA200074300BF00C
:10ACB00003FB1FBDFF03000010B548300378002BD5
:10ACC00006D00378012B03D0012102480BF042F992
:10ACD00010BDC046FF03000010B50121040006208E
:10ACE0000BF038F9064B984208D148342378002BF2
:10ACF00004D02378012B01D020BFF7E710BDC04658
:10AD000016FCFFFF70B50600141E19DB0500483560
:10AD10002B78002B02D02B78012B13D1002330008D
:10AD20001A007430FEF768FE002C07D033004A3357
:10AD30001C80002407234C3634802B70200070BD0B
:10AD4000014CFBE7014CF9E717FCFFFF12FCFFFF8A
:10AD5000F8B517000A68050052880B00012A09D1CE
:10AD6000002118000BF059FA002201002800FFF71B
:10AD7000C9FFF8BD002F19DD060048363278002AD9
:10AD800002D03278012A13D12A00002428005C3234
:10AD90001900148058300BF01BFA2B004A331F8027
:10ADA00003234C352C8020003370E2E70148E0E7B4
:10ADB0000148DEE717FCFFFF12FCFFFF73B5079C9D
:10ADC0000500002C1CDB060048363078002802D035
:10ADD0003078012816D106981BB2C0B20090280026
:10ADE00012B274300BF078FA002C07D02B004A33E3
:10ADF0001C80002407234C352C803370200076BD46
:10AE0000014CFBE7014CF9E717FCFFFF12FCFFFFC9
:10AE1000F0B587B00D9C06000F0002920393002C42
:10AE200020DBFFF749FF330048331D78EDB2002DDA
:10AE30001AD1390005A80BF037FA0C9B0194009346
:10AE4000029A039B05A93000FFF7B8FF05A80BF095
:10AE50001EFA002C03D03000FFF73EFF2C0020002C
:10AE600007B0F0BD014CFAE7014CF8E717FCFFFF13
:10AE700011FCFFFFF8B50400171E1DDD0600483663
:10AE80003378002B02D03378012B17D12200E379DD
:10AE90005632013B137023000025200054331D80DF
:10AEA00050300BF095F923004A331F80022328000D
:10AEB0004C3425803370F8BD0148FCE70148FAE7BF
:10AEC00017FCFFFF12FCFFFFF7B505000F00161E71
:10AED00018DDFFF7F1FE2B0048331C78E4B2002C9C
:10AEE00012D1390001A80BF06BF9320001A928003A
:10AEF000FFF7C0FF01A80BF001F92800FFF7ECFEF7
:10AF00002000FEBD0148FCE70148FAE717FCFFFFFF
:10AF100011FCFFFFFF2902D8417200207047014851
:10AF2000FCE7C04617FCFFFFF0B51F0085B00AAB79
:10AF30001B780400039300933B000D0016000EF0F5
:10AF4000CFFA002833D0237D082B2DD82368002288
:10AF50001900FC318A62A021C9005A501549052008
:10AF60005A500138C046C046C046C046C046C046DA
:10AF7000C046C046C046C046C046C046F1D1236860
:10AF800001325A50A0210432C9005A5005F022F86B
:10AF9000039B3200009329003B0020000EF0A0FA32
:10AFA000237D01332375CCE7034805B0F0BD207540
:10AFB000FBE7C046FC0F00000EFCFFFFF0B51F00D2
:10AFC00085B00AAB1B780400039300933B000D008F
:10AFD00016000EF06DFA002833D0237D082B2DD8F3
:10AFE000236800221900FC318A62A021C9005A504E
:10AFF000154905205A500138C046C046C046C046D3
:10B00000C046C046C046C046C046C046C046C04610
:10B01000F1D1236801325A50A0210432C9005A509C
:10B0200004F0D8FF039B3200009329003B0020006E
:10B030000EF03EFA237D01332375CCE7034805B0BB
:10B04000F0BD2075FBE7C046FC0F00000EFCFFFFC3
:10B05000F8B50D1E30D000260227C468002C28D079
:10B06000AA88A38853403B4204D13A4204D1AB881A
:10B070003B4219D0646AF1E7A968A0680CF039FB7B
:10B080000028F4D02B88002B02D022889A42F1D1DC
:10B090006B88002B02D062889A42EBD1A288074BC2
:10B0A00001361343A380E5E7A368AA689342E1D180
:10B0B000E8E72000002E00DC0148F8BD0080FFFF1B
:10B0C00017FCFFFFF0B5060085B00D1E59D0012713
:10B0D000C468002C22D00221AA8800230A4202D090
:10B0E000A3885B083B40226829688A4210D1A06887
:10B0F000A968002B0AD00CF0FCFA002808D0A3881D
:10B100001AB2002A06DB204805B0F0BD8842F6D00E
:10B11000646ADEE75B045B0CA380F4E7F0682A88CE
:10B12000002807D1F5600123184968460BF08CF818
:10B130000020E9E7010003001C88944206D25C6A03
:10B140001900002C0DD02300F6E723001C88944240
:10B1500007D15F886C88A74203D25C6A1900002C73
:10B16000F3D1814209D10B889A4204D305D1488892
:10B170006B88984201D96962D4E74B6A6B624D6271
:10B18000D1E70348C0E7C04616FCFFFFFD030000FF
:10B1900017FCFFFF064B10B51A00040008322C33D1
:10B1A000026043600430FEF725F8200010BDC04661
:10B1B00098A1020008B4024B9C46043808BC6047C2
:10B1C00095B1010008B4024B9C46043808BC6047A6
:10B1D0005F6C02000C4A002311002C32083110B5BC
:10B1E000038183724260C3600361436143830160F2
:10B1F00004000430FDF7F0FF044B1A68002A00D168
:10B200001C60200010BDC04698A102000427002049
:10B21000F7B50E000125C4680192002C36D02388B2
:10B2200032889A4201D0002B23D1638872889A42D7
:10B2300001D0002B1DD1FDF743FF0123002806D0CC
:10B24000C022A3881340C03B5A425341DBB2019A4B
:10B25000934219D1A7883BB2002B15DB1022310095
:10B26000A0180EF07BFD40231F4204D020000BF0FD
:10B27000FFFC646AD1E7FDF723FF0028F6D0210028
:10B280000348FEF7CDF8F4E70025F2E72800FEBDFD
:10B29000716C020008B4024B9C46043808BC60473D
:10B2A000F96D0200F0B587B001930EAB1B88060064
:10B2B00003930D9B0D000093019B02920C9F002BAA
:10B2C0003DD0002F02D1009BDB0738D52820FEF7A8
:10B2D0005DF9040010300AF0ADFF6B461B89258034
:10B2E00063801820FEF752F90500009B08220593A1
:10B2F000019B002103600C3004970EF04BFD0822E7
:10B3000004A9281D0EF02AFD0E4B02226B610023BA
:10B310000399E3602362636233680A43A560A280F5
:10B320005B68210030009847002806D020000AF012
:10B330009BFE2000FEF74AF9034807B0F0BD034822
:10B34000FBE7C046336E020016FCFFFF17FCFFFF51
:10B35000F0B50400160000258380164A164B85714F
:10B360000260218146810573186889B08C46A84225
:10B370001DD0124A05950492C02202926A4604AB7F
:10B3800082CB82C223002A006146FFF78BFFC022D6
:10B39000094B0A49186802926A46069106AB07955E
:10B3A00082CB82C223002A003100FFF77BFF2000FE
:10B3B00009B0F0BDDCA10200042700205D6F02008F
:10B3C00030B5002403730123034D8471056081802F
:10B3D00082734373846030BDF4A1020070B5837939
:10B3E0000400DB0702D58068FEF7F0F8A3799B071D
:10B3F00002D5A068FEF7EAF8A3795B0707D5A0237A
:10B400000021144ADB00D150A068FEF7DFF8A379D1
:10B410001B0708D5A568002D05D028000CF0B5FF46
:10B420002800FEF7D3F8A379DB0605D5A06800282D
:10B4300002D00368DB6898476023A2791A4205D0DE
:10B44000A068002802D003685B6898470023A360C7
:10B45000A37170BD00700040F7B50227037B0400A4
:10B460000D003B4226D0012926D886793E40009621
:10B4700014D1FFF7B3FF1820FEF788F80E2306005B
:10B48000E3561822009901930EF084FC01993000D4
:10B490000EF0D1F8A379A6603B43A371A3685A6864
:10B4A000002D04D00025DB681A602800FEBD1B6952
:10B4B0001A60FAE7014DF8E7014DF6E716FCFFFFC9
:10B4C00017FCFFFFF7B50126037B040033422AD0A7
:10B4D000612385791D4017D1FFF780FF1820FEF703
:10B4E00055F80E230700E35618220093637B2900CA
:10B4F00001930EF04FFC019A009938000EF089F884
:10B50000A379A7603343A3716023A279A0681A428C
:10B5100002D00DF033FFFEBD436940681B68184040
:10B52000431E9841F7E70148F5E7C04616FCFFFFC8
:10B5300070B5040000250C4B0E0008338580857122
:10B540000360210018300BF0BAFD200021002030EC
:10B550000BF0D8FD054BA680E5802572E5602561DE
:10B56000656120001C6070BD04A20200102700204D
:10B570008379DB0702D5C160002070470048FCE7F3
:10B5800016FCFFFF8379DB0701D5C06870470148CF
:10B59000FCE7C04616FCFFFF70B545690400002DAE
:10B5A00022D0037A032B21D8FFF7ECFFA8622C20CE
:10B5B000FDF7ECFF2C22002105000EF0EBFB002232
:10B5C00063695A622369934208D163692361002049
:10B5D000237A65610133237270BD13005A6A002A11
:10B5E000FBD162695A62F2E70148F5E70148F3E7E7
:10B5F00017FCFFFF13FCFFFF144B70B55A68144C87
:10B60000002A03D000225A600132A2601A69002A7F
:10B6100017D0002119618023DB000E4DE358286804
:10B62000012B0FD1A923DB00E1584942FFF7A0FF0E
:10B630002868FFF7B1FF2B685A69074BE2500123D6
:10B64000A36070BDFFF794FFF9E7C046FC1000400F
:10B6500000100040102700200405000003000069CE
:10B66000002809D00221054AD167426A1A611A7A74
:10B67000013A1A72024B19607047C04604E100E0BB
:10B6800000E100E010B5002903DB024B19600DF06A
:10B6900077FF10BD1427002070B504001E0004AB16
:10B6A0001D7804F0CFFB20000E4B40302360FEF7E6
:10B6B000B3F8230001364C33013522001E701D7390
:10B6C0000023E1214E32A36463651380538093818C
:10B6D000D381013B200063644902FFF7D3FF2000C0
:10B6E00070BDC04638A00200F7B580277F053D69D0
:10B6F0007C690822113C6C430600210068460EF06C
:10B700002DFB104B009A9A4219D00093002301930D
:10B7100079693000133969430BF009FD019A0099EA
:10B7200030000BF01CFD210030000BF000FD7969AA
:10B73000AB0813396943220030000BF002FD019879
:10B74000FEBDC046FECA0000F0B50D00A9B00D92C6
:10B7500000213022060010A80B930EF01BFB2800DE
:10B760000EF060FB431C0C93102B00D9B5E00B9B33
:10B77000202B00D9B1E0290030000BF01DFD071E81
:10B7800050D129000C9A10A80EF0E8FA0D990B9AE6
:10B7900014A80EF0E3FA80235B051A695F690C9226
:10B7A000113F7A4330005D690B92FFF79DFF302215
:10B7B000002104001CA80EF0EDFA290000270C9BC4
:10B7C0001339594330000BF0B2FC0D9730257D43FF
:10B7D0000B9B0833ED18A74242DA290030221CA83F
:10B7E0000EF0BCFA10A91CA80EF00AFB002827D105
:10B7F0003C49300022000E910F940BF0B0FC6A46D9
:10B80000099513AB23CB23C223CB23C223CB23C263
:10B810003000129B1099119A0BF0AFFC01230D938D
:10B820000137D3E710300B9A0D990EF088FA040017
:10B830003800FDF7CBFE002CA3D1200029B0F0BDCD
:10B840006A4609951FAB23CB23C223CB23C223CB4C
:10B8500023C230001C991D9A1E9B0BF08EFCDFE763
:10B86000E5433023ED1725405D430B9B08355D19FB
:10B870000D9B002B1DD10C9B3021981E05F0CCF8A0
:10B88000A0422CD017490134300022000E910F94B1
:10B890000BF065FC6A46099513AB23CB23C223CB7F
:10B8A00023C223CB23C230001099119A129B0BF0B4
:10B8B00064FC0B9930000BF03AFC80235B0559695E
:10B8C0000C230C9A133963434A43023311003000AE
:10B8D0000B9A0BF036FC0024AFE7034CADE7034CAA
:10B8E000ABE7C046FECA000017FCFFFF13FCFFFFDA
:10B8F00070B50400A280FA22002308000C499200CF
:10B9000008312160A3716061E260A360638209492C
:10B910000BF052FC051E09D001002000103102225C
:10B9200012300EF01BFA2800FDF750FE200070BD0B
:10B930001CA202000EB0020030B50225837987B048
:10B9400004002B4204D1FDF747FCA3791D43A571E8
:10B9500020000BF07BFC00281CD06B46DD1C28006F
:10B960000BF06BFC2B78002B17D001A80BF063FCBD
:10B970000321019AD3170B409B189B102382FDF7DC
:10B98000CDFEE368A18818180123A0601A0002A860
:10B990000AF05AFC002007B030BD0122064B1A60A5
:10B9A000064A51680029FCD000215160044A1268FF
:10B9B000019201225A60DBE700C00040FCC0004059
:10B9C00008C50040022802D10122014B1A707047BD
:10B9D000FE29002070B5064C05002378002B04D109
:10B9E000044801F03BFB01232370280070BDC046D2
:10B9F000FF290020C5B9010070B50C000AF038FA23
:10BA0000002810D00023144DA40A2B7020000BF046
:10BA100031FC002803D00A200DF0B9FEF6E72B78A0
:10BA2000002BFCD070BD02210C4B0D4A9950802197
:10BA3000C90008005D58002DFCD0A121C9005C5050
:10BA400019580029FCD0002199508021C9005A586A
:10BA5000002AFCD0E6E7C046FE29002000E00140B5
:10BA600004050000F8B50C0015001E000AF000FAED
:10BA7000002811D00023174F3B703200290020000E
:10BA80000BF0F6FB002803D00A200DF080FEF4E74F
:10BA90003B78002BFCD0F8BD01210F480F4B8446AA
:10BAA00019508021C9005A58002AFCD08027002252
:10BAB000FF00964207DD910068586050D95900296F
:10BAC000FCD00132F5E7002261465A50DA59002ACB
:10BAD000FCD0E0E7FE2900200405000000E0014062
:10BAE00010B50400054B083303601C300AF006FB58
:10BAF000200018300AF002FB200010BD34A2020022
:10BB0000FF23F0B52C4D8DB02B7000230400694647
:10BB10000088009303F026FA002802D16B469B7838
:10BB20002B70264E3368DB68002B07D1002320885A
:10BB30001A0019000BF0A2FB0DB0F0BD2B78032BFF
:10BB4000F4D81F4901A8FDF72DFE336801A9DE686E
:10BB500004A80AF035FB04A930000BF060FB0027B5
:10BB6000060004A80AF0CAFABE421ED03100202204
:10BB7000103104A80EF0F2F83000FDF727FD297807
:10BB800004ABC9005918082202A80EF0E7F8208873
:10BB90000123082202A90BF071FB0137002804D110
:10BBA0002088084A0C210BF067FB01A80AF0A6FACE
:10BBB000002FBBD0C0E7C046F02100202427002082
:10BBC0001EB00200FFFF0000F0B5837991B00400C1
:10BBD0005B071BD5FDF7A2FD00232269801A99415E
:10BBE000994203D1F423FF3398420FD9A06800286B
:10BBF00008D0364B1D880CF0E5FB036815221B6A44
:10BC0000290098470422A3799343A371A3799B0742
:10BC100059D52F4D2B68DB68002B50D02D4B1B784E
:10BC2000032B4CD8294B2C491B8804A80193FDF702
:10BC3000B9FD2B6804A9DE6808A80AF0C1FA08A9B2
:10BC400030000BF0ECFA070008A80AF057FA02AB34
:10BC50009E1D08233200338006A9073B01980BF094
:10BC60000FFB002F08D039002022103108A80EF059
:10BC700075F83800FDF7AAFC164B32881B7806A928
:10BC8000DE0008AB9E1930000EF059F8002813D0E2
:10BC9000082206A930000EF061F82B6804A9DD68BF
:10BCA00005A80AF08DFA202308AA05A928000BF0A0
:10BCB000BCFA05A80AF022FA04A80AF01FFA022228
:10BCC000A3799343A37111B0F0BDC046A829002009
:10BCD00024270020F02100201EB00200F7B5089EA6
:10BCE0000500152922D8012007008F40244C274247
:10BCF0001CD0E97FCC181F2C41DC69183418A142F4
:10BD000010D80021C8B2834204D9545C70188470E2
:10BD10000131F7E732789A183270EA7F9B18EB7797
:10BD200000202CE00878C8540139E8E73478013C59
:10BD3000E4B2A34208D10023D9B28C42F0D9D05C3E
:10BD4000F11888700133F7E7EF7F0120FF183F1BE0
:10BD50001F2F14DC0227A01C7F423618381B0190CD
:10BD6000E87F2F18BE4204D23078019FF05501368B
:10BD7000F6E7041B023CEC7728000BF0CBFAFEBD83
:10BD8000FC002000F0B585B001930AAB1E880BAB18
:10BD90001B78451C02930EAB1B78040003930B78B1
:10BDA000170003704B8A10224382013128000DF0E6
:10BDB000D5FF6B469B88268363836B461B7B0026DF
:10BDC00023776B4601221B7A6761E683EB77A31C1E
:10BDD000DA770C9B0C256362230020000D9A283330
:10BDE0001A705E709E702A0031002C300DF0D2FF68
:10BDF0002000074BE663A3632A00310040300DF0BA
:10BE0000C9FF2000034B2665E36405B0F0BDC046C2
:10BE1000977202008972020070B50D000CF0D2FA20
:10BE200004000368002D09D15B699847FA2080005F
:10BE30006843074904F0F0FDE08070BD9B689847B7
:10BE40008542F3D2236820009B6898470500EDE700
:10BE500071020000F0B507001600A1B002C704008F
:10BE60006B4918A81D000BF09CFA331E03D030005C
:10BE70000DF0D8FF83B201220492002203920292B5
:10BE8000023201920093320018A93800FFF77AFFBE
:10BE900023006049583318A807930BF082FA2B1E31
:10BEA00003D028000DF0BEFF83B2012204920022CD
:10BEB000039202920232019200932A0018A9079875
:10BEC000FFF760FF23005449AC3318A808930BF028
:10BED00068FA269B002B03D018000DF0A3FF83B255
:10BEE00001220492002203920292023201920093F4
:10BEF000269A18A90898FFF745FF631CFF334749A6
:10BF000018A809930BF04DFA279B002B03D01800BB
:10BF10000DF088FF83B2012204920022601C03927C
:10BF20000292023201920093279A18A9FF30FFF77C
:10BF300029FF23005533FF33394918A809930BF023
:10BF400030FA289B002B03D018000DF06BFF83B252
:10BF50000122049200220392029202320192009383
:10BF6000289A18A90998FFF70DFF2300A933FF337A
:10BF70002C4918A80A930BF014FA299B002B03D024
:10BF800018000DF04FFF83B201220492002218AD79
:10BF900003920292023201920093299A29000A9890
:10BFA000FFF7F0FE204B1B780B93002B2DD1079B46
:10BFB00012971393089B0DAF1493631CFF331593D3
:10BFC000099B1A4916930A9B380017930BF0E9F95D
:10BFD0001D2149203B7810222B707B8A12AE6B8288
:10BFE00006ABC918C0180DF0B9FE06232B756B46B9
:10BFF0009B8D2068AB83AE610CF0E8F903682900E3
:10C000001B6898470122084B1A70200021B0F0BD30
:10C01000292A0000242A0000252A0000272A0000DF
:10C02000262A0000282A0000002A00200A18000002
:10C0300070B5002504000A4B8580083385710360C4
:10C04000C1601830FDF7E8FB20001C30FDF7E4FB71
:10C05000044BA5601C60012365612000A37170BDC5
:10C0600034A2020024270020FA2130B585B0050053
:10C0700001230222890068460AF0E6F8074C20688E
:10C08000002809D00BF0C6F92988054B22681980D1
:10C09000022391790B43937105B030BD2427002012
:10C0A000A829002010B50C0007290DD880680CF0D5
:10C0B00089F9064B195703685B6C9847431E9841F2
:10C0C000034B4042184010BD0248FCE716B0020086
:10C0D00016FCFFFF17FCFFFFF0B5A44C0D00A544B4
:10C0E000040007939AAB1B78A14909A80493069210
:10C0F000FDF758FB200029001C300AF069F8C02029
:10C10000800000F0A1FF0820FDF740FA06000021A2
:10C1100000F088FE15ADA66000210C220EA80DF0DF
:10C1200039FE2B000EAA83CA83C3924B2900EB6011
:10C13000002330002B610CF02EF9A0680CF042F9BE
:10C1400008220021059016A80DF024FE1420FDF70A
:10C150001DFA29000200884B1593C8C9C8C2874B35
:10C16000059EC3600023A43603613368002B00D012
:10C17000F5E03060A0680CF029F9082200210600E3
:10C1800016A80DF007FE1420FDF700FA7C4B15935E
:10C19000030086CD86C37B4BC36000230361336BF2
:10C1A000002B00D0DDE03063A0680CF00BF9082212
:10C1B0000021050016A80DF0EDFD1420FDF7E6F9AD
:10C1C000714B15AE1593030086CE86C36F4B983521
:10C1D000C360002303612B68002B00D0C3E02860FC
:10C1E000012504AB1B7C04AA2B4308A92800137467
:10C1F0000BF048F8A0680CF0EDF8036864495B6A3E
:10C200009847A0680CF0E6F8036862499B69984774
:10C21000A0680CF0DFF80023026800931668049908
:10C220002A00B047049B002B0AD020000BF0FBF83B
:10C23000032805DDA0680CF0CDF80368DB6898479B
:10C240000EA80BF05EF82F2004ABC0180BF059F8C5
:10C25000362004ABC0180BF054F83D20042504AB85
:10C26000C0180BF04EF80EAB0A93A06804AB5D77D4
:10C270000CF0B0F803680AA91B699847A0680CF095
:10C28000A1F803680AA95B6D9847A0680CF09AF8BA
:10C2900003680021DB6D9847A0680CF093F80368F1
:10C2A00002219B6D984700212000FFF7FBFE18201C
:10C2B000FDF76CF9A16800F005FA374B374A1B68A7
:10C2C000A1680393364B15A81B6800260293354BD3
:10C2D0000CAF1B680193069B1B685B190093324BE4
:10C2E00012681B68FFF7B6FD3020FDF74FF9079A7B
:10C2F000A16800F0A7FAA0680CF064F803683900A0
:10C300009B6A9847294BBE80A0680C930CF05AF8A2
:10C3100003683900DB6A98472900A0680BF04DF8E4
:10C32000099A09219378A06852190BF059F8A0686E
:10C330000CF048F8C8210671A068FFF76DFD04AB4A
:10C340001B7FB34204D0A0680CF03CF80BF01FF840
:10C3500009A809F0D3FE95239B009D44F0BD03611D
:10C3600007E703611FE7036139E7C046ACFDFFFF44
:10C3700011B10200A572020069C00100B37202008F
:10C3800001BB0100C1720200EF720200CF72020015
:10C39000B1C30100E5C30100202700201C270020B5
:10C3A00008200020182700200C2000200800100082
:10C3B00013B506226846FDF705FA094B1C68002CE8
:10C3C0000AD0694601A809F0FBFE200001A90BF084
:10C3D0004BF801A809F092FE684609F08FFE13BDE4
:10C3E00024270020002373B501AE0C0031000500A6
:10C3F000019302F0B7FD002802D1B278064B1A7003
:10C40000064B1868002806D061426141044BC9B24E
:10C410001D800BF031F873BDF0210020242700208F
:10C42000A8290020F0B5040097B0039107A89C4903
:10C430000592FDF7B7F99B4908A8FDF7B3F922006B
:10C440000FAD28001C3207A909F0D1FE08AA290067
:10C4500009A809F0CCFE280009F050FE92490AA86C
:10C46000FDF7A0F9A0680BF0ADFF03680DAE5B69A6
:10C47000984728000AF045FF332004ABC0180AF0A3
:10C4800040FF3A2004ABC0180AF03BFF412004AB48
:10C49000C0180AF036FF8023DB00B380A0680D953A
:10C4A0000BF090FF036831005B6D9847A0680BF0BC
:10C4B00089FF036800219B6D9847A0680BF082FFFD
:10C4C0000700002506000A371F22002138000DF062
:10C4D00061FCFD7730000AF051FF0621A0680AF0E8
:10C4E0006CFF099A09219378A06804320AF078FF5A
:10C4F000A0680BF067FFC8210571A068FFF78CFCEE
:10C50000A0680BF05FFFFF272E000581A0680BF0ED
:10C5100059FF0AF03CFF0398FEF7B2FB0AA90CA8EA
:10C5200009F04EFE78220CA90398FEF7CDFC0CA86A
:10C5300009F0E4FD039920000AF0B1FF2000FCF7A8
:10C540004BFE0495012563691D402DD057490BA86A
:10C55000FDF702FA0BA90CA809F0A6FE00220CA90F
:10C560001300019200920398FEF752FC0CA809F008
:10C570008EFE049B002B42D1043F282F41DD002575
:10C58000FE2F00DC049D05980AF0ACF8002806D0C8
:10C59000012362699A431300042213436361002656
:10C5A0000BA809F074FE049504226369134233D08A
:10C5B000FF210398C826FEF7ADFC0025B600A3694D
:10C5C00002229B5EAB4222DD200029B2183009F026
:10C5D00024FE0023010003981A007430FDF70CFAC2
:10C5E0003000FCF791FE03980AF099FAC820FCF796
:10C5F0008BFE02226369134209D10135DFE704375C
:10C60000BBE703980AF08BFA002FBCDDBAE7FA20EB
:10C610008000FCF779FE0026022365691D421CD0CC
:10C6200006331D4024D022490BA8FDF795F90BA92C
:10C630000CA809F039FE00220CA901920092130007
:10C640000398FEF7E5FB0CA809F021FE1948FCF75A
:10C650005BFE0BA809F01BFE174E6420FCF754FE8E
:10C66000164B01369E4200DC6CE709F013FC69E7CB
:10C6700013490BA8FDF770F90BA90CA809F014FEDB
:10C680002B002A000CA9019500950398FEF7C0FB2A
:10C690000CA809F0FCFD0BA809F0F9FDDDE7C04688
:10C6A0002AB002003AB002003CB002004AB00200D8
:10C6B0008FB00200983A00008C0A00008B0A00003C
:10C6C000CCB002000022594BF0B5083306000360DD
:10C6D0000F001000A9B0B1600BAB9918013248707F
:10C6E000102AFAD10F3A524C1A700E32105D991A74
:10C6F0000874013AFAD2997B5A7B09020A43310045
:10C700000C31039125211B7813AD2B7002ABC91896
:10C71000452302A81B186A82180010220DF01EFB88
:10C72000039B64216B610123002402AA2B7752181A
:10C730001993093313701DAB1C706D2302AA9B184B
:10C740001C706E2321009B181EA80C22EC836C62C7
:10C750001C700DF01FFB374B0C22210023A8AB638C
:10C76000EC630DF017FB344B02AAEB6446239B18D5
:10C770000322DA7722002C650595347306AD2B1958
:10C7800001345A70102CFAD101232C482B700E332F
:10C79000195CEA1A1174013BFAD211212520AA7BF7
:10C7A0006B7B12020BAC13432A78638202ABC9186D
:10C7B0002270C01810220DF0D1FA0123237505ABA9
:10C7C000A36100233800A3830BF000FE036821005F
:10C7D0001B68984713ABDB8BB068B3820BF0F6FD98
:10C7E000002203680092B18A039ADC680123A04703
:10C7F000B0680BF0EBFD07001420FCF7C7FE002229
:10C80000012304000261069240C008322900079308
:10C810000DF0A4FA0A4BE360BB69002B03D1300092
:10C82000BC6129B0F0BD2361F9E7C0464CA202000B
:10C8300029B10200977202008972020039B1020028
:10C84000FF740200F0B500260400734BDDB008331E
:10C8500003608160C2608680867132006F4947A89C
:10C860000AF0EDFE23001433012504270893122358
:10C87000009704950193089A330047A903960296FE
:10C880001DA8FFF77FFA3200654947A80AF0D7FED6
:10C89000082022000097330015AF10320495019054
:10C8A00047A90396029632A8FFF76CFA32005D4959
:10C8B00038000AF0C4FE2300082004221C33099328
:10C8C000390033000495019000920396099A02966C
:10C8D00047A8FFF757FA3200534938000AF0AFFE75
:10C8E0005420FCF753FE05002000012312210422EE
:10C8F0001830079004930191009239000200330030
:10C90000280003960296FFF73DFA2800474BA562E0
:10C910000822EC620AA930300A930B960DF01EFA39
:10C92000434B0422AB63012329352B7009992661FF
:10C93000E66107980DF012FA0422079908980DF0A5
:10C940000DFA6621032304AA8918CB77BA2104AA19
:10C950008918CB77872104AA49008918A26ACB7766
:10C96000911CA685CB771DAB0C9332AB0D930F9228
:10C9700047AB32002F4910A80E930AF060FE302119
:10C98000452004AB5B181B7812313B7004AB5B187D
:10C990001B8811397B8204ABC918C01810220DF016
:10C9A000DDF904220CADA0683A75BD61BE830BF0C1
:10C9B0000DFD036839001B689847822204AB9B1861
:10C9C0001B885432238404AB9B181B885432A384E5
:10C9D00004AB9B181B88A06863840BF0F7FC07006E
:10C9E0001420FCF7D3FD0500134B066108221093B9
:10C9F000119610A910C00DF0B1F9104BEB60BB6996
:10CA0000B34206D1BD612000FCF7E6FB20005DB01B
:10CA1000F0BD2B61F6E7C04658A2020069B10200E2
:10CA200049B1020059B1020079B102001176020049
:10CA30007D75020089B10200A9CA0100A775020034
:10CA4000F0B504000E00150085B01F000CAB1B886C
:10CA50001030019309F0EEFB268065801820FCF76A
:10CA600095FD02AE050033000AAA03CA03C32F6076
:10CA70002800082700213A000C300DF08BF93A000D
:10CA80003100281D0DF06AF9064B02226B6120006F
:10CA900000230199A5600A43E360A28023626362D8
:10CAA00005B0F0BDD1750200F0B50B898DB00593CE
:10CAB000CB68060004934B88828C9A420ED1049C6A
:10CAC000049B059A9B181B1B032B3BDD6288218866
:10CAD000012308A809F0B8FB0434F1E7428C9A421C
:10CAE00030D1049C049B059A9B181B1B032B29DD4A
:10CAF0002388282006936388F7680793124B0893CE
:10CB000000230993FCF742FDC0236A460500029307
:10CB100008AB03CB03C233000699079A2800FFF73E
:10CB20008FFF3B6829005B6838009847002807D0D2
:10CB3000002D05D0280009F097FA2800FCF746FDE3
:10CB40000434CFE70DB0F0BD8F76020070B504005D
:10CB500090B080680AF096FD022101401AD1A38DA1
:10CB6000002B17D00C4B6A4604931023E568A1856F
:10CB70000591029304AB41CB41C20A00230006A8F1
:10CB8000FFF75EFF2B6806A99B682800984706A858
:10CB900009F06AFA10B070BD8F760200002815D037
:10CBA000006041608260C360046145618661C76165
:10CBB000444604624C464462544684625C46C46205
:10CBC000644604636E46466374468463002A06D056
:10CBD000C46B043C043A25681560B442F9D18C6BEF
:10CBE000A6464E6BB546002B06D0CC6B043C043BEE
:10CBF0001D682560B442F9D10C6BA446CC6AA346EB
:10CC00008C6AA2464C6AA1460C6AA046CF698E691E
:10CC10004D690C69CB688A6808684968704700608C
:10CC200041608260C360046145618661C7614446BA
:10CC300004624C464462544684625C46C462644664
:10CC400004636E46466374468463C46B043C0439D3
:10CC500025680D60B442F9D1C769866945690469E0
:10CC60007047006041608260C36004614561866115
:10CC7000C761444604624C464462544684625C4642
:10CC8000C462644604636C46446374468463046906
:10CC90007047846BA646446BA546046BA446C46AE1
:10CCA000A346846AA246446AA146046AA046C769AC
:10CCB000866945690469C36882680068416870478D
:10CCC00010B5041E0CD00DF0ADF8431EE3189C42C5
:10CCD00008D222781978013B21705A700134F6E7A6
:10CCE000014810BD0020FCE717FCFFFFF0B585B040
:10CCF00002900C1E2AD00023C217161A5640019328
:10CD0000019B30005D1C63190A215F1E039303F031
:10CD1000F3FF49423031397030000A2103F006FF39
:10CD200047420600002F0FD1029B002B04DA2D236F
:10CD3000019D039A02351370002320006355FFF70D
:10CD4000BFFF380005B0F0BD0195D9E7004FF8E707
:10CD500017FCFFFF10B582604A4304004160002ABF
:10CD60000ADD074B90009A4201DD01204042FCF7AA
:10CD70000DFC2060200010BD00230360FAE7C046D0
:10CD8000FEFFFF1F4A688B6870B583605343040041
:10CD90000D004260002B12DD0A4A9E0030009342D3
:10CDA00001DD01204042FCF7F1FB002320602A68EE
:10CDB000D158C15004339E42FAD1200070BD0023E7
:10CDC0000360FAE7FEFFFF1F70B5002817D1114D71
:10CDD0002E68002E11D108300CF0D2FD066046609E
:10CDE0000D4E04003368002B02D10BF0DAFE3060E8
:10CDF00023682C609B00F3586360286870BD012293
:10CE0000064907480B681340F8D1026043600A6086
:10CE1000F4E7C0462C2700203827002028270020D0
:10CE200030270020002370B5040001604360994260
:10CE30000AD1064D2B68002B02D10BF0B2FE286000
:10CE400023689B00EB586360200070BD38270020EA
:10CE5000436810B50400002B02D104480CF09EFC7E
:10CE6000606803681B69984710BDC04699B102000D
:10CE7000436810B50400002B02D104480CF08EFC6E
:10CE8000606803689B69984710BDC04699B102006D
:10CE9000436810B50400002B02D104480CF07EFC5E
:10CEA000606803685B6A984710BDC04699B102008C
:10CEB00010B5040002F028FC034B1B68002B01D0C6
:10CEC0002000984710BDC04640270020F0B58BB029
:10CED000050001F087FE002000F0ACFE03680700AB
:10CEE0001B6998473B6804009B69380098473B687A
:10CEF00006005B6A380098470300288810380B2822
:10CF000062D803F07FFD063E6161615B616161672C
:10CF10006179AF88200039000BF00AFC22006B7B9E
:10CF2000583201931378A8799C46022361460B433B
:10CF3000137004AB1F80012304AA9370D0701300F8
:10CF40006A461279E91D9A722B000622163305A84B
:10CF500009930CF003FF29000B2004AB06220E31CD
:10CF6000C0180CF0FBFE94346368A360A06800282E
:10CF70002AD0C36804A99847A368002BF4D01B6982
:10CF8000F3E720002F49AF880BF0D2FB22000220EC
:10CF900058321378A9798343137004AB1F809970BA
:10CFA000A0346368A360A06800280DD0C36804A9FA
:10CFB0009847A368002BF4D01B69F3E75B69A88846
:10CFC000A91D002B00D09847290030000BF03FFF2F
:10CFD0000BB0F0BD636E002BF6D0AF79A366A06EE8
:10CFE0000028F1D0C36839009847A36E002B01D107
:10CFF000636EF3E71B69F1E7012269460D27AB7BFE
:10D00000EF571A4001925A07920FDB080A720B730E
:10D010000622E91D04A80CF0A1FE6A46127904ABB1
:10D02000DA716A46127A9F711A726A46127B200080
:10D030005A722B000F3307938C348030236804A975
:10D040009847C1E7FFFF00000723D72802D9024B0A
:10D0500018600023180070473C270020014B18601F
:10D060007047C046402700201FB58022A323D20569
:10D07000DB00D3580820DB0700D405301C4B4822C6
:10D080001C4902F011FE00280AD080B2002807D106
:10D09000BFF34F8F184B194ADA60BFF34F8FFEE78B
:10D0A000002302A8029301330370154B1B684360F1
:10D0B0000BF098F9002802D0072005B000BD6846A3
:10D0C0000BF08EF90028F7D169460BF087F900289C
:10D0D000F2D10C4802F018FE80B20028EDD10A48C7
:10D0E00002F01CFE80B20028E7D100F01FF8E4E750
:10D0F000E98302004427002000ED00E00400FA0567
:10D100003C270020CDCE0100B1CE010080B2002826
:10D1100007D1BFF34F8F034B034ADA60BFF34F8F42
:10D12000FEE7704700ED00E00400FA051FB500239C
:10D1300002ACA380104B01A80293C8235B00E380DC
:10D14000803BFF3B037005220C490BF059F980B27C
:10D1500000280FD1802080000BF04EF980B200280B
:10D1600008D120000BF04AF980B2002802D10BF060
:10D1700041F980B204B010BD28009001BCB102009A
:10D18000024B0B60092313607047C046C2B1020016
:10D1900010B50400002000F04DFD03681B6998479E
:10D1A0000300F3331C7086235B00C0500300002192
:10D1B000044AFC335A61044A99615A62F4300CF013
:10D1C00069F910BDED850200FF850200012110B54F
:10D1D000044A080002F0A6FC0023984200D00B335A
:10D1E000180010BD91D10100F8B505000400AC3560
:10D1F0006B68AB60A868002807D0C3682100984717
:10D20000AB68002BF4D01B69F3E72600B036356815
:10D21000002D05D02F6928000CF0AEFB3D00F7E78C
:10D220002200FC2135605832137826000B40137021
:10D2300023000A365C331D701F22290030000CF0D9
:10D24000A9FDF5772A361F22290030000CF0A2FD37
:10D25000F577606E002804D005690CF08DFB28007E
:10D26000F8E72500983560662868002804D006692C
:10D270000CF082FB3000F8E72600A4362860356801
:10D28000002D05D02F6928000CF076FB3D00F7E754
:10D290002000356029000C226C300CF07BFD200052
:10D2A000074BE567A36729000C2280300CF072FD64
:10D2B0002300044A8C33903428001A602560F8BD9E
:10D2C000DF850200D1850200F0B593B00190002007
:10D2D0000C0000F0AFFC03685B6A984700F082F92D
:10D2E00006AB00280ED000221A7105AA0692082269
:10D2F00018001A730AAA9A6000F042FA002803D0B4
:10D3000013B0F0BD18711873002727732771019BA4
:10D31000BA331B78BB4242D907237B431A000199D9
:10D32000BB32CB18BB331B788A180292022B2ED14A
:10D33000002506AE337BAB4223D9AB000393089B99
:10D34000AA00995802980BF0FDF900281CD0B36888
:10D350009C46AB001900237B614402939A00086845
:10D36000A368D050029B01332373337B5A1E95422E
:10D3700005D00C481B1860469B001B580B6006AB81
:10D380001A730137FFB2C2E70135EDB2D1E7237955
:10D39000216802989A00013350502371F1E7002070
:10D3A000AEE7C046FFFFFF3FF0B50A7804009BB030
:10D3B0000D000220012A08D04B88032A07D1A03B88
:10D3C00021499BB210008B4207D91BB0F0BD203B16
:10D3D0001E4A9BB203209342F7D81D4BAA88032014
:10D3E0009A42F2D80AAB009312AB02936A4600232A
:10D3F000260013711373B8363378002B1DD104AF98
:10D400001822002138000CF0C5FC2B7838003B7046
:10D4100033783B726B46FB606B883B82AB887B82C8
:10D420000AF0FAFF02000320002ACED1012358346B
:10D43000217810000B432370C7E769462000FFF7EF
:10D4400043FF0028DBD0C0E7603F0000E03F000062
:10D45000FF3F0000F0B59DB01E006B4604001A703F
:10D46000581C0622229D0CF079FC002E2ED032880A
:10D4700002AB1A8072885A80B2889A80F288DA8069
:10D480000CAB04AE049314ABB36027000023B93790
:10D49000337133733B78002B1ED101223B78022776
:10D4A00008A9134058000B784E60BB430343002D7E
:10D4B0001AD12000323000789343104003430B70A0
:10D4C000A38D0B81E38D4B81238E17E01A4B0293C2
:10D4D00096239B040393D3E731002000FFF7F4FE6B
:10D4E0000028DAD01DB0F0BDA87993431040034363
:10D4F0000B702B880B816B884B81AB8802AA684626
:10D500008B810AF09FFF030000208342EAD006309F
:10D51000082BE7D006D80130042BE3D0834209D191
:10D520000420DFE70520112BDCD0044A9342F7D01A
:10D53000102BF5D00B20D5E732006400023200003A
:10D5400070B500200D0000F075FB03685B6A98471A
:10D550002B780400142B1ED003D8132B0CD00020E2
:10D5600070BD152B1FD0222BF9D16B681888236949
:10D57000002BF4D09847F2E76B68012518889B7858
:10D58000646819005A08DB0629402A405B0F002C0A
:10D59000E5D0A047E3E76B6818889978A368002B6B
:10D5A000DDD09847DBE76868827813091207120F0D
:10D5B000012A03D0022A0BD0002106E0013BDBB296
:10D5C0000021022B01D8064AD15C0088E368E6E717
:10D5D0000421012BF9D00131022BF6D0ECE7C04633
:10D5E000CBB10200014B18787047C046012A0020D9
:10D5F000F0B51D000023304F87B000923A78060046
:10D600000C009A4204D102F0B3F8002803D00B2397
:10D61000180007B0F0BD002D0ED003A922200395FD
:10D620000BF08EF8002807D006230828F0D0113818
:10D63000434243410433EBE7002302AA1000137076
:10D6400001F08AF80028E2D101251C4902220B785A
:10D650002E40AB433343072693430193009B2C405A
:10D6600033409340AC409C46019B02AA1C431C23C0
:10D670009C4363461C430E239B181880104B0C7070
:10D680000393022303AC2371093002AB0522C018B7
:10D690000CF064FB21000B4801F0C8F8002807D00B
:10D6A00033000428B4D0013B0828B1D00533AFE7DC
:10D6B0003D700300ACE7C046012A0020F1210020A4
:10D6C00041D50100022A002010B5074801F086F973
:10D6D0000023984206D00733042803D0013B0828D2
:10D6E00000D00533180010BD022A0020002373B5B6
:10D6F00001930F4B01AD1B780E0029002B7001F038
:10D7000031FC041E05D00423052800D0073318007F
:10D7100076BD3100280001F0C3F823000028F6D0C0
:10D7200007230428F3D0013B0828F0D00533EEE7A7
:10D73000022A002073B5114C0E00050005222100BD
:10D7400068460CF00BFB012E03D0022E10D00223F2
:10D750000CE002222378B3439343694628002370E8
:10D760000AF0ECFF0023984200D00B33180076BD7E
:10D77000012322781343B343EFE7C046F121002091
:10D78000094B10B51A7801000923002A09D007486F
:10D7900001F0BEF80023984203D003330E2800D0D6
:10D7A0000333180010BDC046012A0020022A0020C1
:10D7B00000487047FFFF0000F0B597B0059303687D
:10D7C00007AD1B680491039311002B00060091C95B
:10D7D00091C30024D36821000C220CA8EB602C61BB
:10D7E0000CF0D8FA22000B4B10940F9311AB1C7065
:10D7F000191901344A70102CFAD15A820193059BF1
:10D800002A00009304990CAB3000039CA04717B08A
:10D81000F0BDC0465B88020070B5FC30046C0500AA
:10D82000002C0DD124200CF0ABF8064B4460836132
:10D83000054B8460C46004614461C4610360286472
:10D84000286C70BDD0A30200B8A4020070B5FC30F3
:10D85000C56B0400002D11D134200CF091F8084B59
:10D8600085604360074B45610361074B0562C361F7
:10D87000064BC5628362064BE0630360E06B70BDDC
:10D8800000A40200F0A3020060A4020070A4020041
:10D8900080A402007FB503791548002B22D0154ED5
:10D8A000154C33782000002B1CD102AD28000AF063
:10D8B000BFFF002810D16B88592B0DD12B78AA8877
:10D8C000D91F012910D800920C4A2021200007F00E
:10D8D00059FC0123337004E02022094920000CF098
:10D8E000A8FA200004B070BD0092064AEDE7C046D9
:10D8F000CEB10200232A0020032A0020F0B102004A
:10D90000E8B102000DB2020010B50400024B08C0DD
:10D910000BF060F8200010BDF0A3020010B5040069
:10D92000024B08C00BF06BF8200010BD00A40200F1
:10D93000064B70B5040003604068002804D00569F8
:10D940000CF01AF82800F8E7200070BDE0A30200F0
:10D95000064B70B5040003604068002804D00569D8
:10D960000CF00AF82800F8E7200070BD10A40200AF
:10D97000064B70B5040003604068002804D00569B8
:10D980000BF0FAFF2800F8E7200070BD20A4020089
:10D99000064B70B5040003604068002804D0056998
:10D9A0000BF0EAFF2800F8E7200070BD60A4020039
:10D9B000064B70B5040003604068002804D0056978
:10D9C0000BF0DAFF2800F8E7200070BD70A4020019
:10D9D000064B70B5040003604068002804D0056958
:10D9E0000BF0CAFF2800F8E7200070BD04A3020076
:10D9F000064B70B5040003604068002804D0056938
:10DA00000BF0BAFF2800F8E7200070BD14A3020055
:10DA1000064B70B5040003604068002804D0056917
:10DA20000BF0AAFF2800F8E7200070BD24A3020035
:10DA3000064B70B5040003604068002804D00569F7
:10DA40000BF09AFF2800F8E7200070BD34A3020015
:10DA5000064B70B5040003604068002804D00569D7
:10DA60000BF08AFF2800F8E7200070BDD0A3020069
:10DA700070B5FC30046C0500002C0DD124200BF097
:10DA80007FFF064B44608361054B8460C460046182
:10DA90004461C46103602864286C70BDD0A3020097
:10DAA000B8A40200104B10B5083303600F4B0400FC
:10DAB000C36080230E4A5B00C250C018FCF7B6FF5B
:10DAC00020000C4BB830E360FFF7B2FF2000AC3011
:10DAD000FFF79EFF2000A030FFF78AFF20006C3088
