:020000021000EC
:1080000000400020A9FE0100E5FE0100E7FE01009E
:108010000000000000000000000000000000000060
:10802000000000000000000000000000E9FE010068
:108030000000000000000000EBFE0100EDFE01006A
:10804000EFFE0100EDA90100B5FB0100EFFE01000C
:10805000EFFE010000000000A9FC0100EFFE01009E
:10806000EFFE01001DF7010019FC0100EFFE010009
:10807000EFFE0100EFFE0100EFFE0100EFFE010048
:10808000EFFE0100EFFE0100EFFE0100EFFE010038
:10809000EFFE010089F10100B5F30100EFFE0100E0
:1080A000EFFE0100EFFE01000000000000000000F4
:1080B00000000000000000000000000000000000C0
:1080C00010B5064C2378002B07D1054B002B02D0AE
:1080D000044800E000BF0123237010BD20220020CF
:1080E000000000002CA20200044B10B5002B03D0AE
:1080F0000349044800E000BF10BDC0460000000076
:10810000242200202CA20200164B002B00D1144B7D
:108110009D46402292029A1A924600218B460F46B3
:108120001348144A121A10F0F2FD0F4B002B00D026
:1081300098470E4B002B00D09847002000210400E8
:108140000D000D48002802D00C4800E000BF0CF0E4
:10815000DDF92000290010F060FB0CF0C1F9C046E9
:1081600000000800004000200000000000000000A7
:1081700018220020882A00200000000000000000D3
:1081800010B50400034B036040300DF040F92000AF
:1081900010BDC046A08F020007B5094800F01EF9C7
:1081A000084901A800F046FF782201A9064802F01C
:1081B0002FF901A80DF02BF900F066FD00200EBD8F
:1081C0003C220020B89B02002823002010B5054C5B
:1081D000200000F043F8044A0449200010F037FD65
:1081E00010BDC0463C22002000200020F18101008B
:1081F000EB23194A9B0010B5C2501C330400C01871
:108200000DF005F9F1239B00E0180DF000F984232F
:108210009B00E01801F076FA2000C530FF3000F036
:1082200095FF20008D30FF3001F032FA20006530DC
:10823000FF3001F02DFA2000EC3001F005FF2000A6
:10824000D03002F04BFA2000643007F0C5F8201D52
:10825000FFF796FF200010BD9C9102001423F0B59B
:10826000040095B0009319221821043002F00EFC8E
:10827000220027006432B43713211000119207F056
:10828000B7F838000EF06AF82200B83210921E21BA
:10829000002210980DF019FD2000D03002F03EFAB7
:1082A0002200EC3212920621494A129801F0F0FEA7
:1082B00020000026012365301A0000961121FF30AE
:1082C00001F0F2F920008D300096012302221A21DC
:1082D000FF3001F0E9F925002000C535B530FF3544
:1082E0001A2302220121FF3002F0D6FA109904234A
:1082F0003A22280000F0DAFF84229200A21813929A
:1083000005231D22019300923B002A001099139827
:1083100001F0EEFB96229200129BA01813992A00FE
:1083200001F0C0FD99229200A01839001C2202F031
:10833000D9FC19239F220F93013B0E93013B0D9310
:10834000013B0C93013B0B93013B0A93013B0993C7
:10835000013B0893013B0793013B0693013B0593C7
:10836000013B0493013B0393013B0293013B0193C7
:108370009200013BA01800930822013B07210DF059
:10838000ACFCEB239B00E018390003F04BF8F3231F
:108390009B00E0181D2102F0C5FAFD239B00E6506A
:1083A00011982670032110F068F9230022002000A4
:1083B00008499C33A0321C6011605660064A803028
:1083C0005A610221012207F021FD200015B0F0BD05
:1083D000A88F02005D500200475002000123F0B553
:1083E000067889B004001E4000D0ADE0FD20800575
:1083F00000F0DCFC2300D0331800029300F0B0FA48
:1084000000F0A6F9282000F009FD050010300DF05D
:108410008FF84E4B18202B6000F000FD07004C4BEE
:108420000460082231000C300693079610F06FFCB0
:1084300006A9381D082210F04EFC464B29007B612E
:108440001223AF60EE60AB802E626E62029802F083
:10845000DDF8002805D028000CF08FFF280000F080
:10846000FDFC0123227864201343237000F094FB69
:10847000002523006533FF33180003930DF003FA42
:1084800000283CD020008D30FF300DF0FCF9002892
:1084900035D00A2D33D06420013500F07DFB0A2D44
:1084A000E7D12D492D4800F057FCFD27EB23BF00F5
:1084B0009B00E618E359002B1AD100F05DF801008B
:1084C00004A800F0B7FD05A80CF03AFE012305AAA8
:1084D00004A900933000029B02F0F8FF05A80CF0FD
:1084E00096FF04A80CF093FFED239B00E358E351A3
:1084F0002100039AEC31300003F08EF9B9E7FD2535
:1085000015491648AD0000F027FC6659002E1BD116
:1085100000F032F8010004A800F08CFD05A80CF072
:108520000FFEEB239B00E01805AA029B04A900960E
:1085300002F0CCFF05A80CF06AFF04A80CF067FF5E
:10854000ED239B00E358635109B0F0BDFD0300002B
:10855000CF5002008F50020000200020001C00209D
:10856000BFF34F8F024B034ADA60BFF34F8FFEE732
:1085700000ED00E00400FA05F0B58DB005AF19225A
:108580001549380010F0A7FB0022144B05245A713E
:1085900080225205566E0122250001940292039317
:1085A0000199300007F090FD0800029907F006FDE0
:1085B000019B03996B430193029B361A6B43029311
:1085C000631E2C1B6C433C19225C1C1ECA54E7D151
:1085D00008000DB0F0BDC046FB9B0200B62900208C
:1085E000F0B597B018220021060010A810F08FFBFC
:1085F000132110A810F080F9032110A810F04BFAF5
:108600004C4B1B68002B00D10133DBB202934A4A6A
:10861000012300210BA807F033FB484B9E4200D9F1
:10862000002672B6464B64211D68464B3000079306
:10863000052407F04DFD60435030281808900A21AA
:10864000300007F045FD0A2107F028FE6143503154
:108650006918099130000A2107F020FE8023614348
:108660000024503169189B010A910193029B002B51
:108670005DD0002500272E1F07AB9B190593032C07
:1086800003D1802300249B01019307AB5B592E4A41
:1086900003936300D3180493002319000620584362
:1086A000049A16187678B4466246039EB25C102689
:1086B0009446049A105C62460641164202D001209C
:1086C000984001430133092BE8D1C9431F4B059A58
:1086D000090119401268039B934225D1312F23DCF5
:1086E00000210BA810F0A9FAFA23159A1199DB00C2
:1086F000106801421BD0013B002BF9D1019B0134D2
:108700005B000193FA230137E4B25B009F42B6D1CC
:108710000435102DAED1074B1B68002BA6D0029F4D
:10872000013FFBB20293A1E7019B1943D9E7FFF791
:1087300017FFC04638260020F0FF0000E7030000C6
:10874000042000204A9C0200149C0200F01F00003C
:10875000F8B50023124C23600CF013FD002808D05C
:10876000042120000CF009FD002801D00D4B2360EE
:10877000F8BD0122A12704250B4B0C491A60226881
:10878000FF0048604E68002EFCD0DE591202013D09
:108790003243002DF5D1226001225A60E8E7C0463D
:1087A00034260020ED5EBC0B00D00040FCD0004021
:1087B000F0B585B01F000AAB1B88060002911500BA
:1087C0000393002F1CD0282000F028FB6B460400E8
:1087D0001989039BAAB200933B000CF0B7FD3368E4
:1087E00021005B683000984700280AD0002C05D093
:1087F00020000CF0C2FD200000F030FB024800E039
:10880000024805B0F0BDC04616FCFFFF17FCFFFF95
:108810000B4B70B51C68002C10D0656D00F0C6FBCA
:10882000A36C002901D1834206D820000CF0DCFCA7
:10883000044920000CF0C6FC2C00ECE770BDC046DB
:108840004026002060260020F0B593B007932A4B05
:1088500004AC1E68049005910692002E4AD0274B66
:10886000258867881C6800230293002C2ED0636D36
:1088700023480393A36C9AB2A36C1B0C99B2854254
:1088800014D12048824211D1002B01D0B9420BD122
:10889000029B002B08D120000CF0A6FC1A492000F6
:1088A0000CF090FC01230293039CDEE7002A01D028
:1088B0009542F9D1002B01D0B942F5D120000CF03E
:1088C00093FC114920000CF07DFCEDE70F4BEB18F9
:1088D000012B0FD910233A00009329000C4B08A854
:1088E0000CF034FD336808A99B683000984708A84D
:1088F0000CF043FD13B0F0BD3C2600206C26002098
:10890000FE030000FF0300006026002002FCFFFFC2
:108910004988010010B572B60B4B1C68002C08D0BA
:1089200020000CF061FC0023E364084B2000E363AB
:1089300010BD62B65C2000F071FA5C2200210400D8
:1089400010F0E5F9EFE7C046642600200040002063
:10895000024B1878012318407047C046BC290020FC
:10896000F7B50600FFF7F4FF051E33D11A4C266059
:10897000FFF7D0FF194B1A4918600CF023FCFFF7E2
:10898000C9FF184B1860184B4363184B836320686A
:1089900000280ED0C027164E2A0033001549009734
:1089A000FFF706FF009733002A0013492068FFF7FE
:1089B000FFFE0C2000F032FA0023838083710F4BFE
:1089C00003600F4B836000F009FB01230D4A11780F
:1089D0000B431370F7BDC0463C26002070260020D4
:1089E0006026002068260020FC3F0020AF520200D5
:1089F00049880100FF030000FE030000C88F020049
:108A000011880100BC290020F7B506000D001700F1
:108A10000193002802D100242000FEBD0029FAD0D5
:108A2000FFF778FF041EF6D0074B019A43630660F8
:108A300045608760054B002A00D0054BA3630549BC
:108A400020000CF0BFFBE7E7FC3F0020795202005A
:108A50009752020060260020024B1868434258419A
:108A60007047C04660260020002310B504499C00D2
:108A70006258002A01D00133F9E76050100010BDA0
:108A800048260020002310B5044A99008C588442DF
:108A900001D00133F9E70020885010BD482600209E
:108AA00010B50024084BA200D058002802D003685B
:108AB0005B6898470134062CF4D1044B1B68002BEB
:108AC00000D120BF10BDC0464826002060260020EF
:108AD000F8B5FFF73DFF00281BD0294D2C68E36C4B
:108AE000DA0717D502263343E3640423254F386899
:108AF000C26C1343C364636BC3630CF09BFB3868A5
:108B0000416C03F086FA2868C36C334201D003F04D
:108B1000BAFAF8BD1C4F1D4E3A683168002A1ED1C2
:108B200029602A688A4208D11B0706D52C60FFF706
:108B3000B7FF3B68002BFAD02B6029688C42E8D045
:108B40003368994214D1124B4B63124B8B63200054
:108B50000CF070FB2968626C4B6C20000DE0206DFE
:108B6000B84203D1606D002800D002002A60D8E727
:108B70009C42ECD1002210004B6C03F009FAC8E7CC
:108B80007026002044260020602600206826002051
:108B9000FC3F0020AF52020070B50500FFF7D8FE81
:108BA000002803D128000FF06AFF70BD0C4B1C6831
:108BB000E36CDB0706D5FFF7ADFE0A4B1860002813
:108BC00000D0040000F0F2F92D18A56420000CF08C
:108BD0000BFB054920000CF0F5FAFFF779FFE4E7FD
:108BE000702600204426002040260020F0B51E4BB1
:108BF0001E4F1C683B6885B006000391002B30D0E7
:108C0000FFF7A6FE00282CD0E36CDB070ED5FFF79C
:108C100081FE174B051E186008D00CF0E5FA1549C7
:108C200028000CF0CFFA2C00FFF752FF039B200026
:108C30001B043343A3640CF0D7FA20000E490CF058
:108C4000C1FA0E4B0024F318012B07D9C02300935F
:108C5000039A0B4B31003868FFF7AAFD200005B0DE
:108C6000F0BD084CFAE7C046702600203C260020E4
:108C700044260020602600206C26002002FCFFFF16
:108C80004988010016FCFFFF10B5FFF761FE0028C0
:108C900009D0054C20680CF0A7FA044920680CF0B4
:108CA00091FAFFF715FF10BD702600206426002002
:108CB000F7B507000D0000282ED0FFF749FE002869
:108CC0002CD00724164E3068C36C1C4007D0154AC0
:108CD000290038000CF09FFA00242000FEBD03F0AC
:108CE000BAF902213268D36C1940019103D00321F3
:108CF0008B43D364F1E701242343D3642800B847AE
:108D00003268D36C1900A143D164019C5B07E4D5A0
:108D100028000CF0B8FAE0E7034CDEE7034CDCE790
:108D2000702600208752020017FCFFFF16FCFFFF91
:108D3000020010B5014B12CB12C210BD74260020E8
:108D4000034B1A68034B1A607E225A607047C04674
:108D5000042000207426002070B5104D2B78022BC3
:108D600018D0814218D90B1A072B15D90C000323F0
:108D700004431C4010D172B62A78094BD200D0505F
:108D8000981841600CF099FA2B7801332B7062B679
:108D9000200070BD0348FCE70348FAE7BD29002026
:108DA0007C26002013FCFFFF17FCFFFF70B500219D
:108DB000041C07F095FA002828D1FE21201C890503
:108DC00007F098FA002821D104300BF0C3FB05000E
:108DD0000F48401B08F06EFA211C07F00BFF07F04C
:108DE000BDFA03239843040028000BF0BDFB2000CC
:108DF0000BF0B0FB002804D1203C002CF7D1054833
:108E000003E00119FFF7A8FF002070BD0248FCE74E
:108E10000038002013FCFFFF17FCFFFF70B50600B1
:108E200000250C4B1B78AB4209DD0B49EB00C91840
:108E300030000CF04AFA041E09D10135F1E7300088
:108E40000BF088FB041E02D11420FFF7C9FB2000A1
:108E500070BDC046BD2900207C26002070B50028CA
:108E600013D00D4B0D491C7800239C4210DDDA0015
:108E7000555885420AD28A185268824206D9802300
:108E8000043802681B061343036070BD0133ECE72E
:108E90000BF06AFBF9E7C046BD2900207C260020C4
:108EA00070B5051E14DD0B4E0B4C3368002B02D041
:108EB00020680FF05FFCFA2120680024074B89002E
:108EC0008361C462694335600FF05CFC200070BDB3
:108ED0000348FCE78C260020BC260020898F010077
:108EE00017FCFFFFF8B5114F06003D68002D0AD1B1
:108EF0003020FFF793FF040006F09EFA0C4BA561AB
:108F00002360E5623C600B4D2B68002B09D11020DB
:108F1000FFF784FF04000FF0F6FB20002C600FF039
:108F2000CCFB3000FFF7BCFFF8BDC046BC260020DC
:108F300040950200B8260020014B18687047C046D3
:108F40008C26002070B50D4C2368002B03D00C4BF1
:108F50001B68002B02D10620FFF7C4FF20680FF02A
:108F6000C3FB02000749C3170D684E6852197341CD
:108F700020680A604B600FF0BDFB70BDB826002072
:108F8000BC2600201822002010B5FFF7DBFF0024CC
:108F9000054BA200D058002802D003681B689847F0
:108FA00001340A2CF4D110BD9026002010B5FFF733
:108FB000C9FFFA22034B920018685968002307F092
:108FC000ADF910BD1822002010B5FFF7BBFF024B12
:108FD0001868596810BDC046182200200B4B10B508
:108FE0001B680400002B03D0094B1B68002B02D127
:108FF0000620FFF777FF0023064A990088580028CB
:1090000001D00133F9E78C5010BDC046B8260020CE
:10901000BC26002090260020002310B5044A9900A9
:109020008C58844201D00133F9E70020885010BDEC
:109030009026002010B50400002902D00B78002BE8
:1090400003D1034B2360200010BD0CF0E7F9FAE7D1
:10905000D88F0200F8B504000E00150000290AD0D0
:109060000B78002B07D0002A05D0080097B20FF02C
:109070008EFE874203D90B4B23602000F8BD681D8C
:10908000FFF7CCFE20600CF0ABFA23682A005F806B
:1090900023683100181D0FF01EFE23685D190023A0
:1090A0002B71EAE7D88F0200014B03607047C0467E
:1090B000D88F020010B50548054C20600CF093FADB
:1090C000044A054920000FF0C2FD10BDD88F0200F0
:1090D000C0260020002000200F540200084B73B56A
:1090E0001C680500002C0AD00100266808310822FF
:1090F00068460FF0F0FD0CCD31682000884773BD45
:10910000C426002010B5054C012120000CF05FFAA8
:10911000034A044920000FF09AFD10BDC826002024
:10912000002000208B5502000388074A10B501205B
:10913000934208D0834202D00020DB0703D41E20D4
:10914000FFF74EFA002010BDFFFF000010B504002D
:10915000034B08330360FFF795FC200010BDC046A9
:1091600020900200FA2270B5438992005343314A9D
:1091700031491400050038348B421BDC2F498B42E7
:1091800018D82F49083C8B4214D82E49083C8B42F2
:1091900010D82D49083C8B420CD82C49083C8B42F6
:1091A00008D82B49083C8B4204D82A4914008B422A
:1091B00000D90834284B2A7B1E1D042A03D89E1C84
:1091C000022A00D81E00FA212068890006F0F6FE67
:1091D000337868812B7300222A2128000CF027FAAB
:1091E000002801D01D4870BD10222B2128000CF052
:1091F0001EFA0028F6D101222D2128000CF017FAC2
:109200000028EFD101222E2128000CF010FA0028AE
:10921000E8D172780E2128000CF009FA0028E1D17B
:10922000012223792A211A4328000CF000FA002891
:10923000D9D0D7E7E08F020000C409000071020016
:1092400080380100204E0000102700008813000025
:10925000C4090000E20400002A9E02000EFCFFFF89
:109260007FB515000F226A4404001E001170002D06
:1092700016D0002B14DD012301890093006B01F04F
:1092800041F9002802D0074804B070BD0090218940
:1092900033002A00206B01F0EBF80028F4D0F2E74D
:1092A0000148F1E70EFCFFFF17FCFFFFF7B50600D2
:1092B000002501931E4B143608330400036085809B
:1092C0008571C581058245820F0000922900182210
:1092D00030000FF01CFD1C2130000FF00DFB6B4621
:1092E0009B880221A3806B461B88220023811423C4
:1092F000A5712173A563A58763813E321378276327
:109300008B43F1310B401370230095729581013529
:10931000221DD5870833A21DD5872000DD87FFF7E2
:1093200021FF002802D1A3791D43A5712000FEBDB5
:109330002090020030B50425837987B004002B42C9
:1093400004D1FFF791FBA3791D43A571A36AA2691C
:109350001B6800251A4208D106236A460121200015
:10936000FFF77EFF051E03D0114D280007B030BD6A
:109370006B460222042069469A561856237BD20077
:109380005A43228202220978C00049B2C9005943D7
:1093900043436382A379E1819343A37120000CF0DE
:1093A00054F90123A1881A0002A80CF0CBF8DCE7DD
:1093B0000EFCFFFFF8B50400FFF7BCFF0E22A35E12
:1093C000794F5B42BB4251DA23003E331B789B0747
:1093D0004CD50125210028003E310B785A089043D6
:1093E00002000220AA40834313430B702000FFF7C2
:1093F000A1FF1022A35E5B42BB4248DA23003E334A
:109400001B785B0743D50125210028003E310B78EE
:109410009A08904382000420834313430B70260074
:109420002000FFF787FF1222A35E4836BB423EDAD8
:1094300023003E331B781B0739D5210001223E3122
:109440000B78D80882430820D200834313430B7063
:109450003378032B3BD80133DBB23370012B00D0C0
:109460008DE0230000224A331A8030E02000FFF70D
:1094700061FF0E22A35EC8225B4252000025934288
:10948000B4DD23003E331B789B07A2D5AEE7200056
:10949000FFF750FF1022A35EC8225B4252009342A6
:1094A000BDDD23003E331B785B07ACD5B7E720005A
:1094B000FFF740FFC8231221625E5B009A4204DD81
:1094C00023003E331B781B07B7D5002DC0D132785F
:1094D000002A14D02100270001254A310B883E378D
:1094E00001339BB20B803878AC46054055D01D2B1C
:1094F00005D963469843002338700B8033702000F1
:109500000CF00FF9294A0723904244DD2000FFF7B1
:1095100011FF0E23E25E264E52420323B2423ADB93
:10952000C8252000FFF706FF0E23E25EAD00524281
:109530000423AA422FDC2000FFF7FCFE1023E25E8A
:1095400002235242B24226DB2000FFF7F3FE102333
:10955000E25E01235242AA421DDC2000FFF7EAFE30
:109560001223E25E0523B24215DB2000FFF7E2FE84
:109570001223E25E0623AA420DDC00230BE0042B3B
:10958000A5D122003E321178033B0B431370002318
:109590004A3423800B331800F8BD092BAFD9013AA8
:1095A0000D803270ABE7C04670FEFFFFFF70020017
:1095B000E0FCFFFF70B5C369C1681A68451D8AB039
:1095C0000400EB7F114255D0002B58D1EB7F082BC4
:1095D0000DD90122A379134209D11343A371A188A4
:1095E000130006A80BF0AEFFFFF7E0FC2062EB7F54
:1095F000012B23D80123A2791A421FD00025A1886C
:10960000A571022202A80BF09DFFA31DDE7F012E93
:1096100014D1FFF7CBFC2B00226A801A99410090ED
:109620000191019BA188AB4203D1174B009A9A424A
:1096300027D90123042206A80BF084FF0322A37973
:109640001340012B14D1FFF7B1FC0023226A801ACA
:109650009941994202D10D4B984209D90223A2792E
:10966000A1881343A3710522012306A80BF06AFF0A
:109670000AB070BD0B2BA9D80133EB77A6E7013BED
:10968000FBE733000322D6E7E7030000DB05000019
:1096900010B50400034B08330360FFF7BDFC200046
:1096A00010BDC04638900200F0B5070000250E003E
:1096B00085B002930AAB1B7808370393104B040064
:1096C00008330360019285808571290018223800D3
:1096D0000FF01DFB039A310038000FF012F96B46B2
:1096E0006A469B88127AA380A31DE671DA77631D10
:1096F00025622000DD77FFF771FC200005B0F0BD8A
:109700003890020010B50400034B08330360FFF7E4
:10971000B9F9200010BDC046A89002007FB5150021
:109720000F226A4404001E001170002D16D0002B79
:1097300014DD012301890093C06B00F0E3FE0028D3
:1097400002D0074804B070BD0090218933002A0080
:10975000E06B00F08DFE0028F4D0F2E70148F1E75D
:109760000EFCFFFF17FCFFFF002330B585B003ACF4
:10977000217001890093050001332200C06B00F0C5
:10978000C1FE002802D0094805B030BD20802989DB
:10979000009002232200E86B00F06AFE0028F2D15C
:1097A000237860781B02184300B2EDE70EFCFFFF40
:1097B00013B56B46DC1D0023220023700133FFF735
:1097C000ADFF002801D1207816BD0148FCE7C04656
:1097D0000EFCFFFFD0B504000CF07DF8E268A36931
:1097E000981A09F0B5F906000F002369E069C01A5C
:1097F00009F0AEF932003B0009F0F8FC0022104BF2
:1098000008F0B6FB0F4A104B08F0B0F809F02CFA3C
:109810000021041C06F05AFD002804D0201C0B492E
:1098200006F076FE041C201C09F0CCF902000B00A7
:109830000020074908F00EFE09F054F9D0BDC046DB
:1098400000806640EA2E4454FB2109400000B443E6
:1098500000807640F0B5050085B0006C0BF0FEFF8F
:10986000061C286C0BF0F1FF0221071C28000CF0ED
:1098700063F80221039028000CF070F807F0D0FC88
:109880000221041C28000CF07BF807F0C9FC051C21
:10989000301C09F06DFC0290301C09F02BFC01908B
:1098A000381C09F065FC061C381C09F023FC071C59
:1098B000039807F0B5FC391C07F09CF9311C071C14
:1098C000201C07F097F9029907F094F9011C381C45
:1098D00006F01EFE311C071C281C07F08BF90199AD
:1098E00007F088F9011C381C06F012FE0299061CCC
:1098F000281C07F07FF90199051C201C07F07AF954
:10990000011C281C07F0A8FA311C09F073FC0D4952
:1099100007F070F909F056F90B4A0C4B08F026F8DD
:1099200009F0A2F90021041C06F0D0FC002804D0A4
:10993000201C044906F0ECFD041C201C07F050FC20
:1099400005B0F0BD0000B443EA2E4454FB21194099
:1099500070B50022102104000BF0AFFF1B4D002852
:109960002DD1032608212000FFF722FFA84226D090
:10997000304226D1FA216389890059435023144A81
:10998000D518D058884204D3D518083B18000830A1
:10999000F7D1FA212868890006F010FBA022608127
:1099A000112120000BF089FF002808D101222B791A
:1099B00010211A4320000BF080FF002800D003483C
:1099C00070BD6420FFF7E8F8CCE7C0460EFCFFFF4F
:1099D000509002007FB50425837904002B4218D1F2
:1099E00002260BF078FFA379A188B3432B43A37120
:1099F0000622012368460BF0A5FDA0790300304044
:109A0000AB43A37143425841034B4042184004B05A
:109A100070BD0248FBE7C04614FCFFFF15FCFFFFCA
:109A200010B5837904005A070DD49B0701D4FFF7C2
:109A3000D1FF236C2000002B02D0FFF70BFF10BDDD
:109A4000FFF7C8FEFBE70148F9E7C04615FCFFFF3A
:109A500070B5466C86B001AC050001916260A360F0
:109A6000002E0CD00B4905A8FFF7E4FA0C232200C6
:109A700005A930000CF0B1FC05A80BF0C8FC2B00C8
:109A80000C3307CC07C30223AA791343AB7106B08A
:109A900070BDC046309E0200642330B504000281D0
:109AA000438185B08180FFF753FF0222A379606C68
:109AB0009343A371002813D00C490CF055FC051EEC
:109AC0000ED001000C22103101A80FF004F9200083
:109AD0000199029A039BFFF7BBFF2800FFF7BEF92D
:109AE0000123A2791343A37105B030BD309E02005B
:109AF000F7B5009308AB1B880400019309AB1D88E0
:109B000000230F0016000D4A838008328371026023
:109B1000C360036143618361C36103621D2124301B
:109B20000BF0BEFE009BE7632664290020006364FF
:109B3000019AFFF7B1FF2000FEBDC046A8900200C9
:109B400082B0F0B50400A5B064202B932A920EF0E9
:109B500096FF04220C2109A802F0F6FA2422CC492F
:109B60001BA80FF0B8F8052206A811000DF003FDA0
:109B7000C84907A802F094FBA06800F081FBA56823
:109B8000C54918A8FFF756FA782218A9280000F04E
:109B900015FC18A80BF03BFC6E256420013D0EF06F
:109BA0006EFF002DF9D1A06800F06AFBA0680CF0F0
:109BB00087F8012160680BF0C8FD0121070060688B
:109BC0000BF0D6FD06000A200EF059FF0022B34B21
:109BD00003929F4210DB013203923A00C8320BDB42
:109BE000C822042192000391974205DC03220392CC
:109BF000C82F01DC013A039200279E420CDB3300A0
:109C00000137C83308DBC82303379B009E4203DCBF
:109C1000013FC82E00DC013F06A80DF0A3FC002682
:109C2000032373431BA9CA189078002805D0C95C88
:109C30005278FF2306A802F0C7FA01360C2EEFD1A6
:109C40006B463AB20C21595E06A8FF2302F0BCFA1B
:109C50000023A06800931A00743006A90DF092FC4E
:109C6000002304930323049A039853431BAA995C8B
:109C7000814237D1D31805935B78BB4232D1059B23
:109C80009E78002E2ED1310020680BF055FE07F093
:109C9000C7FA3200031C290009A80CF027FE310086
:109CA00020680BF05BFE07F0BBFA0122031C2900C1
:109CB00009A80CF01BFE310020680BF061FE07F0D4
:109CC000AFFA2900031C022209A80CF00FFEFE23A4
:109CD00003229B05290009A80CF008FE0123059A20
:109CE000ED189370049B013304930C2BBAD16420BC
:109CF0000EF0C5FE0B2D00DC5BE709A80CF0E2FDC1
:109D0000012201000CA802F01FFA002509A80CF09E
:109D1000D9FDA8423CDD2900002209A80CF0D4FDA1
:109D20000022061C290009A80CF0CEFD011C301CE5
:109D300006F060FF2900061C012209A80CF0C4FDF2
:109D40000122071C290009A80CF0BEFD011C381CCB
:109D500006F050FF311C06F0DBFB2900061C022236
:109D600009A80CF0B1FD02222900071C09A80CF07B
:109D7000ABFD011C381C06F03DFF311C06F0C8FB92
:109D80002900031C00220CA80CF0B0FD0135BDE732
:109D900009AA1100012318A80CF0C2FD18A90FA8E8
:109DA0000CF01BFE18A80CF0B2FD0CAA09A912A811
:109DB00001230CF0B5FD002312AA0FA915A80CF081
:109DC000AFFD002215A811000CF07EFD0022061C3C
:109DD000012115A80CF078FD0022051C022115A810
:109DE0000CF072FDFC21071C8905301C06F002FFF7
:109DF00007F0F6F9FC21060018908905281C06F0EA
:109E0000F9FE07F0EDF9FC21050019908905381CD1
:109E100006F0F0FE07F0E4F92A00030031001A9082
:109E20002068FFF715FEA0680BF04AFF07A908A8F5
:109E3000A5680DF08FFB0022194B009208A9019331
:109E40002800130000F05EFA08A80DF076FBFA2057
:109E500080000EF014FEA0680BF032FF15A80CF085
:109E600056FD12A80CF053FD0FA80CF050FD0CA8E5
:109E70000CF04DFD07A80DF060FB06A80DF05DFB92
:109E800009A80CF044FD25B0F0BC08BC02B018478E
:109E90003B9E02005F9E0200A49E0200E0FCFFFFCA
:109EA000DC050000F7B583601D4B05001F680160ED
:109EB0004260002F31D02820FEF7B0FF04001030A0
:109EC0000BF036FB174B18202360FEF7A7FF00228C
:109ED0000600154B01920560083200210C300093FA
:109EE0000EF015FF08226946301D0EF0F4FE0F4BF0
:109EF00000227361C223A3803B68E260A6602262F5
:109F000062625B68210038009847002805D0200075
:109F10000BF033FA2000FEF7A1FF2800FEBDC0467B
:109F2000C426002005000600419B0100995902004B
:109F3000F0B5040085B0637A9C46002B04D1200064
:109F40000BF055FD05B0F0BDA37A266F01931023E9
:109F5000019AF35600259B1801229A402900F368C4
:109F600003920293029BAB4231DDB368019A6B43CB
:109F70009B1872695B00E77AD3181A785878E379EE
:109F8000012F14D15F1E3F1A10003A005B004343BB
:109F9000606F8218D3189B79634500DD6346627B4E
:109FA0001A4202D00123AB4019430135DAE7022FF0
:109FB00005D15F1EBA1A277A013F381AE6E7032F48
:109FC000E4D1277A013FBF1A02003800DEE71123EF
:109FD000C943F356606C994023691940039B1943A8
:109FE0000EF02BFEA27B072AACD8637B0C495B00EA
:109FF0006373531CDBB290004158A373022A03D849
:10A0000008000EF031FD96E7064B20002363002385
:10A010006363054BE462236414300EF0B3FB91E7F5
:10A02000C0900200319F0100D959020010B5040010
:10A03000044B03600EF09EFB200005F013FA200095
:10A0400010BDC0464095020010B504000E4B083309
:10A050000360FEF7E1FF200074300DF06EFA20007F
:10A0600060300DF06AFA200058300BF0D0F9200073
:10A0700050300BF0CCF92000044B14306361FFF733
:10A08000D5FF200010BDC046E0900200749502008C
:10A09000F8B500250400324B8580083303608571D4
:10A0A000143016000F0005F0C7F920002D4BE562B3
:10A0B000636125645030FEF7F7FF20005830FEF74B
:10A0C000F3FF2000603002F079F820000423F25EF4
:10A0D00033682667590009B274300DF04CFA3368C2
:10A0E000226FE37173680126237210236581A780B4
:10A0F0002561D35691685918994204DD3000984083
:10A1000001330543F8E711230120D356D1685918CC
:10A11000994206DD02009A402669013332432261EA
:10A12000F6E71420FEF77AFE226900212A43012374
:10A13000060005F0A5FDFF23220063720133A38111
:10A14000002348326664A37320001370A366FEF7F1
:10A1500045FF0123A27920001343A371F8BDC04637
:10A16000E090020074950200F0B5437A85B00400D7
:10A17000002B04D120000BF03AFC05B0F0BD012209
:10A18000837A11009C461023066F0025F356039234
:10A190006344994002912900F3680193019BAB420B
:10A1A0002CDDB36872696B4363445B00E77AD318B4
:10A1B0001A785878E379012F10D15F1E3F1A1000EA
:10A1C0003A005B004343606F8218D3189B79002BE1
:10A1D00002D0039BAB4019430135DFE7022F05D1C5
:10A1E0005F1EBA1A277A013F381AEAE7032FE8D12F
:10A1F000277A013FBF1A02003800E2E71123C94362
:10A20000F356606C994023691940029B19430EF084
:10A2100014FD667AB31EDBB2FC2B14D8FEF78CFE5D
:10A220000B4B0500236300230A4863630A4BFF219D
:10A23000E4622364704305F04BFF29004143200092
:10A2400014300EF09FFA637A012B00D995E791E75D
:10A25000EF590200B6030000D95902001FB50123CF
:10A2600081881A0068460BF06DF9012303491A0032
:10A2700068460BF067F905B000BDC046FE0300005C
:10A280001FB5030048331A780400002A0DD00022BD
:10A290001A70012381881A0068460BF053F90123D4
:10A2A00004491A0068460BF04DF9200074300DF097
:10A2B00059F91FBDFF03000010B548300378002B8B
:10A2C00006D00378012B03D0012102480AF0CBFF0E
:10A2D00010BDC046FF03000010B501210400062098
:10A2E0000AF0C1FF064B984208D148342378002B6E
:10A2F00004D02378012B01D020BFF7E710BDC04662
:10A3000016FCFFFF73B5079C0500002C1CDB060044
:10A3100048363078002802D03078012816D10698C7
:10A320001BB2C0B20090280012B274300DF02AF9AE
:10A33000002C07D02B004A331C80002407234C3507
:10A340002C803370200076BD014CFBE7014CF9E70F
:10A3500017FCFFFF12FCFFFFF0B587B00D9C060055
:10A360000F0002920393002C20DBFFF7A5FF3300C0
:10A3700048331D78EDB2002D1AD1390005A80DF033
:10A38000E9F80C9B01940093029A039B05A9300005
:10A39000FFF7B8FF05A80DF0D0F8002C03D030006F
:10A3A000FFF79AFF2C00200007B0F0BD014CFAE740
:10A3B000014CF8E717FCFFFF11FCFFFFF8B50400A4
:10A3C000171E1DDD060048363378002B02D0337887
:10A3D000012B17D12200E3795632013B1370230081
:10A3E0000025200054331D8050300BF06FF82300FF
:10A3F0004A331F80022328004C3425803370F8BD77
:10A400000148FCE70148FAE717FCFFFF12FCFFFFD9
:10A41000F7B505000F00161E18DDFFF74DFF2B00E6
:10A4200048331C78E4B2002C12D1390001A80BF09B
:10A4300045F8320001A92800FFF7C0FF01A80AF083
:10A44000E6FF2800FFF748FF2000FEBD0148FCE7BB
:10A450000148FAE717FCFFFF11FCFFFFFF2902D8B4
:10A460004172002070470148FCE7C04617FCFFFF1F
:10A47000F0B51F0085B00AAB1B780400039300936E
:10A480003B000D0016000EF0A3F9002833D0237D09
:10A49000082B2DD8236800221900FC318A62A021E4
:10A4A000C9005A50154905205A500138C046C046C7
:10A4B000C046C046C046C046C046C046C046C0466C
:10A4C000C046C046F1D1236801325A50A02104325F
:10A4D000C9005A5005F0C0F8039B320000932900D0
:10A4E0003B0020000EF074F9237D01332375CCE787
:10A4F000034805B0F0BD2075FBE7C046FC0F000027
:10A500000EFCFFFFF0B51F0085B00AAB1B780400FE
:10A51000039300933B000D0016000EF041F9002854
:10A5200033D0237D082B2DD8236800221900FC315D
:10A530008A62A021C9005A50154905205A50013895
:10A54000C046C046C046C046C046C046C046C046DB
:10A55000C046C046C046C046F1D1236801325A50B9
:10A56000A0210432C9005A5005F076F8039B32004E
:10A57000009329003B0020000EF012F9237D0133E7
:10A580002375CCE7034805B0F0BD2075FBE7C04656
:10A59000FC0F00000EFCFFFFF8B50D1E30D00026AA
:10A5A0000227C468002C28D0AA88A38853403B42C5
:10A5B00004D13A4204D1AB883B4219D0646AF1E736
:10A5C000A968A0680CF06DF90028F4D02B88002B46
:10A5D00002D022889A42F1D16B88002B02D0628887
:10A5E0009A42EBD1A288074B01361343A380E5E7DB
:10A5F000A368AA689342E1D1E8E72000002E00DCBE
:10A600000148F8BD0080FFFF17FCFFFFF0B5060012
:10A6100085B00D1E59D00127C468002C22D002211C
:10A62000AA8800230A4202D0A3885B083B40226824
:10A6300029688A4210D1A068A968002B0AD00CF0C2
:10A6400030F9002808D0A3881AB2002A06DB204877
:10A6500005B0F0BD8842F6D0646ADEE75B045B0CAF
:10A66000A380F4E7F0682A88002807D1F560012369
:10A67000184968460AF066FF0020E9E70100030078
:10A680001C88944206D25C6A1900002C0DD023006D
:10A69000F6E723001C88944207D15F886C88A742A4
:10A6A00003D25C6A1900002CF3D1814209D10B88D6
:10A6B0009A4204D305D148886B88984201D96962CF
:10A6C000D4E74B6A6B624D62D1E70348C0E7C046EE
:10A6D00016FCFFFFFD03000017FCFFFF064B10B543
:10A6E0001A00040008322C33026043600430FEF785
:10A6F000C9F9200010BDC046F890020008B4024B12
:10A700009C46043808BC6047DDA6010008B4024B33
:10A710009C46043808BC6047015E02000C4A0023D6
:10A7200011002C32083110B5038183724260C3607E
:10A73000036143614383016004000430FEF794F930
:10A74000044B1A68002A00D11C60200010BDC046CE
:10A75000F8900200C4260020F7B50E000125C46859
:10A760000192002C36D0238832889A4201D0002BE7
:10A7700023D1638872889A4201D0002B1DD1FEF745
:10A78000E7F80123002806D0C022A3881340C03B6D
:10A790005A425341DBB2019A934219D1A7883BB286
:10A7A000002B15DB10223100A0180EF094FA402384
:10A7B0001F4204D020000BF02CFB646AD1E7FEF7A7
:10A7C000C7F80028F6D021000348FEF771FAF4E735
:10A7D0000025F2E72800FEBD135E020008B4024B1C
:10A7E0009C46043808BC60479B5F0200F0B587B008
:10A7F00001930EAB1B88060003930D9B0D00009385
:10A80000019B02920C9F002B3DD0002F02D1009B98
:10A81000DB0738D52820FEF701FB040010300AF0D2
:10A8200087FE6B461B89258063801820FEF7F6FAA9
:10A830000500009B08220593019B002103600C305A
:10A8400004970EF064FA082204A9281D0EF043FABA
:10A850000E4B02226B6100230399E3602362636263
:10A8600033680A43A560A2805B68210030009847E6
:10A87000002806D020000AF080FD2000FEF7EEFA46
:10A88000034807B0F0BD0348FBE7C046D55F0200B0
:10A8900016FCFFFF17FCFFFFF0B5040016000025B3
:10A8A0008380164A164B85710260218146810573AB
:10A8B000186889B08C46A8421DD0124A05950492AA
:10A8C000C02202926A4604AB82CB82C223002A00D5
:10A8D0006146FFF78BFFC022094B0A4918680292B4
:10A8E0006A46069106AB079582CB82C223002A00F6
:10A8F0003100FFF77BFF200009B0F0BD3C91020062
:10A90000C4260020FF60020030B500240373012339
:10A91000034D84710560818082734373846030BD10
:10A920005491020070B5040000250C4B0E00083352
:10A93000858085710360210018300BF098FC2000A1
:10A94000210020300BF0B6FC054BA680E580257277
:10A95000E5602561656120001C6070BD64910200A6
:10A96000CC2600208379DB0702D5C1600020704728
:10A970000048FCE716FCFFFF8379DB0701D5C068C0
:10A9800070470148FCE7C04616FCFFFF70B54569FB
:10A990000400002D22D0037A032B21D8FFF7ECFF0F
:10A9A000A8622C20FEF73AFA2C22002105000EF0B6
:10A9B000AEF9002263695A622369934208D1636940
:10A9C00023610020237A65610133237270BD130077
:10A9D0005A6A002AFBD162695A62F2E70148F5E738
:10A9E0000148F3E717FCFFFF13FCFFFF144B70B5A2
:10A9F0005A68144C002A03D000225A600132A26027
:10AA00001A69002A17D0002119618023DB000E4D3E
:10AA1000E3582868012B0FD1A923DB00E1584942F4
:10AA2000FFF7A0FF2868FFF7B1FF2B685A69074BB3
:10AA3000E2500123A36070BDFFF794FFF9E7C04621
:10AA4000FC10004000100040CC260020040500004F
:10AA500003000069002809D00221054AD167426A33
:10AA60001A611A7A013A1A72024B19607047C0468D
:10AA700004E100E000E100E010B5002903DB024B37
:10AA800019600DF0F5FE10BDD026002070B5040051
:10AA90001E0004AB1D7804F017FD20000E4B403063
:10AAA0002360FEF701FB230001364C330135220001
:10AAB0001E701D730023E1214E32A3646365138071
:10AAC00053809381D381013B200063644902FFF7E7
:10AAD000D3FF200070BDC046A08F0200F7B58027CD
:10AAE0007F053D697C690822113C6C43060021000A
:10AAF00068460EF0F0F8104B009A9A4219D0009375
:10AB00000023019379693000133969430BF0E7FBA7
:10AB1000019A009930000BF0FAFB210030000BF095
:10AB2000DEFB7969AB0813396943220030000BF072
:10AB3000E0FB0198FEBDC046FECA0000F0B50D0066
:10AB4000A9B00D9200213022060010A80B930EF040
:10AB5000DEF828000EF01BF9431C0C93102B00D9D3
:10AB6000B5E00B9B202B00D9B1E0290030000BF0A1
:10AB7000FBFB071E50D129000C9A10A80EF0ABF871
:10AB80000D990B9A14A80EF0A6F880235B051A699C
:10AB90005F690C92113F7A4330005D690B92FFF7B9
:10ABA0009DFF3022002104001CA80EF0B0F82900FF
:10ABB00000270C9B1339594330000BF090FB0D9785
:10ABC00030257D430B9B0833ED18A74242DA29005C
:10ABD00030221CA80EF07FF810A91CA80EF0CDF8AA
:10ABE000002827D13C49300022000E910F940BF031
:10ABF0008EFB6A46099513AB23CB23C223CB23C21A
:10AC000023CB23C23000129B1099119A0BF08DFBBD
:10AC100001230D930137D3E710300B9A0D990EF0F5
:10AC20004BF804003800FEF719F9002CA3D12000DE
:10AC300029B0F0BD6A4609951FAB23CB23C223CBB5
:10AC400023C223CB23C230001C991D9A1E9B0BF0FC
:10AC50006CFBDFE7E5433023ED1725405D430B9B9D
:10AC600008355D190D9B002B1DD10C9B3021981EC2
:10AC700005F0A4F9A0422CD017490134300022007D
:10AC80000E910F940BF043FB6A46099513AB23CB4F
:10AC900023C223CB23C223CB23C230001099119AA5
:10ACA000129B0BF042FB0B9930000BF018FB80233A
:10ACB0005B0559690C230C9A133963434A430233E9
:10ACC000110030000B9A0BF014FB0024AFE7034C8B
:10ACD000ADE7034CABE7C046FECA000017FCFFFF20
:10ACE00013FCFFFF70B50400A280FA2200230800C5
:10ACF0000C49920008312160A3716061E260A36099
:10AD0000638209490BF030FB051E09D001002000C9
:10AD10001031022212300DF0DEFF2800FEF79EF8FF
:10AD2000200070BD7C910200B29E020030B5022569
:10AD3000837987B004002B4204D1FDF795FEA379F7
:10AD40001D43A57120000BF059FB00281CD06B4659
:10AD5000DD1C28000BF049FB2B78002B17D001A835
:10AD60000BF041FB0321019AD3170B409B189B105A
:10AD70002382FEF71BF9E368A18818180123A0605D
:10AD80001A0002A80AF0DEFB002007B030BD012245
:10AD9000064B1A60064A51680029FCD00021516018
:10ADA000044A1268019201225A60DBE700C00040A9
:10ADB000FCC0004008C50040022802D10122014B1E
:10ADC0001A707047BE29002070B5064C0500237824
:10ADD000002B04D1044801F083FC012323702800D8
:10ADE00070BDC046BF290020B9AD010070B50C0090
:10ADF0000AF0C7F9002810D00023144DA40A2B70C4
:10AE000020000BF00FFB002803D00A200DF037FEC6
:10AE1000F6E72B78002BFCD070BD02210C4B0D4ABD
:10AE200099508021C90008005D58002DFCD0A12157
:10AE3000C9005C5019580029FCD00021995080218C
:10AE4000C9005A58002AFCD0E6E7C046BE290020B7
:10AE500000E0014004050000F8B50C0015001E00DC
:10AE60000AF08FF9002811D00023174F3B703200F1
:10AE7000290020000BF0D4FA002803D00A200DF09E
:10AE8000FEFDF4E73B78002BFCD0F8BD01210F4814
:10AE90000F4B844619508021C9005A58002AFCD013
:10AEA00080270022FF00964207DD9100685860501D
:10AEB000D9590029FCD00132F5E7002261465A50E9
:10AEC000DA59002AFCD0E0E7BE2900200405000082
:10AED00000E0014010B50400054B083303601C304E
:10AEE0000AF095FA200018300AF091FA200010BDFF
:10AEF00094910200FF23F0B52C4D8DB02B700023F0
:10AF0000040069460088009303F06EFB002802D11C
:10AF10006B469B782B70264E3368DB68002B07D17D
:10AF2000002320881A0019000BF080FA0DB0F0BD44
:10AF30002B78032BF4D81F4901A8FEF77BF8336860
:10AF400001A9DE6804A80AF0B9FA04A930000BF0E0
:10AF50003EFA0027060004A80AF059FABE421ED0A5
:10AF600031002022103104A80DF0B5FE3000FDF7AD
:10AF700075FF297804ABC9005918082202A80DF002
:10AF8000AAFE20880123082202A90BF04FFA0137FC
:10AF9000002804D12088084A0C210BF045FA01A8AA
:10AFA0000AF035FA002FBBD0C0E7C046F0210020E0
:10AFB000E0260020C29E0200FFFF0000F0B583796A
:10AFC00091B004005B071BD5FDF7F0FF0023226959
:10AFD000801A9941994203D1F423FF3398420FD943
:10AFE000A068002808D0364B1D880CF06AFB036867
:10AFF00015221B6A290098470422A3799343A37161
:10B00000A3799B0759D52F4D2B68DB68002B50D0B7
:10B010002D4B1B78032B4CD8294B2C491B8804A89B
:10B020000193FEF707F82B6804A9DE6808A80AF068
:10B0300045FA08A930000BF0CAF9070008A80AF081
:10B04000E6F902AB9E1D08233200338006A9073BB8
:10B0500001980BF0EDF9002F08D0390020221031B3
:10B0600008A80DF038FE3800FDF7F8FE164B3288C0
:10B070001B7806A9DE0008AB9E1930000DF01CFEFF
:10B08000002813D0082206A930000DF024FE2B68FA
:10B0900004A9DD6805A80AF011FA202308AA05A969
:10B0A00028000BF09AF905A80AF0B1F904A80AF0F3
:10B0B000AEF90222A3799343A37111B0F0BDC0464B
:10B0C00068290020E0260020F0210020C29E020016
:10B0D000F7B5089E0500152922D8012007008F40EA
:10B0E000244C27421CD0E97FCC181F2C41DC691866
:10B0F0003418A14210D80021C8B2834204D9545C4C
:10B10000701884700131F7E732789A183270EA7F4C
:10B110009B18EB7700202CE00878C8540139E8E749
:10B120003478013CE4B2A34208D10023D9B28C4266
:10B13000F0D9D05CF11888700133F7E7EF7F012078
:10B14000FF183F1B1F2F14DC0227A01C7F4236185C
:10B15000381B0190E87F2F18BE4204D23078019F3F
:10B16000F0550136F6E7041B023CEC7728000BF0A3
:10B17000A9F9FEBDFC002000F0B585B001930AAB33
:10B180001E880BAB1B78451C02930EAB1B7804008A
:10B1900003930B78170003704B8A1022438201310E
:10B1A00028000DF098FD6B469B88268363836B46D1
:10B1B0001B7B002623776B4601221B7A6761E6839F
:10B1C000EB77A31CDA770C9B0C256362230020002D
:10B1D0000D9A28331A705E709E702A0031002C3050
:10B1E0000DF095FD2000074BE663A3632A003100B4
:10B1F00040300DF08CFD2000034B2665E36405B064
:10B20000F0BDC046476402003964020070B50D000D
:10B210000CF057FA04000368002D09D15B699847C8
:10B22000FA2080006843074904F0C8FEE08070BD42
:10B230009B6898478542F3D2236820009B68984713
:10B240000500EDE771020000F0B507001600A1B09F
:10B2500002C704006B4918A81D000BF07AF9331ED1
:10B2600003D030000DF093FD83B20122049200223E
:10B2700003920292023201920093320018A9380020
:10B28000FFF77AFF23006049583318A807930BF0A3
:10B2900060F92B1E03D028000DF079FD83B2012246
:10B2A00004920022039202920232019200932A0039
:10B2B00018A90798FFF760FF23005449AC3318A87A
:10B2C00008930BF046F9269B002B03D018000DF0D5
:10B2D0005EFD83B2012204920022039202920232A6
:10B2E00001920093269A18A90898FFF745FF631C5E
:10B2F000FF33474918A809930BF02BF9279B002B24
:10B3000003D018000DF043FD83B201220492002205
:10B31000601C03920292023201920093279A18A9AC
:10B32000FF30FFF729FF23005533FF33394918A8B1
:10B3300009930BF00EF9289B002B03D018000DF099
:10B3400026FD83B20122049200220392029202326D
:10B3500001920093289A18A90998FFF70DFF23007E
:10B36000A933FF332C4918A80A930BF0F2F8299B54
:10B37000002B03D018000DF00AFD83B201220492C5
:10B38000002218AD03920292023201920093299A90
:10B3900029000A98FFF7F0FE204B1B780B93002B37
:10B3A0002DD1079B12971393089B0DAF1493631C29
:10B3B000FF331593099B1A4916930A9B380017937C
:10B3C0000BF0C7F81D2149203B7810222B707B8A97
:10B3D00012AE6B8206ABC918C0180DF07CFC0623B8
:10B3E0002B756B469B8D2068AB83AE610CF06DF9BD
:10B3F000036829001B6898470122084B1A70200037
:10B4000021B0F0BD292A0000242A0000252A0000CE
:10B41000272A0000262A0000282A0000C029002030
:10B420000A18000070B5002504000A4B8580083317
:10B4300085710360C1601830FDF736FE20001C30B6
:10B44000FDF732FE044BA5601C60012365612000FE
:10B45000A37170BD94910200E0260020FA2130B55E
:10B4600085B0050001230222890068460AF06AF8C7
:10B47000074C2068002809D00BF0A4F82988054B58
:10B4800022681980022391790B43937105B030BD76
:10B49000E02600206829002010B50C0007290DD8EF
:10B4A00080680CF00EF9064B195703685B6C9847DF
:10B4B000431E9841034B4042184010BD0248FCE730
:10B4C000BA9E020016FCFFFF17FCFFFFF0B5A44C6C
:10B4D0000D00A544040007939AAB1B78A14909A865
:10B4E00004930692FDF7A6FD200029001C3009F008
:10B4F000EDFFC020800001F0E9F80820FDF78EFC88
:10B500000600002100F0D0FF15ADA66000210C223E
:10B510000EA80DF0FCFB2B000EAA83CA83C3924B2E
:10B520002900EB60002330002B610CF0B3F8A06819
:10B530000CF0C7F808220021059016A80DF0E7FBD3
:10B540001420FDF76BFC29000200884B1593C8C935
:10B55000C8C2874B059EC3600023A43603613368CD
:10B56000002B00D0F5E03060A0680CF0AEF80822A7
:10B570000021060016A80DF0CAFB1420FDF74EFCB2
:10B580007C4B1593030086CD86C37B4BC3600023A1
:10B590000361336B002B00D0DDE03063A0680CF05A
:10B5A00090F808220021050016A80DF0B0FB142029
:10B5B000FDF734FC714B15AE1593030086CE86C3A0
:10B5C0006F4B9835C360002303612B68002B00D0BC
:10B5D000C3E02860012504AB1B7C04AA2B4308A907
:10B5E000280013740AF026FFA0680CF072F80368B4
:10B5F00064495B6A9847A0680CF06BF8036862497D
:10B600009B699847A0680CF064F8002302680093D7
:10B61000166804992A00B047049B002B0AD020002A
:10B620000AF0D9FF032805DDA0680CF052F8036882
:10B63000DB6898470EA80AF03CFF2F2004ABC01827
:10B640000AF037FF362004ABC0180AF032FF3D2065
:10B65000042504ABC0180AF02CFF0EAB0A93A068B7
:10B6600004AB5D770CF035F803680AA91B699847AD
:10B67000A0680CF026F803680AA95B6D9847A068DB
:10B680000CF01FF803680021DB6D9847A0680CF0F0
:10B6900018F8036802219B6D984700212000FFF7EE
:10B6A000FBFE1820FDF7BAFBA16800F005FA374B46
:10B6B000374A1B68A1680393364B15A81B68002600
:10B6C0000293354B0CAF1B680193069B1B685B19FB
:10B6D0000093324B12681B68FFF7B6FD3020FDF770
:10B6E0009DFB079AA16800F0A7FAA0680BF0E9FF9C
:10B6F000036839009B6A9847294BBE80A0680C9369
:10B700000BF0DFFF03683900DB6A98472900A06867
:10B710000AF02BFF099A09219378A06852190AF0C0
:10B7200037FFA0680BF0CDFFC8210671A068FFF7B6
:10B730006DFD04AB1B7FB34204D0A0680BF0C1FFCA
:10B740000AF0FDFE09A809F062FE95239B009D44C6
:10B75000F0BD036107E703611FE7036139E7C046F6
:10B76000ACFDFFFFB59F0200556402005DB401000F
:10B7700063640200F5AE0100716402009F64020080
:10B780007F640200A5B70100D9B70100DC260020C4
:10B79000D826002008200020D42600200C200020DD
:10B7A0000800100013B506226846FDF753FC094B4C
:10B7B0001C68002C0AD0694601A809F07FFE200011
:10B7C00001A90AF029FF01A809F021FE684609F045
:10B7D0001EFE13BDE0260020002373B501AE0C0051
:10B7E00031000500019302F0FFFE002802D1B2787B
:10B7F000064B1A70064B1868002806D0614261415A
:10B80000044BC9B21D800AF00FFF73BDF021002068
:10B81000E026002068290020F0B5040097B00391CD
:10B8200007A89C490592FDF705FC9B4908A8FDF770
:10B8300001FC22000FAD28001C3207A909F055FEBB
:10B8400008AA290009A809F050FE280009F0DFFD28
:10B8500092490AA8FDF7EEFBA0680BF032FF0368DF
:10B860000DAE5B69984728000AF023FE332004AB35
:10B87000C0180AF01EFE3A2004ABC0180AF019FEE8
:10B88000412004ABC0180AF014FE8023DB00B38013
:10B89000A0680D950BF015FF036831005B6D9847AC
:10B8A000A0680BF00EFF036800219B6D9847A0680D
:10B8B0000BF007FF0700002506000A371F220021B2
:10B8C00038000DF024FAFD7730000AF02FFE062133
:10B8D000A0680AF04AFE099A09219378A068043208
:10B8E0000AF056FEA0680BF0ECFEC8210571A068B6
:10B8F000FFF78CFCA0680BF0E4FEFF272E0005810B
:10B90000A0680BF0DEFE0AF01AFE0398FEF7B8FC02
:10B910000AA90CA809F0D2FD78220CA90398FEF719
:10B9200077FD0CA809F073FD039920000AF08FFE43
:10B930002000FDF799F80495012563691D402DD07D
:10B9400057490BA800F0ACFC0BA90CA80BF002FEA9
:10B9500000220CA91300019200920398FEF7FCFC50
:10B960000CA80BF0EAFD049B002B42D1043F282FCA
:10B9700041DD0025FE2F00DC049D059809F083FFC2
:10B98000002806D0012362699A431300042213435E
:10B99000636100260BA80BF0D0FD049504226369B7
:10B9A000134233D0FF210398C826FEF757FD002528
:10B9B000B600A36902229B5EAB4222DD200029B2C1
:10B9C000183009F0A8FD0023010003981A00743014
:10B9D00000F0B6FC3000FDF7DFF803980AF070F9CC
:10B9E000C820FDF7D9F802226369134209D1013555
:10B9F000DFE70437BBE703980AF062F9002FBCDDEC
:10BA0000BAE7FA208000FDF7C7F80026022365692F
:10BA10001D421CD006331D4024D022490BA800F043
:10BA20003FFC0BA90CA80BF095FD00220CA901927C
:10BA3000009213000398FEF78FFC0CA80BF07DFD1D
:10BA40001948FDF7A9F80BA80BF077FD174E6420F5
:10BA5000FDF7A2F8164B01369E4200DC6CE709F0B8
:10BA6000A2FB69E713490BA800F01AFC0BA90CA86C
:10BA70000BF070FD2B002A000CA90195009503988E
:10BA8000FEF76AFC0CA80BF058FD0BA80BF055FD57
:10BA9000DDE7C046CE9E0200DE9E0200E09E020070
:10BAA000EE9E0200339F0200983A00008C0A0000CC
:10BAB0008B0A0000709F02000022594BF0B508333A
:10BAC000060003600F001000A9B0B1600BAB99181D
:10BAD00001324870102AFAD10F3A524C1A700E32C5
:10BAE000105D991A0874013AFAD2997B5A7B0902BF
:10BAF0000A4331000C31039125211B7813AD2B70C3
:10BB000002ABC918452302A81B186A82180010222C
:10BB10000DF0E1F8039B64216B610123002402AA6C
:10BB20002B7752181993093313701DAB1C706D23BA
:10BB300002AA9B181C706E2321009B181EA80C22C1
:10BB4000EC836C621C700DF0E2F8374B0C22210084
:10BB500023A8AB63EC630DF0DAF8344B02AAEB6474
:10BB600046239B180322DA7722002C65059534734F
:10BB700006AD2B1901345A70102CFAD101232C4830
:10BB80002B700E33195CEA1A1174013BFAD21121A1
:10BB90002520AA7B6B7B12020BAC13432A786382AD
:10BBA00002ABC9182270C01810220DF094F80123BE
:10BBB000237505ABA36100233800A3830BF085FD3B
:10BBC000036821001B68984713ABDB8BB068B38216
:10BBD0000BF07BFD002203680092B18A039ADC68B7
:10BBE0000123A047B0680BF070FD07001420FDF79B
:10BBF00015F90022012304000261069240C00832B8
:10BC0000290007930DF067F80A4BE360BB69002B2E
:10BC100003D13000BC6129B0F0BD2361F9E7C04613
:10BC2000AC910200D49F0200476402003964020014
:10BC3000E49F0200AF660200F0B500260400734BDB
:10BC4000DDB0083303608160C26086808671320097
:10BC50006F4947A80AF0CBFD2300143301250427C0
:10BC600008931223009704950193089A330047A97B
:10BC7000039602961DA8FFF77FFA3200654947A890
:10BC80000AF0B5FD082022000097330015AF1032EE
:10BC90000495019047A90396029632A8FFF76CFA23
:10BCA00032005D4938000AF0A2FD2300082004227A
:10BCB0001C330993390033000495019000920396D8
:10BCC000099A029647A8FFF757FA320053493800FD
:10BCD0000AF08DFD5420FDF7A1F805002000012396
:10BCE0001221042218300790049301910092390028
:10BCF00002003300280003960296FFF73DFA280061
:10BD0000474BA5620822EC620AA930300A930B96D1
:10BD10000CF0E1FF434B0422AB63012329352B7068
:10BD200009992661E66107980CF0D5FF042207996E
:10BD300008980CF0D0FF6621032304AA8918CB775A
:10BD4000BA2104AA8918CB77872104AA4900891847
:10BD5000A26ACB77911CA685CB771DAB0C9332AB37
:10BD60000D930F9247AB32002F4910A80E930AF0A3
:10BD70003EFD3021452004AB5B181B7812313B702F
:10BD800004AB5B181B8811397B8204ABC918C0183F
:10BD900010220CF0A0FF04220CADA0683A75BD6122
:10BDA000BE830BF092FC036839001B68984782221F
:10BDB00004AB9B181B885432238404AB9B181B884C
:10BDC0005432A38404AB9B181B88A06863840BF0D7
:10BDD0007CFC07001420FDF721F80500134B0661D9
:10BDE00008221093119610A910C00CF074FF104B8C
:10BDF000EB60BB69B34206D1BD612000FCF734FEA5
:10BE000020005DB0F0BD2B61F6E7C046B89102009E
:10BE100014A00200F49F020004A0020024A002006B
:10BE2000C16702002D67020034A002009DBE010020
:10BE300057670200F0B504000E00150085B01F0022
:10BE40000CAB1B881030019309F072FB26806580D3
:10BE50001820FCF7E3FF02AE050033000AAA03CA6C
:10BE600003C32F602800082700213A000C300CF093
:10BE70004EFF3A003100281D0CF02DFF064B022228
:10BE80006B61200000230199A5600A43E360A28052
:10BE90002362636205B0F0BD81670200F0B50B89D3
:10BEA0008DB00593CB68060004934B88828C9A4230
:10BEB0000ED1049C049B059A9B181B1B032B3BDD96
:10BEC00062882188012308A809F03CFB0434F1E7CB
:10BED000428C9A4230D1049C049B059A9B181B1BF0
:10BEE000032B29DD2388282006936388F7680793AE
:10BEF000124B089300230993FCF790FFC0236A4676
:10BF00000500029308AB03CB03C233000699079ADE
:10BF10002800FFF78FFF3B6829005B6838009847CF
:10BF2000002807D0002D05D0280009F026FA2800A7
:10BF3000FCF794FF0434CFE70DB0F0BD3F6802007A
:10BF400070B5040090B080680AF074FC02210140D2
:10BF50001AD1A38D002B17D00C4B6A4604931023E3
:10BF6000E568A1850591029304AB41CB41C20A006B
:10BF7000230006A8FFF75EFF2B6806A99B68280030
:10BF8000984706A809F0F9F910B070BD3F680200A3
:10BF9000002815D0006041608260C3600461456183
:10BFA0008661C761444604624C46446254468462DA
:10BFB0005C46C462644604636E46466374468463AA
:10BFC000002A06D0C46B043C043A25681560B442CC
:10BFD000F9D18C6BA6464E6BB546002B06D0CC6BC8
:10BFE000043C043B1D682560B442F9D10C6BA446A7
:10BFF000CC6AA3468C6AA2464C6AA1460C6AA0464B
:10C00000CF698E694D690C69CB688A680868496890
:10C010007047006041608260C36004614561866171
:10C02000C761444604624C464462544684625C469E
:10C03000C462644604636E46466374468463C46B9C
:10C04000043C043925680D60B442F9D1C76986699A
:10C05000456904697047006041608260C3600461A3
:10C0600045618661C761444604624C464462544659
:10C0700084625C46C462644604636C4644637446EE
:10C08000846304697047846BA646446BA546046BC1
:10C09000A446C46AA346846AA246446AA146046AC6
:10C0A000A046C769866945690469C36882680068F3
:10C0B0004168704710B5041E0CD00CF068FE431E9A
:10C0C000E3189C4208D222781978013B21705A70FB
:10C0D0000134F6E7014810BD0020FCE717FCFFFF24
:10C0E000F0B585B002900C1E2AD00023C217161A94
:10C0F00056400193019B30005D1C63190A215F1EAD
:10C10000039304F0CBF849423031397030000A21F2
:10C1100003F0DEFF47420600002F0FD1029B002BE9
:10C1200004DA2D23019D039A0235137000232000A9
:10C130006355FFF7BFFF380005B0F0BD0195D9E7A3
:10C14000004FF8E717FCFFFF10B582604A43040078
:10C150004160002A0ADD074B90009A4201DD012070
:10C160004042FCF75BFE2060200010BD002303600E
:10C17000FAE7C046FEFFFF1F4A688B6870B5836010
:10C18000534304000D004260002B12DD0A4A9E005A
:10C190003000934201DD01204042FCF73FFE0023C6
:10C1A00020602A68D158C15004339E42FAD1200041
:10C1B00070BD00230360FAE7FEFFFF1F014B036021
:10C1C0007047C046D091020030B500684488A14253
:10C1D0000CDA8588AA4209DA002907DB002A05DB88
:10C1E0005443401800198371002030BD0048FCE71B
:10C1F00017FCFFFFF0B5070085B00E001D000029F9
:10C200001FDD002B1DD00468638803938B4200DD83
:10C210000391A3880293934200DD02920023063427
:10C220000193019B029A93420EDA29002000039A9F
:10C230000CF051FD3B68AD195B88E418019B01339C
:10C24000EEE7024805B0F0BD0020FBE717FCFFFF5A
:10C25000F8B504000D0016001F00002901DB002ABC
:10C2600002DA0E4B2360F8BD100048430630FCF79D
:10C27000D5FD206009F0B4F923685D8023689E80B5
:10C28000002F06D03B00320029002000FFF7B2FF4C
:10C29000E9E720000BF066F9E5E7C046D09102001F
:10C2A000F0B5060087B00D1E04D1244B03603000AA
:10C2B00007B0F0BD00200F000400010001903B78A2
:10C2C000002B1AD03022524294469C446246092ADE
:10C2D00011D90A2B0AD1019B241801330193A142E1
:10C2E00000DA2100002004000137E8E70028FBD035
:10C2F00001340020F8E70120F6E76A46928809B287
:10C3000012B23000FFF7A4FF33689C1D03AB1F007F
:10C310002A78002ACBD011003039092903D81A70A5
:10C3200001330135F4E700221A70BB42F9D9380015
:10C330000CF0B1FC3B0020700134F2E7D091020018
:10C34000F0B5040089B006A80E0002921D00FCF7AB
:10C35000EFFC236802995A88914235DA9B889D4206
:10C3600032DA1F2E30D9079B01939E422CDC052325
:10C37000002273430393069B0493039B04999B1829
:10C38000A03BCB5C00210593AE18029BCF1823681D
:10C390005888019087420EDA9888B0420BDDDB198D
:10C3A00010270F41019870431B1805980740781E0D
:10C3B00087417F429F7101310529E6D10132052A6B
:10C3C000DBD1002009B0F0BD0048FBE717FCFFFF00
:10C3D000F7B50468070063880E1E01931EDD9942BD
:10C3E00018DA0023063400933B68009A9B889A422F
:10C3F00012DA019BA1199D1B2A0020000CF06BFC96
:10C40000601931000BF0A0F83B685B88E418009BD2
:10C410000133E8E70BF0A6F8002000E00048FEBD7D
:10C4200017FCFFFF10B50548054C206009F0DBF84C
:10C43000044A054920000CF00AFC10BDD09102000E
:10C44000E4260020002000203B75020070B5002883
:10C4500017D1114D2E68002E11D108300CF002FCBE
:10C46000066046600D4E04003368002B02D10BF0CD
:10C4700017FD306023682C609B00F35863602868C8
:10C4800070BD0122064907480B681340F8D10260CD
:10C4900043600A60F4E7C046EC260020F82600203E
:10C4A000E8260020F0260020002370B5040001607B
:10C4B000436099420AD1064D2B68002B02D10BF044
:10C4C000EFFC286023689B00EB586360200070BD80
:10C4D000F8260020436810B50400002B02D1044860
:10C4E0000CF0D4FA606803681B69984710BDC04619
:10C4F00044A00200436810B50400002B02D1044898
:10C500000CF0C4FA606803689B69984710BDC04688
:10C5100044A00200436810B50400002B02D1044877
:10C520000CF0B4FA606803685B6A984710BDC046B7
:10C5300044A0020010B5040002F028FC034B1B6865
:10C54000002B01D02000984710BDC04600270020D6
:10C55000F0B58BB0050001F087FE002000F0ACFEC6
:10C56000036807001B6998473B6804009B69380013
:10C5700098473B6806005B6A3800984703002888A4
:10C5800010380B2862D803F00FFD063E6161615B35
:10C59000616161676179AF88200039000BF047FA6B
:10C5A00022006B7B583201931378A8799C460223B2
:10C5B00061460B43137004AB1F80012304AA9370E0
:10C5C000D07013006A461279E91D9A722B00062278
:10C5D000163305A809930CF07EFB29000B2004AB51
:10C5E00006220E31C0180CF076FB94346368A36009
:10C5F000A06800282AD0C36804A99847A368002B24
:10C60000F4D01B69F3E720002F49AF880BF00FFA35
:10C610002200022058321378A9798343137004ABA7
:10C620001F809970A0346368A360A06800280DD0B3
:10C63000C36804A99847A368002BF4D01B69F3E7EB
:10C640005B69A888A91D002B00D0984729003000FD
:10C650000BF07CFD0BB0F0BD636E002BF6D0AF7914
:10C66000A366A06E0028F1D0C36839009847A36E76
:10C67000002B01D1636EF3E71B69F1E701226946E4
:10C680000D27AB7BEF571A4001925A07920FDB0838
:10C690000A720B730622E91D04A80CF01CFB6A4603
:10C6A000127904ABDA716A46127A9F711A726A467D
:10C6B000127B20005A722B000F3307938C3480308A
:10C6C000236804A99847C1E7FFFF00000723D72884
:10C6D00002D9024B1860002318007047FC26002086
:10C6E000014B18607047C046002700201FB580220C
:10C6F000A323D205DB00D3580820DB0700D4053084
:10C700001C4B48221C4902F011FE00280AD080B2BE
:10C71000002807D1BFF34F8F184B194ADA60BFF3D7
:10C720004F8FFEE7002302A8029301330370154BDD
:10C730001B6843600AF0D5FF002802D0072005B02F
:10C7400000BD68460AF0CBFF0028F7D169460AF021
:10C75000C4FF0028F2D10C4802F018FE80B2002875
:10C76000EDD10A4802F01CFE80B20028E7D100F0AB
:10C770001FF8E4E7E77602000427002000ED00E060
:10C780000400FA05FC26002051C5010035C5010052
:10C7900080B2002807D1BFF34F8F034B034ADA6002
:10C7A000BFF34F8FFEE7704700ED00E00400FA058D
:10C7B0001FB5002302ACA380104B01A80293C8232D
:10C7C0005B00E380803BFF3B037005220C490AF0CD
:10C7D00096FF80B200280FD1802080000AF08BFFE6
:10C7E00080B2002808D120000AF087FF80B200281C
:10C7F00002D10AF07EFF80B204B010BD2800900183
:10C8000067A00200024B0B60092313607047C0460B
:10C810006DA0020010B50400002000F04DFD03687B
:10C820001B6998470300F3331C7086235B00C050DC
:10C8300003000021044AFC335A61044A99615A6298
:10C84000F4300BF09FFF10BDEB780200FD78020082
:10C85000012110B5044A080002F0A6FC002398420A
:10C8600000D00B33180010BD15C80100F8B5050045
:10C870000400AC356B68AB60A868002807D0C368BB
:10C8800021009847AB68002BF4D01B69F3E7260022
:10C89000B0363568002D05D02F6928000CF0DEF980
:10C8A0003D00F7E72200FC2135605832137826005E
:10C8B0000B40137023000A365C331D701F222900C1
:10C8C00030000CF024FAF5772A361F2229003000B8
:10C8D0000CF01DFAF577606E002804D005690CF0A5
:10C8E000BDF92800F8E7250098356066286800281B
:10C8F00004D006690CF0B2F93000F8E72600A4363F
:10C9000028603568002D05D02F6928000CF0A6F9A5
:10C910003D00F7E72000356029000C226C300CF058
:10C92000F6F92000074BE567A36729000C22803049
:10C930000CF0EDF92300044A8C33903428001A607F
:10C940002560F8BDDD780200CF780200F0B593B025
:10C95000019000200C0000F0AFFC03685B6A984770
:10C9600000F082F906AB00280ED000221A7105AA49
:10C970000692082218001A730AAA9A6000F042FA76
:10C98000002803D013B0F0BD187118730027277367
:10C990002771019BBA331B78BB4242D907237B43E3
:10C9A0001A000199BB32CB18BB331B788A1802924C
:10C9B000022B2ED1002506AE337BAB4223D9AB0030
:10C9C0000393089BAA00995802980BF03AF80028A4
:10C9D0001CD0B3689C46AB001900237B61440293D2
:10C9E0009A000868A368D050029B01332373337BFD
:10C9F0005A1E954205D00C481B1860469B001B58D8
:10CA00000B6006AB1A730137FFB2C2E70135EDB216
:10CA1000D1E72379216802989A000133505023719D
:10CA2000F1E70020AEE7C046FFFFFF3FF0B50A7810
:10CA300004009BB00D000220012A08D04B88032A75
:10CA400007D1A03B21499BB210008B4207D91BB0F4
:10CA5000F0BD203B1E4A9BB203209342F7D81D4BEA
:10CA6000AA8803209A42F2D80AAB009312AB029331
:10CA70006A460023260013711373B8363378002BEF
:10CA80001DD104AF1822002138000CF040F92B789A
:10CA900038003B7033783B726B46FB606B883B829F
:10CAA000AB887B820AF037FE02000320002ACED139
:10CAB00001235834217810000B432370C7E76946DF
:10CAC0002000FFF743FF0028DBD0C0E7603F0000F5
:10CAD000E03F0000FF3F0000F0B59DB01E006B4638
:10CAE00004001A70581C0622229D0CF0F4F8002E47
:10CAF0002ED0328802AB1A8072885A80B2889A800F
:10CB0000F288DA800CAB04AE049314ABB360270058
:10CB10000023B937337133733B78002B1ED10122C8
:10CB20003B78022708A9134058000B784E60BB439E
:10CB30000343002D1AD12000323000789343104077
:10CB400003430B70A38D0B81E38D4B81238E17E084
:10CB50001A4B029396239B040393D3E731002000E2
:10CB6000FFF7F4FE0028DAD01DB0F0BDA87993439A
:10CB7000104003430B702B880B816B884B81AB8873
:10CB800002AA68468B810AF0DCFD03000020834284
:10CB9000EAD00630082BE7D006D80130042BE3D0CA
:10CBA000834209D10420DFE70520112BDCD0044AA1
:10CBB0009342F7D0102BF5D00B20D5E7320064005C
:10CBC0000232000070B500200D0000F075FB036814
:10CBD0005B6A98472B780400142B1ED003D8132BC4
:10CBE0000CD0002070BD152B1FD0222BF9D16B6803
:10CBF00018882369002BF4D09847F2E76B68012569
:10CC000018889B78646819005A08DB0629402A4076
:10CC10005B0F002CE5D0A047E3E76B681888997894
:10CC2000A368002BDDD09847DBE76868827813099A
:10CC30001207120F012A03D0022A0BD0002106E0AE
:10CC4000013BDBB20021022B01D8064AD15C0088EF
:10CC5000E368E6E70421012BF9D00131022BF6D07D
:10CC6000ECE7C04676A00200014B18787047C0463A
:10CC7000C1290020F0B51D000023304F87B000927D
:10CC80003A7806000C009A4204D102F0B3F800286A
:10CC900003D00B23180007B0F0BD002D0ED003A960
:10CCA000222003950AF0CBFE002807D0062308288F
:10CCB000F0D01138434243410433EBE7002302AA8A
:10CCC0001000137001F08AF80028E2D101251C49F8
:10CCD00002220B782E40AB43334307269343019344
:10CCE000009B2C4033409340AC409C46019B02AAE1
:10CCF0001C431C239C4363461C430E239B18188033
:10CD0000104B0C700393022303AC2371093002AB68
:10CD10000522C0180BF0DFFF21000B4801F0C8F816
:10CD2000002807D033000428B4D0013B0828B1D034
:10CD30000533AFE73D700300ACE7C046C1290020D2
:10CD4000F1210020C5CB0100C229002010B5074801
:10CD500001F086F90023984206D00733042803D057
:10CD6000013B082800D00533180010BDC22900205F
:10CD7000002373B501930F4B01AD1B780E00290002
:10CD80002B7001F031FC041E05D00423052800D0CF
:10CD90000733180076BD3100280001F0C3F82300E6
:10CDA0000028F6D007230428F3D0013B0828F0D050
:10CDB0000533EEE7C229002073B5114C0E000500C3
:10CDC0000522210068460BF086FF012E03D0022EBB
:10CDD00010D002230CE002222378B3439343694628
:10CDE000280023700AF029FE0023984200D00B335C
:10CDF000180076BD012322781343B343EFE7C04602
:10CE0000F1210020094B10B51A7801000923002AEE
:10CE100009D0074801F0BEF80023984203D003333D
:10CE20000E2800D00333180010BDC046C1290020D1
:10CE3000C229002000487047FFFF0000F0B597B0FE
:10CE40000593036807AD1B680491039311002B0041
:10CE5000060091C991C30024D36821000C220CA8BC
:10CE6000EB602C610BF053FF22000B4B10940F93DF
:10CE700011AB1C70191901344A70102CFAD15A8266
:10CE80000193059B2A00009304990CAB3000039C8E
:10CE9000A04717B0F0BDC046597B020070B5FC300A
:10CEA000046C0500002C0DD124200BF0DBFE064B9A
:10CEB00044608361054B8460C46004614461C46163
:10CEC00003602864286C70BD38930200209402002F
:10CED00070B5FC30C56B0400002D11D134200BF06F
:10CEE000C1FE084B85604360074B45610361074BFA
:10CEF0000562C361064BC5628362064BE063036053
:10CF0000E06B70BD6893020058930200C893020062
:10CF1000D8930200E89302007FB503791548002BEF
:10CF200022D0154E154C33782000002B1CD102ADB9
:10CF300028000AF0FCFD002810D16B88592B0DD178
:10CF40002B78AA88D91F012910D800920C4A2021D9
:10CF5000200007F0E9FB0123337004E02022094997
:10CF600020000BF01BFF200004B070BD0092064AA9
:10CF7000EDE7C04679A00200E3290020C329002084
:10CF80009BA0020093A00200B8A0020010B504000C
:10CF9000024B08C00AF09DFE200010BD589302000D
:10CFA00010B50400024B08C00AF0A8FE200010BD16
:10CFB00068930200064B70B50400036040680028C7
:10CFC00004D005690BF04AFE2800F8E7200070BD88
:10CFD00048930200064B70B50400036040680028C7
:10CFE00004D005690BF03AFE2800F8E7200070BD78
:10CFF00078930200064B70B5040003604068002877
:10D0000004D005690BF02AFE2800F8E7200070BD67
:10D0100088930200064B70B5040003604068002846
:10D0200004D005690BF01AFE2800F8E7200070BD57
:10D03000C8930200064B70B50400036040680028E6
:10D0400004D005690BF00AFE2800F8E7200070BD47
:10D05000D8930200064B70B50400036040680028B6
:10D0600004D005690BF0FAFD2800F8E7200070BD38
:10D070006C920200064B70B5040003604068002803
:10D0800004D005690BF0EAFD2800F8E7200070BD28
:10D090007C920200064B70B50400036040680028D3
:10D0A00004D005690BF0DAFD2800F8E7200070BD18
:10D0B0008C920200064B70B50400036040680028A3
:10D0C00004D005690BF0CAFD2800F8E7200070BD08
:10D0D0009C920200064B70B5040003604068002873
:10D0E00004D005690BF0BAFD2800F8E7200070BDF8
:10D0F0003893020070B5FC30046C0500002C0DD193
:10D1000024200BF0AFFD064B44608361054B846027
:10D11000C46004614461C46103602864286C70BD0C
:10D120003893020020940200104B10B508330360BE
:10D130000F4B0400C36080230E4A5B00C250C0182E
:10D14000FCF774FF20000C4BB830E360FFF7B2FF30
:10D150002000AC30FFF79EFF2000A030FFF78AFFD1
:10D1600020006C30FFF776FF200010BD4C940200C9
:10D17000E091020074950200AC920200444AF0B5BE
:10D180000600C260A022434B16360833036001003C
:10D19000002342820400320085B00371836003746F
:10D1A00083823531137001329142FBD18025802278
:10D1B0002000AD00D201F3773584110000933830A0
:10D1C000002300F029FB23002100403303931A00C1
:10D1D0002B0000255F31157001328A42FBD1039A82
:10D1E000FC21D577220060321380137920000B4098
:10D1F0001371230068331D70274B2567E3660C22EB
:10D20000002178300BF083FD2300270088331D6058
:10D21000224B0837FB67843700210C2238000BF0C3
:10D2200076FD1F4B1F4AFB602300A0333D611A604F
:10D230001D4A5D60DA601D4A1D619A61DD61300042
:10D240000AF025FE03980AF022FE194B601CE360E9
:10D250002300C4331D705D709D70FF3002F0ECF848
:10D260008C235B00E55023001933FF335D6180237D
:10D27000104A5B00E250230001222000FE3352429C
:10D280005A86023B9D63DD631D6405B0F0BDC04658
:10D29000AC9202004C9402006C920200DD78020015
:10D2A000CF7802007C9202008C9202009C920200D5
:10D2B000E09102007495020070B5074C2368002BC2
:10D2C00007D1A02040000BF0CDFC0500FFF756FF72
:10D2D0002560206870BDC0464C27002070B50C2228
:10D2E0000D00002104000BF012FD00232361024B0E
:10D2F00025602000E36070BD4B7B020070B5002507
:10D300000400254B85800360244BC5608360244B5B
:10D3100085614361234B45620362234B0563C3620E
:10D32000224BC563836329004430FFF7D7FF2000F9
:10D3300029005830FFF7D2FF200029006C30FFF79A
:10D34000CDFF1B4B2200236023008032F83320C224
:10D350009342FCD126001D00E936FF362800082242
:10D36000002108350BF0D3FCAE42F7D18E2300220A
:10D370009B00E11804C6B142FCD18E2300219B0022
:10D38000E2540C4B0C4AE318A218198002339A425B
:10D39000FBD1200070BDC046989302004893020064
:10D3A0005893020068930200789302008893020069
:10D3B000949402003A0200006202000013B504686F
:10D3C0000093A46813000A000149A04716BDC04697
:10D3D000FFFF000037B506AC25780468019500937F
:10D3E000246913000A000149A0473EBDFFFF000069
:10D3F000F0B587B00D00002469466F4616004C80DA
:10D400000DAA0CA90988127839800193A2421BD178
:10D4100001004479F83194420DD908310F00083FDA
:10D420003F88B7421BD1302120329200125801327E
:10D43000D27F0A4215D16A46310028000AF0B4FDB5
:10D44000002808D1062407E06A46310028000AF0C7
:10D45000ABFD002800D00324200007B0F0BD01324E
:10D46000D9E710210A4051424A41002002ACE36052
:10D470000CABA360174B01322680A270A0809D42A6
:10D4800007D1FFF719FF03681B6998470AF0D2FA22
:10D490000500210028000AF08BFD002482B2A24280
:10D4A000DAD0112A13D00BD8082ACBD06A46310023
:10D4B00028000AF079FD05240028CDD0023CCBE7F6
:10D4C000054B9A4203D0054B9A42EFD1BAE70524A7
:10D4D000C2E7C046FFFF0000033000000134000037
:10D4E000F0B5050099B008002E240C9100F00EF95B
:10D4F00006ABE4181290220012A901200AF052FD96
:10D50000002802D0032019B0F0BD23880C9A0B909C
:10D5100093830C9B0B9A1B7D934200D8C6E06B79DA
:10D520001D2B01D90720EEE70C9B9B690D930B9BEC
:10D530000D9A9B009C586369002B07D1638B002BCD
:10D5400004D1631CDB7F022B00D1AAE0200000F095
:10D55000DDF823000026283312900E960D960F93C7
:10D560000F9B1B78B34221D9626AB3009F583422C3
:10D5700006AB9B1800221A700023002113AAD218B0
:10D5800001335170102BF8D1462206AB9B184A4A42
:10D5900013A938001A800AF08AFD002803D07B699D
:10D5A0000D937B8B0E930136F6B2D9E76979A31CF4
:10D5B0001F31C9006918621CDB7FD27F08912100EE
:10D5C0002A31097800200791210029310978069134
:10D5D0000E9905910D990491217F0391218B029160
:10D5E000618B01916169009112A90AF0E2FE0028A5
:10D5F00000D087E76B7907001A00203292001F33B2
:10D600005451DB005B5BE3836B7901336B71230067
:10D6100028331B78BB4244D98E239B00EB5C132B31
:10D6200000D97FE7626ABB009E580023180013A947
:10D630000B70CA1801335070102BFAD11E4B3000FA
:10D640004B820AF034FD0D90002827D1300000F005
:10D650005DF88E2189006A5C738B1E32FF325200A6
:10D66000AA180292327F12900192328B12A9009274
:10D6700072690D9800F09AF8002800D042E78E21D8
:10D6800089006A5C531CDBB26B541D337A32FF3362
:10D6900092005B005651EB185B88F3830137FFB2B1
:10D6A000B5E70B980130C3B20B9332E72B7900201A
:10D6B00001332B7127E7C0460129000070B5050032
:10D6C0000AF013FC04000620002C1CD1280078224C
:10D6D000210080300BF01BFB2800E9305022210094
:10D6E000FF300BF014FB280008222100F8300BF06B
:10D6F0000EFB054B2822E81821000BF008FB8E23B7
:10D7000020009B00EC5470BD3A020000F0B5438A43
:10D7100085B00193037805000126002B35D0214AFE
:10D7200000241100831900931F4B1F68A74210D0DB
:10D730000023981E012804D90098D65CC05C86425C
:10D740002CD10133102BF4D111235C4309190E7C29
:10D750001BE000980AF016FE2B7807000600002B4D
:10D7600001D112350095042C0FD0112565430D4BC6
:10D7700010225D19009928000BF0ADFA0023AB7060
:10D78000EB70094B01342F741C6003AB9E705888FA
:10D79000019B00040343180005B0F0BD01341132B1
:10D7A000C4E7C046E429002050270020F0B589B026
:10D7B00000930EAB1B8805000F0016000193032297
:10D7C0000FAB002102A81C780BF0A1FA01230E2058
:10D7D0001C40DB181C4302AB9C700E4B02AA13804A
:10D7E00002AB06220021C0180BF091FA03AC02AB89
:10D7F00063606B461B88109A23816B469B882100CF
:10D8000028000397A38126610AF0B8FD80B209B011
:10D81000F0BDC04611110000F7B5FA26B6007143FD
:10D82000009308AB1B78040008001449170001930B
:10D8300002F0C4FB85B23000258078430F4902F026
:10D84000BDFB6B461B8880B2A3806B461B79608052
:10D85000A371032D01D80423238080232288DB01B8
:10D860009A4200D92380032801D80422628062886A
:10D870009A4200D963802000FEBDC04671020000BC
:10D88000F0B50D788FB0002D00D098E0514C02AB70
:10D890009A1D21000823068813803431073B30008D
:10D8A0000AF031FE4C4B1B689847B1200AF02DFE60
:10D8B000002803D02A002900FEF76AFF0AF027FE9D
:10D8C000002803D000221100FEF762FF434D686973
:10D8D0000AF01FFE0195002803D000221100FEF778
:10D8E00057FF00233E4D30002900049300F07CFEDA
:10D8F000061E3AD108A9280000F024FC071E4CD1CE
:10D900000C9E07223100200010310BF0E4F93100A9
:10D910001022E01D0BF0DFF92000089E11223100DB
:10D9200018300BF0D8F9200031002A3012310A22C9
:10D930000BF0D1F920000AF0EEFD002803D03A00E8
:10D940003900FEF725FF01230024049303330693D7
:10D9500005A904AB28000793059400F0ADFBA04295
:10D9600003D022002100FEF713FFC02280211D4BAF
:10D97000C903520099501968012000231A4C020073
:10D980009A400A4200D0E2670133202BF7D1019B75
:10D99000586901F025FC0FB0F0BD2100280000F00F
:10D9A0008FFB002803D032003100FEF7F1FE20008B
:10D9B0000AF0B1FD0028D8D000221100D3E70322DD
:10D9C000012101F02BFC0028E5D000221100FEF718
:10D9D000DFFEE0E76A290020102000200010001080
:10D9E000282A002000E100E004E100E0F0B58BB05F
:10D9F00004AB9D1D0E230C22039001912B804B78CC
:10DA000023495343CB1818892A00032306A90AF097
:10DA10008DFD00281ED11827019B1E4C5B782E8897
:10DA20005F4300933B000833E318320006A9180057
:10DA300002930BF041F900280FD10C22009B5343B5
:10DA4000134AD318997A0223194003D1E0191822F6
:10DA50000BF05DF900200BB0F0BDE01943680E4FEC
:10DA6000002B00D00D4F18250322009B06A96B4305
:10DA7000E250E3185E60320002980BF02CF9019B33
:10DA80002A0059780398694338236118B847E1E7B9
:10DA9000A62900207C2700207DEF0100F5EF010082
:10DAA000F7B504000E006A468178204801F040FA7C
:10DAB00000283AD10C2362781D4F5A431D4B9B1806
:10DAC0009B7A5B0605D4022E03D01B4F012E00D09B
:10DAD0001A4F1C25A1781A4B69432A00C9186846B9
