:020000021000EC
:1080000000400020B9020200F5020200F70202005F
:108010000000000000000000000000000000000060
:10802000000000000000000000000000F902020053
:108030000000000000000000FB020200FD02020040
:10804000FF0202008DB00100C5FF0100FF02020027
:10805000FF02020000000000B9000200FF0202005F
:10806000FF0202002DFB010029000200FF020200B6
:10807000FF020200FF020200FF020200FF020200F4
:10808000FF020200FF020200FF020200FF020200E4
:10809000FF02020099F50100C5F70100FF0202008E
:1080A000FF020200FF0202000000000000000000CA
:1080B00000000000000000000000000000000000C0
:1080C00010B5064C2378002B07D1054B002B02D0AE
:1080D000044800E000BF0123237010BD20220020CF
:1080E000000000002CAB0200044B10B5002B03D0A5
:1080F0000349044800E000BF10BDC0460000000076
:10810000242200202CAB0200164B002B00D1144B74
:108110009D46402292029A1A924600218B460F46B3
:108120001348144A121A11F0F3F90F4B002B00D028
:1081300098470E4B002B00D09847002000210400E8
:108140000D000D48002802D00C4800E000BF0CF0E4
:1081500025FC2000290010F06AFE0CF009FCC04646
:1081600000000800004000200000000000000000A7
:1081700018220020A82A00200000000000000000B3
:1081800010B588B00C4907A80DF016FD00220B4C65
:1081900001920092130007A9200002F003FC07A837
:1081A0000DF0FDFCFA20400000F0FEFE20000EF075
:1081B0003EF908B010BDC0465822002048230020D8
:1081C00010B588B00C4907A80DF0F6FC00220B4C46
:1081D00001920092130007A9200002F0E3FB07A818
:1081E0000DF0DDFCFA20400000F0DEFE20000EF075
:1081F0001EF908B010BDC0465422002048230020BC
:1082000010B50400034B036040300DF00AFC200061
:1082100010BDC046A8970200F0B585B01F000AAB9C
:108220001B880600029115000393002F1CD0282004
:1082300000F0FCFF6B4604001989039BAAB200936F
:108240003B000DF08DFB336821005B6830009847E0
:1082500000280AD0002C05D020000DF098FB20004B
:1082600001F004F8024800E0024805B0F0BDC04645
:1082700016FCFFFF17FCFFFF37B510250C4800F078
:10828000E5FA0C4C00950C4B032201212000FFF76E
:10829000C3FF0A4B0422012100952000FFF7BCFF19
:1082A000642000F081FE00F0F7FE00203EBDC046D5
:1082B0005C2200202C23002081810100C18101006B
:1082C000F0B5B84C1C27A544B74C7F42200000F005
:1082D000FDF9B64EB6493200200010F0C2FFB54C91
:1082E000B549200001F088F9B44D32002900200082
:1082F00010F0B7FFB24CB349200001F07DF9320015
:108300002900200010F0ADFFAF4968460DF0E3F8FA
:1083100041236A46AD49137607A80DF0DCF84222E6
:108320000DAB1A70AA490EA80DF0D5F8432214AB74
:108330001A70A84915A80DF0CEF844221BAB1A708C
:10834000A5491CA80DF0C7F8452222AB1A70A34915
:1083500023A80DF0C0F8462229AB1A70A0492AA81C
:108360000DF0B9F8472230AB1A709E4931A80DF0D4
:10837000B2F8482237AB1A709B4938A80DF0ABF819
:1083800049223EAB1A7099493FA80DF0A4F8FF238B
:108390004A226B445A75964946A80DF09CF89823DA
:1083A0004B2269465B00CA544DA892490DF093F8E0
:1083B000A6234C2269465B00CA5454A88E490DF08E
:1083C0008AF8B4234D2269465B00CA545BA88B49E6
:1083D0000DF081F8C2234E2269465B00CA5462A8A0
:1083E00087490DF078F8D0234F2269465B00CA54C4
:1083F00069A884490DF06FF8DE23502269465B00BE
:10840000CA5470A880490DF066F8EC2351226946E1
:108410005B00CA5477A87D490DF05DF8FA2352221B
:1084200069465B00CA547EA879490DF054F884234C
:10843000532269469B00CA5485A876490DF04BF833
:108440008B23542269469B00CA548CA872490DF0B4
:1084500042F89223552269469B00CA5493A86F495B
:108460000DF039F89923562269469B00CA549AA800
:108470006B490DF030F8A023572269469B00CA547F
:10848000A1A868490DF027F8A723582269469B0048
:10849000CA54A8A864490DF01EF8AE2359226946B3
:1084A0009B00CA54AFA861490DF015F8B5235A22B4
:1084B00069469B00CA54B6A85D490DF00CF8BC2370
:1084C000312269469B00CA54BDA85A490DF003F8F1
:1084D000C323322269469B00CA54C4A856490CF0F3
:1084E000FAFFCA23332269469B00CA54CBA85349DA
:1084F0000CF0F1FFD123342269469B00CA54D2A864
:108500004F490CF0E8FFD823362269469B00CA5435
:10851000D9A84C490CF0DFFFDF23352269469B00C8
:10852000CA54E0A848490CF0D6FFE6233722694632
:108530009B00CA54E7A845490CF0CDFFED23382233
:1085400069469B00CA54EEA841490CF0C4FFF423CD
:10855000392269469B00CA54F5A83E490CF0BBFF7E
:10856000FB23302269469B00CA5400233A4CF5ADE8
:10857000221DE26022612371A3606361FCAA2000D6
:108580000DF01CF86F4428001C3D10F040FFAF4276
:10859000F9D132003149200010F063FEFD239B0029
:1085A0009D44F0BD0CFCFFFF5C2200200020002059
:1085B0006186010058220020C0A302009F5B0200D8
:1085C00054220020F5A3020044A4020076A4020075
:1085D0002EA402007DA4020085A4020033A40200A0
:1085E00083A402006AA402007EA4020058A4020030
:1085F00043A4020038A402008AA4020084A402005A
:1086000089A402003DA4020042A402002FA402009B
:1086100077A402008BA4020048A4020064A4020014
:108620004DA4020047A402004CA402007CA4020056
:1086300051A4020057A402005DA4020063A402003A
:1086400069A402006FA4020075A402007BA40200CA
:1086500081A4020087A402003C22002041550200B0
:10866000EB23194A9B0010B5C2501C330400C018FC
:108670000DF0D7F9F1239B00E0180DF0D2F9842317
:108680009B00E01801F08EFB2000C530FF3001F0A8
:10869000ADF820008D30FF3001F04AFB200065303E
:1086A000FF3001F045FB2000EC3002F01DF8200007
:1086B000D03002F063FB2000643007F095F8201DF5
:1086C000FFF79EFD200010BDAC9902001423F0B509
:1086D000040095B0009319221821043002F026FD01
:1086E000220027006432B43713211000119207F0E2
:1086F00087F838000EF0E9F92200B83210921E21F6
:10870000002210980DF098FE2000D03002F056FBA9
:108710002200EC3212920621494A129802F008F81F
:1087200020000026012365301A0000961121FF3039
:1087300001F00AFB20008D300096012302221A214D
:10874000FF3001F001FB25002000C535B530FF35B5
:108750001A2302220121FF3002F0EEFB10990423BC
:108760003A22280001F0F2F884229200A218139213
:1087700005231D22019300923B002A0010991398B3
:1087800001F006FD96229200129BA01813992A0070
:1087900001F0D8FE99229200A01839001C2202F0A4
:1087A000F1FD19239F220F93013B0E93013B0D9383
:1087B000013B0C93013B0B93013B0A93013B099353
:1087C000013B0893013B0793013B0693013B059353
:1087D000013B0493013B0393013B0293013B019353
:1087E0009200013BA01800930822013B07210DF0E5
:1087F0002BFEEB239B00E018390003F063F9F32311
:108800009B00E0181D2102F0DDFBFD239B00E650DC
:1088100011982670032110F03AFA2300220020005C
:1088200008499C33A0321C6011605660064A8030B3
:108830005A610221012207F0F1FC200015B0F0BDC1
:10884000B0970200715602005B5602000123F0B59A
:10885000067889B004001E4000D0ADE0FD20800500
:1088600000F0ACFC2300D0331800029300F080FA33
:1088700000F0A6F9282000F0D9FC050010300DF01A
:1088800061F94E4B18202B6000F0D0FC07004C4BD8
:108890000460082231000C300693079610F038FE71
:1088A00006A9381D082210F017FE464B29007B61EF
:1088B0001223AF60EE60AB802E626E62029802F00F
:1088C000F5F9002805D028000DF061F8280000F027
:1088D000CDFC0123227864201343237000F064FB55
:1088E000002523006533FF33180003930DF082FB4E
:1088F00000283CD020008D30FF300DF07BFB00289D
:1089000035D00A2D33D06420013500F04DFB0A2DFF
:10891000E7D12D492D4800F027FCFD27EB23BF00B0
:108920009B00E618E359002B1AD100F05DF8010016
:1089300004A800F087FD05A80CF00CFF012305AA90
:1089400004A900933000029B03F010F905A80DF074
:1089500068F804A80DF065F8ED239B00E358E35197
:108960002100039AEC31300003F0A6FAB9E7FD25A7
:1089700015491648AD0000F0F7FB6659002E1BD1D3
:1089800000F032F8010004A800F05CFD05A80CF02E
:10899000E1FEEB239B00E01805AA029B04A90096C8
:1089A00003F0E4F805A80DF03CF804A80DF039F840
:1089B000ED239B00E358635109B0F0BDFD030000B7
:1089C000E3560200A356020000200020001C0020F5
:1089D000BFF34F8F024B034ADA60BFF34F8FFEE7BE
:1089E00000ED00E00400FA05F0B58DB005AF1922E6
:1089F0001549380010F070FD0022144B05245A71FF
:108A000080225205566E01222500019402920393A2
:108A10000199300007F0A0FD0800029907F016FD4B
:108A2000019B03996B430193029B361A6B4302939C
:108A3000631E2C1B6C433C19225C1C1ECA54E7D1DC
:108A400008000DB0F0BDC046C3A40200D629002026
:108A5000F0B597B018220021060010A810F058FDBC
:108A6000132110A810F052FA032110A810F01DFBDA
:108A70004C4B1B68002B00D10133DBB202934A4AF6
:108A8000012300210BA807F003FB484B9E4200D9AD
:108A9000002672B6464B64211D68464B3000079392
:108AA000052407F05DFD60435030281808900A2126
:108AB000300007F055FD0A2107F038FE61435031C0
:108AC0006918099130000A2107F030FE80236143C4
:108AD0000024503169189B010A910193029B002BDD
:108AE0005DD0002500272E1F07AB9B190593032C93
:108AF00003D1802300249B01019307AB5B592E4ACD
:108B000003936300D31804930023190006205843ED
:108B1000049A16187678B4466246039EB25C102614
:108B20009446049A105C62460641164202D0012027
:108B3000984001430133092BE8D1C9431F4B059AE3
:108B4000090119401268039B934225D1312F23DC80
:108B500000210BA810F07BFBFA23159A1199DB007A
:108B6000106801421BD0013B002BF9D1019B01345D
:108B70005B000193FA230137E4B25B009F42B6D158
:108B80000435102DAED1074B1B68002BA6D0029FD9
:108B9000013FFBB20293A1E7019B1943D9E7FFF71D
:108BA00017FFC04658260020F0FF0000E703000032
:108BB0000420002012A50200DCA40200F01F000027
:108BC000F8B50023124C23600CF0E5FD002808D016
:108BD000042120000CF0DBFD002801D00D4B2360A8
:108BE000F8BD0122A12704250B4B0C491A6022680D
:108BF000FF0048604E68002EFCD0DE591202013D95
:108C00003243002DF5D1226001225A60E8E7C046C8
:108C100054260020ED5EBC0B00D00040FCD000408C
:108C20000B4B70B51C68002C10D0656D00F0C6FBB6
:108C3000A36C002901D1834206D820000CF0DEFD90
:108C4000044920000CF0C8FD2C00ECE770BDC046C4
:108C50006026002080260020F0B593B007932A4BB1
:108C600004AC1E68049005910692002E4AD0274B52
:108C7000258867881C6800230293002C2ED0636D22
:108C800023480393A36C9AB2A36C1B0C99B2854240
:108C900014D12048824211D1002B01D0B9420BD10E
:108CA000029B002B08D120000CF0A8FD1A492000DF
:108CB0000CF092FD01230293039CDEE7002A01D011
:108CC0009542F9D1002B01D0B942F5D120000CF02A
:108CD00095FD114920000CF07FFDEDE70F4BEB18DF
:108CE000012B0FD910233A00009329000C4B08A840
:108CF0000CF036FE336808A99B683000984708A836
:108D00000CF045FE13B0F0BD5C2600208C26002040
:108D1000FE030000FF0300008026002002FCFFFF8E
:108D2000598C010010B572B60B4B1C68002C08D092
:108D300020000CF063FD0023E364084B2000E36394
:108D400010BD62B65C2000F071FA5C2200210400C4
:108D500010F0DEFBEFE7C046842600200040002034
:108D6000024B1878012318407047C046DC290020C8
:108D7000F7B50600FFF7F4FF051E33D11A4C266045
:108D8000FFF7D0FF194B1A4918600CF025FDFFF7CB
:108D9000C9FF184B1860184B4363184B8363206856
:108DA00000280ED0C027164E2A0033001549009720
:108DB000FFF732FA009733002A0013492068FFF7C3
:108DC0002BFA0C2000F032FA0023838083710F4BC2
:108DD00003600F4B836000F009FB01230D4A1178FB
:108DE0000B431370F7BDC0465C2600209026002080
:108DF0008026002088260020FC3F0020C358020067
:108E0000598C0100FF030000FE030000D097020010
:108E1000218C0100DC290020F7B506000D001700A9
:108E20000193002802D100242000FEBD0029FAD0C1
:108E3000FFF778FF041EF6D0074B019A43630660E4
:108E400045608760054B002A00D0054BA3630549A8
:108E500020000CF0C1FCE7E7FC3F00208D58020029
:108E6000AB58020080260020024B1868434258414C
:108E70007047C04680260020002310B504499C009E
:108E80006258002A01D00133F9E76050100010BD8C
:108E900068260020002310B5044A99008C588442AB
:108EA00001D00133F9E70020885010BD682600206A
:108EB00010B50024084BA200D058002802D0036847
:108EC0005B6898470134062CF4D1044B1B68002BD7
:108ED00000D120BF10BDC04668260020802600209B
:108EE000F8B5FFF73DFF00281BD0294D2C68E36C37
:108EF000DA0717D502263343E3640423254F386885
:108F0000C26C1343C364636BC3630CF09DFC38688D
:108F1000416C03F0CEFB2868C36C334201D003F0F0
:108F200002FCF8BD1C4F1D4E3A683168002A1ED164
:108F300029602A688A4208D11B0706D52C60FFF7F2
:108F4000B7FF3B68002BFAD02B6029688C42E8D031
:108F50003368994214D1124B4B63124B8B63200040
:108F60000CF072FC2968626C4B6C20000DE0206DE7
:108F7000B84203D1606D002800D002002A60D8E713
:108F80009C42ECD1002210004B6C03F051FBC8E76F
:108F900090260020642600208026002088260020BD
:108FA000FC3F0020C358020070B50500FFF7D8FE53
:108FB000002803D1280010F06CF870BD0C4B1C6821
:108FC000E36CDB0706D5FFF7ADFE0A4B18600028FF
:108FD00000D0040000F0F2F92D18A56420000CF078
:108FE0000DFC054920000CF0F7FBFFF779FFE4E7E3
:108FF000902600206426002060260020F0B51E4B3D
:109000001E4F1C683B6885B006000391002B30D0D2
:10901000FFF7A6FE00282CD0E36CDB070ED5FFF788
:1090200081FE174B051E186008D00CF0E7FB1549B0
:1090300028000CF0D1FB2C00FFF752FF039B20000F
:109040001B043343A3640CF0D9FB20000E490CF041
:10905000C3FB0E4B0024F318012B07D9C023009348
:10906000039A0B4B31003868FFF7D6F8200005B0A3
:10907000F0BD084CFAE7C046902600205C26002090
:1090800064260020802600208C26002002FCFFFFA2
:10909000598C010016FCFFFF10B5FFF761FE002898
:1090A00009D0054C20680CF0A9FB044920680CF09D
:1090B00093FBFFF715FF10BD9026002084260020AB
:1090C000F7B507000D0000282ED0FFF749FE002855
:1090D0002CD00724164E3068C36C1C4007D0154AAC
:1090E000290038000CF0A1FB00242000FEBD03F095
:1090F00002FB02213268D36C1940019103D0032195
:109100008B43D364F1E701242343D3642800B84799
:109110003268D36C1900A143D164019C5B07E4D58C
:1091200028000CF0BAFBE0E7034CDEE7034CDCE779
:10913000902600209B58020017FCFFFF16FCFFFF43
:10914000020010B5014B12CB12C210BD94260020B4
:10915000034B1A68034B1A607E225A607047C04660
:10916000042000209426002070B5104D2B78022B8F
:1091700018D0814218D90B1A072B15D90C000323DC
:1091800004431C4010D172B62A78094BD200D0504B
:10919000981841600CF09BFB2B7801332B7062B662
:1091A000200070BD0348FCE70348FAE7DD290020F2
:1091B0009C26002013FCFFFF17FCFFFF70B5002169
:1091C000041C07F0D5FA002828D1FE21201C8905AF
:1091D00007F0D8FA002821D104300BF003FC050079
:1091E0000F48401B08F0AEFA211C07F04BFF07F0B8
:1091F000FDFA03239843040028000BF0FDFB200038
:109200000BF0F0FB002804D1203C002CF7D10548DE
:1092100003E00119FFF7A8FF002070BD0248FCE73A
:109220000038002013FCFFFF17FCFFFF70B506009D
:1092300000250C4B1B78AB4209DD0B49EB00C9182C
:1092400030000CF04CFB041E09D10135F1E7300071
:109250000BF0C8FB041E02D11420FFF7F9FB20001D
:1092600070BDC046DD2900209C26002070B5002876
:1092700013D00D4B0D491C7800239C4210DDDA0001
:10928000555885420AD28A185268824206D98023EC
:10929000043802681B061343036070BD0133ECE71A
:1092A0000BF0AAFBF9E7C046DD2900209C26002030
:1092B00070B5051E14DD0B4E0B4C3368002B02D02D
:1092C00020680FF061FDFA2120680024074B890017
:1092D0008361C462694335600FF05EFD200070BD9C
:1092E0000348FCE7AC260020DC260020999301000F
:1092F00017FCFFFFF8B5114F06003D68002D0AD19D
:109300003020FFF793FF040006F09EFA0C4BA56196
:109310002360E5623C600B4D2B68002B09D11020C7
:10932000FFF784FF04000FF0F8FC20002C600FF022
:10933000CEFC3000FFF7BCFFF8BDC046DC260020A5
:10934000489D0200D8260020014B18687047C0468F
:10935000AC26002070B50D4C2368002B03D00C4BBD
:109360001B68002B02D10620FFF7C4FF20680FF016
:10937000C5FC02000749C3170D684E6852197341B6
:1093800020680A604B600FF0BFFC70BDD82600203B
:10939000DC2600201822002010B5FFF7DBFF002498
:1093A000054BA200D058002802D003681B689847DC
:1093B00001340A2CF4D110BDB026002010B5FFF7FF
:1093C000C9FFFA22034B920018685968002307F07E
:1093D000EDF910BD1822002010B5FFF7BBFF024BBE
:1093E0001868596810BDC046182200200B4B10B5F4
:1093F0001B680400002B03D0094B1B68002B02D113
:109400000620FFF777FF0023064A990088580028B6
:1094100001D00133F9E78C5010BDC046D82600209A
:10942000DC260020B0260020002310B5044A990055
:109430008C58844201D00133F9E70020885010BDD8
:10944000B026002010B50400002902D00B78002BB4
:1094500003D1034B2360200010BD0CF0E9FAFAE7BA
:10946000E0970200F8B504000E00150000290AD0AC
:109470000B78002B07D0002A05D0080097B210F017
:1094800087F8874203D90B4B23602000F8BD681D85
:10949000FFF7CCFE20600CF05AFC23682A005F80A6
:1094A00023683100181D10F017F823685D19002398
:1094B0002B71EAE7E0970200014B03607047C0465A
:1094C000E097020010B50548054C20600CF042FC06
:1094D000044A054920000FF0C4FE10BDE0970200C9
:1094E000E026002000200020235A0200084B73B51C
:1094F0001C680500002C0AD00100266808310822EB
:1095000068460FF0E9FF0CCD31682000884773BD35
:10951000E4260020014B03607047C046E897020034
:1095200030B500684488A1420CDA8588AA4209DA7D
:10953000002907DB002A05DB54434018001983711A
:10954000002030BD0048FCE717FCFFFFF0B5070026
:1095500085B00E001D0000291FDD002B1DD0046802
:10956000638803938B4200DD0391A38802939342A7
:1095700000DD0292002306340193019B029A93427C
:109580000EDA29002000039A0FF0A6FF3B68AD1900
:109590005B88E418019B0133EEE7024805B0F0BD9B
:1095A0000020FBE717FCFFFFF8B504000D001600D4
:1095B0001F00002901DB002A02DA0E4B2360F8BDF0
:1095C000100048430630FFF731FE20600CF0BFFB6F
:1095D00023685D8023689E80002F06D03B00320008
:1095E00029002000FFF7B2FFE9E720000CF0ECFAB9
:1095F000E5E7C046E8970200F0B5060087B00D1E0B
:1096000004D1244B0360300007B0F0BD00200F00F0
:109610000400010001903B78002B1AD03022524206
:1096200094469C446246092A11D90A2B0AD1019B0F
:10963000241801330193A14200DA21000020040024
:109640000137E8E70028FBD001340020F8E70120CB
:10965000F6E76A46928809B212B23000FFF7A4FF1B
:1096600033689C1D03AB1F002A78002ACBD0110061
:109670003039092903D81A7001330135F4E7002283
:109680001A70BB42F9D938000FF006FF3B0020707A
:109690000134F2E7E8970200F0B5040089B006A8AB
:1096A0000E0002921D00FFF74BFD236802995A88B5
:1096B000914235DA9B889D4232DA1F2E30D9079BC2
:1096C00001939E422CDC0523002273430393069BE7
:1096D0000493039B04999B18A03BCB5C002105934A
:1096E000AE18029BCF1823685888019087420EDA83
:1096F0009888B0420BDDDB1910270F4101987043A9
:109700001B1805980740781E87417F429F710131E1
:109710000529E6D10132052ADBD1002009B0F0BDD0
:109720000048FBE717FCFFFFF7B5046807006388F4
:109730000E1E01931EDD994218DA002306340093B1
:109740003B68009A9B889A4212DA019BA1199D1BE3
:109750002A0020000FF0C0FE601931000CF026FA3C
:109760003B685B88E418009B0133E8E70CF02CFAB7
:10977000002000E00048FEBD17FCFFFF10B50548C3
:10978000054C20600CF0E6FA044A054920000FF071
:1097900068FD10BDE8970200E826002000200020A8
:1097A0009F5B020010B5054C012120000CF0C6FAA9
:1097B000034A044920000FF054FD10BDEC260020A0
:1097C00000200020F95C02000388074A10B5012040
:1097D000934208D0834202D00020DB0703D41E202E
:1097E000FFF736F9002010BDFFFF000010B50400A0
:1097F000034B08330360FFF74DFB200010BDC0464C
:1098000030980200FA2270B5438992005343314ADE
:1098100031491400050038348B421BDC2F498B4240
:1098200018D82F49083C8B4214D82E49083C8B424B
:1098300010D82D49083C8B420CD82C49083C8B424F
:1098400008D82B49083C8B4204D82A4914008B4283
:1098500000D90834284B2A7B1E1D042A03D89E1CDD
:10986000022A00D81E00FA212068890006F0EEFDC9
:10987000337868812B7300222A2128000CF08EFA9D
:10988000002801D01D4870BD10222B2128000CF0AB
:1098900085FA0028F6D101222D2128000CF07EFA4D
:1098A0000028EFD101222E2128000CF077FA0028A1
:1098B000E8D172780E2128000CF070FA0028E1D16E
:1098C000012223792A211A4328000CF067FA002884
:1098D000D9D0D7E7F097020000C409000071020058
:1098E00080380100204E000010270000881300007F
:1098F000C4090000E2040000F2A602000EFCFFFF13
:109900007FB515000F226A4404001E001170002D5F
:1099100016D0002B14DD012301890093006B01F0A8
:1099200041F9002802D0074804B070BD0090218999
:1099300033002A00206B01F0EBF80028F4D0F2E7A6
:109940000148F1E70EFCFFFF17FCFFFFF7B506002B
:10995000002501931E4B14360833040003608580F4
:109960008571C581058245820F0000922900182269
:1099700030000FF0CDFD1C2130000FF0C7FA6B4610
:109980009B880221A3806B461B882200238114231D
:10999000A5712173A563A58763813E321378276380
:1099A0008B43F1310B401370230095729581013583
:1099B000221DD5870833A21DD5872000DD87FFF73C
:1099C00021FF002802D1A3791D43A5712000FEBD0F
:1099D0003098020030B50425837987B004002B420B
:1099E00004D1FFF749FAA3791D43A571A36AA269BF
:1099F0001B6800251A4208D106236A46012120006F
:109A0000FFF77EFF051E03D0114D280007B030BDC3
:109A10006B460222042069469A561856237BD200D0
:109A20005A43228202220978C00049B2C900594330
:109A300043436382A379E1819343A37120000CF037
:109A4000BBF90123A1881A0002A80CF085F8DCE715
:109A50000EFCFFFFF8B50400FFF7BCFF0E22A35E6B
:109A6000794F5B42BB4251DA23003E331B789B07A0
:109A70004CD50125210028003E310B785A0890432F
:109A800002000220AA40834313430B702000FFF71B
:109A9000A1FF1022A35E5B42BB4248DA23003E33A3
:109AA0001B785B0743D50125210028003E310B7848
:109AB0009A08904382000420834313430B702600CE
:109AC0002000FFF787FF1222A35E4836BB423EDA32
:109AD00023003E331B781B0739D5210001223E317C
:109AE0000B78D80882430820D200834313430B70BD
:109AF0003378032B3BD80133DBB23370012B00D01A
:109B00008DE0230000224A331A8030E02000FFF766
:109B100061FF0E22A35EC8225B42520000259342E1
:109B2000B4DD23003E331B789B07A2D5AEE72000AF
:109B3000FFF750FF1022A35EC8225B4252009342FF
:109B4000BDDD23003E331B785B07ACD5B7E72000B3
:109B5000FFF740FFC8231221625E5B009A4204DDDA
:109B600023003E331B781B07B7D5002DC0D13278B8
:109B7000002A14D02100270001254A310B883E37E6
:109B800001339BB20B803878AC46054055D01D2B75
:109B900005D963469843002338700B80337020004A
:109BA0000CF076F9294A0723904244DD2000FFF7A4
:109BB00011FF0E23E25E264E52420323B2423ADBED
:109BC000C8252000FFF706FF0E23E25EAD005242DB
:109BD0000423AA422FDC2000FFF7FCFE1023E25EE4
:109BE00002235242B24226DB2000FFF7F3FE10238D
:109BF000E25E01235242AA421DDC2000FFF7EAFE8A
:109C00001223E25E0523B24215DB2000FFF7E2FEDD
:109C10001223E25E0623AA420DDC00230BE0042B94
:109C2000A5D122003E321178033B0B431370002371
:109C30004A3423800B331800F8BD092BAFD9013A01
:109C40000D803270ABE7C04670FEFFFFFF70020070
:109C5000E0FCFFFF70B5C369C1681A68451D8AB092
:109C60000400EB7F114255D0002B58D1EB7F082B1D
:109C70000DD90122A379134209D11343A371A188FD
:109C8000130006A80BF068FFFFF798FB2062EB7F3C
:109C9000012B23D80123A2791A421FD00025A188C5
:109CA000A571022202A80BF057FFA31DDE7F012E33
:109CB00014D1FFF783FB2B00226A801A9941009090
:109CC0000191019BA188AB4203D1174B009A9A42A4
:109CD00027D90123042206A80BF03EFF0322A37913
:109CE0001340012B14D1FFF769FB0023226A801A6D
:109CF0009941994202D10D4B984209D90223A27988
:109D0000A1881343A3710522012306A80BF024FFA9
:109D10000AB070BD0B2BA9D80133EB77A6E7013B46
:109D2000FBE733000322D6E7E7030000DB05000072
:109D300010B50400034B08330360FFF775FB2000E8
:109D400010BDC04648980200F0B5070000250E007F
:109D500085B002930AAB1B7808370393104B0400BD
:109D6000083303600192858085712900182238002C
:109D70000FF0CEFB039A310038000FF0CCF86B46A1
:109D80006A469B88127AA380A31DE671DA77631D69
:109D900025622000DD77FFF729FB200005B0F0BD2C
:109DA0004898020010B50400034B08330360FFF726
:109DB00071F8200010BDC046B89802007FB51500AC
:109DC0000F226A4404001E001170002D16D0002BD3
:109DD00014DD012301890093C06B00F0E3FE00282D
:109DE00002D0074804B070BD0090218933002A00DA
:109DF000E06B00F08DFE0028F4D0F2E70148F1E7B7
:109E00000EFCFFFF17FCFFFF002330B585B003AC4D
:109E1000217001890093050001332200C06B00F01E
:109E2000C1FE002802D0094805B030BD2080298934
:109E3000009002232200E86B00F06AFE0028F2D1B5
:109E4000237860781B02184300B2EDE70EFCFFFF99
:109E500013B56B46DC1D0023220023700133FFF78E
:109E6000ADFF002801D1207816BD0148FCE7C046AF
:109E70000EFCFFFFD0B504000CF0E4F8E268A36923
:109E8000981A09F0ADF806000F002369E069C01ABE
:109E900009F0A6F832003B0009F0F0FB0022104B5D
:109EA00008F0AEFA0F4A104B07F0A8FF09F024F9AA
:109EB0000021041C06F052FC002804D0201C0B4991
:109EC00006F06EFD041C201C09F0C4F802000B0013
:109ED0000020074908F006FD09F04CF8D0BDC04647
:109EE00000806640EA2E4454FB2109400000B44340
:109EF00000807640F0B5050085B0006C0CF065F888
:109F0000061C286C0CF058F80221071C28000CF0E5
:109F1000CAF80221039028000CF0D7F807F0C8FB1C
:109F20000221041C28000CF0E2F807F0C1FB051C1C
:109F3000301C09F065FB0290301C09F023FB0190F6
:109F4000381C09F05DFB061C381C09F01BFB071CC4
:109F5000039807F0ADFB391C07F094F8311C071C7F
:109F6000201C07F08FF8029907F08CF8011C381CB0
:109F700006F016FD311C071C281C07F083F8019918
:109F800007F080F8011C381C06F00AFD0299061C37
:109F9000281C07F077F80199051C201C07F072F8BF
:109FA000011C281C07F0A0F9311C09F06BFB0D49BE
:109FB00007F068F809F04EF80B4A0C4B07F01EFF4B
:109FC00009F09AF80021041C06F0C8FB002804D010
:109FD000201C044906F0E4FC041C201C07F048FB8C
:109FE00005B0F0BD0000B443EA2E4454FB211940F3
:109FF00070B50022102104000CF016F81B4D00284B
:10A000002DD1032608212000FFF722FFA84226D0E9
:10A01000304226D1FA216389890059435023144ADA
:10A02000D518D058884204D3D518083B18000830FA
:10A03000F7D1FA212868890006F008FAA022608189
:10A04000112120000BF0F0FF002808D101222B790C
:10A0500010211A4320000BF0E7FF002800D003482E
:10A0600070BD6420FEF7A0FFCCE7C0460EFCFFFFEA
:10A07000609802007FB50425837904002B4218D133
:10A0800002260BF0DFFFA379A188B3432B43A37112
:10A090000622012368460BF05FFDA07903003040E3
:10A0A000AB43A37143425841034B4042184004B0B4
:10A0B00070BD0248FBE7C04614FCFFFF15FCFFFF24
:10A0C00010B5837904005A070DD49B0701D4FFF71C
:10A0D000D1FF236C2000002B02D0FFF70BFF10BD37
:10A0E000FFF7C8FEFBE70148F9E7C04615FCFFFF94
:10A0F00070B5466C86B001AC050001916260A3604A
:10A10000002E0CD00B4905A8FFF79CF90C23220068
:10A1100005A930000CF018FD05A80BF082FC2B00FF
:10A120000C3307CC07C30223AA791343AB7106B0E3
:10A1300070BDC046F8A60200642330B50400028159
:10A14000438185B08180FFF753FF0222A379606CC1
:10A150009343A371002813D00C490CF0BCFC051EDE
:10A160000ED001000C22103101A80FF0B5F920002B
:10A170000199029A039BFFF7BBFF2800FFF776F8CF
:10A180000123A2791343A37105B030BDF8A60200E4
:10A19000F7B5009308AB1B880400019309AB1D8839
:10A1A00000230F0016000D4A83800832837102607D
:10A1B000C360036143618361C36103621D21243075
:10A1C0000BF025FF009BE7632664290020006364F1
:10A1D000019AFFF7B1FF2000FEBDC046B89802000B
:10A1E00082B0F0B50400A5B064202B932A920EF043
:10A1F00050FF04220C2109A802F0F6FA2422CC49CF
:10A200001BA80FF069F9052206A811000BF0E5FC68
:10A21000C84907A8FFF7F0F9A06800F081FBA5681E
:10A22000C54918A8FFF70EF9782218A9280000F0F0
:10A2300015FC18A80BF0F5FB6E256420013D0EF00F
:10A2400028FF002DF9D1A06800F06AFBA0680CF08F
:10A25000EEF8012160680BF02FFE01210700606815
:10A260000BF03DFE06000A200EF013FF0022B34B58
:10A2700003929F4210DB013203923A00C8320BDB9B
:10A28000C822042192000391974205DC0322039225
:10A29000C82F01DC013A039200279E420CDB3300F9
:10A2A0000137C83308DBC82303379B009E4203DC19
:10A2B000013FC82E00DC013F06A80BF085FC0026FC
:10A2C000032373431BA9CA189078002805D0C95CE2
:10A2D0005278FF2306A8FFF723F901360C2EEFD1A1
:10A2E0006B463AB20C21595E06A8FF23FFF718F916
:10A2F0000023A06800931A00743006A90BF074FCC8
:10A30000002304930323049A039853431BAA995CE4
:10A31000814237D1D31805935B78BB4232D1059B7C
:10A320009E78002E2ED1310020680BF0BCFE07F085
:10A33000BFF93200031C290009A80CF08EFE310081
:10A3400020680BF0C2FE07F0B3F90122031C2900BC
:10A3500009A80CF082FE310020680BF0C8FE07F05F
:10A36000A7F92900031C022209A80CF076FEFE239F
:10A3700003229B05290009A80CF06FFE0123059A12
:10A38000ED189370049B013304930C2BBAD1642015
:10A390000EF07FFE0B2D00DC5BE709A80CF049FEF8
:10A3A000012201000CA802F01FFA002509A80CF0F8
:10A3B00040FEA8423CDD2900002209A80CF03BFE2B
:10A3C0000022061C290009A80CF035FE011C301CD7
:10A3D00006F058FE2900061C012209A80CF02BFEED
:10A3E0000122071C290009A80CF025FE011C381CBD
:10A3F00006F048FE311C06F0D3FA2900061C0222A2
:10A4000009A80CF018FE02222900071C09A80CF06C
:10A4100012FE011C381C06F035FE311C06F0C0FA95
:10A420002900031C00220CA80CF017FE0135BDE723
:10A4300009AA1100012318A80CF029FE18A90FA8D9
:10A440000CF082FE18A80CF019FE0CAA09A912A89B
:10A4500001230CF01CFE002312AA0FA915A80CF072
:10A4600016FE002215A811000CF0E5FD0022061CC6
:10A47000012115A80CF0DFFD0022051C022115A802
:10A480000CF0D9FDFC21071C8905301C06F0FAFDF3
:10A4900007F0EEF8FC21060018908905281C06F04C
:10A4A000F1FD07F0E5F8FC21050019908905381C3D
:10A4B00006F0E8FD07F0DCF82A00030031001A90EE
:10A4C0002068FFF715FEA0680BF0B1FF07A908A8E8
:10A4D000A5680BF071FB0022194B009208A90193AB
:10A4E0002800130000F05EFA08A80BF058FBFA20D1
:10A4F00080000EF0CEFDA0680BF099FF15A80CF0BF
:10A50000BDFD12A80CF0BAFD0FA80CF0B7FD0CA809
:10A510000CF0B4FD07A80BF042FB06A80BF03FFBC4
:10A5200009A80CF0ABFD25B0F0BC08BC02B0184780
:10A5300003A7020027A702006CA70200E0FCFFFFB0
:10A54000DC050000F7B583601D4B05001F68016046
:10A550004260002F31D02820FEF768FE0400103042
:10A560000BF0F0FA174B18202360FEF75FFE002275
:10A570000600154B01920560083200210C30009353
:10A580000EF0C6FF08226946301D0EF0A5FF0F4BE6
:10A5900000227361C223A3803B68E260A66022624E
:10A5A00062625B68210038009847002805D02000CF
:10A5B0000BF0EDF92000FEF759FE2800FEBDC04665
:10A5C000E426002005000600E1A101000761020069
:10A5D000F0B5040085B0637A9C46002B04D12000BE
:10A5E0000BF0BCFD05B0F0BDA37A266F01931023DC
:10A5F000019AF35600259B1801229A402900F3681E
:10A6000003920293029BAB4231DDB368019A6B4324
:10A610009B1872695B00E77AD3181A785878E37947
:10A62000012F14D15F1E3F1A10003A005B00434314
:10A63000606F8218D3189B79634500DD6346627BA7
:10A640001A4202D00123AB4019430135DAE7022F49
:10A6500005D15F1EBA1A277A013F381AE6E7032FA1
:10A66000E4D1277A013FBF1A02003800DEE7112348
:10A67000C943F356606C994023691940039B194301
:10A680000EF0E5FDA27B072AACD8637B0C495B008A
:10A690006373531CDBB290004158A373022A03D8A2
:10A6A00008000EF0EBFC96E7064B20002363002326
:10A6B0006363054BE462236414300EF06DFB91E795
:10A6C000D0980200D1A501004761020010B5040036
:10A6D000044B03600EF058FB200005F0CBF820007F
:10A6E00010BDC046489D020010B504000E4B083353
:10A6F0000360FEF799FE200074300BF050FA200042
:10A7000060300BF04CFA200058300BF08AF9200032
:10A7100050300BF086F92000044B14306361FFF7D2
:10A72000D5FF200010BDC046F09802007C9D0200BD
:10A73000F8B500250400324B85800833036085712D
:10A74000143016000F0005F07FF820002D4BE56255
:10A75000636125645030FEF7AFFE20005830FEF7ED
:10A76000ABFE20006030FEF7D5FE20000423F25E31
:10A7700033682667590009B274300BF02EFA33683B
:10A78000226FE37173680126237210236581A7800D
:10A790002561D35691685918994204DD30009840DC
:10A7A00001330543F8E711230120D356D168591826
:10A7B000994206DD02009A40266901333243226144
:10A7C000F6E71420FEF732FD226900212A43012317
:10A7D000060005F05DFCFF23220063720133A381B4
:10A7E000002348326664A37320001370A366FEF74B
:10A7F000FDFD0123A27920001343A371F8BDC046DB
:10A80000F09802007C9D0200F0B5437A85B0040008
:10A81000002B04D120000BF0A1FC05B0F0BD0122FB
:10A82000837A11009C461023066F0025F35603928D
:10A830006344994002912900F3680193019BAB4264
:10A840002CDDB36872696B4363445B00E77AD3180D
:10A850001A785878E379012F10D15F1E3F1A100043
:10A860003A005B004343606F8218D3189B79002B3A
:10A8700002D0039BAB4019430135DFE7022F05D11E
:10A880005F1EBA1A277A013F381AEAE7032FE8D188
:10A89000277A013FBF1A02003800E2E71123C943BB
:10A8A000F356606C994023691940029B19430EF0DE
:10A8B000CEFC667AB31EDBB2FC2B14D8FEF744FD47
:10A8C0000B4B0500236300230A4863630A4BFF21F7
:10A8D000E4622364704305F043FE290041432000F5
:10A8E00014300EF059FA637A012B00D995E791E7FD
:10A8F0005D610200B6030000476102001FB501233D
:10A9000081881A0068460BF027F9012303491A00D1
:10A9100068460BF021F905B000BDC046FE030000FB
:10A920001FB5030048331A780400002A0DD0002216
:10A930001A70012381881A0068460BF00DF9012373
:10A9400004491A0068460BF007F9200074300BF038
:10A950003BF91FBDFF03000010B548300378002B02
:10A9600006D00378012B03D0012102480AF085FFAD
:10A9700010BDC046FF03000010B5012104000620F1
:10A980000AF07BFF064B984208D148342378002B0D
:10A9900004D02378012B01D020BFF7E710BDC046BB
:10A9A00016FCFFFF73B5079C0500002C1CDB06009E
:10A9B00048363078002802D03078012816D1069821
:10A9C0001BB2C0B20090280012B274300BF00CF928
:10A9D000002C07D02B004A331C80002407234C3561
:10A9E0002C803370200076BD014CFBE7014CF9E769
:10A9F00017FCFFFF12FCFFFFF0B587B00D9C0600AF
:10AA00000F0002920393002C20DBFFF7A5FF330019
:10AA100048331D78EDB2002D1AD1390005A80BF08E
:10AA2000CBF80C9B01940093029A039B05A930007C
:10AA3000FFF7B8FF05A80BF0B2F8002C03D03000E8
:10AA4000FFF79AFF2C00200007B0F0BD014CFAE799
:10AA5000014CF8E717FCFFFF11FCFFFFF8B50400FD
:10AA6000171E1DDD060048363378002B02D03378E0
:10AA7000012B17D12200E3795632013B13702300DA
:10AA80000025200054331D8050300BF029F823009E
:10AA90004A331F80022328004C3425803370F8BDD0
:10AAA0000148FCE70148FAE717FCFFFF12FCFFFF33
:10AAB000F7B505000F00161E18DDFFF74DFF2B0040
:10AAC00048331C78E4B2002C12D1390001A80AF0F6
:10AAD000FFFF320001A92800FFF7C0FF01A80AF01C
:10AAE000A0FF2800FFF748FF2000FEBD0148FCE75B
:10AAF0000148FAE717FCFFFF11FCFFFFFF2902D80E
:10AB00004172002070470148FCE7C04617FCFFFF78
:10AB1000F0B51F0085B00AAB1B78040003930093C7
:10AB20003B000D0016000EF05DF9002833D0237DA8
:10AB3000082B2DD8236800221900FC318A62A0213D
:10AB4000C9005A50154905205A500138C046C04620
:10AB5000C046C046C046C046C046C046C046C046C5
:10AB6000C046C046F1D1236801325A50A0210432B8
:10AB7000C9005A5004F078FF039B3200009329006B
:10AB80003B0020000EF02EF9237D01332375CCE726
:10AB9000034805B0F0BD2075FBE7C046FC0F000080
:10ABA0000EFCFFFFF0B51F0085B00AAB1B78040058
:10ABB000039300933B000D0016000EF0FBF80028F5
:10ABC00033D0237D082B2DD8236800221900FC31B7
:10ABD0008A62A021C9005A50154905205A500138EF
:10ABE000C046C046C046C046C046C046C046C04635
:10ABF000C046C046C046C046F1D1236801325A5013
:10AC0000A0210432C9005A5004F02EFF039B3200E9
:10AC1000009329003B0020000EF0CCF8237D013387
:10AC20002375CCE7034805B0F0BD2075FBE7C046AF
:10AC3000FC0F00000EFCFFFFF8B50D1E30D0002603
:10AC40000227C468002C28D0AA88A38853403B421E
:10AC500004D13A4204D1AB883B4219D0646AF1E78F
:10AC6000A968A0680CF0D4F90028F4D02B88002B38
:10AC700002D022889A42F1D16B88002B02D06288E0
:10AC80009A42EBD1A288074B01361343A380E5E734
:10AC9000A368AA689342E1D1E8E72000002E00DC17
:10ACA0000148F8BD0080FFFF17FCFFFFF0B506006C
:10ACB00085B00D1E59D00127C468002C22D0022176
:10ACC000AA8800230A4202D0A3885B083B4022687E
:10ACD00029688A4210D1A068A968002B0AD00CF01C
:10ACE00097F9002808D0A3881AB2002A06DB20486A
:10ACF00005B0F0BD8842F6D0646ADEE75B045B0C09
:10AD0000A380F4E7F0682A88002807D1F5600123C2
:10AD1000184968460AF020FF0020E9E70100030017
:10AD20001C88944206D25C6A1900002C0DD02300C6
:10AD3000F6E723001C88944207D15F886C88A742FD
:10AD400003D25C6A1900002CF3D1814209D10B882F
:10AD50009A4204D305D148886B88984201D9696228
:10AD6000D4E74B6A6B624D62D1E70348C0E7C04647
:10AD700016FCFFFFFD03000017FCFFFF064B10B59C
:10AD80001A00040008322C33026043600430FEF7DE
:10AD900081F8200010BDC0460899020008B4024B9B
:10ADA0009C46043808BC60477DAD010008B4024BE6
:10ADB0009C46043808BC60476F6502000C4A0023BB
:10ADC00011002C32083110B5038183724260C360D8
:10ADD000036143614383016004000430FEF74CF8D3
:10ADE000044B1A68002A00D11C60200010BDC04628
:10ADF00008990200E4260020F7B50E000125C4687A
:10AE00000192002C36D0238832889A4201D0002B40
:10AE100023D1638872889A4201D0002B1DD1FDF79F
:10AE20009FFF0123002806D0C022A3881340C03B07
:10AE30005A425341DBB2019A934219D1A7883BB2DF
:10AE4000002B15DB10223100A0180EF045FB40232B
:10AE50001F4204D020000BF093FB646AD1E7FDF79A
:10AE60007FFF0028F6D021000348FEF729F9F4E718
:10AE70000025F2E72800FEBD8165020008B4024B00
:10AE80009C46043808BC604709670200F0B587B0EB
:10AE900001930EAB1B88060003930D9B0D000093DE
:10AEA000019B02920C9F002B3DD0002F02D1009BF2
:10AEB000DB0738D52820FEF7B9F9040010300AF076
:10AEC00041FE6B461B89258063801820FEF7AEF992
:10AED0000500009B08220593019B002103600C30B4
:10AEE00004970EF015FB082204A9281D0EF0F4FAB1
:10AEF0000E4B02226B6100230399E36023626362BD
:10AF000033680A43A560A2805B682100300098473F
:10AF1000002806D020000AF03AFD2000FEF7A6F92E
:10AF2000034807B0F0BD0348FBE7C0464367020093
:10AF300016FCFFFF17FCFFFFF0B50400160000250C
:10AF40008380164A164B8571026021814681057304
:10AF5000186889B08C46A8421DD0124A0595049203
:10AF6000C02202926A4604AB82CB82C223002A002E
:10AF70006146FFF78BFFC022094B0A49186802920D
:10AF80006A46069106AB079582CB82C223002A004F
:10AF90003100FFF77BFF200009B0F0BD4C990200A3
:10AFA000E42600206D68020030B5002403730123FD
:10AFB000034D84710560818082734373846030BD6A
:10AFC0006499020070B5040000250C4B0E00083394
:10AFD000858085710360210018300BF0FFFC200094
:10AFE000210020300BF01DFD054BA680E580257269
:10AFF000E5602561656120001C6070BD74990200E8
:10B00000F02600208379DB0702D5C160002070475D
:10B010000048FCE716FCFFFF8379DB0701D5C06819
:10B0200070470148FCE7C04616FCFFFF70B5456954
:10B030000400002D22D0037A032B21D8FFF7ECFF68
:10B04000A8622C20FEF7F2F82C22002105000EF059
:10B050005FFA002263695A622369934208D16369E7
:10B0600023610020237A65610133237270BD1300D0
:10B070005A6A002AFBD162695A62F2E70148F5E791
:10B080000148F3E717FCFFFF13FCFFFF144B70B5FB
:10B090005A68144C002A03D000225A600132A26080
:10B0A0001A69002A17D0002119618023DB000E4D98
:10B0B000E3582868012B0FD1A923DB00E15849424E
:10B0C000FFF7A0FF2868FFF7B1FF2B685A69074B0D
:10B0D000E2500123A36070BDFFF794FFF9E7C0467B
:10B0E000FC10004000100040F02600200405000085
:10B0F00003000069002809D00221054AD167426A8D
:10B100001A611A7A013A1A72024B19607047C046E6
:10B1100004E100E000E100E010B5002903DB024B90
:10B1200019600DF0AFFE10BDF426002070B50400CC
:10B130001E0004AB1D7804F0CFFB20000E4B403006
:10B140002360FEF7B9F9230001364C3301352200A4
:10B150001E701D730023E1214E32A36463651380CA
:10B1600053809381D381013B200063644902FFF740
:10B17000D3FF200070BDC046A8970200F7B5802716
:10B180007F053D697C690822113C6C430600210063
:10B1900068460EF0A1F9104B009A9A4219D000931C
:10B1A0000023019379693000133969430BF04EFC99
:10B1B000019A009930000BF061FC210030000BF087
:10B1C00045FC7969AB0813396943220030000BF064
:10B1D00047FC0198FEBDC046FECA0000F0B50D0058
:10B1E000A9B00D9200213022060010A80B930EF09A
:10B1F0008FF928000EF0CCF9431C0C93102B00D9CA
:10B20000B5E00B9B202B00D9B1E0290030000BF0FA
:10B2100062FC071E50D129000C9A10A80EF05CF9B0
:10B220000D990B9A14A80EF057F980235B051A6943
:10B230005F690C92113F7A4330005D690B92FFF712
:10B240009DFF3022002104001CA80EF061F92900A6
:10B2500000270C9B1339594330000BF0F7FB0D9777
:10B2600030257D430B9B0833ED18A74242DA2900B5
:10B2700030221CA80EF030F910A91CA80EF07EF99F
:10B28000002827D13C49300022000E910F940BF08A
:10B29000F5FB6A46099513AB23CB23C223CB23C20C
:10B2A00023CB23C23000129B1099119A0BF0F4FBB0
:10B2B00001230D930137D3E710300B9A0D990EF04F
:10B2C000FCF804003800FDF7D1FF002CA3D12000CA
:10B2D00029B0F0BD6A4609951FAB23CB23C223CB0F
:10B2E00023C223CB23C230001C991D9A1E9B0BF056
:10B2F000D3FBDFE7E5433023ED1725405D430B9B90
:10B3000008355D190D9B002B1DD10C9B3021981E1B
:10B3100005F09CF8A0422CD01749013430002200DF
:10B320000E910F940BF0AAFB6A46099513AB23CB41
:10B3300023C223CB23C223CB23C230001099119AFE
:10B34000129B0BF0A9FB0B9930000BF07FFB8023C5
:10B350005B0559690C230C9A133963434A43023342
:10B36000110030000B9A0BF07BFB0024AFE7034C7D
:10B37000ADE7034CABE7C046FECA000017FCFFFF79
:10B3800013FCFFFF70B50400A280FA22002308001E
:10B390000C49920008312160A3716061E260A360F2
:10B3A000638209490BF097FB051E09D001002000BC
:10B3B0001031022212300EF08FF82800FDF756FFF0
:10B3C000200070BD8C9902007AA7020030B50225DA
:10B3D000837987B004002B4204D1FDF74DFDA3799A
:10B3E0001D43A57120000BF0C0FB00281CD06B464C
:10B3F000DD1C28000BF0B0FB2B78002B17D001A828
:10B400000BF0A8FB0321019AD3170B409B189B104C
:10B410002382FDF7D3FFE368A18818180123A060F9
:10B420001A0002A80AF098FB002007B030BD0122E4
:10B43000064B1A60064A51680029FCD00021516071
:10B44000044A1268019201225A60DBE700C0004002
:10B45000FCC0004008C50040022802D10122014B77
:10B460001A707047DE29002070B5064C050023785D
:10B47000002B04D1044801F03BFB0123237028007A
:10B4800070BDC046DF29002059B4010070B50C0022
:10B490000AF081F9002810D00023144DA40A2B7063
:10B4A00020000BF076FB002803D00A200DF0F1FD00
:10B4B000F6E72B78002BFCD070BD02210C4B0D4A17
:10B4C00099508021C90008005D58002DFCD0A121B1
:10B4D000C9005C5019580029FCD0002199508021E6
:10B4E000C9005A58002AFCD0E6E7C046DE290020F1
:10B4F00000E0014004050000F8B50C0015001E0036
:10B500000AF049F9002811D00023174F3B70320090
:10B51000290020000BF03BFB002803D00A200DF08F
:10B52000B8FDF4E73B78002BFCD0F8BD01210F48B3
:10B530000F4B844619508021C9005A58002AFCD06C
:10B5400080270022FF00964207DD91006858605076
:10B55000D9590029FCD00132F5E7002261465A5042
:10B56000DA59002AFCD0E0E7DE29002004050000BB
:10B5700000E0014010B50400054B083303601C30A7
:10B580000AF04FFA200018300AF04BFA200010BDE4
:10B59000A4990200FF23F0B52C4D8DB02B70002331
:10B5A000040069460088009303F026FA002802D1BF
:10B5B0006B469B782B70264E3368DB68002B07D1D7
:10B5C000002320881A0019000BF0E7FA0DB0F0BD37
:10B5D0002B78032BF4D81F4901A8FDF733FF3368FC
:10B5E00001A9DE6804A80AF073FA04A930000BF080
:10B5F000A5FA0027060004A80AF013FABE421ED0DE
:10B6000031002022103104A80DF066FF3000FDF754
:10B610002DFE297804ABC9005918082202A80DF0A4
:10B620005BFF20880123082202A90BF0B6FA01373C
:10B63000002804D12088084A0C210BF0ACFA01A89C
:10B640000AF0EFF9002FBBD0C0E7C046F021002080
:10B65000042700208AA70200FFFF0000F0B58379CD
:10B6600091B004005B071BD5FDF7A8FE00232269FB
:10B67000801A9941994203D1F423FF3398420FD99C
:10B68000A068002808D0364B1D880CF024FB036806
:10B6900015221B6A290098470422A3799343A371BA
:10B6A000A3799B0759D52F4D2B68DB68002B50D011
:10B6B0002D4B1B78032B4CD8294B2C491B8804A8F5
:10B6C0000193FDF7BFFE2B6804A9DE6808A80AF005
:10B6D000FFF908A930000BF031FA070008A80AF0BA
:10B6E000A0F902AB9E1D08233200338006A9073B58
:10B6F00001980BF054FA002F08D0390020221031A5
:10B7000008A80DF0E9FE3800FDF7B0FD164B3288B1
:10B710001B7806A9DE0008AB9E1930000DF0CDFEA7
:10B72000002813D0082206A930000DF0D5FE2B68A2
:10B7300004A9DD6805A80AF0CBF9202308AA05A909
:10B7400028000BF001FA05A80AF06BF904A80AF02A
:10B7500068F90222A3799343A37111B0F0BDC046EA
:10B760008829002004270020F02100208AA7020059
:10B77000F7B5089E0500152922D8012007008F4043
:10B78000244C27421CD0E97FCC181F2C41DC6918BF
:10B790003418A14210D80021C8B2834204D9545CA5
:10B7A000701884700131F7E732789A183270EA7FA6
:10B7B0009B18EB7700202CE00878C8540139E8E7A3
:10B7C0003478013CE4B2A34208D10023D9B28C42C0
:10B7D000F0D9D05CF11888700133F7E7EF7F0120D2
:10B7E000FF183F1B1F2F14DC0227A01C7F423618B6
:10B7F000381B0190E87F2F18BE4204D23078019F99
:10B80000F0550136F6E7041B023CEC7728000BF0FC
:10B8100010FAFEBDFC002000F0B585B001930AAB24
:10B820001E880BAB1B78451C02930EAB1B780400E3
:10B8300003930B78170003704B8A10224382013167
:10B8400028000DF049FE6B469B88268363836B4678
:10B850001B7B002623776B4601221B7A6761E683F8
:10B86000EB77A31CDA770C9B0C2563622300200086
:10B870000D9A28331A705E709E702A0031002C30A9
:10B880000DF046FE2000074BE663A3632A0031005B
:10B8900040300DF03DFE2000034B2665E36405B00B
:10B8A000F0BDC046B56B0200A76B020070B50D007D
:10B8B0000CF011FA04000368002D09D15B69984768
:10B8C000FA2080006843074904F0C0FDE08070BDA5
:10B8D0009B6898478542F3D2236820009B6898476D
:10B8E0000500EDE771020000F0B507001600A1B0F9
:10B8F00002C704006B4918A81D000BF0E1F9331EC4
:10B9000003D030000DF044FE83B2012204920022E5
:10B9100003920292023201920093320018A9380079
:10B92000FFF77AFF23006049583318A807930BF0FC
:10B93000C7F92B1E03D028000DF02AFE83B2012286
:10B9400004920022039202920232019200932A0092
:10B9500018A90798FFF760FF23005449AC3318A8D3
:10B9600008930BF0ADF9269B002B03D018000DF0C7
:10B970000FFE83B20122049200220392029202324D
:10B9800001920093269A18A90898FFF745FF631CB7
:10B99000FF33474918A809930BF092F9279B002B16
:10B9A00003D018000DF0F4FD83B2012204920022AE
:10B9B000601C03920292023201920093279A18A906
:10B9C000FF30FFF729FF23005533FF33394918A80B
:10B9D00009930BF075F9289B002B03D018000DF08C
:10B9E000D7FD83B201220492002203920292023216
:10B9F00001920093289A18A90998FFF70DFF2300D8
:10BA0000A933FF332C4918A80A930BF059F9299B45
:10BA1000002B03D018000DF0BBFD83B2012204926D
:10BA2000002218AD03920292023201920093299AE9
:10BA300029000A98FFF7F0FE204B1B780B93002B90
:10BA40002DD1079B12971393089B0DAF1493631C82
:10BA5000FF331593099B1A4916930A9B38001793D5
:10BA60000BF02EF91D2149203B7810222B707B8A88
:10BA700012AE6B8206ABC918C0180DF02DFD06235F
:10BA80002B756B469B8D2068AB83AE610CF027F95C
:10BA9000036829001B6898470122084B1A70200090
:10BAA00021B0F0BD292A0000242A0000252A000028
:10BAB000272A0000262A0000282A0000E02900206A
:10BAC0000A18000070B5002504000A4B8580083371
:10BAD00085710360C1601830FDF7EEFC20001C305A
:10BAE000FDF7EAFC044BA5601C60012365612000A2
:10BAF000A37170BDA499020004270020FA2130B57B
:10BB000085B0050001230222890068460AF024F866
:10BB1000074C2068002809D00BF00BF92988054B49
:10BB200022681980022391790B43937105B030BDCF
:10BB3000042700208829002010B50C0007290DD803
:10BB400080680CF0C8F8064B195703685B6C98477F
:10BB5000431E9841034B4042184010BD0248FCE789
:10BB600082A7020016FCFFFF17FCFFFFF0B5A44CF4
:10BB70000D00A544040007939AAB1B78A14909A8BE
:10BB800004930692FDF75EFC200029001C3009F0AA
:10BB9000A7FFC020800000F0A1FF0820FDF746FBB2
:10BBA0000600002100F088FE15ADA66000210C22E1
:10BBB0000EA80DF0ADFC2B000EAA83CA83C3924BD6
:10BBC0002900EB60002330002B610CF06DF8A068B9
:10BBD0000CF081F808220021059016A80DF098FCC1
:10BBE0001420FDF723FB29000200884B1593C8C9D8
:10BBF000C8C2874B059EC3600023A4360361336827
:10BC0000002B00D0F5E03060A0680CF068F8082246
:10BC10000021060016A80DF07BFC1420FDF706FBA2
:10BC20007C4B1593030086CD86C37B4BC3600023FA
:10BC30000361336B002B00D0DDE03063A0680CF0B3
:10BC40004AF808220021050016A80DF061FC142016
:10BC5000FDF7ECFA714B15AE1593030086CE86C343
:10BC60006F4B9835C360002303612B68002B00D015
:10BC7000C3E02860012504AB1B7C04AA2B4308A960
:10BC8000280013740AF08DFFA0680CF02CF80368EC
:10BC900064495B6A9847A0680CF025F8036862491C
:10BCA0009B699847A0680CF01EF800230268009377
:10BCB000166804992A00B047049B002B0AD0200084
:10BCC0000BF040F8032805DDA0680CF00CF80368C1
:10BCD000DB6898470EA80AF0A3FF2F2004ABC0181A
:10BCE0000AF09EFF362004ABC0180AF099FF3D20F1
:10BCF000042504ABC0180AF093FF0EAB0A93A068AA
:10BD000004AB5D770BF0EFFF03680AA91B69984746
:10BD1000A0680BF0E0FF03680AA95B6D9847A06874
:10BD20000BF0D9FF03680021DB6D9847A0680BF08A
:10BD3000D2FF036802219B6D984700212000FFF786
:10BD4000FBFE1820FDF772FAA16800F005FA374BE8
:10BD5000374A1B68A1680393364B15A81B68002659
:10BD60000293354B0CAF1B680193069B1B685B1954
:10BD70000093324B12681B68FFF7B6FD3020FDF7C9
:10BD800055FA079AA16800F0A7FAA0680BF0A3FF84
:10BD9000036839009B6A9847294BBE80A0680C93C2
:10BDA0000BF099FF03683900DB6A98472900A06807
:10BDB0000AF092FF099A09219378A06852190AF0B3
:10BDC0009EFFA0680BF087FFC8210671A068FFF7EF
:10BDD0006DFD04AB1B7FB34204D0A0680BF07BFF6A
:10BDE0000AF064FF09A809F01CFE95239B009D44FE
:10BDF000F0BD036107E703611FE7036139E7C04650
:10BE0000ACFDFFFF7DA80200C36B0200FDBA01007C
:10BE1000D16B020095B50100DF6B02000D6C0200D2
:10BE2000ED6B020045BE010079BE01000027002035
:10BE3000FC26002008200020F82600200C200020EE
:10BE40000800100013B506226846FDF70BFB094BEE
:10BE50001C68002C0AD0694601A809F039FE2000B0
:10BE600001A90AF090FF01A809F0DBFD684609F07E
:10BE7000D8FD13BD04270020002373B501AE0C00CC
:10BE800031000500019302F0B7FD002802D1B2781D
:10BE9000064B1A70064B1868002806D061426141B3
:10BEA000044BC9B21D800AF076FF73BDF02100205B
:10BEB0000427002088290020F0B5040097B00391E2
:10BEC00007A89C490592FDF7BDFA9B4908A8FDF714
:10BED000B9FA22000FAD28001C3207A909F00FFEA5
:10BEE00008AA290009A809F00AFE280009F099FD0E
:10BEF00092490AA8FDF7A6FAA0680BF0ECFE0368C9
:10BF00000DAE5B69984728000AF08AFE332004AB27
:10BF1000C0180AF085FE3A2004ABC0180AF080FE73
:10BF2000412004ABC0180AF07BFE8023DB00B38005
:10BF3000A0680D950BF0CFFE036831005B6D98474C
:10BF4000A0680BF0C8FE036800219B6D9847A068AD
:10BF50000BF0C1FE0700002506000A371F22002152
:10BF600038000DF0D5FAFD7730000AF096FE062174
:10BF7000A0680AF0B1FE099A09219378A0680432FA
:10BF80000AF0BDFEA0680BF0A6FEC8210571A068EE
:10BF9000FFF78CFCA0680BF09EFEFF272E000581AA
:10BFA000A0680BF098FE0AF081FE0398FEF7B8FC3B
:10BFB0000AA90CA809F08CFD78220CA90398FEF7B9
:10BFC00077FD0CA809F02DFD039920000AF0F6FE7C
:10BFD0002000FCF751FF0495012563691D402DD019
:10BFE00057490BA8FDF708FB0BA90CA809F0E4FDC5
:10BFF00000220CA91300019200920398FEF7FCFCAA
:10C000000CA809F0CCFD049B002B42D1043F282F43
:10C0100041DD0025FE2F00DC049D059809F0EAFFB4
:10C02000002806D0012362699A43130004221343B7
:10C03000636100260BA809F0B2FD04950422636930
:10C04000134233D0FF210398C826FEF757FD002581
:10C05000B600A36902229B5EAB4222DD200029B21A
:10C06000183009F062FD0023010003981A007430B3
:10C07000FDF712FB3000FCF797FF03980AF0D7F9A1
:10C08000C820FCF791FF02226369134209D10135F0
:10C09000DFE70437BBE703980AF0C9F9002FBCDDDE
:10C0A000BAE7FA208000FCF77FFF002602236569CB
:10C0B0001D421CD006331D4024D022490BA8FDF799
:10C0C0009BFA0BA90CA809F077FD00220CA901929C
:10C0D000009213000398FEF78FFC0CA809F05FFD97
:10C0E0001948FCF761FF0BA809F059FD174E6420B1
:10C0F000FCF75AFF164B01369E4200DC6CE709F054
:10C100005CFB69E713490BA8FDF776FA0BA90CA8AD
:10C1100009F052FD2B002A000CA901950095039807
:10C12000FEF76AFC0CA809F03AFD0BA809F037FDF0
:10C13000DDE7C04696A70200A6A70200A8A7020056
:10C14000B6A70200FBA70200983A00008C0A000084
:10C150008B0A000038A802000022594BF0B50833C2
:10C16000060003600F001000A9B0B1600BAB991876
:10C1700001324870102AFAD10F3A524C1A700E321E
:10C18000105D991A0874013AFAD2997B5A7B090218
:10C190000A4331000C31039125211B7813AD2B701C
:10C1A00002ABC918452302A81B186A821800102286
:10C1B0000DF092F9039B64216B610123002402AA14
:10C1C0002B7752181993093313701DAB1C706D2314
:10C1D00002AA9B181C706E2321009B181EA80C221B
:10C1E000EC836C621C700DF093F9374B0C2221002C
:10C1F00023A8AB63EC630DF08BF9344B02AAEB641C
:10C2000046239B180322DA7722002C6505953473A8
:10C2100006AD2B1901345A70102CFAD101232C4889
:10C220002B700E33195CEA1A1174013BFAD21121FA
:10C230002520AA7B6B7B12020BAC13432A78638206
:10C2400002ABC9182270C01810220DF045F9012365
:10C25000237505ABA36100233800A3830BF03FFDDA
:10C26000036821001B68984713ABDB8BB068B3826F
:10C270000BF035FD002203680092B18A039ADC6856
:10C280000123A047B0680BF02AFD07001420FCF73B
:10C29000CDFF0022012304000261069240C0083253
:10C2A000290007930DF018F90A4BE360BB69002BD6
:10C2B00003D13000BC6129B0F0BD2361F9E7C0466D
:10C2C000BC99020095A80200B56B0200A76B0200A2
:10C2D000A5A802001D6E0200F0B500260400734BF5
:10C2E000DDB0083303608160C260868086713200F1
:10C2F0006F4947A80AF032FE2300143301250427B2
:10C3000008931223009704950193089A330047A9D4
:10C31000039602961DA8FFF77FFA3200654947A8E9
:10C320000AF01CFE082022000097330015AF1032DF
:10C330000495019047A90396029632A8FFF76CFA7C
:10C3400032005D4938000AF009FE2300082004226B
:10C350001C33099339003300049501900092039631
:10C36000099A029647A8FFF757FA32005349380056
:10C370000AF0F4FD5420FCF759FF050020000123CA
:10C380001221042218300790049301910092390081
:10C3900002003300280003960296FFF73DFA2800BA
:10C3A000474BA5620822EC620AA930300A930B962B
:10C3B0000DF092F8434B0422AB63012329352B7017
:10C3C00009992661E66107980DF086F8042207991D
:10C3D00008980DF081F86621032304AA8918CB7709
:10C3E000BA2104AA8918CB77872104AA49008918A1
:10C3F000A26ACB77911CA685CB771DAB0C9332AB91
:10C400000D930F9247AB32002F4910A80E930AF0FC
:10C41000A5FD3021452004AB5B181B7812313B7021
:10C4200004AB5B181B8811397B8204ABC918C01898
:10C4300010220DF051F804220CADA0683A75BD61D0
:10C44000BE830BF04CFC036839001B6898478222BE
:10C4500004AB9B181B885432238404AB9B181B88A5
:10C460005432A38404AB9B181B88A06863840BF030
:10C4700036FC07001420FCF7D9FE0500134B0661BB
:10C4800008221093119610A910C00DF025F8104B3A
:10C49000EB60BB69B34206D1BD612000FCF7ECFC48
:10C4A00020005DB0F0BD2B61F6E7C046C8990200E0
:10C4B000D5A80200B5A80200C5A80200E5A80200A0
:10C4C0002F6F02009B6E0200F5A802003DC501001F
:10C4D000C56E0200F0B504000E00150085B01F0007
:10C4E0000CAB1B881030019309F02CFB2680658073
:10C4F0001820FCF79BFE02AE050033000AAA03CA0F
:10C5000003C32F602800082700213A000C300CF0EC
:10C51000FFFF3A003100281D0CF0DEFF064B02221F
:10C520006B61200000230199A5600A43E360A280AB
:10C530002362636205B0F0BDEF6E0200F0B50B89B7
:10C540008DB00593CB68060004934B88828C9A4289
:10C550000ED1049C049B059A9B181B1B032B3BDDEF
:10C5600062882188012308A809F0F6FA0434F1E76B
:10C57000428C9A4230D1049C049B059A9B181B1B49
:10C58000032B29DD2388282006936388F768079307
:10C59000124B089300230993FCF748FEC0236A4618
:10C5A0000500029308AB03CB03C233000699079A38
:10C5B0002800FFF78FFF3B6829005B683800984729
:10C5C000002807D0002D05D0280009F0E0F9280048
:10C5D000FCF74CFE0434CFE70DB0F0BDAD6F0200A8
:10C5E00070B5040090B080680AF0DBFC02210140C5
:10C5F0001AD1A38D002B17D00C4B6A46049310233D
:10C60000E568A1850591029304AB41CB41C20A00C4
:10C61000230006A8FFF75EFF2B6806A99B68280089
:10C62000984706A809F0B3F910B070BDAD6F0200CD
:10C63000002815D0006041608260C36004614561DC
:10C640008661C761444604624C4644625446846233
:10C650005C46C462644604636E4646637446846303
:10C66000002A06D0C46B043C043A25681560B44225
:10C67000F9D18C6BA6464E6BB546002B06D0CC6B21
:10C68000043C043B1D682560B442F9D10C6BA44600
:10C69000CC6AA3468C6AA2464C6AA1460C6AA046A4
:10C6A000CF698E694D690C69CB688A6808684968EA
:10C6B0007047006041608260C360046145618661CB
:10C6C000C761444604624C464462544684625C46F8
:10C6D000C462644604636E46466374468463C46BF6
:10C6E000043C043925680D60B442F9D1C7698669F4
:10C6F000456904697047006041608260C3600461FD
:10C7000045618661C761444604624C4644625446B2
:10C7100084625C46C462644604636C464463744647
:10C72000846304697047846BA646446BA546046B1A
:10C73000A446C46AA346846AA246446AA146046A1F
:10C74000A046C769866945690469C368826800684C
:10C750004168704710B5041E0CD00CF019FF431E41
:10C76000E3189C4208D222781978013B21705A7054
:10C770000134F6E7014810BD0020FCE717FCFFFF7D
:10C78000F0B585B002900C1E2AD00023C217161AED
:10C7900056400193019B30005D1C63190A215F1E06
:10C7A000039303F0C3FF49423031397030000A214E
:10C7B00003F0D6FE47420600002F0FD1029B002B4C
:10C7C00004DA2D23019D039A023513700023200003
:10C7D0006355FFF7BFFF380005B0F0BD0195D9E7FD
:10C7E000004FF8E717FCFFFF10B582604A430400D2
:10C7F0004160002A0ADD074B90009A4201DD0120CA
:10C800004042FCF713FD2060200010BD00230360B0
:10C81000FAE7C046FEFFFF1F4A688B6870B5836069
:10C82000534304000D004260002B12DD0A4A9E00B3
:10C830003000934201DD01204042FCF7F7FC002369
:10C8400020602A68D158C15004339E42FAD120009A
:10C8500070BD00230360FAE7FEFFFF1F70B50028DC
:10C8600017D1114D2E68002E11D108300CF004FDA7
:10C87000066046600D4E04003368002B02D10BF0B9
:10C8800019FE306023682C609B00F35863602868B1
:10C8900070BD0122064907480B681340F8D10260B9
:10C8A00043600A60F4E7C0460C27002018270020E8
:10C8B0000827002010270020002370B50400016025
:10C8C000436099420AD1064D2B68002B02D10BF030
:10C8D000F1FD286023689B00EB586360200070BD69
:10C8E00018270020436810B50400002B02D104482B
:10C8F0000CF0D6FB606803681B69984710BDC04602
:10C9000005A90200436810B50400002B02D10448B9
:10C910000CF0C6FB606803689B69984710BDC04671
:10C9200005A90200436810B50400002B02D1044899
:10C930000CF0B6FB606803685B6A984710BDC046A0
:10C9400005A9020010B5040002F028FC034B1B6887
:10C95000002B01D02000984710BDC04620270020A2
:10C96000F0B58BB0050001F087FE002000F0ACFEB2
:10C97000036807001B6998473B6804009B693800FF
:10C9800098473B6806005B6A380098470300288890
:10C9900010380B2862D803F04FFD063E6161615BE1
:10C9A000616161676179AF88200039000BF049FB54
:10C9B00022006B7B583201931378A8799C4602239E
:10C9C00061460B43137004AB1F80012304AA9370CC
:10C9D000D07013006A461279E91D9A722B00062264
:10C9E000163305A809930CF077FD29000B2004AB42
:10C9F00006220E31C0180CF06FFD94346368A360FA
:10CA0000A06800282AD0C36804A99847A368002B0F
:10CA1000F4D01B69F3E720002F49AF880BF011FB1E
:10CA20002200022058321378A9798343137004AB93
:10CA30001F809970A0346368A360A06800280DD09F
:10CA4000C36804A99847A368002BF4D01B69F3E7D7
:10CA50005B69A888A91D002B00D0984729003000E9
:10CA60000BF07EFE0BB0F0BD636E002BF6D0AF79FD
:10CA7000A366A06E0028F1D0C36839009847A36E62
:10CA8000002B01D1636EF3E71B69F1E701226946D0
:10CA90000D27AB7BEF571A4001925A07920FDB0824
:10CAA0000A720B730622E91D04A80CF015FD6A46F4
:10CAB000127904ABDA716A46127A9F711A726A4669
:10CAC000127B20005A722B000F3307938C34803076
:10CAD000236804A99847C1E7FFFF00000723D72870
:10CAE00002D9024B18600023180070471C27002051
:10CAF000014B18607047C046202700201FB58022D8
:10CB0000A323D205DB00D3580820DB0700D405306F
:10CB10001C4B48221C4902F011FE00280AD080B2AA
:10CB2000002807D1BFF34F8F184B194ADA60BFF3C3
:10CB30004F8FFEE7002302A8029301330370154BC9
:10CB40001B6843600BF0D7F8002802D0072005B01F
:10CB500000BD68460BF0CDF80028F7D169460BF010
:10CB6000C6F80028F2D10C4802F018FE80B2002866
:10CB7000EDD10A4802F01CFE80B20028E7D100F097
:10CB80001FF8E4E7FB7C02002427002000ED00E012
:10CB90000400FA051C27002061C9010045C90100F5
:10CBA00080B2002807D1BFF34F8F034B034ADA60EE
:10CBB000BFF34F8FFEE7704700ED00E00400FA0579
:10CBC0001FB5002302ACA380104B01A80293C82319
:10CBD0005B00E380803BFF3B037005220C490BF0B8
:10CBE00098F880B200280FD1802080000BF08DF8DB
:10CBF00080B2002808D120000BF089F880B200280C
:10CC000002D10BF080F880B204B010BD2800900172
:10CC100028A90200024B0B60092313607047C0462D
:10CC20002EA9020010B50400002000F04DFD03689D
:10CC30001B6998470300F3331C7086235B00C050C8
:10CC400003000021044AFC335A61044A99615A6284
:10CC5000F4300CF0A1F810BDFF7E0200117F02003D
:10CC6000012110B5044A080002F0A6FC00239842F6
:10CC700000D00B33180010BD25CC0100F8B505001D
:10CC80000400AC356B68AB60A868002807D0C368A7
:10CC900021009847AB68002BF4D01B69F3E726000E
:10CCA000B0363568002D05D02F6928000CF0E0FA69
:10CCB0003D00F7E72200FC2135605832137826004A
:10CCC0000B40137023000A365C331D701F222900AD
:10CCD00030000CF01DFCF5772A361F2229003000A9
:10CCE0000CF016FCF577606E002804D005690CF096
:10CCF000BFFA2800F8E72500983560662868002804
:10CD000004D006690CF0B4FA3000F8E72600A43627
:10CD100028603568002D05D02F6928000CF0A8FA8E
:10CD20003D00F7E72000356029000C226C300CF044
:10CD3000EFFB2000074BE567A36729000C2280303A
:10CD40000CF0E6FB2300044A8C33903428001A6070
:10CD50002560F8BDF17E0200E37E0200F0B593B0DD
:10CD6000019000200C0000F0AFFC03685B6A98475C
:10CD700000F082F906AB00280ED000221A7105AA35
:10CD80000692082218001A730AAA9A6000F042FA62
:10CD9000002803D013B0F0BD187118730027277353
:10CDA0002771019BBA331B78BB4242D907237B43CF
:10CDB0001A000199BB32CB18BB331B788A18029238
:10CDC000022B2ED1002506AE337BAB4223D9AB001C
:10CDD0000393089BAA00995802980BF03CF900288D
:10CDE0001CD0B3689C46AB001900237B61440293BE
:10CDF0009A000868A368D050029B01332373337BE9
:10CE00005A1E954205D00C481B1860469B001B58C3
:10CE10000B6006AB1A730137FFB2C2E70135EDB202
:10CE2000D1E72379216802989A0001335050237189
:10CE3000F1E70020AEE7C046FFFFFF3FF0B50A78FC
:10CE400004009BB00D000220012A08D04B88032A61
:10CE500007D1A03B21499BB210008B4207D91BB0E0
:10CE6000F0BD203B1E4A9BB203209342F7D81D4BD6
:10CE7000AA8803209A42F2D80AAB009312AB02931D
:10CE80006A460023260013711373B8363378002BDB
:10CE90001DD104AF1822002138000CF039FB2B788B
:10CEA00038003B7033783B726B46FB606B883B828B
:10CEB000AB887B820AF039FF02000320002ACED122
:10CEC00001235834217810000B432370C7E76946CB
:10CED0002000FFF743FF0028DBD0C0E7603F0000E1
:10CEE000E03F0000FF3F0000F0B59DB01E006B4624
:10CEF00004001A70581C0622229D0CF0EDFA002E38
:10CF00002ED0328802AB1A8072885A80B2889A80FA
:10CF1000F288DA800CAB04AE049314ABB360270044
:10CF20000023B937337133733B78002B1ED10122B4
:10CF30003B78022708A9134058000B784E60BB438A
:10CF40000343002D1AD12000323000789343104063
:10CF500003430B70A38D0B81E38D4B81238E17E070
:10CF60001A4B029396239B040393D3E731002000CE
:10CF7000FFF7F4FE0028DAD01DB0F0BDA879934386
:10CF8000104003430B702B880B816B884B81AB885F
:10CF900002AA68468B810AF0DEFE0300002083426D
:10CFA000EAD00630082BE7D006D80130042BE3D0B6
:10CFB000834209D10420DFE70520112BDCD0044A8D
:10CFC0009342F7D0102BF5D00B20D5E73200640048
:10CFD0000232000070B500200D0000F075FB036800
:10CFE0005B6A98472B780400142B1ED003D8132BB0
:10CFF0000CD0002070BD152B1FD0222BF9D16B68EF
:10D0000018882369002BF4D09847F2E76B68012554
:10D0100018889B78646819005A08DB0629402A4062
:10D020005B0F002CE5D0A047E3E76B681888997880
:10D03000A368002BDDD09847DBE768688278130986
:10D040001207120F012A03D0022A0BD0002106E09A
:10D05000013BDBB20021022B01D8064AD15C0088DB
:10D06000E368E6E70421012BF9D00131022BF6D069
:10D07000ECE7C04637A90200014B18787047C0465C
:10D08000E1290020F0B51D000023304F87B0009249
:10D090003A7806000C009A4204D102F0B3F8002856
:10D0A00003D00B23180007B0F0BD002D0ED003A94C
:10D0B000222003950AF0CDFF002807D00623082878
:10D0C000F0D01138434243410433EBE7002302AA76
:10D0D0001000137001F08AF80028E2D101251C49E4
:10D0E00002220B782E40AB43334307269343019330
:10D0F000009B2C4033409340AC409C46019B02AACD
:10D100001C431C239C4363461C430E239B1818801E
:10D11000104B0C700393022303AC2371093002AB54
:10D120000522C0180CF0D8F921000B4801F0C8F80E
:10D13000002807D033000428B4D0013B0828B1D020
:10D140000533AFE73D700300ACE7C046E12900209E
:10D15000F1210020D5CF0100E229002010B50748B9
:10D1600001F086F90023984206D00733042803D043
:10D17000013B082800D00533180010BDE22900202B
:10D18000002373B501930F4B01AD1B780E002900EE
:10D190002B7001F031FC041E05D00423052800D0BB
:10D1A0000733180076BD3100280001F0C3F82300D2
:10D1B0000028F6D007230428F3D0013B0828F0D03C
:10D1C0000533EEE7E229002073B5114C0E0005008F
:10D1D0000522210068460CF07FF9012E03D0022EB3
:10D1E00010D002230CE002222378B3439343694614
:10D1F000280023700AF02BFF0023984200D00B3345
:10D20000180076BD012322781343B343EFE7C046ED
:10D21000F1210020094B10B51A7801000923002ADA
:10D2200009D0074801F0BEF80023984203D0033329
:10D230000E2800D00333180010BDC046E12900209D
:10D24000E229002000487047FFFF0000F0B597B0CA
:10D250000593036807AD1B680491039311002B002D
:10D26000060091C991C30024D36821000C220CA8A8
:10D27000EB602C610CF04CF922000B4B10940F93D7
:10D2800011AB1C70191901344A70102CFAD15A8252
:10D290000193059B2A00009304990CAB3000039C7A
:10D2A000A04717B0F0BDC0466D81020070B5FC30DC
:10D2B000046C0500002C0DD124200BF0DDFF064B83
:10D2C00044608361054B8460C46004614461C4614F
:10D2D00003602864286C70BD409B0200289C0200FB
:10D2E00070B5FC30C56B0400002D11D134200BF05B
:10D2F000C3FF084B85604360074B45610361074BE3
:10D300000562C361064BC5628362064BE06303603E
:10D31000E06B70BD709B0200609B0200D09B02001E
:10D32000E09B0200F09B02007FB503791548002BBB
:10D3300022D0154E154C33782000002B1CD102ADA5
:10D3400028000AF0FEFE002810D16B88592B0DD161
:10D350002B78AA88D91F012910D800920C4A2021C5
:10D36000200007F029FC0123337004E02022094942
:10D3700020000CF014F9200004B070BD0092064AA1
:10D38000EDE7C0463AA90200032A0020E329002065
:10D390005CA9020054A9020079A9020010B504009A
:10D3A000024B08C00AF09FFF200010BD609B0200E6
:10D3B00010B50400024B08C00AF0AAFF200010BDFF
:10D3C000709B0200064B70B50400036040680028A3
:10D3D00004D005690BF04CFF2800F8E7200070BD71
:10D3E000509B0200064B70B50400036040680028A3
:10D3F00004D005690BF03CFF2800F8E7200070BD61
:10D40000809B0200064B70B5040003604068002852
:10D4100004D005690BF02CFF2800F8E7200070BD50
:10D42000909B0200064B70B5040003604068002822
:10D4300004D005690BF01CFF2800F8E7200070BD40
:10D44000D09B0200064B70B50400036040680028C2
:10D4500004D005690BF00CFF2800F8E7200070BD30
:10D46000E09B0200064B70B5040003604068002892
:10D4700004D005690BF0FCFE2800F8E7200070BD21
:10D48000749A0200064B70B50400036040680028DF
:10D4900004D005690BF0ECFE2800F8E7200070BD11
:10D4A000849A0200064B70B50400036040680028AF
:10D4B00004D005690BF0DCFE2800F8E7200070BD01
:10D4C000949A0200064B70B504000360406800287F
:10D4D00004D005690BF0CCFE2800F8E7200070BDF1
:10D4E000A49A0200064B70B504000360406800284F
:10D4F00004D005690BF0BCFE2800F8E7200070BDE1
:10D50000409B020070B5FC30046C0500002C0DD16E
:10D5100024200BF0B1FE064B44608361054B846010
:10D52000C46004614461C46103602864286C70BDF8
:10D53000409B0200289C0200104B10B5083303608A
:10D540000F4B0400C36080230E4A5B00C250C0181A
:10D55000FDF7BCF820000C4BB830E360FFF7B2FFDA
:10D560002000AC30FFF79EFF2000A030FFF78AFFBD
:10D5700020006C30FFF776FF200010BD549C0200A5
:10D58000E89902007C9D0200B49A0200444AF0B57A
:10D590000600C260A022434B163608330360010028
:10D5A000002342820400320085B00371836003745B
:10D5B00083823531137001329142FBD18025802264
:10D5C0002000AD00D201F37735841100009338308C
:10D5D000002300F029FB23002100403303931A00AD
:10D5E0002B0000255F31157001328A42FBD1039A6E
:10D5F000FC21D577220060321380137920000B4084
:10D600001371230068331D70274B2567E3660C22D6
:10D61000002178300BF07CFF2300270088331D6049
:10D62000224B0837FB67843700210C2238000BF0AF
:10D630006FFF1F4B1F4AFB602300A0333D611A6040
:10D640001D4A5D60DA601D4A1D619A61DD6130002E
:10D650000AF027FF03980AF024FF194B601CE360CF
:10D660002300C4331D705D709D70FF3002F0ECF834
:10D670008C235B00E55023001933FF335D61802369
:10D68000104A5B00E250230001222000FE33524288
:10D690005A86023B9D63DD631D6405B0F0BDC04644
:10D6A000B49A0200549C0200749A0200F17E0200B7
:10D6B000E37E0200849A0200949A0200A49A020077
:10D6C000E89902007C9D020070B5074C2368002B8E
:10D6D00007D1A02040000BF0CFFD0500FFF756FF5B
:10D6E0002560206870BDC0466C27002070B50C22F4
:10D6F0000D00002104000BF00BFF00232361024BFF
:10D7000025602000E36070BD5F81020070B50025D8
:10D710000400254B85800360244BC5608360244B47
:10D7200085614361234B45620362234B0563C362FA
:10D73000224BC563836329004430FFF7D7FF2000E5
:10D7400029005830FFF7D2FF200029006C30FFF786
:10D75000CDFF1B4B2200236023008032F83320C210
:10D760009342FCD126001D00E936FF36280008222E
:10D77000002108350BF0CCFEAE42F7D18E230022FB
:10D780009B00E11804C6B142FCD18E2300219B000E
:10D79000E2540C4B0C4AE318A218198002339A4247
:10D7A000FBD1200070BDC046A09B0200509B020030
:10D7B000609B0200709B0200809B0200909B020015
:10D7C0009C9C02003A0200006202000013B504684B
:10D7D0000093A46813000A000149A04716BDC04683
:10D7E000FFFF000037B506AC25780468019500936B
:10D7F000246913000A000149A0473EBDFFFF000055
:10D80000F0B587B00D00002469466F4616004C80C5
:10D810000DAA0CA90988127839800193A2421BD164
:10D8200001004479F83194420DD908310F00083FC6
:10D830003F88B7421BD1302120329200125801326A
:10D84000D27F0A4215D16A46310028000AF0B6FE9E
:10D85000002808D1062407E06A46310028000AF0B3
:10D86000ADFE002800D00324200007B0F0BD013237
:10D87000D9E710210A4051424A41002002ACE3603E
:10D880000CABA360174B01322680A270A0809D4292
:10D8900007D1FFF719FF03681B6998470AF0D4FB0B
:10D8A0000500210028000AF08DFE002482B2A24269
:10D8B000DAD0112A13D00BD8082ACBD06A4631000F
:10D8C00028000AF07BFE05240028CDD0023CCBE7DF
:10D8D000054B9A4203D0054B9A42EFD1BAE7052493
:10D8E000C2E7C046FFFF0000033000000134000023
:10D8F000F0B5050099B008002E240C9100F00EF947
:10D9000006ABE4181290220012A901200AF054FE7E
:10D91000002802D0032019B0F0BD23880C9A0B9088
:10D9200093830C9B0B9A1B7D934200D8C6E06B79C6
:10D930001D2B01D90720EEE70C9B9B690D930B9BD8
:10D940000D9A9B009C586369002B07D1638B002BB9
:10D9500004D1631CDB7F022B00D1AAE0200000F081
:10D96000DDF823000026283312900E960D960F93B3
:10D970000F9B1B78B34221D9626AB3009F583422AF
:10D9800006AB9B1800221A700023002113AAD2189C
:10D9900001335170102BF8D1462206AB9B184A4A2E
:10D9A00013A938001A800AF08CFE002803D07B6986
:10D9B0000D937B8B0E930136F6B2D9E76979A31CE0
:10D9C0001F31C9006918621CDB7FD27F08912100DA
:10D9D0002A31097800200791210029310978069120
:10D9E0000E9905910D990491217F0391218B02914C
:10D9F000618B01916169009112A90AF0E4FF00288E
:10DA000000D087E76B7907001A00203292001F339D
:10DA10005451DB005B5BE3836B7901336B71230053
:10DA200028331B78BB4244D98E239B00EB5C132B1D
:10DA300000D97FE7626ABB009E580023180013A933
:10DA40000B70CA1801335070102BFAD11E4B3000E6
:10DA50004B820AF036FE0D90002827D1300000F0EE
:10DA60005DF88E2189006A5C738B1E32FF32520092
:10DA7000AA180292327F12900192328B12A9009260
:10DA800072690D9800F09AF8002800D042E78E21C4
:10DA900089006A5C531CDBB26B541D337A32FF334E
:10DAA00092005B005651EB185B88F3830137FFB29D
:10DAB000B5E70B980130C3B20B9332E72B79002006
:10DAC00001332B7127E7C0460129000070B505001E
:10DAD0000AF015FD04000620002C1CD12800782235
