:020000021000EC
:1080000000400020390902007509020077090200CA
:108010000000000000000000000000000000000060
:1080200000000000000000000000000079090200CC
:1080300000000000000000007B0902007D09020032
:108040007F090200ADB60100E50502007F090200CC
:108050007F09020000000000390702007F090200CA
:108060007F0902004D010200A90602007F090200FB
:108070007F0902007F0902007F0902007F090200D8
:108080007F0902007F0902007F0902007F090200C8
:108090007F090200B9FB0100E5FD01007F09020034
:1080A0007F0902007F0902000000000000000000BC
:1080B00000000000000000000000000000000000C0
:1080C00010B5064C2378002B07D1054B002B02D0AE
:1080D000044800E000BF0123237010BD20220020CF
:1080E0000000000078B40200044B10B5002B03D050
:1080F0000349044800E000BF10BDC0460000000076
:108100002422002078B40200164B002B00D1144B1F
:108110009D46402292029A1A924600218B460F46B3
:108120001348144A121A11F08BFE0F4B002B00D08B
:1081300098470E4B002B00D09847002000210400E8
:108140000D000D48002802D00C4800E000BF0CF0E4
:1081500065FF2000290011F03EFA0CF049FFC046EF
:1081600000000800004000200000000000000000A7
:1081700018220020C82A0020000000000000000093
:1081800010B50400034B036040300EF00DF82000E2
:1081900010BDC046E8A00200F7B545686A462B004E
:1081A0000833DB08DB00D31A00AF9D460168684640
:1081B00011F086FE6B466C467B607B68E31A9D423D
:1081C0001ADD23782E2B0DD10C4E0121300003F047
:1081D0009DF9FA2001F0BEF80021300003F096F975
:1081E0000134EAE72D2BFBD1044E0121300003F0CE
:1081F0008DF9FA204000EDE7BD46F7BD442200208E
:10820000F0B5D5489BB000F0C7FC1C2001F0E4F9A4
:10821000059000F065FA10AB0E9300230EAA0F93A1
:10822000137201F0A1FA00231C0006900793CB48BB
:108230000EF0AEFA00280ED001F096FA0699079AD1
:1082400000230A900B930A9B0B9C5B1A94410293A8
:1082500003940124EBE7002C31D0029A039B6524A0
:108260006442E517A4185D4108940995099B002B09
:1082700000D09DE02B33089AFF339A4200D997E053
:10828000B74914A80EF066F8099BB64C14A90193DF
:1082900000931A00200002F0B7FD14A80EF04DF86C
:1082A0002E210EA811F04AFDAF20800001F052F8F7
:1082B00020000EF08AFC01F057FA00270600069A0B
:1082C000079B921BBB411100002B02D1A64B994288
:1082D0004CD933003B4349D0A44914A801F088FA93
:1082E000C822A04C520014A9200002F0B7FD14A827
:1082F0000DF05AFF0EA914A811F04CFD14A9059811
:108300000DF0CCFC050014A811F071FC3F2D00D13C
:1083100089E0290005980DF04EFC0599020014A88B
:1083200000F0BEF914A90EA811F0E3FC14A811F096
:108330005EFC0EA914A811F02DFD14A8FFF72CFF68
:1083400014A811F054FC8A4914A801F051FAC8226B
:1083500014A95200200002F081FD14A80DF024FFA2
:108360000023002600270E9A0F93137000248148E3
:1083700003F002F901286BD101F0F6F90699079A8A
:1083800000230C900D930C9B0D9C5B1A944114A838
:1083900079490293039401F02BFAC82214A95200E0
:1083A000704802F05BFD14A80DF0FEFE0124DEE72C
:1083B0000125029A039B714C6D42A4185D410894FB
:1083C0000995099B002B16D1F333089AFF339A4283
:1083D00011D86B4914A80DF0BDFF099B614C14A97D
:1083E000019300931A00200002F00EFD14A80DF076
:1083F000A4FF2D2155E7039B002B05D1E123029A11
:108400009B009A4200D856E75E4914A801F0F0F9A3
:10841000C822544C520014A9200002F0BFFC14A83A
:108420000DF0C2FE40E7584914A801F0E1F9C82256
:1084300014A95200200002F0B1FC14A80DF0B4FE03
:10844000AF20800000F086FF20000EF0BEFB87E723
:10845000002C15D00298039965225242D3171218A6
:108460004B411100002B49D195235B00994245D81F
:108470002E210EA811F062FC01F076F9002706000B
:10848000069A079B921BBB411100002B03D1364B70
:10849000994200D8C5E633003B4300D1C1E60EA99E
:1084A00014A811F077FC14A905980DF0F7FB04004F
:1084B00014A811F09CFB3F2C04D0210005980DF06E
:1084C000B1FB0400210014A80DF098FEC822254C31
:1084D000520014A9200002F061FC14A80DF064FE03
:1084E000AF20800000F036FF20000EF06EFB00236E
:1084F0000E9A0F9300261370002792E6012302982C
:1085000003991E4A5B4212184B411100002B05D102
:10851000F9235B00994201D82D21AAE7039B002B88
:1085200004D1E123029A9B009A42A5D9154914A8C7
:1085300001F05EF9C8220B4C520014A9200002F091
:108540002DFC14A80DF030FEAF20800000F002FFDB
:1085500020000EF03AFB8FE77C22002054220020FE
:108560004022002068230020DC0500006EAD0200E0
:1085700070AD02004422002074AD02006FFEFFFFC8
:108580003C220020FEB0020072AD020073B51D4D0A
:10859000280000F041FA1C4C1C492200280011F070
:1085A0003AFA1B4D1B49280001F0FCF91A4E220033
:1085B0003100280011F02FFA184D1949280001F058
:1085C000F1F931002200280011F025FA0023154DA1
:1085D000009301331A001121280001F08BFD2200C5
:1085E0001149280011F017FA104D0F23280002221C
:1085F000082102F03FFF280022000D4911F00BFA7C
:1086000073BDC0467C22002000200020358601007A
:108610004022002000AD02003B6302003C2200200B
:1086200035AD020054220020DDA0010044220020CC
:10863000455B0200EB23194A9B0010B5C2501C3366
:108640000400C0180DF0B0FDF1239B00E0180DF000
:10865000ABFD84239B00E01801F07AFD2000C530BB
:10866000FF3001F099FA20008D30FF3001F036FD27
:1086700020006530FF3001F031FD2000EC3002F0C9
:1086800009FA2000D03002F0DFFD2000643007F04E
:10869000BBFB201DFFF774FD200010BDECA2020003
:1086A00070B50C000D49050016000DF05BFAE3688B
:1086B000A361A169231D994208D00B0028331B78C0
:1086C000B34205D11031280011F0ADFA280070BD79
:1086D000200018300DF067FAEBE7C04672AD0200DB
:1086E00070B5A84CA849A544040068460DF03AFAB4
:1086F00041236A46A549137607A80DF033FA4222B2
:108700000DAB1A70A2490EA80DF02CFA432214AB3F
:108710001A70A04915A80DF025FA44221BAB1A7057
:108720009D491CA80DF01EFA452222AB1A709B49E8
:1087300023A80DF017FA462229AB1A7098492AA8E7
:108740000DF010FA472230AB1A70964931A80DF09F
:1087500009FA482237AB1A70934938A80DF002FA8B
:1087600049223EAB1A7091493FA80DF0FBF9FF2357
:108770004A226B445A758E4946A80DF0F3F99823A6
:108780004B2269465B00CA544DA88A490DF0EAF9AC
:10879000A6234C2269465B00CA5454A886490DF0B2
:1087A000E1F9B4234D2269465B00CA545BA88349B2
:1087B0000DF0D8F9C2234E2269465B00CA5462A864
:1087C0007F490DF0CFF9D0234F2269465B00CA5490
:1087D00069A87C490DF0C6F9DE23502269465B008A
:1087E000CA5470A878490DF0BDF9EC2351226946AE
:1087F0005B00CA5477A875490DF0B4F9FA235222E8
:1088000069465B00CA547EA871490DF0ABF9842318
:10881000532269469B00CA5485A86E490DF0A2F9FF
:108820008B23542269469B00CA548CA86A490DF0D8
:1088300099F99223552269469B00CA5493A8674927
:108840000DF090F99923562269469B00CA549AA8C4
:1088500063490DF087F9A023572269469B00CA544B
:10886000A1A860490DF07EF9A723582269469B0014
:10887000CA54A8A85C490DF075F9AE23592269467F
:108880009B00CA54AFA859490DF06CF9B5235A2280
:1088900069469B00CA54B6A855490DF063F9BC233C
:1088A000312269469B00CA54BDA852490DF05AF9BD
:1088B000C323322269469B00CA54C4A84E490DF016
:1088C00051F9CA23332269469B00CA54CBA84B49AD
:1088D0000DF048F9D123342269469B00CA54D2A82E
:1088E00047490DF03FF9D823362269469B00CA5408
:1088F000D9A844490DF036F9DF23352269469B009B
:10890000CA54E0A840490DF02DF9E6233722694604
:108910009B00CA54E7A83D490DF024F9ED23382205
:1089200069469B00CA54EEA839490DF01BF9F4239F
:10893000392269469B00CA54F5A836490DF012F950
:10894000FB23302269469B00CA540023221D1C26AB
:10895000E26022612371A3606361FCAA20000DF034
:10896000F4F97642F5AD6E4428001C3D11F03FF954
:10897000B542F9D100232000A361FC239B009D4454
:1089800070BDC04610FCFFFF8EAD0200C0AD0200FE
:1089900078AD0200C7AD0200CFAD02007DAD020090
:1089A000CDAD0200B4AD0200C8AD0200A2AD020020
:1089B0008DAD020082AD0200D4AD0200CEAD02004A
:1089C000D3AD020087AD02008CAD020079AD02008C
:1089D000C1AD0200D5AD020092AD0200AEAD020005
:1089E00097AD020091AD020096AD0200C6AD020047
:1089F0009BAD0200A1AD0200A7AD0200ADAD02002B
:108A0000B3AD0200B9AD0200BFAD0200C5AD0200BA
:108A1000CBAD0200D1AD02001423F0B5040095B037
:108A2000009319221821043002F090FE2200270042
:108A30006432B43713211000119207F0F1F93800B5
:108A40000EF00AFC2200B83210921E21002210986B
:108A50000EF0C0F82000D03002F016FC2200EC32FC
:108A600012920621494A129802F038F82000002696
:108A7000012365301A0000961121FF3001F03AFB06
:108A800020008D300096012302221A21FF3001F0D0
:108A900031FB25002000C535B530FF351A230222F1
:108AA0000121FF3002F0AEFC109904233A22280085
:108AB00001F022F984229200A218139205231D22AC
:108AC000019300923B002A001099139801F036FDA3
:108AD00096229200129BA01813992A0001F008FF19
:108AE00099229200A01839001C2202F05BFF192382
:108AF0009F220F93013B0E93013B0D93013B0C937F
:108B0000013B0B93013B0A93013B0993013B089303
:108B1000013B0793013B0693013B0593013B049303
:108B2000013B0393013B0293013B01939200013B04
:108B3000A01800930822013B07210EF053F8EB2305
:108B40009B00E018390003F0CDFAF3239B00E018F6
:108B50001D2102F047FDFD239B00E6501198267071
:108B6000032110F068FC23002200200008499C33F8
:108B7000A0321C6011605660064A80305A610221A2
:108B8000012207F08BFE200015B0F0BDF0A002001E
:108B9000F75D0200E15D02000123F0B5067889B0BF
:108BA00004001E4000D0ADE0FD20800500F0DCFC9C
:108BB0002300D0331800029300F0B0FA00F0A6F9B9
:108BC000282000F009FD050010300DF089FB4E4B08
:108BD00018202B6000F000FD07004C4B04600822B9
:108BE00031000C300693079611F02AF906A9381DBA
:108BF000082211F009F9464B29007B611223AF606E
:108C0000EE60AB802E626E62029802F0B5FA002828
:108C100005D028000DF07EFA280000F0FDFC0123AD
:108C2000227864201343237000F094FB0025230076
:108C30006533FF33180003930DF0AAFD00283CD0E4
:108C400020008D30FF300DF0A3FD002835D00A2D17
:108C500033D06420013500F07DFB0A2DE7D12D498A
:108C60002D4800F057FCFD27EB23BF009B00E618C2
:108C7000E359002B1AD100F05DF8010004A800F0C0
:108C8000B7FD05A80DF029F9012305AA04A9009351
:108C90003000029B03F07AFA05A80DF085FA04A8CB
:108CA0000DF082FAED239B00E358E3512100039A73
:108CB000EC31300003F010FCB9E7FD2515491648EA
:108CC000AD0000F027FC6659002E1BD100F032F8F1
:108CD000010004A800F08CFD05A80DF0FEF8EB23C0
:108CE0009B00E01805AA029B04A9009603F04EFA27
:108CF00005A80DF059FA04A80DF056FAED239B00D3
:108D0000E358635109B0F0BDFD030000695E020045
:108D1000295E020000200020001C0020BFF34F8FBE
:108D2000024B034ADA60BFF34F8FFEE700ED00E02D
:108D30000400FA05F0B58DB005AF192215493800C9
:108D400011F062F80022144B05245A71802252055A
:108D5000566E01222500019402920393019930007E
:108D600007F03AFF0800029907F0B0FE019B039953
:108D70006B430193029B361A6B430293631E2C1BB9
:108D80006C433C19225C1C1ECA54E7D108000DB08C
:108D9000F0BDC0460DAE0200F6290020F0B597B038
:108DA00018220021060010A811F04AF8132110A87B
:108DB00010F080FC032110A810F04BFD4C4B1B68F9
:108DC000002B00D10133DBB202934A4A0123002178
:108DD0000BA807F09DFC484B9E4200D9002672B6B6
:108DE000464B64211D68464B30000793052407F06D
:108DF000F7FE60435030281808900A21300007F031
:108E0000EFFE0A2107F0D2FF614350316918099142
:108E100030000A2107F0CAFF80236143002450314B
:108E200069189B010A910193029B002B5DD00025DC
:108E300000272E1F07AB9B190593032C03D180231A
:108E400000249B01019307AB5B592E4A03936300F7
:108E5000D31804930023190006205843049A1618C7
:108E60007678B4466246039EB25C10269446049A15
:108E7000105C62460641164202D001209840014330
:108E80000133092BE8D1C9431F4B059A0901194049
:108E90001268039B934225D1312F23DC00210BA8BC
:108EA00010F0AFFDFA23159A1199DB00106801420A
:108EB0001BD0013B002BF9D1019B01345B000193D6
:108EC000FA230137E4B25B009F42B6D10435102D7E
:108ED000AED1074B1B68002BA6D0029F013FFBB20F
:108EE0000293A1E7019B1943D9E7FFF717FFC0469B
:108EF00078260020F0FF0000E70300000420002097
:108F00005CAE020026AE0200F01F0000F8B50023A0
:108F1000124C23600DF002F8002808D00421200034
:108F20000CF0F8FF002801D00D4B2360F8BD0122A2
:108F3000A12704250B4B0C491A602268FF004860EA
:108F40004E68002EFCD0DE591202013D3243002D46
:108F5000F5D1226001225A60E8E7C046742600205D
:108F6000ED5EBC0B00D00040FCD00040F0B585B0F9
:108F70001F000AAB1B880600029115000393002F07
:108F80001CD0282000F028FB6B4604001989039BA5
:108F9000AAB200933B000DF0A6F8336821005B688D
:108FA0003000984700280AD0002C05D020000DF092
:108FB000B1F8200000F030FB024800E0024805B0A4
:108FC000F0BDC04616FCFFFF17FCFFFF0B4B70B552
:108FD0001C68002C10D0656D00F0C6FBA36C002946
:108FE00001D1834206D820000CF0CBFF04492000B9
:108FF0000CF0B5FF2C00ECE770BDC04680260020C9
:10900000A0260020F0B593B007932A4B04AC1E684D
:10901000049005910692002E4AD0274B2588678838
:109020001C6800230293002C2ED0636D2348039309
:10903000A36C9AB2A36C1B0C99B2854214D1204840
:10904000824211D1002B01D0B9420BD1029B002BDF
:1090500008D120000CF095FF1A4920000CF07FFF8A
:1090600001230293039CDEE7002A01D09542F9D147
:10907000002B01D0B942F5D120000CF082FF11493C
:1090800020000CF06CFFEDE70F4BEB18012B0FD914
:1090900010233A00009329000C4B08A80DF023F888
:1090A000336808A99B683000984708A80DF032F88B
:1090B00013B0F0BD7C260020AC260020FE0300008B
:1090C000FF030000A026002002FCFFFF0590010026
:1090D00010B572B60B4B1C68002C08D020000CF0A9
:1090E00050FF0023E364084B2000E36310BD62B629
:1090F0005C2000F071FA5C220021040010F0A0FE58
:10910000EFE7C046A426002000400020024B18785C
:10911000012318407047C046FC290020F7B506001F
:10912000FFF7F4FF051E33D11A4C2660FFF7D0FF7E
:10913000194B1A4918600CF012FFFFF7C9FF184BC2
:109140001860184B4363184B8363206800280ED0C7
:10915000C027164E2A00330015490097FFF706FF77
:10916000009733002A0013492068FFF7FFFE0C2008
:1091700000F032FA0023838083710F4B03600F4BA2
:10918000836000F009FB01230D4A11780B43137033
:10919000F7BDC0467C260020B0260020A026002077
:1091A000A8260020FC3F0020496002000590010035
:1091B000FF030000FE03000010A10200CD8F01009C
:1091C000FC290020F7B506000D00170001930028C8
:1091D00002D100242000FEBD0029FAD0FFF778FF5D
:1091E000041EF6D0074B019A436306604560876012
:1091F000054B002A00D0054BA363054920000CF065
:10920000AEFEE7E7FC3F0020136002003160020081
:10921000A0260020024B1868434258417047C046C0
:10922000A0260020002310B504499C006258002AA3
:1092300001D00133F9E76050100010BD88260020EE
:10924000002310B5044A99008C58844201D00133A0
:10925000F9E70020885010BD8826002010B50024B2
:10926000084BA200D058002802D003685B689847DA
:109270000134062CF4D1044B1B68002B00D120BF15
:1092800010BDC04688260020A0260020F8B5FFF7B4
:109290003DFF00281BD0294D2C68E36CDA0717D559
:1092A00002263343E3640423254F3868C26C13431A
:1092B000C364636BC3630CF08AFE3868416C03F0CF
:1092C00008FD2868C36C334201D003F03CFDF8BDB3
:1092D0001C4F1D4E3A683168002A1ED129602A6849
:1092E0008A4208D11B0706D52C60FFF7B7FF3B6801
:1092F000002BFAD02B6029688C42E8D03368994261
:1093000014D1124B4B63124B8B6320000CF05FFEA9
:109310002968626C4B6C20000DE0206DB84203D1CF
:10932000606D002800D002002A60D8E79C42ECD192
:10933000002210004B6C03F08BFCC8E7B026002025
:1093400084260020A0260020A8260020FC3F002024
:109350004960020070B50500FFF7D8FE002803D170
:10936000280010F06AFA70BD0C4B1C68E36CDB0738
:1093700006D5FFF7ADFE0A4B1860002800D00400A8
:1093800000F0F2F92D18A56420000CF0FAFD054953
:1093900020000CF0E4FDFFF779FFE4E7B0260020A1
:1093A0008426002080260020F0B51E4B1E4F1C682E
:1093B0003B6885B006000391002B30D0FFF7A6FE76
:1093C00000282CD0E36CDB070ED5FFF781FE174B8E
:1093D000051E186008D00CF0D4FD154928000CF0CB
:1093E000BEFD2C00FFF752FF039B20001B043343FC
:1093F000A3640CF0C6FD20000E490CF0B0FD0E4B2E
:109400000024F318012B07D9C0230093039A0B4BB8
:1094100031003868FFF7AAFD200005B0F0BD084C08
:10942000FAE7C046B02600207C26002084260020D3
:10943000A0260020AC26002002FCFFFF05900100C2
:1094400016FCFFFF10B5FFF761FE002809D0054CA0
:1094500020680CF096FD044920680CF080FDFFF7B1
:1094600015FF10BDB0260020A4260020F7B5070088
:109470000D0000282ED0FFF749FE00282CD007242D
:10948000164E3068C36C1C4007D0154A29003800BE
:109490000CF08EFD00242000FEBD03F03CFC0221F8
:1094A0003268D36C1940019103D003218B43D364FC
:1094B000F1E701242343D3642800B8473268D36C12
:1094C0001900A143D164019C5B07E4D528000CF08E
:1094D000A7FDE0E7034CDEE7034CDCE7B026002005
:1094E0002160020017FCFFFF16FCFFFF020010B511
:1094F000014B12CB12C210BDB4260020034B1A68D8
:10950000034B1A607E225A607047C0460420002038
:10951000B426002070B5104D2B78022B18D0814254
:1095200018D90B1A072B15D90C00032304431C4030
:1095300010D172B62A78094BD200D05098184160E9
:109540000CF088FD2B7801332B7062B6200070BDC3
:109550000348FCE70348FAE7FD290020BC26002069
:1095600013FCFFFF17FCFFFF70B50021041C07F080
:109570003FFC002828D1FE21201C890507F042FC71
:10958000002821D104300BF06DFD05000F48401B71
:1095900008F018FC211C08F0B5F807F067FC03235D
:1095A0009843040028000BF067FD20000BF05AFDE3
:1095B000002804D1203C002CF7D1054803E0011914
:1095C000FFF7A8FF002070BD0248FCE7003800202C
:1095D00013FCFFFF17FCFFFF70B5060000250C4BC6
:1095E0001B78AB4209DD0B49EB00C91830000CF0C9
:1095F00039FD041E09D10135F1E730000BF032FDD1
:10960000041E02D11420FFF7C9FB200070BDC04624
:10961000FD290020BC26002070B5002813D00D4B7A
:109620000D491C7800239C4210DDDA005558854214
:109630000AD28A185268824206D980230438026806
:109640001B061343036070BD0133ECE70BF014FD00
:10965000F9E7C046FD290020BC26002070B5051E94
:1096600014DD0B4E0B4C3368002B02D020680FF03A
:109670005FFFFA2120680024074B89008361C462E0
:10968000694335600FF05CFF200070BD0348FCE7C4
:10969000CC260020FC2600204597010017FCFFFF88
:1096A000F8B5114F06003D68002D0AD13020FFF7B4
:1096B00093FF040006F0D8FB0C4BA5612360E56224
:1096C0003C600B4D2B68002B09D11020FFF784FF65
:1096D00004000FF0F6FE20002C600FF0CCFE3000EE
:1096E000FFF7BCFFF8BDC046FC26002088A602009C
:1096F000F8260020014B18687047C046CC26002091
:1097000070B50D4C2368002B03D00C4B1B68002B4D
:1097100002D10620FFF7C4FF20680FF0C3FE02004D
:109720000749C3170D684E685219734120680A60D3
:109730004B600FF0BDFE70BDF8260020FC26002017
:109740001822002010B5FFF7DBFF0024054BA20014
:10975000D058002802D003681B68984701340A2CAF
:10976000F4D110BDD026002010B5FFF7C9FFFA22B2
:10977000034B920018685968002307F057FB10BD8F
:109780001822002010B5FFF7BBFF024B186859687C
:1097900010BDC046182200200B4B10B51B680400FA
:1097A000002B03D0094B1B68002B02D10620FFF7CA
:1097B00077FF0023064A99008858002801D001331A
:1097C000F9E78C5010BDC046F8260020FC2600208A
:1097D000D0260020002310B5044A99008C588442FA
:1097E00001D00133F9E70020885010BDD0260020B9
:1097F00010B50400002902D00B78002B03D1034BD5
:109800002360200010BD0CF0D6FCFAE720A1020076
:10981000F8B504000E00150000290AD00B78002BC3
:1098200007D0002A05D0080097B210F051FB8742FC
:1098300003D90B4B23602000F8BD681DFFF7CCFE59
:1098400020600CF052FE23682A005F8023683100FC
:10985000181D10F0D9FA23685D1900232B71EAE76F
:1098600020A10200014B03607047C04620A1020006
:1098700010B50548054C20600CF03AFE044A054935
:10988000200010F0C8F810BD20A102000027002021
:1098900000200020A9610200084B73B51C68050078
:1098A000002C0AD00100266808310822684610F012
:1098B000ABFA0CCD31682000884773BD0427002027
:1098C000014B03607047C04628A1020030B5006814
:1098D0004488A1420CDA8588AA4209DA002907DB0C
:1098E000002A05DB5443401800198371002030BD65
:1098F0000048FCE717FCFFFFF0B5070085B00E003D
:109900001D0000291FDD002B1DD004686388039310
:109910008B4200DD0391A3880293934200DD029203
:10992000002306340193019B029A93420EDA290028
:109930002000039A10F068FA3B68AD195B88E418C0
:10994000019B0133EEE7024805B0F0BD0020FBE7C4
:1099500017FCFFFFF8B504000D0016001F000029DA
:1099600001DB002A02DA0E4B2360F8BD10004843E9
:109970000630FFF731FE20600CF0B7FD23685D80F4
:1099800023689E80002F06D03B0032002900200073
:10999000FFF7B2FFE9E720000CF0E4FCE5E7C04682
:1099A00028A10200F0B5060087B00D1E04D1244B9B
:1099B0000360300007B0F0BD00200F00040001007C
:1099C00001903B78002B1AD03022524294469C449E
:1099D0006246092A11D90A2B0AD1019B24180133A6
:1099E0000193A14200DA2100002004000137E8E7DA
:1099F0000028FBD001340020F8E70120F6E76A4692
:109A0000928809B212B23000FFF7A4FF33689C1DA0
:109A100003AB1F002A78002ACBD011003039092966
:109A200003D81A7001330135F4E700221A70BB42E3
:109A3000F9D9380010F0C8F93B0020700134F2E782
:109A400028A10200F0B5040089B006A80E00029219
:109A50001D00FFF74BFD236802995A88914235DAC1
:109A60009B889D4232DA1F2E30D9079B01939E427C
:109A70002CDC0523002273430393069B0493039B72
:109A800004999B18A03BCB5C00210593AE18029B68
:109A9000CF1823685888019087420EDA9888B04220
:109AA0000BDDDB1910270F41019870431B18059837
:109AB0000740781E87417F429F7101310529E6D119
:109AC0000132052ADBD1002009B0F0BD0048FBE7D8
:109AD00017FCFFFFF7B50468070063880E1E0193AB
:109AE0001EDD994218DA0023063400933B68009A81
:109AF0009B889A4212DA019BA1199D1B2A00200023
:109B000010F082F9601931000CF01EFC3B685B8894
:109B1000E418009B0133E8E70CF024FC002000E08F
:109B20000048FEBD17FCFFFF10B50548054C20603E
:109B30000CF0DEFC044A054920000FF06CFF10BD5C
:109B400028A1020008270020002000203B6302001B
:109B500010B5054C012120000CF0BEFC034A04495D
:109B600020000FF058FF10BD0C270020002000201F
:109B7000956402000388074A10B50120934208D07B
:109B8000834202D00020DB0703D41E20FFF706F932
:109B9000002010BDFFFF000010B50400034B083388
:109BA0000360FFF74DFB200010BDC04670A102000E
:109BB000FA2270B5438992005343314A3149140067
:109BC000050038348B421BDC2F498B4218D82F49B3
:109BD000083C8B4214D82E49083C8B4210D82D49A2
:109BE000083C8B420CD82C49083C8B4208D82B49A6
:109BF000083C8B4204D82A4914008B4200D908340F
:109C0000284B2A7B1E1D042A03D89E1C022A00D83A
:109C10001E00FA212068890006F058FF3378688119
:109C20002B7300222A2128000CF086FC002801D08A
:109C30001D4870BD10222B2128000CF07DFC00284F
:109C4000F6D101222D2128000CF076FC0028EFD15E
:109C500001222E2128000CF06FFC0028E8D1727838
:109C60000E2128000CF068FC0028E1D101222379A4
:109C70002A211A4328000CF05FFC0028D9D0D7E72E
:109C800030A1020000C40900007102008038010008
:109C9000204E00001027000088130000C4090000B7
:109CA000E20400003CB002000EFCFFFF7FB515008F
:109CB0000F226A4404001E001170002D16D0002BE4
:109CC00014DD012301890093006B01F0D1F9002814
:109CD00002D0074804B070BD0090218933002A00EB
:109CE000206B01F07BF90028F4D0F2E70148F1E79E
:109CF0000EFCFFFF17FCFFFFF7B5060000250193E0
:109D00001E4B143608330400036085808571C581BD
:109D1000058245820F00009229001822300010F0C1
:109D20008FF81C2130000FF0C5FC6B469B88022188
:109D3000A3806B461B88220023811423A571217305
:109D4000A563A58763813E32137827638B43F13186
:109D50000B4013702300957295810135221DD58724
:109D60000833A21DD5872000DD87FFF721FF0028DB
:109D700002D1A3791D43A5712000FEBD70A1020090
:109D800030B50425837987B004002B4204D1FFF756
:109D900049FAA3791D43A571A36AA2691B6800252E
:109DA0001A4208D106236A4601212000FFF77EFFF0
:109DB000051E03D0114D280007B030BD6B460222AE
:109DC000042069469A561856237BD2005A432282B1
:109DD00002220978C00049B2C90059434343638253
:109DE000A379E1819343A37120000CF0B3FB01231D
:109DF000A1881A0002A80CF07DFADCE70EFCFFFF38
:109E0000F8B50400FFF7BCFF0E22A35E794F5B425A
:109E1000BB4251DA23003E331B789B074CD501250A
:109E2000210028003E310B785A089043020002209E
:109E3000AA40834313430B702000FFF7A1FF1022B9
:109E4000A35E5B42BB4248DA23003E331B785B07CC
:109E500043D50125210028003E310B789A08904314
:109E600082000420834313430B7026002000FFF779
:109E700087FF1222A35E4836BB423EDA23003E3300
:109E80001B781B0739D5210001223E310B78D808F9
:109E900082430820D200834313430B703378032B93
:109EA0003BD80133DBB23370012B00D08DE02300AF
:109EB00000224A331A8030E02000FFF761FF0E22B3
:109EC000A35EC8225B42520000259342B4DD23000A
:109ED0003E331B789B07A2D5AEE72000FFF750FF6B
:109EE0001022A35EC8225B4252009342BDDD2300D4
:109EF0003E331B785B07ACD5B7E72000FFF740FF88
:109F0000C8231221625E5B009A4204DD23003E33C7
:109F10001B781B07B7D5002DC0D13278002A14D08A
:109F20002100270001254A310B883E3701339BB2BF
:109F30000B803878AC46054055D01D2B05D96346BB
:109F40009843002338700B80337020000CF06EFBB8
:109F5000294A0723904244DD2000FFF711FF0E231A
:109F6000E25E264E52420323B2423ADBC82520006D
:109F7000FFF706FF0E23E25EAD0052420423AA4221
:109F80002FDC2000FFF7FCFE1023E25E022352428A
:109F9000B24226DB2000FFF7F3FE1023E25E01232E
:109FA0005242AA421DDC2000FFF7EAFE1223E25EC5
:109FB0000523B24215DB2000FFF7E2FE1223E25E2A
:109FC0000623AA420DDC00230BE0042BA5D12200BE
:109FD0003E321178033B0B43137000234A34238035
:109FE0000B331800F8BD092BAFD9013A0D80327040
:109FF000ABE7C04670FEFFFFFF700200E0FCFFFF12
:10A0000070B5C369C1681A68451D8AB00400EB7F4A
:10A01000114255D0002B58D1EB7F082B0DD90122CE
:10A02000A379134209D11343A371A188130006A891
:10A030000CF060F9FFF798FB2062EB7F012B23D82F
:10A040000123A2791A421FD00025A188A5710222FE
:10A0500002A80CF04FF9A31DDE7F012E14D1FFF7EB
:10A0600083FB2B00226A801A994100900191019B89
:10A07000A188AB4203D1174B009A9A4227D90123FA
:10A08000042206A80CF036F90322A3791340012B11
:10A0900014D1FFF769FB0023226A801A9941994283
:10A0A00002D10D4B984209D90223A279A18813430A
:10A0B000A3710522012306A80CF01CF90AB070BD9B
:10A0C0000B2BA9D80133EB77A6E7013BFBE7330065
:10A0D0000322D6E7E7030000DB05000010B504000B
:10A0E000034B08330360FFF775FB200010BDC0462B
:10A0F00088A10200F0B5070000250E0085B002938C
:10A100000AAB1B7808370393104B04000833036035
:10A110000192858085712900182238000FF090FE89
:10A12000039A310038000FF0CAFA6B466A469B88E2
:10A13000127AA380A31DE671DA77631D25622000E1
:10A14000DD77FFF729FB200005B0F0BD88A10200F4
:10A1500010B50400034B08330360FFF771F82000CB
:10A1600010BDC046F8A102007FB515000F226A4459
:10A1700004001E001170002D16D0002B14DD0123E9
:10A1800001890093C06B00F073FF002802D00748DC
:10A1900004B070BD0090218933002A00E06B00F00C
:10A1A0001DFF0028F4D0F2E70148F1E70EFCFFFFA5
:10A1B00017FCFFFF002330B585B003AC2170018987
:10A1C0000093050001332200C06B00F051FF00280E
:10A1D00002D0094805B030BD2080298900900223B3
:10A1E0002200E86B00F0FAFE0028F2D123786078B4
:10A1F0001B02184300B2EDE70EFCFFFF13B56B46E0
:10A20000DC1D0023220023700133FFF7ADFF00287F
:10A2100001D1207816BD0148FCE7C0460EFCFFFFC7
:10A22000D0B504000CF0DCFAE268A369981A09F0D2
:10A2300017FA06000F002369E069C01A09F010FA46
:10A2400032003B0009F05AFD0022104B08F018FCC8
:10A250000F4A104B08F012F909F08EFA0021041C85
:10A2600006F0BCFD002804D0201C0B4906F0D8FEE7
:10A27000041C201C09F02EFA02000B0000200749E4
:10A2800008F070FE09F0B6F9D0BDC0460080664007
:10A29000EA2E4454FB2109400000B443008076407C
:10A2A000F0B5050085B0006C0CF05DFA061C286C5A
:10A2B0000CF050FA0221071C28000CF0C2FA02210F
:10A2C000039028000CF0CFFA07F032FD0221041CA5
:10A2D00028000CF0DAFA07F02BFD051C301C09F001
:10A2E000CFFC0290301C09F08DFC0190381C09F065
:10A2F000C7FC061C381C09F085FC071C039807F0F6
:10A3000017FD391C07F0FEF9311C071C201C07F053
:10A31000F9F9029907F0F6F9011C381C06F080FEE5
:10A32000311C071C281C07F0EDF9019907F0EAF928
:10A33000011C381C06F074FE0299061C281C07F04C
:10A34000E1F90199051C201C07F0DCF9011C281C0F
:10A3500007F00AFB311C09F0D5FC0D4907F0D2F9D2
:10A3600009F0B8F90B4A0C4B08F088F809F004FA28
:10A370000021041C06F032FD002804D0201C0449F2
:10A3800006F04EFE041C201C07F0B2FC05B0F0BD28
:10A390000000B443EA2E4454FB21194070B500225A
:10A3A000102104000CF00EFA1B4D00282DD10326BD
:10A3B00008212000FFF722FFA84226D0304226D1F4
:10A3C000FA216389890059435023144AD518D0587B
:10A3D000884204D3D518083B18000830F7D1FA2179
:10A3E0002868890006F072FBA022608111212000FC
:10A3F0000CF0E8F9002808D101222B7910211A432A
:10A4000020000CF0DFF9002800D0034870BD642064
:10A41000FEF7A0FFCCE7C0460EFCFFFFA0A10200A4
:10A420007FB50425837904002B4218D102260CF055
:10A43000D7F9A379A188B3432B43A3710622012343
:10A4400068460BF057FFA07903003040AB43A3717F
:10A4500043425841034B4042184004B070BD02488B
:10A46000FBE7C04614FCFFFF15FCFFFF10B5837926
:10A4700004005A070DD49B0701D4FFF7D1FF236CCA
:10A480002000002B02D0FFF70BFF10BDFFF7C8FE26
:10A49000FBE70148F9E7C04615FCFFFF70B5466CC5
:10A4A00086B001AC050001916260A360002E0CD063
:10A4B0000B4905A8FFF79CF90C23220005A93000E1
:10A4C0000CF009FF05A80BF06FFE2B000C3307CC36
:10A4D00007C30223AA791343AB7106B070BDC0460F
:10A4E00042B00200642330B504000281438185B08C
:10A4F0008180FFF753FF0222A379606C9343A3711D
:10A50000002813D00C490CF0ADFE051E0ED0010042
:10A510000C22103101A80FF077FC20000199029A5B
:10A52000039BFFF7BBFF2800FFF776F80123A27912
:10A530001343A37105B030BD42B00200F7B50093DC
:10A5400008AB1B880400019309AB1D8800230F0092
:10A5500016000D4A8380083283710260C360036174
:10A5600043618361C36103621D2124300CF01DF936
:10A57000009BE7632664290020006364019AFFF7CB
:10A58000B1FF2000FEBDC046F8A1020082B0F0B5C8
:10A590000400A5B064202B932A920FF04EF90422F8
:10A5A0000C2109A802F030FC2422CC491BA80FF092
:10A5B0002BFC052206A811000BF0DDFEC84907A8F8
:10A5C000FFF7F0F9A06800F081FBA568C54918A85D
:10A5D000FFF70EF9782218A9280000F0A5FC18A8AA
:10A5E0000BF0E2FD6E256420013D0FF026F9002DF1
:10A5F000F9D1A06800F06AFBA0680CF0E6FA01212E
:10A6000060680CF027F80121070060680CF035F84D
:10A6100006000A200FF011F90022B34B03929F426B
:10A6200010DB013203923A00C8320BDBC82204214E
:10A6300092000391974205DC03220392C82F01DCAC
:10A64000013A039200279E420CDB33000137C833E6
:10A6500008DBC82303379B009E4203DC013FC82E62
:10A6600000DC013F06A80BF07DFE002603237343A8
:10A670001BA9CA189078002805D0C95C5278FF231E
:10A6800006A8FFF723F901360C2EEFD16B463AB23C
:10A690000C21595E06A8FF23FFF718F90023A068D4
:10A6A00000931A00743006A90BF06CFE002304938B
:10A6B0000323049A039853431BAA995C814237D120
:10A6C000D31805935B78BB4232D1059B9E78002E50
:10A6D0002ED1310020680CF0B4F807F029FB3200CD
:10A6E000031C290009A80DF07FF8310020680CF048
:10A6F000BAF807F01DFB0122031C290009A80DF080
:10A7000073F8310020680CF0C0F807F011FB290045
:10A71000031C022209A80DF067F8FE2303229B0503
:10A72000290009A80DF060F80123059AED1893702F
:10A73000049B013304930C2BBAD164200FF07DF8F5
:10A740000B2D00DC5BE709A80DF03AF801220100AF
:10A750000CA802F059FB002509A80DF031F8A84219
:10A760003CDD2900002209A80DF02CF80022061C6F
:10A77000290009A80DF026F8011C301C06F0C2FFC4
:10A780002900061C012209A80DF01CF80122071C53
:10A79000290009A80DF016F8011C381C06F0B2FFBC
:10A7A000311C06F03DFC2900061C022209A80DF010
:10A7B00009F802222900071C09A80DF003F8011C62
:10A7C000381C06F09FFF311C06F02AFC2900031CF0
:10A7D00000220CA80DF008F80135BDE709AA110008
:10A7E000012318A80DF01AF818A90FA80DF073F896
:10A7F00018A80DF00AF80CAA09A912A801230DF057
:10A800000DF8002312AA0FA915A80DF007F80022D1
:10A8100015A811000CF0D6FF0022061C012115A876
:10A820000CF0D0FF0022051C022115A80CF0CAFF75
:10A83000FC21071C8905301C06F064FF07F058FA5C
:10A84000FC21060018908905281C06F05BFF07F024
:10A850004FFAFC21050019908905381C06F052FFBB
:10A8600007F046FA2A00030031001A902068FFF72B
:10A8700015FEA0680CF0A9F907A908A8A5680BF0B7
:10A8800069FD0022194B009208A9019328001300CA
:10A8900000F0BAFA08A80BF050FDFA2080000EF084
:10A8A000CCFFA0680CF091F915A80CF0AEFF12A82F
:10A8B0000CF0ABFF0FA80CF0A8FF0CA80CF0A5FF44
:10A8C00007A80BF03AFD06A80BF037FD09A80CF01D
:10A8D0009CFF25B0F0BC08BC02B018474DB0020088
:10A8E00071B00200B6B00200E0FCFFFFDC05000022
:10A8F000F7B583601D4B05001F6801604260002FA3
:10A9000031D02820FEF768FE040010300BF0E8FC80
:10A91000174B18202360FEF75FFE00220600154B40
:10A9200001920560083200210C3000930FF088FA84
:10A9300008226946301D0FF067FA0F4B0022736141
:10A94000C223A3803B68E260A660226262625B6809
:10A95000210038009847002805D020000BF0DAFBD2
:10A960002000FEF759FE2800FEBDC0460427002047
:10A97000050006008DA50100A3680200F0B50400E3
:10A9800085B0637A9C46002B04D120000BF0B4FF05
:10A9900005B0F0BDA37A266F01931023019AF356F8
:10A9A00000259B1801229A402900F3680392029324
:10A9B000029BAB4231DDB368019A6B439B1872690D
:10A9C0005B00E77AD3181A785878E379012F14D10D
:10A9D0005F1E3F1A10003A005B004343606F82180D
:10A9E000D3189B79634500DD6346627B1A4202D02F
:10A9F0000123AB4019430135DAE7022F05D15F1E71
:10AA0000BA1A277A013F381AE6E7032FE4D1277AEA
:10AA1000013FBF1A02003800DEE71123C943F35695
:10AA2000606C994023691940039B19430EF0E9FFBC
:10AA3000A27B072AACD8637B0C495B006373531C71
:10AA4000DBB290004158A373022A03D808000EF02D
:10AA5000E9FE96E7064B2000236300236363054B62
:10AA6000E462236414300EF06BFD91E710A2020043
:10AA70007DA90100E368020010B50400044B0360E7
:10AA80000EF056FD200005F005FA200010BDC0466E
:10AA900088A6020010B504000E4B08330360FEF7D1
:10AAA00099FE200074300BF048FC200060300BF061
:10AAB00044FC200058300BF077FB200050300BF0A6
:10AAC00073FB2000044B14306361FFF7D5FF2000B7
:10AAD00010BDC04630A20200BCA60200F8B5002599
:10AAE0000400324B858008330360857114301600F2
:10AAF0000F0005F0B9F920002D4BE5626361256474
:10AB00005030FEF7AFFE20005830FEF7ABFE2000BD
:10AB10006030FEF7D5FE20000423F25E336826671E
:10AB2000590009B274300BF026FC3368226FE371D0
:10AB300073680126237210236581A7802561D3568F
:10AB400091685918994204DD30009840013305435B
:10AB5000F8E711230120D356D1685918994206DD30
:10AB600002009A402669013332432261F6E714203D
:10AB7000FEF732FD226900212A430123060005F079
:10AB8000C7FDFF23220063720133A38100234832F3
:10AB90006664A37320001370A366FEF7FDFD012316
:10ABA000A27920001343A371F8BDC04630A2020071
:10ABB000BCA60200F0B5437A85B00400002B04D196
:10ABC00020000BF099FE05B0F0BD0122837A110040
:10ABD0009C461023066F0025F35603926344994068
:10ABE00002912900F3680193019BAB422CDDB3680D
:10ABF00072696B4363445B00E77AD3181A7858781C
:10AC0000E379012F10D15F1E3F1A10003A005B005C
:10AC10004343606F8218D3189B79002B02D0039BAB
:10AC2000AB4019430135DFE7022F05D15F1EBA1A89
:10AC3000277A013F381AEAE7032FE8D1277A013F44
:10AC4000BF1A02003800E2E71123C943F356606CD3
:10AC5000994023691940029B19430EF0D2FE667A8F
:10AC6000B31EDBB2FC2B14D8FEF744FD0B4B0500E2
:10AC7000236300230A4863630A4BFF21E4622364D1
:10AC8000704305F0ADFF29004143200014300EF061
:10AC900057FC637A012B00D995E791E7F968020028
:10ACA000B6030000E36802001FB5012381881A0083
:10ACB00068460BF01FFB012303491A0068460BF09E
:10ACC00019FB05B000BDC046FE0300001FB5030020
:10ACD00048331A780400002A0DD000221A7001238C
:10ACE00081881A0068460BF005FB012304491A000D
:10ACF00068460BF0FFFA200074300BF033FB1FBDE9
:10AD0000FF03000010B548300378002B06D003780D
:10AD1000012B03D0012102480BF072F910BDC0468F
:10AD2000FF03000010B50121040006200BF068F9B4
:10AD3000064B984208D148342378002B04D023785E
:10AD4000012B01D020BFF7E710BDC04616FCFFFF66
:10AD500070B50600141E19DB050048352B78002B52
:10AD600002D02B78012B13D1002330001A0074304D
:10AD7000FEF768FE002C07D033004A331C80002405
:10AD800007234C3634802B70200070BD014CFBE74C
:10AD9000014CF9E717FCFFFF12FCFFFFF8B51700A5
:10ADA0000A68050052880B00012A09D10021180009
:10ADB0000BF089FA002201002800FFF7C9FFF8BD57
:10ADC000002F19DD060048363278002A02D032788A
:10ADD000012A13D12A00002428005C3219001480B3
:10ADE00058300BF04BFA2B004A331F8003234C35AD
:10ADF0002C8020003370E2E70148E0E70148DEE7FD
:10AE000017FCFFFF12FCFFFF73B5079C0500002C29
:10AE10001CDB060048363078002802D03078012844
:10AE200016D106981BB2C0B20090280012B274303E
:10AE30000BF0A8FA002C07D02B004A331C8000240A
:10AE400007234C352C803370200076BD014CFBE786
:10AE5000014CF9E717FCFFFF12FCFFFFF7B50500F7
:10AE60000E00171E26DDFFF74DFF2B0048331C7820
:10AE7000E4B2002C20D133685B88012B09D121007A
:10AE800030000BF020FA220001002800FFF760FFDD
:10AE9000FEBD310001A80BF0E9F93A0001A9280034
:10AEA000FFF77CFF01A80BF07FF92800FFF73AFFBE
:10AEB0002000EDE70148EBE70148E9E717FCFFFF59
:10AEC00011FCFFFFF0B587B00D9C06000F00029249
:10AED0000393002C20DBFFF715FF330048331D7868
:10AEE000EDB2002D1AD1390005A80BF033FA0C9BF6
:10AEF00001940093029A039B05A93000FFF784FF99
:10AF000005A80BF01AFA002C03D03000FFF70AFF57
:10AF10002C00200007B0F0BD014CFAE7014CF8E727
:10AF200017FCFFFF11FCFFFFF8B50400171E1DDD25
:10AF3000060048363378002B02D03378012B17D126
:10AF40002200E3795632013B1370230000252000D4
:10AF500054331D8050300BF091F923004A331F8089
:10AF6000022328004C3425803370F8BD0148FCE7EB
:10AF70000148FAE717FCFFFF12FCFFFFF7B50500D9
:10AF80000F00161E18DDFFF7BDFE2B0048331C789E
:10AF9000E4B2002C12D1390001A80BF067F932009D
:10AFA00001A92800FFF7C0FF01A80BF0FDF8280059
:10AFB000FFF7B8FE2000FEBD0148FCE70148FAE7B4
:10AFC00017FCFFFF11FCFFFFFF2902D84172002090
:10AFD00070470148FCE7C04617FCFFFFF0B51F00B3
:10AFE00085B00AAB1B780400039300933B000D006F
:10AFF00016000EF0CBFA002833D0237D082B2DD875
:10B00000236800221900FC318A62A021C9005A502D
:10B01000154905205A500138C046C046C046C046B2
:10B02000C046C046C046C046C046C046C046C046F0
:10B03000F1D1236801325A50A0210432C9005A507C
:10B0400005F022F8039B3200009329003B0020000A
:10B050000EF09CFA237D01332375CCE7034805B03D
:10B06000F0BD2075FBE7C046FC0F00000EFCFFFFA3
:10B07000F0B51F0085B00AAB1B7804000393009362
:10B080003B000D0016000EF069FA002833D0237D36
:10B09000082B2DD8236800221900FC318A62A021D8
:10B0A000C9005A50154905205A500138C046C046BB
:10B0B000C046C046C046C046C046C046C046C04660
:10B0C000C046C046F1D1236801325A50A021043253
:10B0D000C9005A5004F0D8FF039B320000932900A6
:10B0E0003B0020000EF03AFA237D01332375CCE7B4
:10B0F000034805B0F0BD2075FBE7C046FC0F00001B
:10B100000EFCFFFFF8B50D1E30D000260227C468E4
:10B11000002C28D0AA88A38853403B4204D13A424D
:10B1200004D1AB883B4219D0646AF1E7A968A068F2
:10B130000CF035FB0028F4D02B88002B02D022889D
:10B140009A42F1D16B88002B02D062889A42EBD1EF
:10B15000A288074B01361343A380E5E7A368AA68DA
:10B160009342E1D1E8E72000002E00DC0148F8BD61
:10B170000080FFFF17FCFFFFF0B5060085B00D1E35
:10B1800059D00127C468002C22D00221AA880023AC
:10B190000A4202D0A3885B083B40226829688A42A1
:10B1A00010D1A068A968002B0AD00CF0F8FA00288A
:10B1B00008D0A3881AB2002A06DB204805B0F0BDEB
:10B1C0008842F6D0646ADEE75B045B0CA380F4E798
:10B1D000F0682A88002807D1F560012318496846DD
:10B1E0000BF088F80020E9E7010003001C88944276
:10B1F00006D25C6A1900002C0DD02300F6E723006C
:10B200001C88944207D15F886C88A74203D25C6A8D
:10B210001900002CF3D1814209D10B889A4204D342
:10B2200005D148886B88984201D96962D4E74B6A96
:10B230006B624D62D1E70348C0E7C04616FCFFFFD2
:10B24000FD03000017FCFFFF064B10B51A000400B9
:10B2500008322C33026043600430FDF7F1FF200018
:10B2600010BDC04648A2020008B4024B9C460438F8
:10B2700008BC604749B2010008B4024B9C46043840
:10B2800008BC60470B6D02000C4A002311002C32F1
:10B29000083110B5038183724260C360036143616A
:10B2A0004383016004000430FDF7BCFF044B1A68BF
:10B2B000002A00D11C60200010BDC04648A2020038
:10B2C00004270020F7B50E000125C4680192002C68
:10B2D00036D0238832889A4201D0002B23D163884C
:10B2E00072889A4201D0002B1DD1FDF70FFF012378
:10B2F000002806D0C022A3881340C03B5A425341C5
:10B30000DBB2019A934219D1A7883BB2002B15DB1F
:10B3100010223100A0180EF077FD40231F4204D008
:10B3200020000BF0FBFC646AD1E7FDF7EFFE00287C
:10B33000F6D021000348FEF799F8F4E70025F2E77C
:10B340002800FEBD1D6D020008B4024B9C46043867
:10B3500008BC6047A56E0200F0B587B001930EAB44
:10B360001B88060003930D9B0D000093019B029226
:10B370000C9F002B3DD0002F02D1009BDB0738D55E
:10B380002820FEF729F9040010300AF0A9FF6B46C7
:10B390001B89258063801820FEF71EF90500009B9D
:10B3A00008220593019B002103600C3004970EF0E6
:10B3B00047FD082204A9281D0EF026FD0E4B02228F
:10B3C0006B6100230399E3602362636233680A437D
:10B3D000A560A2805B68210030009847002806D055
:10B3E00020000AF097FE2000FEF716F9034807B088
:10B3F000F0BD0348FBE7C046DF6E020016FCFFFF0E
:10B4000017FCFFFFF0B50400160000258380164AE4
:10B41000164B85710260218146810573186889B0D9
:10B420008C46A8421DD0124A05950492C022029271
:10B430006A4604AB82CB82C223002A006146FFF732
:10B440008BFFC022094B0A49186802926A4606918E
:10B4500006AB079582CB82C223002A003100FFF79A
:10B460007BFF200009B0F0BD8CA202000427002061
:10B470000970020030B5002403730123034D847169
:10B480000560818082734373846030BDA4A2020092
:10B4900070B583790400DB0702D58068FEF7BCF83D
:10B4A000A3799B0702D5A068FEF7B6F8A3795B07DE
:10B4B00007D5A0230021144ADB00D150A068FEF775
:10B4C000ABF8A3791B0708D5A568002D05D0280087
:10B4D0000CF0B1FF2800FEF79FF8A379DB0605D535
:10B4E000A068002802D00368DB6898476023A2792F
:10B4F0001A4205D0A068002802D003685B6898470C
:10B500000023A360A37170BD00700040F7B502274F
:10B51000037B04000D003B4226D0012926D8867902
:10B520003E40009614D1FFF7B3FF1820FEF754F801
:10B530000E230600E3561822009901930EF080FCBA
:10B54000019930000EF0CDF8A379A6603B43A371BA
:10B55000A3685A68002D04D00025DB681A60280013
:10B56000FEBD1B691A60FAE7014DF8E7014DF6E7E9
:10B5700016FCFFFF17FCFFFFF7B50126037B040055
:10B5800033422AD0612385791D4017D1FFF780FF10
:10B590001820FEF721F80E230700E3561822009327
:10B5A000637B290001930EF04BFC019A009938004F
:10B5B0000EF085F8A379A7603343A3716023A279C5
:10B5C000A0681A4202D00DF02FFFFEBD436940680B
:10B5D0001B681840431E9841F7E70148F5E7C0464D
:10B5E00016FCFFFF70B5040000250C4B0E0008335D
:10B5F000858085710360210018300BF0B6FD2000B6
:10B60000210020300BF0D4FD054BA680E58025728B
:10B61000E5602561656120001C6070BDB4A2020078
:10B62000102700208379DB0702D5C1600020704716
:10B630000048FCE716FCFFFF8379DB0701D5C068F3
:10B6400070470148FCE7C04616FCFFFF70B545692E
:10B650000400002D22D0037A032B21D8FFF7ECFF42
:10B66000A8622C20FDF7B8FF2C22002105000EF067
:10B67000E7FB002263695A622369934208D1636938
:10B6800023610020237A65610133237270BD1300AA
:10B690005A6A002AFBD162695A62F2E70148F5E76B
:10B6A0000148F3E717FCFFFF13FCFFFF144B70B5D5
:10B6B0005A68144C002A03D000225A600132A2605A
:10B6C0001A69002A17D0002119618023DB000E4D72
:10B6D000E3582868012B0FD1A923DB00E158494228
:10B6E000FFF7A0FF2868FFF7B1FF2B685A69074BE7
:10B6F000E2500123A36070BDFFF794FFF9E7C04655
:10B70000FC1000400010004010270020040500003D
:10B7100003000069002809D00221054AD167426A66
:10B720001A611A7A013A1A72024B19607047C046C0
:10B7300004E100E000E100E010B5002903DB024B6A
:10B7400019600DF073FF10BD1427002070B50400C0
:10B750001E0004AB1D7804F0CFFB20000E4B4030E0
:10B760002360FEF77FF8230001364C3301352200B9
:10B770001E701D730023E1214E32A36463651380A4
:10B7800053809381D381013B200063644902FFF71A
:10B79000D3FF200070BDC046E8A00200F7B58027A7
:10B7A0007F053D697C690822113C6C43060021003D
:10B7B00068460EF029FB104B009A9A4219D000936C
:10B7C0000023019379693000133969430BF005FDBB
:10B7D000019A009930000BF018FD210030000BF0A9
:10B7E000FCFC7969AB0813396943220030000BF087
:10B7F000FEFC0198FEBDC046FECA0000F0B50D007B
:10B80000A9B00D9200213022060010A80B930EF073
:10B8100017FB28000EF05CFB431C0C93102B00D987
:10B82000B5E00B9B202B00D9B1E0290030000BF0D4
:10B8300019FD071E50D129000C9A10A80EF0E4FA49
:10B840000D990B9A14A80EF0DFFA80235B051A6994
:10B850005F690C92113F7A4330005D690B92FFF7EC
:10B860009DFF3022002104001CA80EF0E9FA2900F7
:10B8700000270C9B1339594330000BF0AEFC0D9799
:10B8800030257D430B9B0833ED18A74242DA29008F
:10B8900030221CA80EF0B8FA10A91CA80EF006FB66
:10B8A000002827D13C49300022000E910F940BF064
:10B8B000ACFC6A46099513AB23CB23C223CB23C22E
:10B8C00023CB23C23000129B1099119A0BF0ABFCD2
:10B8D00001230D930137D3E710300B9A0D990EF029
:10B8E00084FA04003800FDF797FE002CA3D1200055
:10B8F00029B0F0BD6A4609951FAB23CB23C223CBE9
:10B9000023C223CB23C230001C991D9A1E9B0BF02F
:10B910008AFCDFE7E5433023ED1725405D430B9BB1
:10B9200008355D190D9B002B1DD10C9B3021981EF5
:10B9300005F0CCF8A0422CD0174901343000220089
:10B940000E910F940BF061FC6A46099513AB23CB63
:10B9500023C223CB23C223CB23C230001099119AD8
:10B96000129B0BF060FC0B9930000BF036FC80232F
:10B970005B0559690C230C9A133963434A4302331C
:10B98000110030000B9A0BF032FC0024AFE7034C9F
:10B99000ADE7034CABE7C046FECA000017FCFFFF53
:10B9A00013FCFFFF70B50400A280FA2200230800F8
:10B9B0000C49920008312160A3716061E260A360CC
:10B9C000638209490BF04EFC051E09D001002000DE
:10B9D0001031022212300EF017FA2800FDF71CFE7B
:10B9E000200070BDCCA20200C4B0020030B5022518
:10B9F000837987B004002B4204D1FDF713FCA379AF
:10BA00001D43A57120000BF077FC00281CD06B466D
:10BA1000DD1C28000BF067FC2B78002B17D001A849
:10BA20000BF05FFC0321019AD3170B409B189B106E
:10BA30002382FDF799FEE368A18818180123A0600E
:10BA40001A0002A80AF056FC002007B030BD0122FF
:10BA5000064B1A60064A51680029FCD0002151604B
:10BA6000044A1268019201225A60DBE700C00040DC
:10BA7000FCC0004008C50040022802D10122014B51
:10BA80001A707047FE29002070B5064C0500237817
:10BA9000002B04D1044801F03BFB01232370280054
:10BAA00070BDC046FF29002079BA010070B50C00B6
:10BAB0000AF034FA002810D00023144DA40A2B7089
:10BAC00020000BF02DFC002803D00A200DF0B5FE5D
:10BAD000F6E72B78002BFCD070BD02210C4B0D4AF1
:10BAE00099508021C90008005D58002DFCD0A1218B
:10BAF000C9005C5019580029FCD0002199508021C0
:10BB0000C9005A58002AFCD0E6E7C046FE290020AA
:10BB100000E0014004050000F8B50C0015001E000F
:10BB20000AF0FCF9002811D00023174F3B703200B7
:10BB3000290020000BF0F2FB002803D00A200DF0B2
:10BB40007CFEF4E73B78002BFCD0F8BD01210F48C8
:10BB50000F4B844619508021C9005A58002AFCD046
:10BB600080270022FF00964207DD91006858605050
:10BB7000D9590029FCD00132F5E7002261465A501C
:10BB8000DA59002AFCD0E0E7FE2900200405000075
:10BB900000E0014010B50400054B083303601C3081
:10BBA0000AF002FB200018300AF0FEFA200010BD57
:10BBB000E4A20200FF23F0B52C4D8DB02B700023C2
:10BBC000040069460088009303F026FA002802D199
:10BBD0006B469B782B70264E3368DB68002B07D1B1
:10BBE000002320881A0019000BF09EFB0DB0F0BD59
:10BBF0002B78032BF4D81F4901A8FDF7F9FD336812
:10BC000001A9DE6804A80AF031FB04A930000BF09A
:10BC10005CFB0027060004A80AF0C6FABE421ED04C
:10BC200031002022103104A80EF0EEF83000FDF7AC
:10BC3000F3FC297804ABC9005918082202A80EF0B9
:10BC4000E3F820880123082202A90BF06DFB0137DD
:10BC5000002804D12088084A0C210BF063FB01A8BE
:10BC60000AF0A2FA002FBBD0C0E7C046F0210020A6
:10BC700024270020D4B00200FFFF0000F0B5837934
:10BC800091B004005B071BD5FDF76EFD0023226910
:10BC9000801A9941994203D1F423FF3398420FD976
:10BCA000A068002808D0364B1D880CF0E1FB036823
:10BCB00015221B6A290098470422A3799343A37194
:10BCC000A3799B0759D52F4D2B68DB68002B50D0EB
:10BCD0002D4B1B78032B4CD8294B2C491B8804A8CF
:10BCE0000193FDF785FD2B6804A9DE6808A80AF01A
:10BCF000BDFA08A930000BF0E8FA070008A80AF01E
:10BD000053FA02AB9E1D08233200338006A9073B7D
:10BD100001980BF00BFB002F08D0390020221031C6
:10BD200008A80EF071F83800FDF776FC164B328843
:10BD30001B7806A9DE0008AB9E1930000EF055F8FE
:10BD4000002813D0082206A930000EF05DF82B68F9
:10BD500004A9DD6805A80AF089FA202308AA05A924
:10BD600028000BF0B8FA05A80AF01EFA04A80AF099
:10BD70001BFA0222A3799343A37111B0F0BDC04610
:10BD8000A829002024270020F0210020D4B00200A0
:10BD9000F7B5089E0500152922D8012007008F401D
:10BDA000244C27421CD0E97FCC181F2C41DC691899
:10BDB0003418A14210D80021C8B2834204D9545C7F
:10BDC000701884700131F7E732789A183270EA7F80
:10BDD0009B18EB7700202CE00878C8540139E8E77D
:10BDE0003478013CE4B2A34208D10023D9B28C429A
:10BDF000F0D9D05CF11888700133F7E7EF7F0120AC
:10BE0000FF183F1B1F2F14DC0227A01C7F4236188F
:10BE1000381B0190E87F2F18BE4204D23078019F72
:10BE2000F0550136F6E7041B023CEC7728000BF0D6
:10BE3000C7FAFEBDFC002000F0B585B001930AAB47
:10BE40001E880BAB1B78451C02930EAB1B780400BD
:10BE500003930B78170003704B8A10224382013141
:10BE600028000DF0D1FF6B469B88268363836B46C9
:10BE70001B7B002623776B4601221B7A6761E683D2
:10BE8000EB77A31CDA770C9B0C2563622300200060
:10BE90000D9A28331A705E709E702A0031002C3083
:10BEA0000DF0CEFF2000074BE663A3632A003100AC
:10BEB00040300DF0C5FF2000034B2665E36405B05C
:10BEC000F0BDC046437302003573020070B50D002B
:10BED0000CF0CEFA04000368002D09D15B69984785
:10BEE000FA2080006843074904F0F0FDE08070BD4F
:10BEF0009B6898478542F3D2236820009B68984747
:10BF00000500EDE771020000F0B507001600A1B0D2
:10BF100002C704006B4918A81D000BF098FA331EE5
:10BF200003D030000DF0D4FF83B20122049200222E
:10BF300003920292023201920093320018A9380053
:10BF4000FFF77AFF23006049583318A807930BF0D6
:10BF50007EFA2B1E03D028000DF0BAFF83B2012217
:10BF600004920022039202920232019200932A006C
:10BF700018A90798FFF760FF23005449AC3318A8AD
:10BF800008930BF064FA269B002B03D018000DF0E9
:10BF90009FFF83B201220492002203920292023296
:10BFA00001920093269A18A90898FFF745FF631C91
:10BFB000FF33474918A809930BF049FA279B002B38
:10BFC00003D018000DF084FF83B2012204920022F6
:10BFD000601C03920292023201920093279A18A9E0
:10BFE000FF30FFF729FF23005533FF33394918A8E5
:10BFF00009930BF02CFA289B002B03D018000DF0AE
:10C0000067FF83B20122049200220392029202325D
:10C0100001920093289A18A90998FFF70DFF2300B1
:10C02000A933FF332C4918A80A930BF010FA299B67
:10C03000002B03D018000DF04BFF83B201220492B5
:10C04000002218AD03920292023201920093299AC3
:10C0500029000A98FFF7F0FE204B1B780B93002B6A
:10C060002DD1079B12971393089B0DAF1493631C5C
:10C07000FF331593099B1A4916930A9B38001793AF
:10C080000BF0E5F91D2149203B7810222B707B8AAB
:10C0900012AE6B8206ABC918C0180DF0B5FE0623B0
:10C0A0002B756B469B8D2068AB83AE610CF0E4F979
:10C0B000036829001B6898470122084B1A7020006A
:10C0C00021B0F0BD292A0000242A0000252A000002
:10C0D000272A0000262A0000282A0000002A002023
:10C0E0000A18000070B5002504000A4B858008334B
:10C0F00085710360C1601830FDF7B4FB20001C306F
:10C10000FDF7B0FB044BA5601C60012365612000B6
:10C11000A37170BDE4A2020024270020FA2130B5EB
:10C1200085B0050001230222890068460AF0E2F882
:10C13000074C2068002809D00BF0C2F92988054B6C
:10C1400022681980022391790B43937105B030BDA9
:10C1500024270020A829002010B50C0007290DD89D
:10C1600080680CF085F9064B195703685B6C98479B
:10C17000431E9841034B4042184010BD0248FCE763
:10C18000CCB0020016FCFFFF17FCFFFFF0B5A44C7B
:10C190000D00A544040007939AAB1B78A14909A898
:10C1A00004930692FDF724FB200029001C300AF0BE
:10C1B00065F8C020800000F0A1FF0820FDF70CFA10
:10C1C0000600002100F088FE15ADA66000210C22BB
:10C1D0000EA80DF035FE2B000EAA83CA83C3924B26
:10C1E0002900EB60002330002B610CF02AF9A068D5
:10C1F0000CF03EF908220021059016A80DF020FE53
:10C200001420FDF7E9F929000200884B1593C8C9ED
:10C21000C8C2874B059EC3600023A4360361336800
:10C22000002B00D0F5E03060A0680CF025F9082262
:10C230000021060016A80DF003FE1420FDF7CCF92E
:10C240007C4B1593030086CD86C37B4BC3600023D4
:10C250000361336B002B00D0DDE03063A0680CF08D
:10C2600007F908220021050016A80DF0E9FD1420A9
:10C27000FDF7B2F9714B15AE1593030086CE86C358
:10C280006F4B9835C360002303612B68002B00D0EF
:10C29000C3E02860012504AB1B7C04AA2B4308A93A
:10C2A000280013740BF044F8A0680CF0E9F8036858
:10C2B00064495B6A9847A0680CF0E2F80368624939
:10C2C0009B699847A0680CF0DBF800230268009394
:10C2D000166804992A00B047049B002B0AD020005E
:10C2E0000BF0F7F8032805DDA0680CF0C9F8036827
:10C2F000DB6898470EA80BF05AF82F2004ABC01843
:10C300000BF055F8362004ABC0180BF050F83D2068
:10C31000042504ABC0180BF04AF80EAB0A93A068D2
:10C3200004AB5D770CF0ACF803680AA91B69984769
:10C33000A0680CF09DF803680AA95B6D9847A06897
:10C340000CF096F803680021DB6D9847A0680CF0AC
:10C350008FF8036802219B6D984700212000FFF7AA
:10C36000FBFE1820FDF738F9A16800F005FA374BFD
:10C37000374A1B68A1680393364B15A81B68002633
:10C380000293354B0CAF1B680193069B1B685B192E
:10C390000093324B12681B68FFF7B6FD3020FDF7A3
:10C3A0001BF9079AA16800F0A7FAA0680CF060F8E2
:10C3B000036839009B6A9847294BBE80A0680C939C
:10C3C0000CF056F803683900DB6A98472900A0682A
:10C3D0000BF049F8099A09219378A06852190BF0DB
:10C3E00055F8A0680CF044F8C8210671A068FFF762
:10C3F0006DFD04AB1B7FB34204D0A0680CF038F88D
:10C400000BF01BF809A809F0CFFE95239B009D4473
:10C41000F0BD036107E703611FE7036139E7C04629
:10C42000ACFDFFFFC7B10200517302001DC1010046
:10C430005F730200B5BB01006D7302009B730200C5
:10C440007B73020065C4010099C40100202700200D
:10C450001C27002008200020182700200C20002086
:10C460000800100013B506226846FDF7D1F9094B04
:10C470001C68002C0AD0694601A809F0F7FE2000CC
:10C4800001A90BF047F801A809F08EFE684609F0F3
:10C490008BFE13BD24270020002373B501AE0C00D2
:10C4A00031000500019302F0B7FD002802D1B278F7
:10C4B000064B1A70064B1868002806D0614261418D
:10C4C000044BC9B21D800BF02DF873BDF021002084
:10C4D00024270020A8290020F0B5040097B003917C
:10C4E00007A89C490592FDF783F99B4908A8FDF729
:10C4F0007FF922000FAD28001C3207A909F0CDFEFC
:10C5000008AA290009A809F0C8FE280009F04CFE75
:10C5100092490AA8FDF76CF9A0680BF0A9FF03681F
:10C520000DAE5B69984728000AF041FF332004AB49
:10C53000C0180AF03CFF3A2004ABC0180AF037FFDD
:10C54000412004ABC0180AF032FF8023DB00B38027
:10C55000A0680D950BF08CFF036831005B6D984768
:10C56000A0680BF085FF036800219B6D9847A068C9
:10C570000BF07EFF0700002506000A371F2200216E
:10C5800038000DF05DFCFD7730000AF04DFF06210C
:10C59000A0680AF068FF099A09219378A06804321C
:10C5A0000AF074FFA0680BF063FFC8210571A06852
:10C5B000FFF78CFCA0680BF05BFFFF272E000581C6
:10C5C000A0680BF055FF0AF038FF0398FEF77EFBDA
:10C5D0000AA90CA809F04AFE78220CA90398FEF7D4
:10C5E000CDFC0CA809F0E0FD039920000AF0ADFF96
:10C5F0002000FCF717FE0495012563691D402DD02E
:10C6000057490BA8FDF7CEF90BA90CA809F0A2FE1B
:10C6100000220CA91300019200920398FEF752FC2D
:10C620000CA809F08AFE049B002B42D1043F282F5E
:10C6300041DD0025FE2F00DC049D05980AF0A8F8D6
:10C64000002806D0012362699A4313000422134391
:10C65000636100260BA809F070FE0495042263694B
:10C66000134233D0FF210398C826FEF7ADFC002506
:10C67000B600A36902229B5EAB4222DD200029B2F4
:10C68000183009F020FE0023010003981A007430CE
:10C69000FDF7D8F93000FCF75DFE03980AF095FA33
:10C6A000C820FCF757FE02226369134209D1013505
:10C6B000DFE70437BBE703980AF087FA002FBCDDF9
:10C6C000BAE7FA208000FCF745FE002602236569E0
:10C6D0001D421CD006331D4024D022490BA8FDF773
:10C6E00061F90BA90CA809F035FE00220CA90192F2
:10C6F000009213000398FEF7E5FB0CA809F01DFE5D
:10C700001948FCF727FE0BA809F017FE174E642006
:10C71000FCF720FE164B01369E4200DC6CE709F068
:10C720000FFC69E713490BA8FDF73CF90BA90CA80E
:10C7300009F010FE2B002A000CA901950095039822
:10C74000FEF7C0FB0CA809F0F8FD0BA809F0F5FDF9
:10C75000DDE7C046E0B00200F0B00200F2B0020037
:10C7600000B1020045B10200983A00008C0A0000B6
:10C770008B0A000082B102000022594BF0B5083349
:10C78000060003600F001000A9B0B1600BAB991850
:10C7900001324870102AFAD10F3A524C1A700E32F8
:10C7A000105D991A0874013AFAD2997B5A7B0902F2
:10C7B0000A4331000C31039125211B7813AD2B70F6
:10C7C00002ABC918452302A81B186A821800102260
:10C7D0000DF01AFB039B64216B610123002402AA64
:10C7E0002B7752181993093313701DAB1C706D23EE
:10C7F00002AA9B181C706E2321009B181EA80C22F5
:10C80000EC836C621C700DF01BFB374B0C2221007B
:10C8100023A8AB63EC630DF013FB344B02AAEB646B
:10C8200046239B180322DA7722002C650595347382
:10C8300006AD2B1901345A70102CFAD101232C4863
:10C840002B700E33195CEA1A1174013BFAD21121D4
:10C850002520AA7B6B7B12020BAC13432A786382E0
:10C8600002ABC9182270C01810220DF0CDFA0123B6
:10C87000237505ABA36100233800A3830BF0FCFDF7
:10C88000036821001B68984713ABDB8BB068B38249
:10C890000BF0F2FD002203680092B18A039ADC6873
:10C8A0000123A047B0680BF0E7FD07001420FCF758
:10C8B00093FE0022012304000261069240C0083268
:10C8C000290007930DF0A0FA0A4BE360BB69002B27
:10C8D00003D13000BC6129B0F0BD2361F9E7C04647
:10C8E000FCA20200DFB102004373020035730200B4
:10C8F000EFB10200AB750200F0B500260400734BE7
:10C90000DDB0083303608160C260868086713200CA
:10C910006F4947A80AF0E9FE2300143301250427D4
:10C9200008931223009704950193089A330047A9AE
:10C93000039602961DA8FFF77FFA3200654947A8C3
:10C940000AF0D3FE082022000097330015AF103202
:10C950000495019047A90396029632A8FFF76CFA56
:10C9600032005D4938000AF0C0FE2300082004228E
:10C970001C3309933900330004950190009203960B
:10C98000099A029647A8FFF757FA32005349380030
:10C990000AF0ABFE5420FCF71FFE05002000012327
:10C9A000122104221830079004930191009239005B
:10C9B00002003300280003960296FFF73DFA280094
:10C9C000474BA5620822EC620AA930300A930B9605
:10C9D0000DF01AFA434B0422AB63012329352B7067
:10C9E00009992661E66107980DF00EFA042207996D
:10C9F00008980DF009FA6621032304AA8918CB7759
:10CA0000BA2104AA8918CB77872104AA490089187A
:10CA1000A26ACB77911CA685CB771DAB0C9332AB6A
:10CA20000D930F9247AB32002F4910A80E930AF0D6
:10CA30005CFE3021452004AB5B181B7812313B7043
:10CA400004AB5B181B8811397B8204ABC918C01872
:10CA500010220DF0D9F904220CADA0683A75BD6121
:10CA6000BE830BF009FD036839001B6898478222DA
:10CA700004AB9B181B885432238404AB9B181B887F
:10CA80005432A38404AB9B181B88A06863840BF00A
:10CA9000F3FC07001420FCF79FFD0500134B066113
:10CAA00008221093119610A910C00DF0ADF9104B8B
:10CAB000EB60BB69B34206D1BD612000FCF7B2FB5D
:10CAC00020005DB0F0BD2B61F6E7C04608A3020070
:10CAD0001FB20200FFB102000FB202002FB202002B
:10CAE000BD760200297602003FB202005DCB010054
:10CAF00053760200F0B504000E00150085B01F004B
:10CB00000CAB1B881030019309F0EAFB268065808E
:10CB10001820FCF761FD02AE050033000AAA03CA23
:10CB200003C32F602800082700213A000C300DF0C5
:10CB300087F93A003100281D0DF066F9064B0222F4
:10CB40006B61200000230199A5600A43E360A28085
:10CB50002362636205B0F0BD7D760200F0B50B89FB
:10CB60008DB00593CB68060004934B88828C9A4263
:10CB70000ED1049C049B059A9B181B1B032B3BDDC9
:10CB800062882188012308A809F0B4FB0434F1E786
:10CB9000428C9A4230D1049C049B059A9B181B1B23
:10CBA000032B29DD2388282006936388F7680793E1
:10CBB000124B089300230993FCF70EFDC0236A462D
:10CBC0000500029308AB03CB03C233000699079A12
:10CBD0002800FFF78FFF3B6829005B683800984703
:10CBE000002807D0002D05D0280009F093FA28006E
:10CBF000FCF712FD0434CFE70DB0F0BD3B77020027
:10CC000070B5040090B080680AF092FD02210140E6
:10CC10001AD1A38D002B17D00C4B6A460493102316
:10CC2000E568A1850591029304AB41CB41C20A009E
:10CC3000230006A8FFF75EFF2B6806A99B68280063
:10CC4000984706A809F066FA10B070BD3B7702005D
:10CC5000002815D0006041608260C36004614561B6
:10CC60008661C761444604624C464462544684620D
:10CC70005C46C462644604636E46466374468463DD
:10CC8000002A06D0C46B043C043A25681560B442FF
:10CC9000F9D18C6BA6464E6BB546002B06D0CC6BFB
:10CCA000043C043B1D682560B442F9D10C6BA446DA
:10CCB000CC6AA3468C6AA2464C6AA1460C6AA0467E
:10CCC000CF698E694D690C69CB688A6808684968C4
:10CCD0007047006041608260C360046145618661A5
:10CCE000C761444604624C464462544684625C46D2
:10CCF000C462644604636E46466374468463C46BD0
:10CD0000043C043925680D60B442F9D1C7698669CD
:10CD1000456904697047006041608260C3600461D6
:10CD200045618661C761444604624C46446254468C
:10CD300084625C46C462644604636C464463744621
:10CD4000846304697047846BA646446BA546046BF4
:10CD5000A446C46AA346846AA246446AA146046AF9
:10CD6000A046C769866945690469C3688268006826
:10CD70004168704710B5041E0CD00DF0A9F8431E91
:10CD8000E3189C4208D222781978013B21705A702E
:10CD90000134F6E7014810BD0020FCE717FCFFFF57
:10CDA000F0B585B002900C1E2AD00023C217161AC7
:10CDB00056400193019B30005D1C63190A215F1EE0
:10CDC000039303F0F3FF49423031397030000A21F8
:10CDD00003F006FF47420600002F0FD1029B002BF5
:10CDE00004DA2D23019D039A0235137000232000DD
:10CDF0006355FFF7BFFF380005B0F0BD0195D9E7D7
:10CE0000004FF8E717FCFFFF10B582604A430400AB
:10CE10004160002A0ADD074B90009A4201DD0120A3
:10CE20004042FCF7D9FB2060200010BD00230360C6
:10CE3000FAE7C046FEFFFF1F4A688B6870B5836043
:10CE4000534304000D004260002B12DD0A4A9E008D
:10CE50003000934201DD01204042FCF7BDFB00237E
:10CE600020602A68D158C15004339E42FAD1200074
:10CE700070BD00230360FAE7FEFFFF1F70B50028B6
:10CE800017D1114D2E68002E11D108300CF0CEFDB7
:10CE9000066046600D4E04003368002B02D10BF093
:10CEA000D6FE306023682C609B00F35863602868CE
:10CEB00070BD0122064907480B681340F8D1026093
:10CEC00043600A60F4E7C0462C2700203827002082
:10CED0002827002030270020002370B504000160BF
:10CEE000436099420AD1064D2B68002B02D10BF00A
:10CEF000AEFE286023689B00EB586360200070BD85
:10CF000038270020436810B50400002B02D10448E4
:10CF10000CF09AFC606803681B69984710BDC04616
:10CF20004FB20200436810B50400002B02D1044840
:10CF30000CF08AFC606803689B69984710BDC04686
:10CF40004FB20200436810B50400002B02D1044820
:10CF50000CF07AFC606803685B6A984710BDC046B5
:10CF60004FB2020010B5040002F028FC034B1B680E
:10CF7000002B01D02000984710BDC046402700205C
:10CF8000F0B58BB0050001F087FE002000F0ACFE8C
:10CF9000036807001B6998473B6804009B693800D9
:10CFA00098473B6806005B6A38009847030028886A
:10CFB00010380B2862D803F07FFD063E6161615B8B
:10CFC000616161676179AF88200039000BF006FC70
:10CFD00022006B7B583201931378A8799C46022378
:10CFE00061460B43137004AB1F80012304AA9370A6
:10CFF000D07013006A461279E91D9A722B0006223E
:10D00000163305A809930CF0FFFE29000B2004AB92
:10D0100006220E31C0180CF0F7FE94346368A3604A
:10D02000A06800282AD0C36804A99847A368002BE9
:10D03000F4D01B69F3E720002F49AF880BF0CEFB3B
:10D040002200022058321378A9798343137004AB6D
:10D050001F809970A0346368A360A06800280DD079
:10D06000C36804A99847A368002BF4D01B69F3E7B1
:10D070005B69A888A91D002B00D0984729003000C3
:10D080000BF03BFF0BB0F0BD636E002BF6D0AF7919
:10D09000A366A06E0028F1D0C36839009847A36E3C
:10D0A000002B01D1636EF3E71B69F1E701226946AA
:10D0B0000D27AB7BEF571A4001925A07920FDB08FE
:10D0C0000A720B730622E91D04A80CF09DFE6A4645
:10D0D000127904ABDA716A46127A9F711A726A4643
:10D0E000127B20005A722B000F3307938C34803050
:10D0F000236804A99847C1E7FFFF00000723D7284A
:10D1000002D9024B18600023180070473C2700200A
:10D11000014B18607047C046402700201FB5802291
:10D12000A323D205DB00D3580820DB0700D4053049
:10D130001C4B48221C4902F011FE00280AD080B284
:10D14000002807D1BFF34F8F184B194ADA60BFF39D
:10D150004F8FFEE7002302A8029301330370154BA3
:10D160001B6843600BF094F9002802D0072005B03B
:10D1700000BD68460BF08AF90028F7D169460BF02C
:10D1800083F90028F2D10C4802F018FE80B2002882
:10D19000EDD10A4802F01CFE80B20028E7D100F071
:10D1A0001FF8E4E7958402004427002000ED00E02A
:10D1B0000400FA053C27002081CF010065CF010063
:10D1C00080B2002807D1BFF34F8F034B034ADA60C8
:10D1D000BFF34F8FFEE7704700ED00E00400FA0553
:10D1E0001FB5002302ACA380104B01A80293C823F3
:10D1F0005B00E380803BFF3B037005220C490BF092
:10D2000055F980B200280FD1802080000BF04AF938
:10D2100080B2002808D120000BF046F980B2002827
:10D2200002D10BF03DF980B204B010BD280090018E
:10D2300072B20200024B0B60092313607047C046B4
:10D2400078B2020010B50400002000F04DFD036824
:10D250001B6998470300F3331C7086235B00C050A2
:10D2600003000021044AFC335A61044A99615A625E
:10D27000F4300CF065F910BD99860200AB8602000F
:10D28000012110B5044A080002F0A6FC00239842D0
:10D2900000D00B33180010BD45D20100F8B50500D1
:10D2A0000400AC356B68AB60A868002807D0C36881
:10D2B00021009847AB68002BF4D01B69F3E72600E8
:10D2C000B0363568002D05D02F6928000CF0AAFB78
:10D2D0003D00F7E72200FC21356058321378260024
:10D2E0000B40137023000A365C331D701F22290087
:10D2F00030000CF0A5FDF5772A361F2229003000FA
:10D300000CF09EFDF577606E002804D005690CF0E6
:10D3100089FB2800F8E72500983560662868002812
:10D3200004D006690CF07EFB3000F8E72600A43636
:10D3300028603568002D05D02F6928000CF072FB9D
:10D340003D00F7E72000356029000C226C300CF01E
:10D3500077FD2000074BE567A36729000C2280308A
:10D360000CF06EFD2300044A8C33903428001A60C0
:10D370002560F8BD8B8602007D860200F0B593B073
:10D38000019000200C0000F0AFFC03685B6A984736
:10D3900000F082F906AB00280ED000221A7105AA0F
:10D3A0000692082218001A730AAA9A6000F042FA3C
:10D3B000002803D013B0F0BD18711873002727732D
:10D3C0002771019BBA331B78BB4242D907237B43A9
:10D3D0001A000199BB32CB18BB331B788A18029212
:10D3E000022B2ED1002506AE337BAB4223D9AB00F6
:10D3F0000393089BAA00995802980BF0F9F90028AA
:10D400001CD0B3689C46AB001900237B6144029397
:10D410009A000868A368D050029B01332373337BC2
:10D420005A1E954205D00C481B1860469B001B589D
:10D430000B6006AB1A730137FFB2C2E70135EDB2DC
:10D44000D1E72379216802989A0001335050237163
:10D45000F1E70020AEE7C046FFFFFF3FF0B50A78D6
:10D4600004009BB00D000220012A08D04B88032A3B
:10D4700007D1A03B21499BB210008B4207D91BB0BA
:10D48000F0BD203B1E4A9BB203209342F7D81D4BB0
:10D49000AA8803209A42F2D80AAB009312AB0293F7
:10D4A0006A460023260013711373B8363378002BB5
:10D4B0001DD104AF1822002138000CF0C1FC2B78DC
:10D4C00038003B7033783B726B46FB606B883B8265
:10D4D000AB887B820AF0F6FF02000320002ACED13F
:10D4E00001235834217810000B432370C7E76946A5
:10D4F0002000FFF743FF0028DBD0C0E7603F0000BB
:10D50000E03F0000FF3F0000F0B59DB01E006B46FD
:10D5100004001A70581C0622229D0CF075FC002E87
:10D520002ED0328802AB1A8072885A80B2889A80D4
:10D53000F288DA800CAB04AE049314ABB36027001E
:10D540000023B937337133733B78002B1ED101228E
:10D550003B78022708A9134058000B784E60BB4364
:10D560000343002D1AD1200032300078934310403D
:10D5700003430B70A38D0B81E38D4B81238E17E04A
:10D580001A4B029396239B040393D3E731002000A8
:10D59000FFF7F4FE0028DAD01DB0F0BDA879934360
:10D5A000104003430B702B880B816B884B81AB8839
:10D5B00002AA68468B810AF09BFF03000020834289
:10D5C000EAD00630082BE7D006D80130042BE3D090
:10D5D000834209D10420DFE70520112BDCD0044A67
:10D5E0009342F7D0102BF5D00B20D5E73200640022
:10D5F0000232000070B500200D0000F075FB0368DA
:10D600005B6A98472B780400142B1ED003D8132B89
:10D610000CD0002070BD152B1FD0222BF9D16B68C8
:10D6200018882369002BF4D09847F2E76B6801252E
:10D6300018889B78646819005A08DB0629402A403C
:10D640005B0F002CE5D0A047E3E76B68188899785A
:10D65000A368002BDDD09847DBE768688278130960
:10D660001207120F012A03D0022A0BD0002106E074
:10D67000013BDBB20021022B01D8064AD15C0088B5
:10D68000E368E6E70421012BF9D00131022BF6D043
:10D69000ECE7C04681B20200014B18787047C046E3
:10D6A000012A0020F0B51D000023304F87B0009202
:10D6B0003A7806000C009A4204D102F0B3F8002830
:10D6C00003D00B23180007B0F0BD002D0ED003A926
:10D6D000222003950BF08AF8002807D0062308289B
:10D6E000F0D01138434243410433EBE7002302AA50
:10D6F0001000137001F08AF80028E2D101251C49BE
:10D7000002220B782E40AB43334307269343019309
:10D71000009B2C4033409340AC409C46019B02AAA6
:10D720001C431C239C4363461C430E239B181880F8
:10D73000104B0C700393022303AC2371093002AB2E
:10D740000522C0180CF060FB21000B4801F0C8F85E
:10D75000002807D033000428B4D0013B0828B1D0FA
:10D760000533AFE73D700300ACE7C046012A002057
:10D77000F1210020F5D50100022A002010B507484C
:10D7800001F086F90023984206D00733042803D01D
:10D79000013B082800D00533180010BD022A0020E4
:10D7A000002373B501930F4B01AD1B780E002900C8
:10D7B0002B7001F031FC041E05D00423052800D095
:10D7C0000733180076BD3100280001F0C3F82300AC
:10D7D0000028F6D007230428F3D0013B0828F0D016
:10D7E0000533EEE7022A002073B5114C0E00050048
:10D7F0000522210068460CF007FB012E03D0022E03
:10D8000010D002230CE002222378B34393436946ED
:10D81000280023700AF0E8FF0023984200D00B3361
:10D82000180076BD012322781343B343EFE7C046C7
:10D83000F1210020094B10B51A7801000923002AB4
:10D8400009D0074801F0BEF80023984203D0033303
:10D850000E2800D00333180010BDC046012A002056
:10D86000022A002000487047FFFF0000F0B597B083
:10D870000593036807AD1B680491039311002B0007
:10D88000060091C991C30024D36821000C220CA882
:10D89000EB602C610CF0D4FA22000B4B10940F9328
:10D8A00011AB1C70191901344A70102CFAD15A822C
:10D8B0000193059B2A00009304990CAB3000039C54
:10D8C000A04717B0F0BDC0460789020070B5FC3014
:10D8D000046C0500002C0DD124200CF0A7F8064B99
:10D8E00044608361054B8460C46004614461C46129
:10D8F00003602864286C70BD80A4020068A5020043
:10D9000070B5FC30C56B0400002D11D134200CF033
:10D910008DF8084B85604360074B45610361074BF9
:10D920000562C361064BC5628362064BE063036018
:10D93000E06B70BDB0A40200A0A4020010A502001C
:10D9400020A5020030A502007FB503791548002B01
:10D9500022D0154E154C33782000002B1CD102AD7F
:10D9600028000AF0BBFF002810D16B88592B0DD17D
:10D970002B78AA88D91F012910D800920C4A20219F
:10D98000200007F059FC0123337004E020220949EC
:10D9900020000CF0A4FA200004B070BD0092064AEA
:10D9A000EDE7C04684B20200232A0020032A0020AB
:10D9B000A6B202009EB20200C3B2020010B504007B
:10D9C000024B08C00BF05CF8200010BDA0A40200C0
:10D9D00010B50400024B08C00BF067F8200010BD22
:10D9E000B0A40200064B70B5040003604068002834
:10D9F00004D005690CF016F82800F8E7200070BD87
:10DA000090A40200064B70B5040003604068002833
:10DA100004D005690CF006F82800F8E7200070BD76
:10DA2000C0A40200064B70B50400036040680028E3
:10DA300004D005690BF0F6FF2800F8E7200070BD60
:10DA4000D0A40200064B70B50400036040680028B3
:10DA500004D005690BF0E6FF2800F8E7200070BD50
:10DA600010A50200064B70B5040003604068002852
:10DA700004D005690BF0D6FF2800F8E7200070BD40
:10DA800020A50200064B70B5040003604068002822
:10DA900004D005690BF0C6FF2800F8E7200070BD30
:10DAA000B4A30200064B70B5040003604068002870
:10DAB00004D005690BF0B6FF2800F8E7200070BD20
:10DAC000C4A30200064B70B5040003604068002840
:10DAD00004D005690BF0A6FF2800F8E7200070BD10
